:100000000C94CD220C940D230C940D230C940D23F1
:100010000C940D230C940D230C940D230C940D23A0
:100020000C940D230C940D230C940D230C940D2390
:100030000C940D230C940D230C940D230C940D2380
:100040000C940D230C94D49C0C940D230C940D2330
:100050000C940D230C942A920C940D230C94217E65
:100060000C940D230C9454420C944A420C940D238E
:100070000C940D230C940D230C940D230C940D2340
:100080000C94E1360C940D230C940D230C940D2349
:100090000C940D230C940D230C940D230C940D2320
:1000A0000C940D230C940D230C94B3360C940D2357
:1000B0000C940D230C940D230C940D230C940D2300
:1000C0000C940D230C940D230C940D230C94EC37FD
:1000D0000C94B6370C940D230C940D230C940D2323
:1000E0000C940D23084AD73B3BCE016E84BCBFFD68
:1000F000C12F3D6C74319ABD56833DDA3D00C77FF8
:1001000011BED9E4BB4C3E916BAAAABE0000008090
:100110003F05A84CCDB2D44EB93836A9020C50B91F
:10012000918688083CA6AAAA2ABE000000803F004B
:100130000C94D0320C9420340D94DB340C9427743E
:100140000C941DE00D94C4340D94EA310C941E34CB
:100150000D94A12F0C94FD320C9415740D94CC3099
:100160000D94692F0C94FD7C0C94ED320C94E87383
:100170000C9411E00D9428320C9493DD0C9417E04C
:100180000D94BC340C94DE330D94E1310C9486DE76
:100190000C940C330C94EC730C94B1320C94E17B02
:1001A0000D94642F0C94F0730D94552F0D943A31E7
:1001B0000D94AE460C940F740D946E2F0C94023374
:1001C0000C945DDE0C94D2330D945A2F0D9490460E
:1001D0000D94732F0D94CF310C94C2320D940632CE
:1001E0000C9407330C94F7730D94AB300C942234B9
:1001F0000C94FD730D9425320C94397B0D942A30A8
:100200000C94F4730C941D330D94F3310C94257CF1
:100210000D942B320D9461310C940B740D946C3150
:100220000C941AE00C9468340D940A320C94077400
:100230000D94D8310D94AD340C9469DD0C94B074E8
:100240000C94F1320C946A340C9414E00C94FE3348
:100250000D9482310C9442340D9417320C94407CEE
:100260000C94F5320C9433750C94C9DE0C9420E098
:100270000D9489340D9481340C94207D0C94237456
:100280000C9446340C941D740D940C320C94197417
:100290000D9450310C94E2730C9424330C94D07C64
:1002A0000C941C7B0C94B8DE0C9466340C94E232F3
:1002B0000C9401740C94BE7C0C9414330C949ADD51
:1002C0000D94F02E0C9432750D9477310C942274A9
:1002D0000C94F9320D9479300D9422320C94FC3345
:1002E0000C94E9320D94FC310D94C4310C944434D7
:1002F0000D945F2F0C9496DD0C94987B0D94CC3468
:100300004E414E494E495459494E46CDCCCC3D0AFA
:10031000D7233C17B7D13877CC2B329595E6241FDD
:10032000B14F0A000020410000C84200401C462096
:10033000BCBE4CCA1B0E5AAEC59D7400407A10F369
:100340005A00A0724E18090010A5D4E80000E87603
:1003500048170000E40B54020000CA9A3B0000005A
:10036000E1F505000080969800000040420F000073
:1003700000A08601000000102700000000E8030034
:100380000000006400000000000A000000000001FE
:1003900000000000002C76D888DC674F0823DFC1FE
:1003A000DFAE59E1B1B796E5E3E453C63AE65199B9
:1003B0007696E8E6C28426EB898C9B62ED407C6FE2
:1003C000FCEFBC9C9F40F2BAA56FA5F490055A2A99
:1003D000F75C936B6CF9676DC11BFCE0E40D47FEA5
:1003E000F520E6B500D0ED902E030094357705009A
:1003F00080841E080000204E0A000000C80C333321
:1004000033330F986E12831141EF8D2114893BE62F
:100410005516CFFEE6DB18D1844B381BF77C1D90B8
:100420001DA4BBE424203284725E228100C9F12421
:10043000ECA1E53D27434F4D4D554E4943415449AD
:100440004F4E0044525952554E004552524F52534E
:1004500000494E464F004543484F004572726F7247
:100460002077726974696E6720746F204545505219
:100470004F4D210A0053544F505045442E200050F8
:1004800072696E7465722073746F70706564206435
:10049000756520746F206572726F72732E204669C5
:1004A0007820746865206572726F7220616E6420B6
:1004B000757365204D39393920746F2072657374F6
:1004C0006172742E202854656D7065726174757246
:1004D000652069732072657365742E2053657420DE
:1004E00069742061667465722072657374617274D8
:1004F000696E67290A004E6F20436865636B7375E8
:100500006D2077697468206C696E65206E756D6208
:1005100065722C204C617374204C696E653A200022
:100520004E6F20436865636B73756D2077697468DF
:10053000206C696E65206E756D6265722C204C6151
:100540007374204C696E653A2000636865636B7351
:10055000756D206D69736D617463682C204C6173D7
:1005600074204C696E653A20004C696E65204E75AA
:100570006D626572206973206E6F74204C617374B4
:10058000204C696E65204E756D6265722B312C2092
:100590004C617374204C696E653A20004D313130E6
:1005A0000053657269616C20737461747573206D9A
:1005B00069736D617463680A00776169740A005336
:1005C000442072656164206572726F720A00746FF4
:1005D0006F206D75636820696E616374697665204C
:1005E00074696D65202D2063757272656E74206369
:1005F0006F6D6D616E643A20002121204B494C4C97
:10060000206361757365642062792000486F7465AA
:100610006E642049646C652054696D656F75740063
:10062000486F74656E642049646C652054696D651B
:100630006F75740A007061757365004D3630300057
:100640002066696C616D656E745F72756E6F75742E
:10065000200066696C616D656E745F72756E6F7592
:100660007420540046696C616D656E7452756E6FCE
:1006700075742054004D31303030530062757379F9
:100680003A2070617573656420666F7220696E70C0
:1006900075740A00627573793A20706175736564C8
:1006A00020666F7220757365720A00627573793AFD
:1006B0002070726F63657373696E670A0025533A21
:1006C000202553002A2A2A6B696C6C2A2A2A00707A
:1006D0006F7765726F6666004B494C4C45442E201F
:1006E000005072696E7465722068616C7465642E66
:1006F000206B696C6C28292063616C6C6564210A2D
:10070000006563686F3A004572726F723A00576114
:10071000726E696E673A0042696C696E656172203B
:100720004C6576656C696E6720477269643A0A00A9
:100730006E6F74696669636174696F6E20006E6FB5
:1007400074696669636174696F6E200062656769C8
:100750006E00656E640073686F7700627574746F05
:100760006E00486F74656E6420746F6F20636F6CE9
:10077000640A0053656E64204D31303820746F2058
:10078000726573756D650A00496E736572742066D3
:10079000696C616D656E7420616E642073656E6452
:1007A000204D3130380A0052656865617420446F0D
:1007B0006E6500526568656174696E672E2E2E0045
:1007C000526568656174004865617465722054699A
:1007D0006D656F75740053656E64204D313038203F
:1007E000746F2068656174206E6F7A7A6C650A0098
:1007F0004E6F7A7A6C65205061726B65640070612F
:100800007573656400486561642063616E6E6F7422
:10081000206265207061726B65640050617573655C
:10082000004D323453004D323320004739322E39D7
:100830004500473146004731463630305A0047318F
:10084000463330303058004D31303650004D313065
:100850003953004D32303044004739322E395A0076
:100860004D343230530047323852305859004731F6
:10087000463630305A004739322E395A004739321D
:100880002E394530004D31303953004D3139305318
:10089000004D3432305330004732362048656174A1
:1008A000696E67204E6F7A7A6C6500473236204851
:1008B000656174696E672042656400576169746997
:1008C0006E6720666F72206865617475702E0A000D
:1008D0004669786564204C656E677468205072695B
:1008E0006D65004C656176696E6720473236003F62
:1008F00053706563696669656420582C5920636F7D
:100900006F7264696E617465206F7574206F662004
:10091000626F756E64732E0A003F285229657065F8
:1009200061742076616C7565206E6F7420706C61E7
:10093000757369626C653B206D7573742062652008
:100940006174206C6561737420312E0A003F285257
:10095000296570656174206D7573742062652073FC
:100960007065636966696564207768656E206E6F7F
:1009700074207573696E6720616E204C43442E0AA3
:10098000003F537065636966696564206E6F7A7AAB
:100990006C652074656D7065726174757265206E2A
:1009A0006F7420706C61757369626C652E0A003F0C
:1009B0005370656369666965642066696C616D651D
:1009C0006E742073697A65206E6F7420706C617527
:1009D0007369626C652E0A003F53706563696669CE
:1009E0006564207072696D65206C656E677468203F
:1009F0006E6F7420706C61757369626C652E0A008D
:100A00003F5072696D65206C656E677468206D7506
:100A1000737420626520737065636966696564201C
:100A20007768656E206E6F74207573696E672061DC
:100A30006E204C43442E0A003F537065636966691B
:100A40006564206E6F7A7A6C652073697A65206EB2
:100A50006F7420706C61757369626C652E0A003F5B
:100A600052657472616374696F6E204D756C746940
:100A7000706C696572206D75737420626520737087
:100A8000656369666965642E0A003F537065636932
:100A9000666965642052657472616374696F6E2063
:100AA0004D756C7469706C696572206E6F7420701E
:100AB0006C61757369626C652E0A003F53706563E3
:100AC0006966696564206C6179657220686569672B
:100AD0006874206E6F7420706C61757369626C65E8
:100AE0002E0A0043292E0A003F5370656369666928
:100AF0006564206265642074656D706572617475EB
:100B00007265206E6F7420706C61757369626C65BC
:100B1000202834302D004732362073746172746996
:100B20006E672E2E2E0A004F46460A004661646507
:100B3000204865696768742000426564204C6576CA
:100B4000656C696E6720004661696C656420746F2E
:100B500020656E61626C6520426564204C65766537
:100B60006C696E670A00496E76616C6964206D6518
:100B700073682E0A0050726F62696E6720506F6949
:100B80006E740025532025692F2569002E0A002F39
:100B90000050726F62696E67206D65736820706FB8
:100BA000696E742000202844525952554E2900473E
:100BB0003239204175746F20426564204C6576653A
:100BC0006C696E67003F20284C2C522C462C422921
:100BD000206F7574206F6620626F756E64732E0AC5
:100BE000003F2856296572626F7365206C657665D3
:100BF0006C20696D706C61757369626C652028305A
:100C00002D34292E0A00426164205A2076616C75C9
:100C1000650A004E6F2062696C696E6561722067BB
:100C20007269640A005A2050726F626520506173C5
:100C300074204265640A005A2050726F6265205029
:100C4000617374204265640020440020204D3230DE
:100C500030205300202844697361626C6564293A2E
:100C60000046696C616D656E742073657474696E9D
:100C700067730020204D3230312058004D617820BC
:100C8000416363656C65726174696F6E2028756E6F
:100C90006974732F7332290020204D32303320586D
:100CA000004D617820666565647261746573202803
:100CB000756E6974732F73290020520020204D3205
:100CC0003034205000416363656C65726174696FF4
:100CD0006E2028756E6974732F7332292028503C5A
:100CE0007072696E742D616363656C3E20523C7254
:100CF0006574726163742D616363656C3E20543C5E
:100D000074726176656C2D616363656C3E290020A9
:100D1000540020530020204D3230352042004164E1
:100D200076616E6365642028423C6D696E5F736511
:100D3000676D656E745F74696D655F75733E205392
:100D40003C6D696E5F66656564726174653E2054D2
:100D50003C6D696E5F74726176656C5F6665656433
:100D6000726174653E20583C6D61785F6A65726B94
:100D70003E20593C6D61785F6A65726B3E205A3C3B
:100D80006D61785F6A65726B3E20453C6D61785F8E
:100D90006A65726B3E290020440020490020204DE6
:100DA000333031205000486F74656E6420504944E0
:100DB0000020440020490020204D333034205000D2
:100DC00042656420504944004E6F204D6F76652E79
:100DD000002E0A002028302D313029002076616C49
:100DE0007565206F7574206F662072616E6765008F
:100DF000416476616E6365204B3D004732380020C8
:100E00003B0020550020204D363033204C004669F1
:100E10006C616D656E74206C6F61642F756E6C6FA4
:100E200061640020204D343133205300506F7765CA
:100E3000722D6C6F7373207265636F7665727900C3
:100E40004F4646004F4E00203B20486F7374206889
:100E5000616E646C696E672000203B204D6F646595
:100E600020006D6D00203B2044697374616E6365E2
:100E7000200046696C616D656E742072756E6F75C9
:100E80007420003B200047322F47332062616420EA
:100E9000706172616D65746572730A00536C65658B
:100EA000702E2E2E004732384C30005A2050726F70
:100EB000626520506173742042656400205A3A00D4
:100EC00020593A0042656420583A004D6573682005
:100ED000706F696E74206F7574206F662072616E1A
:100EE00067650A00456E642066696C65206C6973ED
:100EF000740A00426567696E2066696C65206C69DA
:100F000073740A004E6F206D656469610A00286E73
:100F10006F2066696C65290043757272656E742076
:100F200066696C653A200043616E6E6F74206F7065
:100F3000656E2073756264697220005072696E7408
:100F40002074696D653A200036372603023C3D382F
:100F50000E0F2E303E13201A1C180A0743090844AE
:100F6000000150726F7465637465642050696E0A85
:100F7000003F43616E6E6F742077726974652074F0
:100F80006F20494E5055540A003F496E76616C6996
:100F9000642050696E204D6F64650A006F6B000A13
:100FA000427566666572204F76657272756E733A29
:100FB00020006F666600560451044A044304350459
:100FC00044454255473A004D313133205300544D8A
:100FD00033442031305350726F5632204F46462EE4
:100FE0000020732E0A00496E616374697669747912
:100FF0002074696D656F75742000432E0A003F49A7
:10100000646C652054696D656F75742028542920BF
:10101000747269676765722074656D70657261745A
:101020007572652073686F756C64206265206F76D9
:1010300065722000434F4E4649475F4558504F5216
:1010400054004D4541545041434B00434F4F4C4594
:10105000525F54454D504552415455524500434806
:10106000414D4245525F54454D50455241545552B1
:10107000450045505F42414259535445500042415A
:1010800042595354455050494E4700415243530032
:101090004D4F54494F4E5F4D4F44455300544845C2
:1010A000524D414C5F50524F54454354494F4E00AE
:1010B000455854454E4445445F4D323000435553E6
:1010C000544F4D5F4649524D574152455F55504C24
:1010D0004F4144004C464E5F5752495445004C4FD7
:1010E0004E475F46494C454E414D45004155544F92
:1010F0005245504F52545F53445F535441545553DB
:101100000053445F5752495445005245504541549D
:10111000004D554C54495F564F4C554D4500534476
:10112000434152440050524F4D50545F535550501C
:101130004F525400484F53545F414354494F4E5F00
:10114000434F4D4D414E445300454D455247454E4A
:1011500043595F50415253455200434153455F4C00
:10116000494748545F4252494748544E45535300FB
:10117000544F47474C455F4C494748545300534FE1
:101180004654574152455F504F57455200425549CA
:101190004C445F50455243454E54004C4556454CD7
:1011A000494E475F44415441005A5F50524F4245B7
:1011B0000052554E4F5554004155544F4C455645DD
:1011C0004C005052494E545F4A4F420050524F47D4
:1011D00052455353004155544F5245504F52545F5E
:1011E00054454D50004155544F5245504F52545F55
:1011F000504F5300564F4C554D45545249430045AE
:101200004550524F4D0042494E4152595F46494C5C
:10121000455F5452414E5346455200534552494151
:101220004C5F584F4E5F584F4646004649524D5707
:101230004152455F4E414D453A4D61726C696E2099
:101240004457372E342E3920544D33442053534DB8
:1012500044424220284175672032322032303235F4
:101260002032313A31333A32352920534F555243E7
:10127000455F434F44455F55524C3A6874747073F0
:101280003A2F2F6769746875622E636F6D2F496EF0
:1012900073616E6974794175746F6D6174696F6E95
:1012A0002F4D61726C696E2F747265652F43726584
:1012B000616C6974794477696E5F322E30205052C8
:1012C0004F544F434F4C5F56455253494F4E3A315E
:1012D0002E30204D414348494E455F545950453AC0
:1012E000544D33442031305350726F5632204B49A5
:1012F0004E454D41544943533A4361727465736995
:10130000616E2045585452554445525F434F554EE7
:10131000543A3120555549443A6365646532613227
:10132000662D343161322D343734382D3962313203
:101330002D633535633632663336376666002F2FB8
:10134000005741524E494E4721204C6F77205A207A
:101350004A65726B206D6179206C65616420746FE1
:1013600020756E77616E7465642070617573657346
:101370002E0A0020580020204D61783A20002000DD
:1013800020204D696E3A2000203B200020204D3265
:101390003131205300536F667420656E6473746F2F
:1013A000707300250A0046523A0020466C6F773A67
:1013B00020003A200020536572766F2000206F7560
:1013C00074206F662072616E67650A0053657276DD
:1013D0006F200050726F6265204F666673657420DF
:1013E0005A0050726F6265204F6666736574205AAA
:1013F0000064697300656E0043290061626C656476
:1014000020286D696E2074656D702000436F6C64D8
:10141000206578747275646573206172652000427E
:101420004C546F756368204853206D6F64652000CD
:101430004D34323120696E636F727265637420704F
:101440006172616D657465722075736167650A000C
:101450004D65736820706F696E74206F7574206FAE
:10146000662072616E67650A00454550524F4D20F7
:101470004F4B0A00290A0020746F20003F5A206F4A
:101480007574206F662072616E6765202800290AD6
:101490000020746F20003F59206F7574206F662004
:1014A00072616E6765202800290A0020746F200091
:1014B0003F58206F7574206F662072616E676520DB
:1014C00028004D383400446F6E65207072696E7468
:1014D000696E672066696C650A004D3737004D33C9
:1014E0003100454550524F4D20496E697469616C19
:1014F000697A65640A0048617264636F6465642098
:1015000044656661756C742053657474696E6773A5
:10151000204C6F616465640020286D6D2900203BBC
:10152000204C6576656C696E67200020204D343252
:10153000302053004175746F20426564204C6576FD
:10154000656C696E670020204D393030204B004CAF
:10155000696E65617220416476616E63650020503A
:101560000020440020204D35393120530046696C5D
:10157000616D656E742072756E6F75742073656E23
:10158000736F7200204A00202047323920572049CB
:101590000020204D3134392043203B20556E6974A2
:1015A0007320696E2043656C736975730A00546516
:1015B0006D706572617475726520556E6974730023
:1015C0002020473231203B004C696E656172205506
:1015D0006E69747300454550524F4D2064617461CB
:1015E00073697A65206572726F722E0A0045727295
:1015F0003A20454550524F4D204352430020286326
:10160000616C63756C6174656429210A0020213D59
:101610002000454550524F4D20435243206D697381
:101620006D61746368202D202873746F726564295E
:101630002000454550524F4D20436F7272757074B3
:101640000A002053697A653A2000496E6465783A49
:10165000200053746F7265642073657474696E67DB
:10166000732072657472696576656400290A0020CA
:1016700062797465733B2063726320002073746F1A
:101680007265642073657474696E67732072657423
:10169000726965766564202800686F74656E645FA2
:1016A00069646C652E63666700524541443A2000C8
:1016B00065787475695F6461746100524541443AAC
:1016C00020004669656C642065787475695F6461A3
:1016D0007461206D69736D617463682E0A004669D8
:1016E000656C643A2065787475695F646174610A39
:1016F000006261636B6C6173685F736D6F6F7468B8
:10170000696E675F6D6D00524541443A2000626129
:10171000636B6C6173685F636F7272656374696F2A
:101720006E00524541443A20006261636B6C617304
:10173000685F64697374616E63655F6D6D005245C7
:1017400041443A20004669656C64206261636B6CB9
:101750006173685F64697374616E63655F6D6D204A
:101760006D69736D617463682E0A004669656C6407
:101770003A206261636B6C6173685F646973746162
:101780006E63655F6D6D0A0066635F73657474698F
:101790006E677300524541443A20004669656C64A7
:1017A0002066635F73657474696E6773206D697317
:1017B0006D617463682E0A004669656C643A206640
:1017C000635F73657474696E67730A00636F6F7229
:1017D00064696E6174655F73797374656D005245F9
:1017E00041443A20004669656C6420636F6F7264FF
:1017F000696E6174655F73797374656D206D69736B
:101800006D617463682E0A004669656C643A2063F2
:101810006F6F7264696E6174655F73797374656DFF
:101820000A006D6F746F725F63757272656E745FBC
:1018300073657474696E6700524541443A200046EE
:1018400069656C64206D6F746F725F637572726529
:101850006E745F73657474696E67206D69736D6112
:101860007463682E0A004669656C643A206D6F7473
:101870006F725F63757272656E745F73657474699D
:101880006E670A0065787472756465725F6164766C
:10189000616E63655F4B00524541443A20004669E2
:1018A000656C6420706C616E6E65725F65787472D1
:1018B000756465725F616476616E63655F4B206D10
:1018C00069736D617463682E0A004669656C643AD9
:1018D00020706C616E6E65725F6578747275646598
:1018E000725F616476616E63655F4B0A00746D635D
:1018F0005F737465616C74685F656E61626C65646A
:1019000000524541443A20004669656C6420746D7C
:10191000635F737465616C74685F656E61626C654A
:1019200064206D69736D617463682E0A0046696591
:101930006C643A20746D635F737465616C74685F86
:10194000656E61626C65640A00746D635F736774D1
:1019500000524541443A20004669656C6420746D2C
:10196000635F736774206D69736D617463682E0AB9
:10197000004669656C643A20746D635F7367740A2E
:1019800000746D635F6879627269645F7468726520
:1019900073686F6C6400524541443A2000466965A3
:1019A0006C6420746D635F6879627269645F7468E7
:1019B000726573686F6C64206D69736D61746368C0
:1019C0002E0A004669656C643A20746D635F68791D
:1019D000627269645F7468726573686F6C640A0030
:1019E00063757272656E747300524541443A20000B
:1019F0004669656C6420746D635F737465707065AF
:101A0000725F63757272656E74206D69736D617457
:101A100063682E0A004669656C643A20746D635FE2
:101A2000737465707065725F63757272656E740A47
:101A30000073746F7261676500524541443A20003B
:101A40004669656C64207061727365725F766F6C55
:101A5000756D65747269635F656E61626C65642043
:101A60006D69736D617463682E0A004669656C6404
:101A70003A207061727365725F766F6C756D657414
:101A80007269635F656E61626C65640A006175749A
:101A90006F726574726163745F656E61626C6564B8
:101AA00000524541443A2000667772657472616362
:101AB000745F73657474696E677300524541443A8C
:101AC00020004669656C6420667772657472616394
:101AD000745F73657474696E6773206D69736D618B
:101AE0007463682E0A004669656C643A20667772F2
:101AF0006574726163745F73657474696E67730A89
:101B0000006265645F74656D705F746872657368A8
:101B10006F6C6400524541443A20007265636F76F1
:101B20006572795F656E61626C656400524541441F
:101B30003A20004669656C64207265636F76657251
:101B4000795F656E61626C6564206D69736D617447
:101B500063682E0A004669656C643A207265636F9B
:101B6000766572795F656E61626C65640A006366B2
:101B70007300524541443A20004669656C64206315
:101B80006F6E74726F6C6C657246616E5F736574B4
:101B900074696E6773206D69736D617463682E0A72
:101BA000004669656C643A20636F6E74726F6C6C8A
:101BB000657246616E5F73657474696E67730A005F
:101BC0006C63645F6272696768746E6573730052F8
:101BD0004541443A20004669656C64206C63645F4B
:101BE0006272696768746E657373206D69736D6185
:101BF0007463682E0A004669656C643A206C6364FD
:101C00005F6272696768746E6573730A006C6364FF
:101C10005F636F6E747261737400524541443A2081
:101C2000004669656C64206C63645F636F6E7472F8
:101C3000617374206D69736D617463682E0A004668
:101C400069656C643A206C63645F636F6E74726183
:101C500073740A00706F7765725F6D6F6E69746F71
:101C6000725F666C61677300524541443A200046DA
:101C700069656C6420706F7765725F6D6F6E6974F3
:101C80006F725F666C616773206D69736D617463F9
:101C9000682E0A004669656C643A20706F77657239
:101CA0005F6D6F6E69746F725F666C6167730A0057
:101CB00070696400524541443A20007069640052E2
:101CC0004541443A20006C70715F6C656E0052456E
:101CD00041443A20004669656C64206C70715F6C09
:101CE000656E206D69736D617463682E0A004669C4
:101CF000656C643A206C70715F6C656E0A00706987
:101D000064636600524541443A2000626C746F750A
:101D100063685F686967685F73706565645F6D6F4E
:101D2000646500524541443A20004669656C642070
:101D3000626C746F7563685F686967685F7370650C
:101D400065645F6D6F6465206D69736D6174636850
:101D50002E0A004669656C643A20626C746F756384
:101D6000685F686967685F73706565645F6D6F64FD
:101D7000650A00626C746F7563685F6F645F3576C7
:101D80005F6D6F646500524541443A2000466965C5
:101D90006C6420626C746F7563685F6F645F357626
:101DA0005F6D6F6465206D69736D617463682E0A81
:101DB000004669656C643A20626C746F7563685F95
:101DC0006F645F35765F6D6F64650A007365727668
:101DD0006F5F616E676C65735F617272005245413F
:101DE000443A20004669656C6420736572766F5FC3
:101DF000616E676C6573206D69736D617463682EC5
:101E00000A004669656C643A20736572766F5F619B
:101E10006E676C65730A0075626C5F73746F7261D4
:101E200067655F736C6F7400524541443A200070DF
:101E30006C616E6E65725F6C6576656C696E675F0E
:101E400061637469766500524541443A20004669F1
:101E5000656C6420706C616E6E65725F6C65766532
:101E60006C696E675F616374697665206D69736D17
:101E7000617463682E0A004669656C643A20706C70
:101E8000616E6E65725F6C6576656C696E675F61C9
:101E900063746976650A0064756D6D7966005245F4
:101EA00041443A20006265646C6576656C2E7A5F09
:101EB00076616C75657300524541443A2000737435
:101EC00061727400524541443A2000737061636945
:101ED0006E6700524541443A2000677269645F634F
:101EE0006865636B00524541443A2000677269643B
:101EF0005F6D61785F7900524541443A2000677216
:101F000069645F6D61785F7800524541443A200012
:101F100064756D6D796600524541443A20007A70CF
:101F20006F00524541443A20004669656C64207058
:101F3000726F62655F6F6666736574206D69736D3D
:101F4000617463682E0A004669656C643A20707299
:101F50006F62655F6F66667365740A0064756D6DA8
:101F6000796600524541443A20006D6573685F63AD
:101F70006865636B00524541443A20006D657368A3
:101F80005F6E756D5F7900524541443A20006D6582
:101F900073685F6E756D5F7800524541443A20006A
:101FA00064756D6D796600524541443A2000706C4D
:101FB000616E6E65722E6175746F74656D702E66DC
:101FC0006163746F7200524541443A2000706C6145
:101FD0006E6E65722E6175746F74656D702E6D69AD
:101FE0006E00524541443A2000706C616E6E65721D
:101FF0002E6175746F74656D702E6D617800524539
:1020000041443A20006E65775F7A5F666164655F80
:1020100068656967687400524541443A20007275EA
:102020006E6F75745F6D6F646500524541443A2070
:102030000072756E6F75745F64697374616E636549
:102040005F6D6D00524541443A200072756E6F75A8
:10205000745F656E61626C656400524541443A206C
:1020600000686F6D655F6F66667365740052454109
:10207000443A20004669656C6420686F6D655F6F47
:102080006666736574206D69736D617463682E0A8A
:10209000004669656C643A20686F6D655F6F6666BF
:1020A0007365740A0064756D6D796600524541442C
:1020B0003A2000706C616E6E65722E6D61785F6A99
:1020C00065726B00524541443A2000706C616E6E3F
:1020D00065722E73657474696E67732E6D696E5FB9
:1020E00074726176656C5F66656564726174655F64
:1020F0006D6D5F7300524541443A2000706C616E13
:102100006E65722E73657474696E67732E6D696E79
:102110005F66656564726174655F6D6D5F730052C3
:102120004541443A2000706C616E6E65722E736595
:102130007474696E67732E74726176656C5F616327
:1021400063656C65726174696F6E00524541443A13
:102150002000706C616E6E65722E73657474696EAA
:1021600067732E726574726163745F616363656C1B
:1021700065726174696F6E00524541443A20007087
:102180006C616E6E65722E73657474696E67732E02
:10219000616363656C65726174696F6E005245417D
:1021A000443A20000000FA430000FA4300002041B6
:1021B00000008C420000A0420000A0420000C84382
:1021C00000000C43EE020000EE020000640000007C
:1021D0003C0000002875696E74385F74202A2974E9
:1021E0006D703300524541443A20002875696E7481
:1021F000385F74202A29746D703200524541443A88
:102200002000706C616E6E65722E73657474696EF9
:1022100067732E6D696E5F7365676D656E745F744D
:10222000696D655F757300524541443A2000287519
:10223000696E74385F74202A29746D7031005245BC
:1022400041443A2000655F666163746F72730052A7
:102250004541443A20004669656C6420655F6661CB
:1022600063746F7273206D69736D617463682E0A95
:10227000004669656C643A20655F666163746F72DD
:10228000730A0073746F7265645F73697A650052D4
:102290004541443A200073746F7265645F637263F2
:1022A00000524541443A2000204D61726C696E3DF8
:1022B000563930290A00454550524F4D20766572F7
:1022C00073696F6E206D69736D6174636820284552
:1022D0004550524F4D3D0073746F7265645F766573
:1022E0007200524541443A200024F4D43050C38D4A
:1022F00020C3A24117828B7011127A900D826CDA82
:102300000AA861E108C7586607615142061F4B5E83
:1023100005C145A6041B411204093D9703723931DA
:10232000034136DB0266339202D4305302812E1D04
:1023300002642CEE01762AC501B128A10110278183
:10234000018F2564012B244A01E1223401AD2120B3
:10235000018D200C01811FFC00851EED00981DDF02
:1023600000B91CD200E71BC700201BBB00651AB2D6
:1023700000B319A9000A19A0006A189800D2179290
:102380000040178A00B616840032167E00B4157914
:10239000003B157400C7146F0058146A00EE1366F2
:1023A000008813620026135E00C8125B006D12578E
:1023B0000016125500C111510070114E0022114C2F
:1023C00000D61049008D104600471045000210420B
:1023D00000C00F4000800F3E00420F3C00060F3A45
:1023E00000CC0E3900930E37005C0E3500270E34FA
:1023F00000F30D3200C10D3100900D2F00610D2F43
:1024000000320D2D00050D2C00D90C2A00AF0C2A2E
:1024100000850C28005D0C2800350C27000E0C25CB
:1024200000E90B2500C40B2400A00B23007D0B2228
:10243000005B0B21003A0B2100190B2000F90A1F49
:1024400000DA0A1F00BB0A1E009D0A1D00800A1C3C
:1024500000640A1C00480A1C002C0A1B00110A1AFE
:1024600000F7091A00DD091900C4091900AB0918A1
:1024700000930918007B091700640917004D09171C
:102480000036091600200915000B091500F608157D
:1024900000E1081500CC081400B8081400A40813C3
:1024A00000910813007E0813006B081200590812EF
:1024B0000047081200350812002308110012081105
:1024C0000001081000F1071100E0071000D007100C
:1024D00000C0070F00B1071000A1070F0092070FFF
:1024E0000083070F0074070E0066070E0058070EE2
:1024F000004A070E003C070E002E070D0021070DB5
:102500000014070D0007070D00FA060D00ED060C7C
:1025100000E1060D00D4060C00C8060C00BC060C39
:1025200000B0060B00A5060C0099060B008E060BEA
:102530000083060B0078060B006D060B0062060B8D
:102540000057060A004D060A0043060B0038060A2B
:10255000002E060A00240609001B060A0011060ABE
:102560000007060900FE050A00F4050900EB05094D
:1025700000E2050900D9050900D0050900C70508D2
:1025800000BF050900B6050900AD050800A505084E
:10259000009D050800950509008C050800840508C4
:1025A000007C050700750508006D05080065050736
:1025B000005E050800560507004F0508004705079F
:1025C000004005070039050700320507002B050705
:1025D00000240507001D050700160507000F050666
:1025E000000905070002050600FC040700F50406C3
:1025F00000EF040700E8040600E2040600DC04061D
:1026000000D6040600D0040700C9040500C404066F
:1026100000BE040600B8040600B2040600AC0406BE
:1026200000A6040500A10406009B0405009604060C
:1026300000900405008B0406008504050080040555
:10264000007B04050076040600700405006B040599
:102650000066040500610405005C040500570405DC
:1026600000520405004D040500480404004404051C
:10267000003F0405003A0404003604050031040557
:10268000002C04040028040500230404001F040592
:10269000001A04040016040400120405000D0404CA
:1026A00000090404000504040001040500FC0304FF
:1026B00000F8030400F4030400F0030400EC030436
:1026C00000E8030400E4030400E0030400DC030466
:1026D00000D8030400D4030300D1030400CD030495
:1026E00000C9030400C5030400000000000000004E
:1026F00000000000000000000000000000000000DA
:1027000000D1036D6403570D0347C6023B8B0232B1
:1027100059022B2E0225090221E8011CCC011AB214
:1027200001179B011487011374011163010F5401F8
:102730000E46010D39010D2C010B21010A17010A6A
:102740000D0109040108FC0008F40007ED0007E68C
:102750000007DF0006D90006D30005CE0006C8003A
:1027600005C30004BF0005BA0004B60004B20004AB
:10277000AE0004AA0004A60003A300049F00039C6B
:1027800000039900039600039300029100038E005A
:10279000028C000389000287000384000282000289
:1027A0008000027E00027C00027A0002780002763D
:1027B00000017500027300027100017000026E00DA
:1027C000016D00026B00016A0002680001670002EF
:1027D0006500016400016300016200026000015FA6
:1027E00000015E00015D00015C00015B00015A0018
:1027F0000159000158000157000156000155000120
:1028000054000153000152000151000051000150D9
:1028100000014F00014E00014D00004D00014C0031
:10282000014B00014A00004A000149000148000034
:1028300048000147000146000046000145000045F0
:102840000001440001430000430001420000420037
:10285000014100004100014000004000013F000034
:102860003F00013E00003E00013D00003D00013CF4
:1028700000003C00013B00003B00013A00003A0030
:10288000013900003900003900013800003800012A
:1028900037000037000037000136000036000036F0
:1028A0000001350000350001340000340000340020
:1028B0000133000033000033000132000032000019
:1028C00032000131000031000031000031000130E0
:1028D00000003000003000012F00002F00002F000A
:1028E000002F00012E00002E00002E00012D000000
:1028F0002D00002D00002D00012C00002C00002CCC
:1029000000002C00012B00002B00002B00002B00EE
:10291000012A00002A00002A00002A00002A0001E3
:1029200029000029000029000029000128000028B2
:1029300000002800002800002800012700002700D0
:1029400000270000270000270001260000260000C5
:102950002600002600002600002600012500002594
:1029600000002500002500002500002500012400AE
:1029700000240000240000240000240000240001A2
:102980002300002300002300002300002300002375
:10299000000122000022000022000022000022008C
:1029A000002200002200012100002100002100007F
:1029B0002100002100002100002100012000002052
:1029C0000000200000200000200000200000200067
:1029D000002000011F00001F00001F00001F00005A
:1029E0001F00001F00001F000020436F756E742041
:1029F000583A0023646566696E6520444546415532
:102A00004C545F0000626564004B6420004B6920F9
:102A1000004B7020005049442074756E696E672029
:102A2000646F6E65002066696E6973686564212055
:102A300050757420746865206C617374204B702C21
:102A4000204B6920616E64204B6420636F6E737449
:102A5000616E74732066726F6D2062656C6F772093
:102A6000696E746F20436F6E666967757261746911
:102A70006F6E2E680A00504944204175746F74755A
:102A80006E6500206661696C6564212074696D65FE
:102A90006F75740A00504944204175746F74756EE7
:102AA00065004175746F74756E65206661696C654B
:102AB00064212054696D656F75742E00206661690C
:102AC0006C6564212054656D706572617475726502
:102AD00020746F6F20686967680A0050494420417C
:102AE00075746F74756E6500504944204379636C4A
:102AF00065730025532025692F256900204B643A12
:102B00002000204B693A2000204B703A20002043DF
:102B10006C617373696320504944200A00204E6F32
:102B2000206F76657273686F6F740A002054753A6F
:102B30002000204B753A2000206D61783A2000205B
:102B40006D696E3A200020643A200020626961734A
:102B50003A200048656174696E672E2E2E0020733E
:102B6000746172740A00504944204175746F747521
:102B70006E65004175746F74756E65206661696C71
:102B80006564212054656D7065726174757265208D
:102B9000746F6F20686967682E00206661696C65D4
:102BA00064212054656D706572617475726520745E
:102BB0006F6F20686967680A005049442041757446
:102BC0006F74756E65000042656400453100626592
:102BD00064002C2073797374656D2073746F70704A
:102BE000656421204865617465725F49443A20003C
:102BF0004572723A204D415854454D50004D415850
:102C000054454D5020747269676765726564004869
:102C1000656174696E67204661696C65640048652A
:102C20006174696E67206661696C6564004D353258
:102C300034004D3131322053687574646F776E0003
:102C40001000C90210012C0140012201700118017D
:102C5000B0010E01F00104015002FA00B002F000D0
:102C60003003E600D003DC009004D2007005C800F9
:102C7000A006BE000008B400B009AA00D00BA00056
:102C8000600E960060118C000015820020197800FB
:102C9000C01D6E00A0226400B0275A00902C500086
:102CA00000314600E0343C0010383200903A2800F1
:102CB000603C1E00A03D1400803E0A00203F000042
:102CC0004572723A204D494E54454D50004D494E83
:102CD00054454D502074726967676572656400548D
:102CE0004845524D414C2052554E41574159005490
:102CF0006865726D616C2052756E617761790061F3
:102D000063746976617465642E0A006465004164C9
:102D10006170746976652046616E20536C6F7769C7
:102D20006E672000202F0020403A0020573A0020F4
:102D3000573A007C3C3E5E2B3D3F2F5B5D3B2C2A8F
:102D4000225C0043616E6E6F74206F70656E20733D
:102D5000756264697220004D6564696120496E691D
:102D600074204661696C0053442063617264206F73
:102D70006B0A006F70656E526F6F74206661696CCC
:102D800065640A00766F6C756D652E696E697420D6
:102D90006661696C65640A004E6F2053442063616C
:102DA00072640A00534420636172642072656C652A
:102DB000617365640A000A4D3234004D32332025B8
:102DC00073002E0A006F70656E206661696C656421
:102DD0002C2046696C653A200046696C6520736555
:102DE0006C65637465640A002053697A653A200053
:102DF00046696C65206F70656E65643A2000454ECB
:102E00004420535542524F5554494E450A00222002
:102E1000706F73002220706172656E743A220053E5
:102E20005542524F5554494E452043414C4C207415
:102E300061726765743A220053756263616C6C203D
:102E40004F766572666C6F7700457863656564657B
:102E500064206D617820535542524F5554494E4578
:102E60002064657074683A002E0A0044656C6574CD
:102E7000696F6E206661696C65642C2046696C65BB
:102E80003A200046696C652064656C657465643A37
:102E9000004E6F74205344207072696E74696E67BF
:102EA0000A005344207072696E74696E67206279FB
:102EB0007465200057726974696E6720746F2066AC
:102EC000696C653A2000667265736800646F696EAC
:102ED00067002066696C653A20004E6F7720002FEE
:102EE0006175746F25632E67002020506C616E6ED3
:102EF000657242756666657242797465733A200040
:102F00002046726565204D656D6F72793A2000200C
:102F1000436F6D70696C65643A2041756720323289
:102F200020323032350A00204C61737420557064B1
:102F3000617465643A20323032342D30342D3038AB
:102F4000207C20417574686F723A2054696E794D07
:102F5000616368696E657333440A004D61726C6920
:102F60006E204457372E342E390A0020536F667472
:102F7000776172652052657365740A002057617429
:102F80006368646F672052657365740A002042723B
:102F90006F776E206F75742052657365740A002018
:102FA00045787465726E616C2052657365740A00B1
:102FB000506F77657255700A0073746172740A00FD
:102FC0004739310A47315A350A4739300A4D3834C2
:102FD0000A4D31303453300A4D3134305330004DC6
:102FE00031303031006572726F72207772697469A6
:102FF0006E6720746F2066696C650A00446F6E65A9
:1030000020736176696E672066696C652E0A004DD3
:10301000323900456E6473746F7073002553202538
:103020006320256320256320256300205A3A002071
:10303000593A0020583A00656E6473746F707320BB
:103040006869743A200000002100240027002A004B
:103050002D003000330001010000040107010A01C6
:1030600000002200250028002B002E003100340033
:1030700002010000050108010B01000020002300EF
:10308000260029002C002F0032000001000003015F
:1030900006010901050505050705080808080202DB
:1030A00002020A0A080804040404010101010101E2
:1030B00001010303030303030303040707070C0CC5
:1030C0000C0C0C0C0C0C020202020606060606068C
:1030D00006060B0B0B0B0B0B0B0B01021020200831
:1030E0000810204010204080020102010804020163
:1030F00001020408102040808040201008040201D2
:10310000800402018040201008040201080402012A
:1031100001020408102040800102040810204080B1
:1031200000000A0B02090C0D0E0807030401000041
:10313000000000000000000000000000000000008F
:10314000000000000000000000000000121110004C
:10315000000000000000000000000000000000006F
:1031600000000000000020204D323036205800487A
:103170006F6D65206F6666736574004F6666736574
:103180007473204170706C696564004D494E2F4D19
:10319000415820546F6F2046617200546F6F206653
:1031A00061722066726F6D204D494E2F4D41580A55
:1031B000004361703A0070726F6D70745F006265F9
:1031C00067696E004D302053746F70004D3120538D
:1031D000746F7000436C69636B20746F2052657369
:1031E000756D652E2E2E00203B0020204D38353188
:1031F0002058005A2D50726F6265204F66667365C5
:103200007400526573756D696E67205344002569BB
:10321000730025696D20256973002569682025697B
:103220006D2025697300256964202569682025695A
:103230006D20256973002569792025696420256939
:10324000682025696D20256973000A5374617473C1
:103250003A2046696C616D656E7420757365643AD9
:1032600020002C204C6F6E67657374206A6F623A81
:103270002000546F74616C2074696D653A200053AE
:10328000746174733A20002C204661696C65643A5D
:1032900020002C2046696E69736865643A200050EE
:1032A00072696E74733A200053746174733A20002B
:1032B000436F6F6C696E672E2E2E004531202553AB
:1032C0000042656420436F6F6C696E672E2E2E007E
:1032D0004265642048656174696E672E2E2E005029
:1032E0004944204175746F74756E6500206661698C
:1032F0006C65642120426164206865617465722098
:1033000069640A00504944204175746F74756E6594
:103310000020540020530020450020204D38362046
:103320004200486F74656E642049646C652054697E
:103330006D656F7574003D3D4477696E20496E6917
:103340007420436F6D706C6574653D3D005258206C
:1033500048616C742044657465637465642E2E2E18
:103360000A003D3D7761697477617920353D3D0004
:103370003D3D7761697477617920333D3D003D3D86
:103380007761697477617920313D3D0050617573D3
:1033900065537461747573004C6F6164696E672E58
:1033A0002E2E000000270A0A0000272027002027D1
:1033B000002D0063616E63656C005072696E74204D
:1033C00041626F727465640055492041626F727486
:1033D000656400726573756D65004D323400486F29
:1033E0006D696E67204661696C6564005052455393
:1033F000454E54004F5554006F70656E005452494D
:10340000474745524544003A20004D4F54494F4EDE
:10341000203A20004F46460A003A200066696C6157
:103420006D656E74007A5F6D696E00795F6D696EAF
:1034300000785F6D696E005265706F7274696E67B7
:1034400020656E6473746F70207374617475730A91
:103450000020746F6F206C6F6E67206578747275D2
:1034600073696F6E2070726576656E7465640A00AC
:1034700020636F6C6420657874727573696F6E2059
:1034800070726576656E7465640A00486F6D6520BC
:103490002573204669727374005761726E696E6796
:1034A0003A20486F6D696E672042756D70204469DF
:1034B0007669736F72203C20310A0002020400001A
:1034C0000000000000000000000000809D4300009C
:1034D0009B430000C8430000004100000041000081
:1034E0000040FFFFFF00000001000000010000801D
:1034F00000555555000000400033333300AAAA2A76
:10350000004992240000002000C7711C00999919FD
:1035100000D1451700555515003BB1130024491241
:103520000011111100000010000F0F0F00E3380E02
:103530000043790D00CCCC0C00C3300C00E8A20B8A
:103540000064210B00AAAA0A00703D0A009DD80958
:1035500000427B090092240900DCD3080088880817
:10356000001042080000000800F0C107008787072C
:103570000075500700711C07003EEB0600A1BC0659
:10358000006990060066660600703E060061180637
:103590000017F4050074D105005BB00500B290057A
:1035A00000627205005555050078390500B81E0502
:1035B00000050505004EEC040087D40400A1BD04FD
:1035C0000090A7040049920400C17D0400EE690444
:1035D00000C7560400444404005C3204000821047F
:1035E0000041100400000004003FF00300F8E00375
:1035F0000026D20300C3C30300CCB503003AA803DE
:10360000000A9B0300388E0300C08103009F7503EE
:1036100000D0690300505E03001D530300344803CB
:1036200000913D03003333030016290300381F03C4
:103630000097150300300C0300030303000BFA028C
:103640000049F10200BAE802005CE002002DD80255
:10365000002DD0020059C80200B0C0020031B902EA
:1036600000DAB10200AAAA0200A0A30200BC9C02D8
:1036700000FA9502005C8F0200DF8802008282025D
:1036800000457C02002776020027700200436A0290
:10369000007C640200D05E02003F590200C8530261
:1036A00000FFFDFCFAF8F6F4F2F0EEECEAE9E7E5EB
:1036B000E3E1E0DEDCDAD9D7D5D4D2D0CFCDCBCAA6
:1036C000C8C7C5C3C2C0BFBDBCBAB9B7B6B4B3B230
:1036D000B0AFADACAAA9A8A6A5A4A2A1A09E9D9C8E
:1036E0009A99989795949392908F8E8D8B8A8988CA
:1036F000878684838281807F7E7D7B7A79787776E6
:103700007574737271706F6E6D6C6B6A69686766E1
:103710006564636261605F5E5D5C5B5A59585857CF
:1037200056555453525150504F4E4D4C4B4A4A49A6
:1037300048474646454443424241403F3E3E3D3C69
:103740003B3B3A393838373635353433323231301D
:10375000302F2E2E2D2C2B2B2A29292827272625C2
:103760002524232322212120201F1E1E1D1C1C1B5B
:103770001B1A1919181817161615151413131212E7
:103780001111100F0F0E0E0D0D0C0C0B0A0A09096A
:1037900008080707060605050404030302020100E2
:1037A0000053544F505045442E20005072696E749F
:1037B00065722073746F7070656420647565207421
:1037C0006F206572726F72732E204669782074685C
:1037D00065206572726F7220616E6420757365205A
:1037E0004D39393920746F20726573746172742E8B
:1037F000202854656D7065726174757265206973F7
:103800002072657365742E2053657420697420617D
:10381000667465722072657374617274696E67296B
:103820000A00206572726F72202D207265737461B8
:1038300072742077697468204D3939390A00424C16
:10384000546F7563680021212053544F50206361E9
:103850006C6C65642062656361757365206F6620BA
:103860000000809D4300009B430000C8430000000F
:1038700000000000000000000053657474696E676A
:10388000732053746F72656400290A002062797492
:1038900065733B20637263200053657474696E67BF
:1038A000732053746F7265642028004669656C64E8
:1038B0002065787475695F64617461206D69736DEA
:1038C000617463682E0A004669656C643A20657805
:1038D0007475695F646174610A004669656C64208F
:1038E0006261636B6C6173685F64697374616E635A
:1038F000655F6D6D206D69736D617463682E0A007C
:103900004669656C643A206261636B6C6173685FE1
:1039100064697374616E63655F6D6D0A0046696505
:103920006C642066635F73657474696E6773206D81
:1039300069736D617463682E0A004669656C643A48
:103940002066635F73657474696E67730A00466905
:10395000656C6420636F6F7264696E6174655F7318
:10396000797374656D206D69736D617463682E0A77
:10397000004669656C643A20636F6F7264696E61BA
:1039800074655F73797374656D0A004669656C646C
:10399000206D6F746F725F63757272656E745F73A2
:1039A000657474696E67206D69736D617463682EE8
:1039B0000A004669656C643A206D6F746F725F63CC
:1039C000757272656E745F73657474696E670A00F0
:1039D0004669656C6420706C616E6E65725F6578B7
:1039E0007472756465725F616476616E63655F4B66
:1039F000206D69736D617463682E0A004669656C99
:103A0000643A20706C616E6E65725F657874727571
:103A10006465725F616476616E63655F4B0A004640
:103A200069656C6420746D635F737465616C746840
:103A30005F656E61626C6564206D69736D6174634E
:103A4000682E0A004669656C643A20746D635F7382
:103A50007465616C74685F656E61626C65640A00B0
:103A60004669656C6420746D635F6879627269642D
:103A70005F7468726573686F6C64206D69736D61E3
:103A80007463682E0A004669656C643A20746D633D
:103A90005F6879627269645F7468726573686F6C7D
:103AA000640A004669656C6420746D635F737465B5
:103AB000707065725F63757272656E74206D697384
:103AC0006D617463682E0A004669656C643A2074FF
:103AD0006D635F737465707065725F637572726534
:103AE0006E740A004669656C642070617273657259
:103AF0005F766F6C756D65747269635F656E616228
:103B00006C6564206D69736D617463682E0A00468C
:103B100069656C643A207061727365725F766F6C70
:103B2000756D65747269635F656E61626C65640A68
:103B3000004669656C6420667772657472616374AF
:103B40005F73657474696E6773206D69736D6174FA
:103B500063682E0A004669656C643A206677726570
:103B600074726163745F73657474696E67730A005D
:103B70004669656C64207265636F766572795F650E
:103B80006E61626C6564206D69736D617463682E2B
:103B90000A004669656C643A207265636F766572E7
:103BA000795F656E61626C65640A004669656C6484
:103BB00020636F6E74726F6C6C657246616E5F73BA
:103BC000657474696E6773206D69736D6174636881
:103BD0002E0A004669656C643A20636F6E74726FDA
:103BE0006C6C657246616E5F73657474696E677341
:103BF0000A004669656C64206C63645F6272696781
:103C000068746E657373206D69736D617463682E7B
:103C10000A004669656C643A206C63645F6272698D
:103C20006768746E6573730A004669656C64206C1E
:103C300063645F636F6E7472617374206D69736D1A
:103C4000617463682E0A004669656C643A206C638F
:103C5000645F636F6E74726173740A004669656CA9
:103C60006420706F7765725F6D6F6E69746F725FDD
:103C7000666C616773206D69736D617463682E0A89
:103C8000004669656C643A20706F7765725F6D6F8E
:103C90006E69746F725F666C6167730A004669656E
:103CA0006C64206368616D626572504944206D697F
:103CB000736D617463682E0A004669656C643A200E
:103CC0006368616D6265725049440A004669656CBB
:103CD0006420626564504944206D69736D6174634A
:103CE000682E0A004669656C643A20626564504932
:103CF000440A004669656C64206C70715F6C656E87
:103D0000206D69736D617463682E0A004669656C85
:103D1000643A206C70715F6C656E0A004669656C70
:103D20006420686F74656E64504944206D69736DDA
:103D3000617463682E0A004669656C643A20686F96
:103D400074656E645049440A004669656C6420627B
:103D50006C746F7563685F686967685F73706565C9
:103D6000645F6D6F6465206D69736D617463682E47
:103D70000A004669656C643A20626C746F7563680A
:103D80005F686967685F73706565645F6D6F6465C0
:103D90000A004669656C6420626C746F7563685FC5
:103DA0006F645F35765F6D6F6465206D69736D61FB
:103DB0007463682E0A004669656C643A20626C740C
:103DC0006F7563685F6F645F35765F6D6F64650AFA
:103DD000004669656C6420736572766F5F616E671B
:103DE0006C6573206D69736D617463682E0A00469B
:103DF00069656C643A20736572766F5F616E676C9B
:103E000065730A004669656C6420706C616E6E654E
:103E1000725F6C6576656C696E675F616374697605
:103E200065206D69736D617463682E0A004669656B
:103E30006C643A20706C616E6E65725F6C6576655D
:103E40006C696E675F6163746976650A00466965CF
:103E50006C642070726F62655F6F66667365742054
:103E60006D69736D617463682E0A004669656C64E0
:103E70003A2070726F62655F6F66667365740A00E0
:103E80004669656C6420706C616E6E65725F617509
:103E9000746F74656D705F6D6178206D69736D61AD
:103EA0007463682E0A004669656C643A20706C6120
:103EB0006E6E65725F6175746F74656D705F6D6154
:103EC000780A004669656C642072756E6F75745F60
:103ED000656E61626C6564206D69736D61746368A1
:103EE0002E0A004669656C643A2072756E6F7574AF
:103EF0005F656E61626C65640A004669656C64208A
:103F0000686F6D655F6F6666736574206D69736D4C
:103F1000617463682E0A004669656C643A20686FB4
:103F20006D655F6F66667365740A004669656C64EB
:103F300020655F666163746F7273206D69736D6174
:103F40007463682E0A004669656C643A20655F6692
:103F50006163746F72730A00455252002001400180
:103F600030013B01400136016001310170012C013B
:103F700090012701B0012201C0011D01F0011801CB
:103F80001002130130020E016002090190020401C7
:103F9000C002FF000003FA004003F5008003F000B8
:103FA000D003EB002004E6007004E100E004DC0034
:103FB0004005D700C005D2004006CD00D006C8009D
:103FC0008007C3003008BE00F008B900C009B40083
:103FD000B00AAF00B00BAA00D00CA500000EA000E4
:103FE000500F9B00C01096005012910000148C00DE
:103FF000C0158700B0178200B0197D00D01B780073
:10400000001E730040206E0090226900F0246400BE
:1040100040275F0090295A00E02B5500102E5000D9
:1040200020304B0010324600E033410090353C0018
:104030001037370070383200A0392D00B03A280010
:10404000A03B2300603C1E00103D1900903D140071
:10405000103E0F00703E0A00C03E0500003F000009
:10406000403FFBFF803FF6FFC03FF1FF44697363B1
:104070006172642052657475726E2E2E2E0A0020B5
:104080002D206434200064333A2000202D20643237
:10409000200064313A2000202D206C656E200056EF
:1040A000502072656365697665643A200020646C0F
:1040B000656E3D002076703D004F56464C0A004329
:1040C000616E6E6F7420656E7465722073756264C4
:1040D00069723A20004D323520500A4D3234005278
:1040E0006573756D65005549205061757365004EA7
:1040F0006F204D61746368203A004D32320A4D32B0
:10410000310049732046696C652000497320446979
:104110007220004D3130303043004D3130303000AE
:10412000496E76616C6964204F7074696F6E004DE2
:10413000353030004D3939390A4D3238305030532E
:10414000313630004D3530320A4D353030004D3586
:104150003030000A202A2A2A7265636461742E6452
:104160006174615B305D203D004732380A47312081
:104170004631303030205A313000556E73757070D2
:104180006F72746564204F7074696F6E2053656C34
:104190006563746564004D36303553300A473238F4
:1041A00058004D36303553310A54300A4732380AF8
:1041B0004D36303553320A473238580A4731583075
:1041C0000A4D3630355333004D36303553310A54AD
:1041D000300A4732380A4D36303553320A473238C2
:1041E000580A47315830004D36303553310A47327E
:1041F00038580A47315830004D32313153300A4770
:1042000039310A47315A302E3032350A4739300AAF
:104210004D3231315331004D32313153300A47394B
:10422000310A47315A2D302E3032350A4739300A9B
:104230004D32313153310047323953320047323930
:104240005331004732365232353500473330582526
:104250007359257300473330582573592573004728
:104260003330582573592573004733305825735917
:10427000257300473330582573592573004D313964
:10428000305335350A4732380A4732390A4D34300F
:10429000300A4D313034533231350A4732380A4D05
:1042A000313039533231350A4D34323053310A47C7
:1042B00031583130305931303046353030300A479E
:1042C000315A300A4D3530300A4D3131372053657F
:1042D00074205A204F66667365740047312046315A
:1042E000303030205A302E30004732380A473120E3
:1042F0004631303030205A302E30005A204F66661A
:10430000736574203A20257300526F756E64696E70
:104310006720746F207374657000526571756573E2
:10432000746564204F666673657420005A204F667A
:1043300066736574203A20257300526F756E646948
:104340006E6720746F2073746570005265717565B7
:1043500073746564204F6666736574200047323855
:104360000A473146313530305A302E300047323826
:104370005A0A473146313530305A302E30004265C6
:1043800064204C6576656C204F7074696F6E2000F8
:1043900052657475726E203A20004D3834004731F2
:1043A00046313030305A302E30004732380A4731EB
:1043B00046313030305A302E300052756E6F757481
:1043C0004D6F64653A20004D34323252004D343224
:1043D0003252005A204F6666736574203A20257366
:1043E00000526F756E64696E6720746F2073746518
:1043F0007000526571756573746564204F666673ED
:10440000657420004D38340068616E646C652077F7
:10441000616974776179203D3D0020746F6F206C75
:104420006F6E6720657874727573696F6E20707235
:104430006576656E7465640A0020636F6C64206540
:104440007874727573696F6E2070726576656E74BC
:1044500065640A00544D33442031305350726F5616
:10446000322052656164792E005072696E74696EF3
:10447000672E2E2E005072696E7420506175736520
:10448000640044697361626C6552756E6F75740087
:1044900050757267654D6F72650050617573656424
:1044A00000436F6E74696E7565004C6F61642046E1
:1044B000696C616D656E742054004C6F61642046B8
:1044C000696C616D656E7400496E73657274206607
:1044D000696C616D656E7420616E642073656E64D5
:1044E000204D3130380A002F2F616374696F6E3AA6
:1044F00000726573756D6564004469736D697373EB
:1045000000526573756D696E6700205A3A2000206D
:10451000593A200042656420583A200050726F6278
:10452000696E67204661696C65640A0050726F624B
:10453000696E67204661696C656400204500205AF9
:104540000020590020204D393220580053746570E6
:10455000732070657220756E697400220A00556EB2
:104560006B6E6F776E20636F6D6D616E643A2022A3
:10457000002042002050006F6B0020453A00205A76
:104580003A0020593A00583A006F6B0A005265739E
:10459000656E643A2000D800E60011241FBECFEFFC
:1045A000D1E2DEBFCDBF00E00CBF84B780939B1883
:1045B00014BE0FB6F894A89580916000886180932E
:1045C0006000109260000FBE14E0A0E0B2E0E8E8E6
:1045D000F1EB02E00BBF02C007900D92A43FB107C0
:1045E000D9F728E1A4EFB4E001C01D92AB39B207BE
:1045F000E1F712E2CCECD2E200E006C0219701091B
:10460000802FFE010F94F954CB3CD10780E00807BE
:10461000A9F70F945B3F0D94B2580C9400002091C1
:104620008A16833021F425FD0CC024FD0CC030E037
:10463000A90102C0559547958A95E2F7CA01817094
:10464000089581E0089580E008958091540784FDE5
:104650000BC08091560787FD07C090915707937054
:1046600081E019F480E0089581E00895CF92DF920F
:10467000EF92FF92CF93DF93EC01CC80DD80EE8050
:10468000FF8027E137EB41ED58EBC701B6010F94EE
:10469000695787FD23C023E030E04BE953E4C701AD
:1046A000B6010F941E4E1816CCF0C880D980EA804F
:1046B000FB8027E137EB41ED58EBC701B6010F94C2
:1046C000695787FD0BC0C1E023E030E84DE953E4B2
:1046D000C701B6010F941E4E18160CF4C0E08C2FC3
:1046E000DF91CF91FF90EF90DF90CF900895682FEA
:1046F00070E090E080E00F94254E20917507309196
:10470000760740917707509178070F94844E209157
:104710006D0730916E0740916F07509170070F94AD
:1047200009550895682F70E090E080E00F94254EC1
:10473000209171073091720740917307509174076F
:104740000F94844E2091690730916A0740916B075E
:1047500050916C070F940955089580916407811159
:104760000EC020913102309132022150310981E096
:104770004091541050915510421753070CF080E0AF
:104780000895269A2E9A08958F929F92AF92BF9283
:10479000CF92DF92EF92FF92FC01828158E5C52E05
:1047A00052E0D52EC81AD10887FDD394CC0CDD1C5D
:1047B000CC0CDD1C0D2C000CEE08FF08818178E884
:1047C000872E912C881A910887FD9394880C991C48
:1047D000880C991C092C000CAA08BB0880818F3F0B
:1047E000D1F190E0FC01EE0FFF1FE80FF91FE65832
:1047F000FF4E8181928133E0880F991F3A95E1F74E
:10480000B0E0A0E044E0B595A795979587954A95C7
:10481000D1F702969C012F5F3F4F032E000C440BF3
:10482000550B281939094A095B09A4EBB0E00F942C
:10483000A354A7019601281939094A095B090F9465
:104840008454C901FF90EF90DF90CF90BF90AF905C
:104850009F908F90089590E080E0DCCFCF93DF931E
:1048600000D01F92CDB7DEB780E090E0A0EAB0E4C0
:1048700089839A83AB83BC8341E061E0CE010196DA
:104880000E9422C50F900F900F900F90DF91CF9153
:104890000895AF92BF92CF92DF92EF92FF920F9363
:1048A0001F93CF935C016B018A01875F9A4F7C0154
:1048B000DC01CC91C7FF3DC0FB0111821082CF5FAC
:1048C000D701CC93CC300CF053C08CE08A9DF00122
:1048D0008B9DF00D1124CF018C0F911DC7FD9A9572
:1048E0002091C2102817190609F00CF441C0F601F6
:1048F00020813181FC01EE0FFF1FE80FF91FE65800
:10490000FF4E81819281820F931FD80111969C9353
:104910008E93808187FF3DC061E08F77CF911F919B
:104920000F91FF90EF90DF90CF90BF90AF900C94DD
:1049300080798CE08A9DF0018B9DF00D1124CF01D0
:104940008C0F911DC7FD9A952091C210281719064A
:1049500009F00CF4B4CFFC01EE0FFF1FE80FF91FB4
:10496000E658FF4E808160E08F770E948079A7CF64
:10497000F6018081918104968034FCE99F0710F450
:1049800080E49CE9D80111969C938E938FEFF701F8
:104990008083CF911F910F91FF90EF90DF90CF9088
:1049A000BF90AF900895FC0101900020E9F79F01AE
:1049B00021503109281B390B2F33310540F4FC01FC
:1049C000E20FF31F60832E33310509F01182089541
:1049D0000F931F93CF93DF9300D01F92CDB7DEB715
:1049E0009C0104EE19E090E1EDEAFAE0D8010190B3
:1049F0000D929A95E1F7F90120813181428153812D
:104A0000F80160857185828593850F940955F801B9
:104A1000608771878287938780E090E0A0EAB0E4A6
:104A200089839A83AB83BC83CE0101960E94ABC37A
:104A30000F900F900F900F90DF91CF911F910F91DA
:104A400008952F923F924F925F926F927F928F9232
:104A50009F92AF92BF92CF92DF92EF92FF921F93FD
:104A6000CF93DF93CDB7DEB72C970FB6F894DEBFA8
:104A70000FBECDBF7A011901DC012D913D914D9101
:104A80005C912D833E834F835887FB01408051808A
:104A9000628073808090AD0A9090AE0AA090AF0AB9
:104AA000B090B00AA50194016D817E818F819885B7
:104AB0000F941E4E81110EC011E0A301920160916E
:104AC000B10A7091B20A8091B30A9091B40A0F941E
:104AD0001E4E811110E0D1012D913D914D915C91BF
:104AE00029873A874B875C87F701C080D180E280B5
:104AF000F380209102023091030240910402509110
:104B00000502C701B6010F941E4E882309F44EC05A
:104B1000C0920202D0920302E0920402F0920502D7
:104B20008091B90A9091BA0AA091BB0AB091BC0ACF
:104B30004091B10A5091B20A6091B30A7091B40ADF
:104B40008092E4099092E509A092E609B092E70903
:104B50004093E8095093E9096093EA097093EB09DF
:104B6000C092EC09D092ED09E092EE09F092EF09C3
:104B70008093F0099093F109A093F209B093F3099F
:104B800020E030E040E05FE36091860A7091870AA0
:104B90008091880A9091890A0F94844E69837A8360
:104BA0008B839C83CE0101960E94ABC32D813E81F5
:104BB0004F8158852093E4093093E5094093E60935
:104BC0005093E7094092E8095092E9096092EA0996
:104BD0007092EB09D1012D913D914D915C916091C5
:104BE000F0097091F1098091F2099091F3090F9405
:104BF00009556093F0097093F1098093F20990933D
:104C0000F30911112FC020E030E0A90169857A85F0
:104C10008B859C850F941E4E811133C060E070E03F
:104C200088EC92E469837A838B839C83CE0101961E
:104C30000E94ABC32C960FB6F894DEBF0FBECDBF5B
:104C4000DF91CF911F91FF90EF90DF90CF90BF90B9
:104C5000AF909F908F907F906F905F904F903F901C
:104C60002F9008952AEF3EE74AE25FE360918A0AB7
:104C700070918B0A80918C0A90918D0A0F94844ECA
:104C8000D1CF60E070E080EA91E4CCCFCF93DF93A6
:104C9000EC0140E450E00F94154DCE01DF91CF912F
:104CA00008950F931F93CF93DF9300D000D01F92EE
:104CB0001F92CDB7DEB78B01FC0123A5211102C0E5
:104CC0000E9436FF1D821E821F82188620E030E07F
:104CD00040E05FE36091B50A7091B60A8091B70A2F
:104CE0009091B80A0F94095569837A838B839C83CA
:104CF0009E012B5F3F4FAE014F5F5F4F61EB7AE04C
:104D00008DEA9AE00E9421251D821E821F8218864C
:104D100020E030E040E05FE3F80160857185828546
:104D200093850F94095569837A838B839C83B8019B
:104D30006C5F7F4F9E012B5F3F4FAE014F5F5F4F18
:104D4000C8010E94212528960FB6F894DEBF0FBE39
:104D5000CDBFDF91CF911F910F910895CF93DF9336
:104D6000EC01FC0101900020E9F7CF0101978C1BB9
:104D70009D0B8F33910540F440E450E0481B590BE4
:104D80008C0F9D1F0F94644DCE01DF91CF9108953C
:104D9000EF92FF920F931F93CF93DF93CDB7DEB7C0
:104DA0002C970FB6F894DEBF0FBECDBF7C017F936A
:104DB0006F938CEF93E09F938F938E010F5F1F4F44
:104DC0001F930F930F948258B801C7010E94AE261B
:104DD0000F900F900F900F900F900F902C960FB692
:104DE000F894DEBF0FBECDBFDF91CF911F910F9121
:104DF000FF90EF900895EF92FF920F931F93CF9340
:104E0000DF93CDB7DEB764970FB6F894DEBF0FBE61
:104E1000CDBF7C01FB0160817181828193818E0114
:104E20000F5F1F4F248141E00F949548BC01C701DB
:104E30000E94AE2664960FB6F894DEBF0FBECDBFBB
:104E4000DF91CF911F910F91FF90EF900895909176
:104E5000E209992321F0682F80E00E94C6C880E013
:104E6000089581E080935710089580917305909183
:104E70007405009731F04AE050E070E060E00D9476
:104E8000E34B60E070E0CB010895FC016591759102
:104E9000859194910895CF93DF93C0915410D09150
:104EA0005510209729F16091501070915110809108
:104EB0005210909153100F9475566E5F7F4F249748
:104EC0006C177D07ACF47093D9056093D8050E94E8
:104ED000607A605A75418F4F9F4F6093DA057093E7
:104EE000DB058093DC059093DD05DF91CF9108957C
:104EF0001092DA051092DB051092DC051092DD05A8
:104F0000F4CF9B01AC01485F5F4FBC016C5F7F4FEA
:104F10000C9421252F923F924F925F926F927F9235
:104F20008F929F92AF92BF92CF92DF92EF92FF92B9
:104F30000F931F93CF93DF93CDB7DEB7A6970FB62E
:104F4000F894DEBF0FBECDBF8C011B015A87498785
:104F50004090AD0A5090AE0A6090AF0A7090B00ACF
:104F6000DB018D919D910D90BC91A02D8B8B9C8B25
:104F7000AD8BBE8B9C01AD01C301B2010F940855EE
:104F80006B017C018090B10A9090B20AA090B30AA4
:104F9000B090B40AD10114968D919D910D90BC9161
:104FA000A02D8F8B988FA98FBA8F9C01AD01C50161
:104FB000B4010F9408556B8F7C8F8D8F9E8FA985C0
:104FC000BA858D919D910D90BC91A02D8B879C876A
:104FD000AD87BE879C01AD01C301B2010F94085596
:104FE0006F8F78A389A39AA3A985BA8514968D910A
:104FF0009D910D90BC91A02D8F87988BA98BBA8B1A
:105000009C01AD01C501B4010F9408556BA37CA3AD
:105010008DA39EA3A7019601C701B6010F94844EEC
:105020006B017C012B8D3C8D4D8D5E8DCA01B901CC
:105030000F94844E9B01AC01C701B6010F94095532
:105040004B015C012B893C894D895E896B857C8590
:105050008D859E850F9408552B013C012F89388D35
:10506000498D5A8D6F85788989899A890F94085559
:105070006B017C01A3019201C301B2010F94844E24
:105080002B013C01A7019601C701B6010F94844E84
:105090009B01AC01C301B2010F9409550F94B7579E
:1050A0006B017C012F8D38A149A15AA1CA01B90118
:1050B0000F94844E2B013C012BA13CA14DA15EA17C
:1050C000CA01B9010F94844E9B01AC01C301B20126
:1050D0000F9409559B01AC01C501B4010F946957A8
:1050E0001816B4F520E030E0A901C701B6010F940D
:1050F000695787FF2AC0C701B601905820E030E009
:1051000040EA50E40F946957181614F5A101698517
:105110007A85C8010E948A27A6960FB6F894DEBF4A
:105120000FBECDBFDF91CF911F910F91FF90EF90F8
:10513000DF90CF90BF90AF909F908F907F906F90B7
:105140005F904F903F902F900895C701B601D6CF42
:1051500020E030E040E050E4C501B4010F9469570D
:10516000181624F4B101C8010E94512619821A822E
:105170001B821C82BE016F5F7F4FC1010E9481278D
:105180002DEC3CEC4CEC5CE3C701B6010F94844E73
:105190009B01AC01F80160817181828193810F9440
:1051A000844E6D837E838F839887D8019B968C91E4
:1051B0009B978823C9F02AE939E949E95FE3149606
:1051C0006D917D918D919C9117970F94844E698379
:1051D0007A838B839C83BE016F5F7F4F84EE99E05F
:1051E0000E948127F80113A6BE016B5F7F4F89855E
:1051F0009A850E94812790CF4F925F926F927F9203
:105200008F929F92AF92BF92CF92DF92EF92FF92D6
:105210000F931F93CF93DF93CDB7DEB768970FB689
:10522000F894DEBF0FBECDBF7C01FB018081C42E90
:10523000C80EF4E0FC1508F4B0C0FB01D180022FC9
:105240000D0D053008F0A9C0ED2DF0E0E659FA4F3C
:10525000E081F0E0082E02C0F595E7950A94E2F7A8
:10526000E0FF9BC0E02FF0E0E659FA4FE081F0E06C
:105270000C2C02C0F595E7950A94E2F7E0FF8DC08B
:10528000122F742E0E9492234B015C01672D660F32
:10529000770B072E000C880B990B0F94254E2B01D2
:1052A0003C01AC019B01C501B4010F9409556D8708
:1052B0007E878F87988B8C2D0E949223A301920169
:1052C0000F94085569837A838B839C838D2D0E946C
:1052D00077234B015C01612F660F770B072E000CC3
:1052E000880B990B0F94254E2B013C01AC019B01BF
:1052F000C501B4010F940955698B7A8B8B8B9C8BFC
:10530000802F0E947723A30192010F9408556D838B
:105310007E838F839887F70180859185A285B385E9
:1053200089879A87AB87BC878D8B9E8BAF8BB88F15
:1053300045E351E061E070E0CE0141960E9464B91E
:1053400045E351E061E070E0CE0105960E9464B94A
:105350004AE351E061E070E0CE010D960E9464B92D
:105360004AE351E061E070E0CE0101960E9464B929
:10537000CE010D960E943623882379F0CE01019646
:105380000E943623882349F0AE014F5F5F4FBE0174
:10539000635F7F4FC7010E948A2768960FB6F89413
:1053A000DEBF0FBECDBFDF91CF911F910F91FF9058
:1053B000EF90DF90CF90BF90AF909F908F907F90B5
:1053C0006F905F904F900895809173059091740550
:1053D000009731F04AE050E070E060E00D94B54A8B
:1053E00060E070E0CB0108950E94E42997FD0CC0B5
:1053F0000E94E4296F3F71058105910509F034F49D
:105400000E94E429862F089580E008958FEF089583
:105410008091730590917405892B41F00E94F429C5
:1054200091E0811101C090E0892F089591E0FCCFB7
:105430000E94E429CB0108950F931F93CF9380918D
:10544000730590917405009709F1FC018F01C191DA
:105450002C2F2F7DA1F0C53431F0C53621F0C83591
:1054600011F0C83799F7F801108270E060E00F94EE
:105470005749F801C083CF911F910F91089570E0B3
:1054800060E0CF911F910F910D94574960E070E05B
:10549000CB01F1CF2FEB280F2A3108F047C0E22FC4
:1054A000F0E08091540790915507A0915607B09174
:1054B000570704C0B695A795979587952A95D2F773
:1054C00080FD02C081700895E65CF84FE081EE2314
:1054D00041F18091A70A9091A80AE80FF92FF11DD8
:1054E000808190ED980F9A3030F08E3251F48181A6
:1054F00080538A3098F4F0937405E093730581E04B
:1055000008958D3211F08B3249F4818190ED980F1E
:105510009A3088F38E3211F48281EACFF0E0E0E035
:10552000EACF1092740510927305E9CF80E00895D8
:105530000F931F93CF930E942523882399F185E42D
:105540000E944A2A882361F0809173059091740526
:10555000892B21F00E94182A811102C00E941C9DF3
:1055600003E912E0C0E0F80121918F0121548091FC
:10557000540790915507A0915607B091570704C062
:10558000B695A795979587952A95D2F780FF03C082
:105590008C2F0E945A9DCF5FC33029F7CF911F9166
:1055A0000F91089588EC9DE00F94DD0180E00E944A
:1055B0005A9D81E00E945A9D82E00E945A9DCF919F
:1055C0001F910F910C941C9D0E944A2A882341F040
:1055D00081E02091730530917405232B09F480E05C
:1055E0000895CF92DF92EF92FF926A017B010E94B1
:1055F000E42A882331F0FF90EF90DF90CF900C9455
:105600001C2AC701B601FF90EF90DF90CF9008955C
:10561000CF93DF93EB010E94E42A882321F0DF91EE
:10562000CF910C94182ACE01DF91CF910895CF939A
:10563000DF93EB010E94E42A882319F00E94E429F9
:10564000EB01CE01DF91CF9108950F931F93CF937C
:1056500083E50E94E42A882301F10E94607A609326
:10566000DA0A7093DB0A8093DC0A9093DD0A0E94C9
:105670001C2A20E030E04AE754E40F94844E0F9453
:105680007C56609306027093070280930802909301
:105690000902CF911F910F9108950E94252388231D
:1056A00039F10E9418BA85E40E944A2A81110E94A9
:1056B000149D03E912E0C0E0F80121918F0121540B
:1056C0008091540790915507A0915607B0915707C4
:1056D00004C0B695A795979587952A95D2F780FF30
:1056E00003C08C2F0E94239DCF5FC33029F7D1CFF9
:1056F000CF911F910F910C9429BA4F925F926F92A4
:105700007F92AF92BF92CF92DF92EF92FF920F9370
:105710001F93CF938091540784FD09C08091560751
:1057200087FD05C080915707837009F48EC083E917
:10573000A82E82E0B82E0AE51AE0C0E0F5018191BA
:105740005F010E94E42A882349F0C330D9F00E9407
:105750001C2AF801648B758B868B978BCF5F0C5F4F
:105760001F4FC43059F7CF911F910F91FF90EF90C9
:10577000DF90CF90BF90AF907F906F905F904F90F1
:105780000C94F4B90E941C2A6B017C0120E030E0EB
:1057900040EA51E40F941E4E87FF4EC0A7019601C8
:1057A00060917A0A70917B0A80917C0A90917D0ABF
:1057B0000F9403562B013C01AC019B016091F8084A
:1057C0007091F9088091FA089091FB080F94844E2B
:1057D0006093F8087093F9088093FA089093FB0897
:1057E000A301920160918A0A70918B0A80918C0AC0
:1057F00090918D0A0F94844E60938A0A70938B0A5D
:1058000080938C0A90938D0A6091E4087091E5086A
:105810008091E6089091E7080F94234EA30192012E
:105820000F94844E0F947C566093E4087093E508BF
:105830008093E6089093E708C0927A0AD0927B0A98
:10584000E0927C0AF0927D0A89CF81E0CF911F918E
:105850000F91FF90EF90DF90CF90BF90AF907F902F
:105860006F905F904F900C940FFDCF93C62F0E94C6
:10587000E42A882319F0CF910C94F4298C2FCF912E
:105880000895CF93DF93C82FD62F0E94E42A882350
:1058900021F0DF91CF910C94082A8C2F0E944A2A84
:1058A000811101C08D2FDF91CF910895CF92DF92AA
:1058B000EF92FF92CF936B017C01C42F8091070977
:1058C0008F5F09F4B5C08093070980910709809321
:1058D000B60920E030E040E752E460915F02709149
:1058E000600280916102909162020F94844E0F9445
:1058F0007C567093190960931809C0921A09D092C6
:105900001B09E0921C09F0921D098091B509C0FBAA
:1059100080F98093B5098CE0E8E6F6E0AEE1B9E005
:1059200001900D928A95E1F78CE0EDEBFAE0AAE2A6
:10593000B9E001900D928A95E1F7809199059091D7
:10594000B50980FB94F99093B509882381F0809183
:10595000950590919605A0919705B0919805809333
:10596000360990933709A0933809B093390980918B
:1059700054109091551090933B0980933A0980916F
:1059800028109091291090933D0980933C098091B3
:10599000A30A80933E098091B5099091DC0990FBA0
:1059A00083F98093B5098091DD099091DE09A0917A
:1059B000DF09B091E00980933F0990934009A093DB
:1059C0004109B09342090E94D2CB6093B009709311
:1059D000B1098093B2099093B30980918A1680939C
:1059E000B409909102098091B50993FB81F99091D6
:1059F000640790FB82F98093B50980E00E9441AC76
:105A000040E050E0BA018CE996E10E94A68340EBA9
:105A100050E067E079E08CE996E10E943A848CE9F5
:105A200096E1CF91FF90EF90DF90CF900C94678735
:105A300081E049CF4F925F926F927F928F929F92B7
:105A4000AF92BF92CF92DF92EF92FF920F931F938C
:105A5000CF93DF9300D01F92CDB7DEB719821A82A1
:105A60001B821C8293E9892E92E0992ECE01019629
:105A70005C0124EEC22E29E0D22E3DEAE32E3AE06C
:105A8000F32E10E000E0F40181914F010E94E42A1E
:105A9000F50181935F01882309F4EDC00E941C2A5F
:105AA0002B013C01802F0E940F23882309F4D3C0CF
:105AB000F7012081318142815381C301B2010F94EA
:105AC0000955F60160837183828393830F5F1F4FB3
:105AD000F4E0CF0ED11C84E0E80EF11C0330110578
