:100000000C94A71D0C94E71D0C94E71D0C94E71DA0
:100010000C94E71D0C94E71D0C94E71D0C94E71D50
:100020000C94E71D0C94E71D0C94E71D0C94E71D40
:100030000C94E71D0C94E71D0C94E71D0C94E71D30
:100040000C94E71D0C94D89A0C94E71D0C94E71DB2
:100050000C94E71D0C945F990C94E71D0C9419EF18
:100060000C94E71D0C94593A0C944F3A0C94E71DEC
:100070000C94E71D0C94E71D0C94E71D0C94E71DF0
:100080000C94E71D0C94E71D0C94E71D0C94E71DE0
:100090000C94E71D0C94E71D0C94E71D0C94E71DD0
:1000A0000C94E71D0C94E71D0C94E71D0C94E71DC0
:1000B0000C94E71D0C94E71D0C94E71D0C94E71DB0
:1000C0000C94E71D0C94E71D0C94E71D0C94302F45
:1000D0000C94FA2E0C94E71D0C94E71D0C94E71D6C
:1000E0000C94E71D084AD73B3BCE016E84BCBFFD94
:1000F000C12F3D6C74319ABD56833DDA3D00C77FF8
:1001000011BED9E4BB4C3E916BAAAABE0000008090
:100110003F05A84CCDB2D44EB93836A9020C50B91F
:10012000918688083CA6AAAA2ABE000000803F004B
:100130000C9455DC0C9443DC0D94D4030C94B32D37
:100140000D94E4120C94D72D0C94B7BB0C94078734
:100150000D94F9020C948D2D0D940D030C94F43D27
:100160000C94DCBB0C94FD3D0C94C82F0C94F53A18
:100170000D94D8120C94E1430C94FD3A0C94B23DCA
:100180000D94A1070C94D52D0C94FDBA0D94CB03BE
:100190000C94053B0D94A5030C94D42F0C94CC2FF8
:1001A0000C941EDC0C94013B0D94E1120C94712F05
:1001B0000C94F6430C942F3B0C9425DC0C94E53DF9
:1001C0000C942BDC0C942A860C94B52D0C94A02F47
:1001D0000C94E62F0C948F2D0C94BA810D94560735
:1001E0000C94E12F0C9492BB0C940D860C944D2D25
:1001F0000C94743E0D94B9030D94D5120C9448BB25
:100200000C94C93A0C94B3BA0C94AA880C9401BC0F
:100210000C94033E0C94D8BA0C943D820C943DDCB3
:100220000D9430030C941ADC0C9471BA0D944403B1
:100230000C94DF870D9496010C946D2D0D94B007EE
:100240000C9451DC0D9462020D944A070D94B00396
:100250000C946B2D0D94F8030C94EA3A0C94412DF8
:100260000D9403040D94DB120C9447DC0D940604EA
:100270000C940A3B0D9489070C94FE2F0C943C823D
:100280000C9439DC0C94B12D0C94D02F0C9410DC10
:100290000C94433E0C94703E0D94DE120C9422DCC0
:1002A0000C946DBB0C94A2860C941C3B0C94A08700
:1002B0000D94B4010C94D92D0C9428440C940F3B4C
:1002C0000C94F93A0D947A070D94EB030C9450DCDE
:1002D0000C94F13D0D9438020D94DD030C94EB2F3A
:1002E0000C94B2870C9422870D9495070C9416DC1D
:1002F0000D94C2030C94F13A0C94FA3D0C94AF2F78
:100300000C94003E0D94EA120D94C4000D94D0029A
:100310000D943C2E0C94C3860C94C12F0C94063083
:100320000C94143B0C94DC2F0D94E7120C94F32FD7
:100330000D94E7030C94EE3D0C94B8430D9409041E
:100340000C94912D0C949A3A0D94CF120C94E83D94
:100350000D9403010D94ED030C94273B0C94F73D91
:100360000C944BDC0C94D83A0C94D82F0D94ED12CD
:100370000C94EB3D0D940C040C942FDC0D94630352
:100380000C9435DC0D945A2E0D94D2120D94CA1291
:100390004E414E494E495459494E46CDCCCC3D0A6A
:1003A000D7233C17B7D13877CC2B329595E6241F4D
:1003B000B14F0A000020410000C84200401C462006
:1003C000BCBE4CCA1B0E5AAEC59D7400407A10F3D9
:1003D0005A00A0724E18090010A5D4E80000E87673
:1003E00048170000E40B54020000CA9A3B000000CA
:1003F000E1F505000080969800000040420F0000E3
:1004000000A08601000000102700000000E80300A3
:100410000000006400000000000A0000000000016D
:1004200000000000002C76D888DC674F0823DFC16D
:10043000DFAE59E1B1B796E5E3E453C63AE6519928
:100440007696E8E6C28426EB898C9B62ED407C6F51
:10045000FCEFBC9C9F40F2BAA56FA5F490055A2A08
:10046000F75C936B6CF9676DC11BFCE0E40D47FE14
:10047000F520E6B500D0ED902E0300943577050009
:1004800080841E080000204E0A000000C80C333390
:1004900033330F986E12831141EF8D2114893BE69F
:1004A0005516CFFEE6DB18D1844B381BF77C1D9028
:1004B0001DA4BBE424203284725E228100C9F12491
:1004C000ECA1E53D2744455441494C00434F4D4D77
:1004D000554E49434154494F4E0044525952554E8E
:1004E000004552524F525300494E464F0045434833
:1004F0004F0053544F505045442E20005072696EA7
:100500007465722073746F70706564206475652003
:10051000746F206572726F72732E20466978207432
:100520006865206572726F7220616E6420757365F4
:10053000204D39393920746F20726573746172747B
:100540002E202854656D706572617475726520691E
:10055000732072657365742E20536574206974204E
:1005600061667465722072657374617274696E6716
:10057000290A004E6F20436865636B73756D2077A1
:10058000697468206C696E65206E756D6265722C89
:10059000204C617374204C696E653A20004E6F20C8
:1005A000436865636B73756D2077697468206C6947
:1005B0006E65206E756D6265722C204C61737420BF
:1005C0004C696E653A2000636865636B73756D20D6
:1005D0006D69736D617463682C204C617374204C79
:1005E000696E653A20004C696E65204E756D6265D6
:1005F00072206973206E6F74204C617374204C6993
:100600006E65204E756D6265722B312C204C6173C6
:1006100074204C696E653A20004D313130005365CD
:100620007269616C20737461747573206D69736D88
:10063000617463680A0053442072656164206572C6
:10064000726F720A00746F6F206D75636820696E37
:100650006163746976652074696D65202D2063750A
:100660007272656E7420636F6D6D616E643A200006
:100670002121204B494C4C206361757365642062D5
:10068000792000486F74656E642049646C6520545D
:10069000696D656F757400486F74656E6420496498
:1006A0006C652054696D656F75740A0062757379A5
:1006B0003A2070617573656420666F7220696E7090
:1006C00075740A00627573793A2070617573656498
:1006D00020666F7220757365720A00627573793ACD
:1006E0002070726F63657373696E670A004D3130F5
:1006F000303053003D3D6F6E46696C616D656E74C0
:1007000052756E6F75743D3D007061757365004D77
:10071000363030002066696C616D656E745F72758D
:100720006E6F7574200066696C616D656E745F72C2
:10073000756E6F757420540046696C616D656E74DA
:1007400052756E6F757420540025533A202553005E
:100750002A2A2A6B696C6C2A2A2A00706F776572C4
:100760006F6666004B494C4C45442E200050726920
:100770006E7465722068616C7465642E206B696CA0
:100780006C28292063616C6C6564210A00656368CC
:100790006F3A004572726F723A0020286469736183
:1007A000626C6564290A0020280041424C204164A3
:1007B0006A7573746D656E74205A005A20466164C0
:1007C000653A20002028656E61626C6564290A0024
:1007D00041626F76650053616D65205A2061730038
:1007E00042656C6F77004175746F20426564204CE0
:1007F0006576656C696E673A2042494C494E4541C1
:100800005200204E6F7A7A6C65290A00202620005B
:100810002D43656E746572002D46726F6E74002DE7
:100820004261636B002028416C69676E65642057E4
:100830006974680020284D6964646C650020284C48
:1008400065667400202852696768740050726F6290
:1008500065204F666673657420580050726F62653C
:100860003A204649585F4D4F554E5445445F5052CB
:100870004F42450A004D616368696E652054797086
:10088000653A2043617274657369616E0A0042695A
:100890006C696E656172204C6576656C696E672067
:1008A000477269643A0A003E3E3E003C3C3C00739D
:1008B00065745F6265645F6C6576656C696E675FC1
:1008C000656E61626C65640072657365745F626514
:1008D000645F6C6576656C0A00203A204C6576652D
:1008E0006C696E67204F4E0A002020637572726536
:1008F0006E745F706F736974696F6E3D00203A208B
:100900004C6576656C696E67204F46460A0020206C
:1009100063757272656E745F706F736974696F6E00
:100920003D002F2F616374696F6E3A006E6F7469BA
:100930006669636174696F6E2000656E6400736838
:100940006F7700627574746F6E00486F74656E64C3
:1009500020746F6F20636F6C640A0053656E6420AF
:100960004D31303820746F20726573756D650A00E3
:10097000496E736572742066696C616D656E742072
:10098000616E642073656E64204D3130380A005208
:10099000656865617420446F6E65005265686561C5
:1009A00074696E672E2E2E0052656865617400486A
:1009B00065617465722054696D656F757400536567
:1009C0006E64204D31303820746F2068656174206A
:1009D0006E6F7A7A6C650A004E6F7A7A6C65205079
:1009E00061726B6564007061757365640050617558
:1009F00073650057616974696E6720666F7220685D
:100A000065617475702E0A004C656176696E6720A9
:100A1000473236003F5370656369666965642058E4
:100A20002C5920636F6F7264696E617465206F75F5
:100A300074206F6620626F756E64732E0A003F2803
:100A4000522965706561742076616C7565206E6FE2
:100A50007420706C61757369626C653B206D757391
:100A600074206265206174206C6561737420312E7E
:100A70000A003F2852296570656174206D75737492
:100A800020626520737065636966696564207768B4
:100A9000656E206E6F74207573696E6720616E20BD
:100AA0004C43442E0A003F53706563696669656470
:100AB000206E6F7A7A6C652074656D7065726174F2
:100AC000757265206E6F7420706C61757369626CED
:100AD000652E0A003F537065636966696564206628
:100AE000696C616D656E742073697A65206E6F74D0
:100AF00020706C61757369626C652E0A003F5370DB
:100B000065636966696564207072696D65206C65EE
:100B10006E677468206E6F7420706C6175736962A3
:100B20006C652E0A003F5072696D65206C656E67BA
:100B30007468206D757374206265207370656369D5
:100B400066696564207768656E206E6F74207573C2
:100B5000696E6720616E204C43442E0A003F53703B
:100B600065636966696564206E6F7A7A6C65207367
:100B7000697A65206E6F7420706C61757369626C40
:100B8000652E0A003F52657472616374696F6E204E
:100B90004D756C7469706C696572206D7573742025
:100BA0006265207370656369666965642E0A003F3B
:100BB0005370656369666965642052657472616328
:100BC00074696F6E204D756C7469706C6965722004
:100BD0006E6F7420706C61757369626C652E0A00AB
:100BE0003F537065636966696564206C61796572FD
:100BF00020686569676874206E6F7420706C617519
:100C00007369626C652E0A0043292E0A003F5370F7
:100C100065636966696564206265642074656D70EA
:100C200065726174757265206E6F7420706C617589
:100C30007369626C65202834302D0047323620738A
:100C400074617274696E672E2E2E0A004F46460A32
:100C500000466164652048656967687420004265E4
:100C600064204C6576656C696E6720004661696C2E
:100C7000656420746F20656E61626C6520426564F6
:100C8000204C6576656C696E670A00496E76616C0A
:100C90006964206D6573682E0A00203A203E20703A
:100CA000726F62696E6720636F6D706C6574650A40
:100CB00000202063757272656E745F706F73697463
:100CC000696F6E3D0050726F62696E6720506F6988
:100CD0006E740025532025692F2569002E0A002FE8
:100CE0000050726F62696E67206D65736820706F67
:100CF000696E742000202844525952554E290047ED
:100D00003239204175746F20426564204C657665E8
:100D10006C696E67003F20284C2C522C462C4229CF
:100D2000206F7574206F6620626F756E64732E0A73
:100D300000204200204600205200473239204C005B
:100D40003F2856296572626F7365206C6576656C05
:100D500020696D706C61757369626C652028302D37
:100D600034292E0A00426164205A2076616C756530
:100D70000A004E6F2062696C696E6561722067724D
:100D800069640A004732384C30003E204175746F68
:100D90002D6C6576656C206E6F74206E656564657C
:100DA000642C20736B69700A00473239005A205056
:100DB000726F62652050617374204265640A005A44
:100DC0002050726F62652050617374204265640028
:100DD000203A20686F6D655F7A5F736166656C7934
:100DE0000A00202064657374696E6174696F6E3DDA
:100DF00000686F6D655F7A5F736166656C7900523C
:100E000061697365205A20286265666F7265206883
:100E10006F6D696E672920627920003E20686F6DD2
:100E2000696E67206E6F74206E65656465642C2042
:100E3000736B69700A004732380020440020204D4F
:100E4000323030205300202844697361626C65643D
:100E5000293A0046696C616D656E7420736574741F
:100E6000696E67730020204D3230312058004D618B
:100E70007820416363656C65726174696F6E2028C8
:100E8000756E6974732F7332290020204D32303310
:100E90002058004D617820666565647261746573E1
:100EA0002028756E6974732F73290020520020204A
:100EB0004D323034205000416363656C657261745B
:100EC000696F6E2028756E6974732F73322920281C
:100ED000503C7072696E742D616363656C3E205284
:100EE0003C726574726163742D616363656C3E204E
:100EF000543C74726176656C2D616363656C3E2948
:100F00000020580020540020530020204D3230355E
:100F1000204200416476616E6365642028423C6D26
:100F2000696E5F7365676D656E745F74696D655F2B
:100F300075733E20533C6D696E5F666565647261D2
:100F400074653E20543C6D696E5F74726176656CA9
:100F50005F66656564726174653E20583C6D6178BA
:100F60005F6A65726B3E20593C6D61785F6A65729D
:100F70006B3E205A3C6D61785F6A65726B3E20451E
:100F80003C6D61785F6A65726B3E290020440020E9
:100F9000490020204D333031205000486F74656E79
:100FA00064205049440020440020490020204D3353
:100FB00030342050004265642050494400203B00FA
:100FC00020550020204D363033204C0046696C619E
:100FD0006D656E74206C6F61642F756E6C6F6164EB
:100FE000004D323453256C6454256C64004739320B
:100FF0002E394525730047314625640047315A256F
:1010000073463630300047315825735925734633BF
:10101000303030004D313036502569532569004D50
:10102000313039532569004D323030442573004743
:1010300039322E395A2573004D3432305325635AD4
:10104000257300473238523058590047315A2573BA
:1010500046363030004739322E395A257300473929
:10106000322E394530004D313039532569004D312C
:101070003930532569004D343230205330205A30F6
:10108000003D3D4F6E506F7765724C6F73735265C4
:1010900073756D653D3D00203B200020204D3431AF
:1010A00033205300506F7765722D6C6F737320720D
:1010B00065636F76657279004F4646004F4E00209B
:1010C0003B20486F73742068616E646C696E6720A2
:1010D00000203B204D6F646520006D6D00203B209B
:1010E00044697374616E6365200046696C616D6567
:1010F0006E742072756E6F757420003B200020495D
:101100006E76616C696420657874727564657220AE
:101110000047322F47332062616420706172616D35
:1011200065746572730A00536C6565702E2E2E000F
:10113000205A3A200020593A200042656420583A4B
:1011400020004D65736820706F696E74206F757430
:10115000206F662072616E67650A00626567696E5E
:10116000004D302053746F70004D312053746F70F8
:1011700000436C69636B20746F20526573756D65F5
:101180002E2E2E004E6F204D6F76652E00456E641C
:101190002066696C65206C6973740A004265676932
:1011A0006E2066696C65206C6973740A004E6F204E
:1011B0006D656469610A00526573756D696E6720BB
:1011C000534400286E6F2066696C65290043757270
:1011D00072656E742066696C653A20004E6F7420EB
:1011E0005344207072696E74696E670A005344201C
:1011F0007072696E74696E6720627974652000256B
:1012000069730025696D20256973002569682025AB
:10121000696D20256973002569642025696820258A
:10122000696D202569730025697920256964202569
:1012300069682025696D20256973005072696E7494
:101240002074696D653A20003F43616E6E6F7420B3
:10125000777269746520746F20494E5055540A00A6
:10126000496E76616C69642050696E204D6F6465CB
:101270000A006F6B006F666600ED04E804E104DAB3
:1012800004CC04C50444454255473A004D3131333E
:10129000205300544D33442031305350726F563236
:1012A000204F46462E004649524D574152455F4E0B
:1012B000414D453A4D61726C696E204457372E346A
:1012C0002E3720544D33442053534D444E42202852
:1012D00041756720313920323032352031323A358C
:1012E000313A35362920534F555243455F434F44D9
:1012F000455F55524C3A68747470733A2F2F676982
:10130000746875622E636F6D2F496E73616E6974B8
:10131000794175746F6D6174696F6E2F4D61726C78
:10132000696E2F747265652F437265616C6974799B
:101330004477696E5F322E302050524F544F434FE6
:101340004C5F56455253494F4E3A312E30204D4155
:101350004348494E455F545950453A544D33442013
:1013600031305350726F56322045585452554445CF
:10137000525F434F554E543A3120555549443A63D4
:10138000656465326132662D343161322D34373413
:10139000382D396231322D63353563363266333656
:1013A000376666002F2F005741524E494E47212085
:1013B0004C6F77205A204A65726B206D6179206CE2
:1013C00065616420746F20756E77616E746564204A
:1013D0007061757365732E0A0020204D61783A2084
:1013E00000200020204D696E3A2000203B20002084
:1013F000204D323131205300536F667420656E6486
:1014000073746F707300250A0046523A0020466CD0
:101410006F773A200050726F746563746564205072
:10142000696E0A00363726033C3D380E2E303E12D8
:101430001A1C180A43090844000142616279737456
:101440006570205A0064697300656E0043290A00C4
:1014500061626C656420286D696E2074656D702012
:1014600000436F6C642065787472756465732061E5
:1014700072652000504944204175746F74756E6523
:1014800000206661696C65642120426164206865A2
:10149000617465722069640A005049442041757482
:1014A0006F74756E65004D34323120696E636F72F2
:1014B0007265637420706172616D65746572207508
:1014C000736167650A004D65736820706F696E749B
:1014D000206F7574206F662072616E67650A002048
:1014E0003B204C6576656C696E67200020204D348A
:1014F00032302053004175746F20426564204C6582
:1015000076656C696E670020204D393030204B00C5
:101510004C696E65617220416476616E636500207E
:10152000500020440020204D3539312053004669B9
:101530006C616D656E742072756E6F757420736565
:101540006E736F7200204A002020473239205720E6
:10155000490020204D3134392043203B20556E690D
:10156000747320696E2043656C736975730A005447
:10157000656D706572617475726520556E697473FE
:10158000002020473231203B004C696E656172209B
:10159000556E69747300454550524F4D204F4B0AAC
:1015A00000290A0020746F20003F5A206F757420B4
:1015B0006F662072616E6765202800290A0020741A
:1015C0006F20003F59206F7574206F662072616E26
:1015D000676520282D00290A0020746F20003F58DD
:1015E000206F7574206F662072616E676520282DEC
:1015F000002E0A002028302D313029002076616C21
:101600007565206F7574206F662072616E67650066
:10161000416476616E6365204B3D004D3834004473
:101620006F6E65207072696E74696E672066696C92
:10163000650A004D3737004D333100290A002E2E40
:101640002E2800540020204D323036205800486F9C
:101650006D65206F6666736574004F6666736574AA
:1016600073204170706C696564004572723A205451
:101670006F6F206661722100546F6F206661722067
:1016800066726F6D207265666572656E6365207047
:101690006F696E740A0020286D6D2900203B0020C0
:1016A000204D3835312058005A2D50726F62652018
:1016B0004F666673657400436F6F6C696E672E2E9C
:1016C0002E0045312025530042656420436F6F6C26
:1016D000696E672E2E2E004265642048656174692C
:1016E0006E672E2E2E003D3D4477696E20496E694F
:1016F0007420436F6D706C6574653D3D0068616E6C
:10170000646C652077616974776179203D3D0020C4
:10171000202A2A2A2A2A2A2A5254535F48616E64B0
:101720006C65446174612A2A2A2A2A2A2A2A2000FE
:10173000202D206434200064333A2000202D2064C2
:1017400032200064313A2000202D206C656E20008C
:1017500056502072656365697665643A20002A2ACE
:101760002A4E6F7A7A6C6554656D70537461747526
:10177000735B325D203D003D3D48656174696E6775
:1017800020446F6E65204368616E67652046696C12
:10179000616D656E743D3D002020737461727470DC
:1017A000726F677265737320004D32320A4D3231A9
:1017B000003D3D7761697477617920353D3D003D9D
:1017C0003D7761697477617920343D3D003D3D7717
:1017D00061697477617920333D3D003D3D776169F2
:1017E0007477617920313D3D00436F6E6669726D9B
:1017F00020436F6E74696E75650050617573655333
:10180000746174757300524553554D45204F5054C3
:10181000494F4E533A0048656174696E672E2E2E0B
:10182000000000436C69636B20746F20686561740D
:10183000000000526573756D696E672E2E2E0000D4
:101840000050757267696E672E2E2E000000496E7B
:101850007365727420616E6420436C69636B000071
:1018600000436C69636B20746F20636F6E74696EE4
:101870007565000000456A656374696E672E2E2EDB
:10188000000000506C6561736520776169742E2ECD
:101890002E0000005061726B696E672E2E2E0000C4
:1018A000002A2A2A496E6974696E6720636172642E
:1018B000206973204F4B2A2A2A003D3D6F6E5072DB
:1018C000696E7454696D657253746F707065643DB0
:1018D0003D003D3D6F6E55736572436F6E66697274
:1018E0006D52657175697265643D3D005061757337
:1018F00065204D6F646520537461747573004C6F7F
:101900006164696E672E2E2E0000003D3D6F6E46AD
:101910006163746F727952657365743D3D00270A87
:101920000A0000272027002027002D0063616E6336
:10193000656C005072696E742041626F72746564E8
:101940000055492041626F72746564007265737559
:101950006D65004D3234002A2A2A43506C6179208B
:10196000546F6E652A2A2A003D3D6F6E5072696E73
:101970007454696D65725061757365643D3D003DD9
:101980003D6F6E5072696E7454696D657253746107
:10199000727465643D3D00486F6D696E67204661F5
:1019A000696C65640050524553454E54004F555480
:1019B000006F70656E0054524947474552454400D8
:1019C0003A20004D4F54494F4E203A20004F464692
:1019D0000A003A200066696C616D656E74007A5F7A
:1019E0006D696E00795F6D696E00785F6D696E007C
:1019F0005265706F7274696E6720656E6473746F80
:101A000070207374617475730A00203A2073796EC4
:101A1000635F706C616E5F706F736974696F6E0A7B
:101A200000202063757272656E745F706F736974E5
:101A3000696F6E3D003E2000646F5F626C6F636B88
:101A4000696E675F6D6F76655F746F0020746F6F8E
:101A5000206C6F6E6720657874727573696F6E2085
:101A600070726576656E7465640A0020636F6C64DD
:101A700020657874727573696F6E20707265766513
:101A80006E7465640A00486F6D6520257320466991
:101A9000727374005761726E696E673A20486F6D99
:101AA000696E672042756D702044697669736F7244
:101AB000203C20310A00020204290A003C3C3C2060
:101AC0007365745F617869735F69735F61745F6880
:101AD0006F6D652800203A200A002020637572721D
:101AE000656E745F706F736974696F6E3D005D2021
:101AF0003D20003E20686F6D655F6F66667365749C
:101B00005B002A2A2A205A20484F4D454420574935
:101B100054482050524F424520285A5F4D494E5F4D
:101B200050524F42455F555345535F5A5F4D494EA2
:101B30005F454E4453544F505F50494E29202A2A46
:101B40002A0A3E2070726F62652E6F666673657436
:101B50002E7A203D200000001643000016430000AE
:101B60000000290A003E3E3E207365745F6178697B
:101B7000735F69735F61745F686F6D652800290A20
:101B8000003C3C3C20686F6D6561786973280020DB
:101B90003A203E204146544552207365745F617877
:101BA00069735F69735F61745F686F6D650A0020B8
:101BB0002063757272656E745F706F736974696F9C
:101BC0006E3D006D6D0A0052652D62756D703A2094
:101BD000006D6D0A004D6F766520417761793A207E
:101BE000006D6D0A00486F6D6520466173743A2080
:101BF000000000A5430000A0430000C8430000000F
:101C0000410000004100000040290A003E3E3E2005
:101C1000686F6D6561786973280020706F736974EF
:101C2000696F6E5F7368696674203D200020686F7D
:101C30006D655F6F6666736574203D20004178694D
:101C4000732000000000010000000100008000552A
:101C50005555000000400033333300AAAA2A00493A
:101C600092240000002000C7711C0099991900D12E
:101C7000451700555515003BB113002449120011BA
:101C8000111100000010000F0F0F00E3380E004389
:101C9000790D00CCCC0C00C3300C00E8A20B006422
:101CA000210B00AAAA0A00703D0A009DD809004233
:101CB0007B090092240900DCD30800888808001002
:101CC00042080000000800F0C10700878707007580
:101CD000500700711C07003EEB0600A1BC0600691E
:101CE00090060066660600703E0600611806001742
:101CF000F4050074D105005BB00500B290050062E8
:101D00007205005555050078390500B81E05000517
:101D10000505004EEC040087D40400A1BD0400902A
:101D2000A7040049920400C17D0400EE690400C7C5
:101D3000560400444404005C3204000821040041BD
:101D4000100400000004003FF00300F8E003002648
:101D5000D20300C3C30300CCB503003AA803000AB2
:101D60009B0300388E0300C08103009F750300D0E1
:101D7000690300505E03001D5303003448030091C3
:101D80003D03003333030016290300381F03009777
:101D9000150300300C0300030303000BFA02004993
:101DA000F10200BAE802005CE002002DD802002D2A
:101DB000D0020059C80200B0C0020031B90200DAF6
:101DC000B10200AAAA0200A0A30200BC9C0200FA71
:101DD0009502005C8F0200DF8802008282020045CB
:101DE0007C02002776020027700200436A02007C12
:101DF000640200D05E02003F590200C8530200FF97
:101E0000FDFCFAF8F6F4F2F0EEECEAE9E7E5E3E1DE
:101E1000E0DEDCDAD9D7D5D4D2D0CFCDCBCAC8C793
:101E2000C5C3C2C0BFBDBCBAB9B7B6B4B3B2B0AF18
:101E3000ADACAAA9A8A6A5A4A2A1A09E9D9C9A9972
:101E4000989795949392908F8E8D8B8A89888786A8
:101E500084838281807F7E7D7B7A797877767574C2
:101E6000737271706F6E6D6C6B6A696867666564BA
:101E7000636261605F5E5D5C5B5A595858575655A6
:101E80005453525150504F4E4D4C4B4A4A4948477B
:101E90004646454443424241403F3E3E3D3C3B3B3B
:101EA0003A39383837363535343332323130302FED
:101EB0002E2E2D2C2B2B2A29292827272625252491
:101EC000232322212120201F1E1E1D1C1C1B1B1A28
:101ED00019191818171616151514131312121111B3
:101EE000100F0F0E0E0D0D0C0C0B0A0A0909080835
:101EF0000707060605050404030302020100002982
:101F00000A0050726F62653A3A646F5F7A5F72617D
:101F100069736528006465706C6F793A2000203A17
:101F20002050726F62653A3A7365745F6465706CD5
:101F30006F7965640A00202063757272656E745F44
:101F4000706F736974696F6E3D00206D61783A003F
:101F5000206D696E3A0041786973200000809D43CE
:101F600000009B430000C843000070C1000020C176
:101F700000000000536176696E67204457494E2087
:101F80004C43442073657474696E672066726F6D8C
:101F900020454550524F4D0A003D3D6F6E536574CC
:101FA00074696E677353746F7265643D3D00536569
:101FB0007474696E67732053746F72656400290AC4
:101FC000002062797465733B20637263200053655F
:101FD0007474696E67732053746F7265642028008F
:101FE0000A20696E6974207A70726F62655F7A6F19
:101FF0006666736574203D20003D3D6F6E436F6ED5
:1020000066696775726174696F6E53746F72655239
:102010006561643D3D00454550524F4D20496E6914
:102020007469616C697A65640A0048617264636FFF
:102030006465642044656661756C742053657474CE
:10204000696E6773204C6F6164656400454550524A
:102050004F4D206461746173697A65206572726F97
:10206000722E0A0053657474696E6720566F6C7522
:102070006D65204F6E203A200053657474696E6759
:10208000205374616E646279204F6E203A200053B1
:10209000657474696E6720566F6C756D65203A20A3
:1020A0000053657474696E6720526F746174696F50
:1020B0006E203A200053657474696E672053746112
:1020C0006E6462792054696D65203A20005365740E
:1020D00074696E67205374616E646279203A2000DF
:1020E00053657474696E67204272696768746E65BF
:1020F0007373203A20004C6F6164696E6720445707
:10210000494E204C43442073657474696E672066A1
:10211000726F6D20454550524F4D0A0044697363FC
:10212000617264696E67204457494E204C434420D5
:1021300073657474696E672066726F6D20454550D3
:10214000524F4D202D2073657474696E677320762D
:10215000657273696F6E20696E636F727265637406
:102160000A0044697363617264696E672044574969
:102170004E204C43442073657474696E6720667208
:102180006F6D20454550524F4D202D2073697A6563
:1021900020696E636F72726563740A00290A0020F9
:1021A00062797465733B2063726320002073746FDF
:1021B0007265642073657474696E677320726574E8
:1021C000726965766564202800202863616C6375F8
:1021D0006C6174656429210A0020213D2000454579
:1021E00050524F4D20435243206D69736D617463AB
:1021F00068202D202873746F726564292000205395
:10220000697A653A2000496E6465783A20000000DA
:10221000FA430000FA430000204100008C42000015
:10222000A0420000A0420000C84300000243EE02AA
:102230000000EE020000640000003C000000454584
:1022400050524F4D2056657273696F6E2045727201
:102250006F7200204D61726C696E3D563837290AE5
:1022600000454550524F4D2076657273696F6E2060
:102270006D69736D617463682028454550524F4DF8
:102280003D0024F404D9201BC40C5C0E9804C4093E
:102290005F0265077101F405F900FB04B30048040F
:1022A0008700C10369005803550003034500BE02BF
:1022B0003A008402310053022A0029022500040258
:1022C0002000E4011C00C8011900AF0117009801AB
:1022D000140084011300710110006101100051010C
:1022E0000E0043010D0036010B002B010B002001F5
:1022F0000B00150109000C01090003010800FB0097
:102300000800F3000800EB000700E4000600DE0010
:102310000600D8000600D2000600CC000500C70069
:102320000500C2000500BD000400B9000400B500AE
:102330000400B1000400AD000400A9000400A500E1
:102340000300A20003009F0004009B00030098000C
:1023500003009500020093000300900003008D002D
:1023600002008B0003008800020086000200840047
:102370000300810002007F0002007D0002007B005C
:10238000020079000200770001007600020074006C
:10239000020072000100710002006F0002006D0077
:1023A00001006C0002006A00010069000200670081
:1023B0000100660001006500010064000200620087
:1023C000010061000100600001005F0002005D008B
:1023D00001005C0001005B0001005A00010059008F
:1023E000010058000100570001005600010055008F
:1023F000010054000100530000005300010052008E
:10240000010051000100500001004F0001004E008A
:1024100000004E0001004D0001004C0001004B0087
:1024200000004B0001004A00010049000100480083
:10243000000048000100470001004600000046007F
:102440000100450000004500010044000100430078
:102450000000430001004200000042000100410072
:10246000000041000100400001003F0000003F006B
:1024700001003E0000003E0001003D0000003D0064
:1024800001003C0000003C0000003C0001003B005B
:1024900000003B0001003A0000003A000100390052
:1024A000000039000100380000003800000038004A
:1024B0000100370000003700010036000000360040
:1024C0000000360001003500000035000000350036
:1024D000010034000000340000003400010033002B
:1024E0000000330000003300010032000000320021
:1024F0000000320001003100000031000000310016
:1025000001003000000030000000300001002F000A
:1025100000002F0000002F0000002F0001002E00FF
:1025200000002E0000002E0001002D0000002D00F4
:1025300000002D0000002D0001002C0000002C00E8
:1025400000002C0000002C0001002B0000002B00DC
:1025500000002B0000002B0001002A0000002A00D0
:1025600000002A0000002A000100290000002900C4
:1025700000002900000029000000290001002800B7
:1025800000002800000028000000280000002800AB
:10259000010027000000270000002700000027009E
:1025A0000000270001002600000026000000260091
:1025B0000000260000002600010025000000250084
:1025C0000000250000002500000025000000250077
:1025D000010024000000240000002400000024006A
:1025E000000024000100230000002300000023005D
:1025F000000023000000230000002300000023004F
:102600000100220000002200000022000000220041
:102610000000220000002200010021000000210033
:102620000000210000002100000021000000210026
:102630000000210001002000000020000000200018
:10264000000020000000200000002000000020000A
:102650000000200001001F0000001F0000001F00FC
:1026600000001F0000001F0000001F0000001F00EE
:1026700001001E0000001E0000001E0000001E00E1
:10268000000024F4D43050C38E20C2A24017828BA5
:102690007011127A910D816CD90AA861E108C758AE
:1026A0006607615143061E4B5D05C145A7041A41EB
:1026B0001104093D9803713931034036DB0265335B
:1026C0009102D4305402802E1D02632CEE01752A33
:1026D000C501B028A001102781018F2564012B249A
:1026E0004B01E0223401AC211F018D200D01801F20
:1026F000FC00841EED00971DDF00B81CD200E61B15
:10270000C600201BBC00641AB200B219A8000A1946
:10271000A0006A189900D117910040178B00B516D8
:10272000840031167E00B31579003A157300C71482
:102730006F0058146A00EE136600881363002513B7
:102740005E00C7125B006C12570015125400C111D5
:10275000510070114F0021114B00D61049008D100F
:1027600047004610440002104200C00F4000800F96
:102770003E00420F3C00060F3B00CB0E3800930E8C
:1027800037005C0E3500270E3400F30D3200C10D0A
:102790003100900D3000600D2E00320D2D00050D22
:1027A0002C00D90C2B00AE0C2900850C29005C0CE8
:1027B0002700350C27000E0C2600E80B2400C40B64
:1027C0002400A00B23007D0B23005A0B2100390BA2
:1027D0002100180B2000F80A1F00D90A1E00BB0AAE
:1027E0001E009D0A1D00800A1D00630A1C00470A86
:1027F0001B002C0A1B00110A1A00F7091A00DD0938
:102800001900C4091900AB091900920917007B09C6
:102810001800630917004C09160036091600200934
:1028200016000A091500F5081500E0081400CC0888
:102830001400B8081400A4081400900813007D08C0
:1028400012006B08130058081200460812003408E2
:102850001100230811001208110001081100F007EF
:102860001000E0071000D0071000C0071000B007EC
:102870000F00A107100091070E0083070F007407D7
:102880000F0065070E0057070E0049070E003B07B3
:102890000D002E070E0020070D0013070D00060780
:1028A0000D00F9060C00ED060D00E0060C00D40644
:1028B0000C00C8060C00BC060C00B0060C00A406F8
:1028C0000B0099060C008D060B0082060B007706A4
:1028D0000B006C060B0061060A0057060B004C0645
:1028E0000A0042060A0038060A002E060A002406DC
:1028F0000A001A060A001006090007060A00FD056C
:102900000900F4050900EB050900E2050900D905F5
:102910000900D0050900C7050900BE050900B50575
:102920000800AD050800A50509009C0508009405F0
:1029300008008C050800840508007C050800740563
:1029400008006C050700650508005D0507005605D1
:1029500008004E0507004705070040050800380538
:102960000700310507002A050700230507001C059D
:102970000600160507000F050700080506000205FA
:102980000700FB040600F5040700EE040600E80457
:102990000600E2040700DB040600D5040600CF04AD
:1029A0000600C9040600C3040600BD040600B704FF
:1029B0000600B1040500AC040600A6040600A0044D
:1029C00005009B04060095040500900406008A0497
:1029D000050085040500800406007A0405007504DE
:1029E0000500700405006B04050066040500610421
:1029F00005005C04050057040500520405004D0461
:102A0000050048040500430405003E0404003A04A0
:102A1000050035040500300404002C0405002704DB
:102A20000400230405001E0404001A040400160414
:102A30000500110404000D04040009040500040449
:102A4000040000040400FC030400F8030400F40381
:102A50000400F0030400EC030400E8030400E403B2
:102A60000400E0030400DC030400D8030400D403E2
:102A70000400D0030400CC030400C8030300C50312
:102A8000030020436F756E7420583A002364656616
:102A9000696E652044454641554C545F00006265AF
:102AA00064004B6420004B6920004B7020005049AB
:102AB000442074756E696E6720646F6E65002066D1
:102AC000696E697368656421205075742074686547
:102AD000206C617374204B702C204B6920616E64F4
:102AE000204B6420636F6E7374616E747320667222
:102AF0006F6D2062656C6F7720696E746F20436F15
:102B00006E66696775726174696F6E2E680A00502F
:102B10004944204175746F74756E65002066616963
:102B20006C6564212074696D656F75740A00504985
:102B300044204175746F74756E65004175746F74CF
:102B4000756E65206661696C6564212054696D65E8
:102B50006F75742E00206661696C65642120546570
:102B60006D706572617475726520746F6F2068692D
:102B700067680A00504944204175746F74756E652A
:102B800000504944204379636C6573002553202528
:102B9000692F256900204B643A2000204B693A20B8
:102BA00000204B703A200020436C617373696320EE
:102BB000504944200A00204E6F206F76657273687A
:102BC0006F6F740A002054753A2000204B753A202C
:102BD00000206D61783A2000206D696E3A20002057
:102BE000643A200020626961733A2000486561748C
:102BF000696E672E2E2E002073746172740A005065
:102C00004944204175746F74756E65004175746F29
:102C100074756E65206661696C6564212054656D0C
:102C2000706572617475726520746F6F2068696772
:102C3000682E00206661696C6564212054656D70A2
:102C40006572617475726520746F6F20686967685A
:102C50000A00504944204175746F74756E650042D6
:102C60006564004531004500626564002C2073797D
:102C70007374656D2073746F70706564212048658E
:102C8000617465725F49443A20004572723A204D82
:102C9000415854454D50004D415854454D502074B5
:102CA00072696767657265640048656174696E671B
:102CB000204661696C65640048656174696E6720CF
:102CC0006661696C6564004D353234004D313132D6
:102CD0002053687574646F776E001000C90210018C
:102CE0002C014001220170011801B0010E01F00118
:102CF00004015002FA00B002F0003003E600D003F5
:102D0000DC009004D2007005C800A006BE000008D8
:102D1000B400B009AA00D00BA000600E96006011AC
:102D20008C000015820020197800C01D6E00A022C2
:102D30006400B0275A00902C500000314600E03467
:102D40003C0010383200903A2800603C1E00A03D44
:102D50001400803E0A00203F00004572723A204D68
:102D6000494E54454D50004D494E54454D502074E8
:102D7000726967676572656400544845524D414CFD
:102D80002052554E4157415900546865726D616C2F
:102D90002052756E6177617900202F002042403A01
:102DA0000020403A0020573A0020573A007C3C3E31
:102DB0005E2B3D3F2F5B5D3B2C2A225C004D656402
:102DC000696120496E6974204661696C0053442032
:102DD00063617264206F6B0A006F70656E526F6F73
:102DE00074206661696C65640A00766F6C756D6548
:102DF0002E696E6974206661696C65640A004E6FA5
:102E000020534420636172640A005344206361725A
:102E1000642072656C65617365640A000A4D323422
:102E2000004D3233202573002E0A006F70656E202E
:102E30006661696C65642C2046696C653A200046C1
:102E4000696C652073656C65637465640A00205362
:102E5000697A653A200046696C65206F70656E6519
:102E6000643A2000454E4420535542524F55544930
:102E70004E450A002220706F730022207061726537
:102E80006E743A2200535542524F5554494E4520D4
:102E900043414C4C207461726765743A220053754B
:102EA0006263616C6C204F766572666C6F7700456B
:102EB00078636565646564206D617820535542527E
:102EC0004F5554494E452064657074683A002E0A87
:102ED0000044656C6574696F6E206661696C656439
:102EE0002C2046696C653A200046696C6520646553
:102EF0006C657465643A0057726974696E67207412
:102F00006F2066696C653A200066726573680064BC
:102F10006F696E67002066696C653A20004E6F77B6
:102F200020002F6175746F25632E67002020506C80
:102F3000616E6E657242756666657242797465731C
:102F40003A20002046726565204D656D6F72793AB2
:102F5000200020436F6D70696C65643A204175678D
:102F600020313920323032350A00204C6173742010
:102F7000557064617465643A20323032332D3032DA
:102F80002D3033207C20417574686F723A2054696B
:102F90006E794D616368696E657333440A004D61F3
:102FA000726C696E204457372E342E370A00205336
:102FB0006F6674776172652052657365740A0020CC
:102FC0005761746368646F672052657365740A00A3
:102FD0002042726F776E206F75742052657365742E
:102FE0000A002045787465726E616C2052657365C5
:102FF000740A00506F77657255700A0073746172BD
:10300000740A004739310A47315A350A4739300ABC
:103010004D38340A4D31303453300A4D3134305349
:1030200030004D31303031006F6B006572726F725D
:103030002077726974696E6720746F2066696C65A9
:103040000A00446F6E6520736176696E6720666959
:103050006C652E0A004D323900456E6473746F70D2
:1030600073002553202563202563202563202563D5
:1030700000205A3A0020593A0020583A00656E6400
:1030800073746F7073206869743A20000000210027
:10309000240027002A002D00300033000101000029
:1030A000040107010A0100002200250028002B006E
:1030B0002E003100340002010000050108010B015F
:1030C000000020002300260029002C002F003200E1
:1030D00000010000030106010901050505050705BA
:1030E00008080808020202020A0A08080404040484
:1030F00001010101010101010303030303030303B0
:10310000040707070C0C0C0C0C0C0C0C020202023E
:1031100006060606060606060B0B0B0B0B0B0B0B27
:1031200001021020200808102040102040800201D9
:1031300002010804020101020408102040808040BE
:1031400020100804020180040201804020100804BD
:10315000020108040201010204081020408001025B
:1031600004081020408000000A0B02090C0D0E0814
:103170000703040100000000000000000000000040
:10318000000000000000000000000000000000003F
:1031900000001211100000000000000000000000FC
:1031A0000000000000000000000000007026000089
:1031B0009B1E0000C3150000C70D0000F4070000AF
:1031C0004F04000040020000260100004572726FAB
:1031D000722077726974696E6720746F204545505C
:1031E000524F4D210A0020746F6F206C6F6E672064
:1031F000657874727573696F6E2070726576656E2E
:103200007465640A0020636F6C642065787472755D
:1032100073696F6E2070726576656E7465640A00FE
:103220004D323520500A4D323400526573756D654C
:103230000055492050617573650043616E6E6F746F
:1032400020656E746572207375626469723A20003D
:103250004E6F204D61746368203A00436F6E737443
:103260007261696E206D65736856616C20006D65D2
:10327000736856616C200079506E74200078506E2F
:103280007420006D657368506F696E742000446926
:1032900073706C61794272696768746E65737320CC
:1032A0005365743A2000446973706C6179427269A5
:1032B0006768746E657373204C43443A20004D3246
:1032C000320A4D323100526566726573680050678C
:1032D0005570005067446F776E0049732046696CE3
:1032E0006520004973204469722000476F5570447F
:1032F000697200486173204D656469610046696CBC
:10330000656E616D652053656C6563746564004D21
:103310003130303043004D31303030002046696C60
:10332000616D656E7420526573706F6E7365204EAB
:103330006F00526573756D652059657320647572F1
:10334000696E67207072696E74000A204E6F2046A5
:10335000696C616D656E7400496E76616C6964209C
:103360004F7074696F6E004D3530300053746F725A
:10337000652053657474696E6773004D3939390A75
:103380004D32383050305331363000424C546F7526
:103390006368205265736574004D3530320A4D35CF
:1033A000303000496E697420454550524F4D004DF4
:1033B0003530300053746F72652053657474696ED4
:1033C000677300496E4C616E6743686F696365009F
:1033D0000A202A2A2A7265636461742E646174610A
:1033E0005B305D203D004732380A4731204631309E
:1033F0003030205A313000556E737570706F7274B2
:103400006564204F7074696F6E2053656C656374DA
:103410006564004D36303553300A47323858004D18
:1034200036303553310A54300A4732380A4D363077
:103430003553320A473238580A473158300A4D3628
:1034400030355333004D36303553310A54300A4746
:1034500032380A4D36303553320A473238580A4727
:10346000315830004D36303553310A473238580A1A
:1034700047315830004D32313153300A4739310A23
:1034800047315A302E3032350A4739300A4D323101
:10349000315331004D32313153300A4739310A4707
:1034A000315A2D302E3032350A4739300A4D3231FB
:1034B00031533100473239533200473239533100EA
:1034C00047323652323535004D3139305335350AB1
:1034D0004732380A4732390A4D3430300A4D3130DC
:1034E00034533231350A4732380A4D31303953328C
:1034F00031350A4D34323053310A4731583130308A
:103500005931303046353030300A47315A300A4D63
:103510003530300A4D31313720536574205A204FF1
:103520006666736574004731204631303030205A6A
:10353000302E30004732380A4731204631303030A3
:10354000205A302E30005A204F6666736574203A38
:10355000202573005A204F6666736574203A202533
:1035600073004732385A0A473146313530305A30C5
:103570002E30004732380A473146313530305A3024
:103580002E3000426564204C6576656C204F707467
:10359000696F6E200052657475726E203A20004D7E
:1035A000383400473146313030305A302E30004701
:1035B00032380A473146313030305A302E30004DE3
:1035C000616E75616C53657454656D70005A204F5F
:1035D0006666736574203A20257300526F756E64B9
:1035E000696E6720746F2073746570005265717521
:1035F0006573746564204F66667365742000537448
:103600006F70205472696767657265640053746FE8
:1036100070204E6F0053746F705072696E74004862
:10362000616E646C6520446174612041646A7573E5
:103630007420322053657474696E67205363726519
:10364000656E200048616E646C6520446174612081
:103650005072696E7446696C6520332053657474CA
:10366000696E672053637265656E200048616E6401
:103670006C652044617461205072696E7446696C97
:103680006520322053657474696E672053637265D8
:10369000656E20004D38340048616E646C652044CE
:1036A000617461205072696E7446696C6520506F58
:1036B00073740048616E646C6520446174612050CD
:1036C00072696E7446696C65205072650042656768
:1036D000696E537769746368003D3D204368656394
:1036E0006B6B65793D3D007265636461742E616446
:1036F0006472203D3D007265636461742E64617480
:10370000615B305D203D3D0070012C01900127017F
:10371000B0012201C0011D01F001180110021301C6
:1037200030020E016002090190020401C002FF0094
:103730000003FA004003F5008003F000D003EB0023
:103740002004E6007004E100E004DC004005D7003E
:10375000C005D2004006CD00D006C8008007C300D7
:103760003008BE00F008B900C009B400B00AAF00CC
:10377000B00BAA00D00CA500000EA000500F9B00BB
:10378000C01096005012910000148C00C0158700E4
:10379000B0178200B0197D00D01B7800001E7300A6
:1037A00040206E0090226900F024640040275F00F2
:1037B00090295A00E02B5500102E500020304B006D
:1037C00010324600E033410090353C00103737009E
:1037D00070383200A0392D00B03A2800A03B2300F9
:1037E000603C1E00103D1900903D1400103E0F007B
:1037F000703E0A00C03E0500003F0000403FFBFF56
:10380000803FF6FFC03FF1FF70726F6D70745F0014
:10381000626567696E0044697361626C6552756EBA
:103820006F75740050757267654D6F7265005061F9
:103830007573656400436F6E74696E7565004C6FD7
:1038400061642046696C616D656E742054004C6F34
:1038500061642046696C616D656E7400496E7365C4
:1038600072742066696C616D656E7420616E64208F
:1038700073656E64204D3130380A00726573756D62
:103880006564004469736D69737300526573756D87
:10389000696E67002044697363726570616E637955
:1038A0003A00326E642050726F6265205A3A0053BB
:1038B0004C4F57003173742050726F6265205A3A32
:1038C00000464153540050726F62653A3A72756E09
:1038D0005F7A5F70726F6265006D656173757265A6
:1038E000645F7A3A200050726F62696E67204661A9
:1038F000696C65640A0050726F62696E6720466188
:10390000696C656400205A3A200020593A20004230
:10391000656420583A2000506F736974696F6E2097
:103920004E6F7420526561636861626C650A0020A5
:103930003A200A00202063757272656E745F706FA2
:10394000736974696F6E3D005F72656C617469764E
:1039500065290A002C20002C20002C20002C20009F
:103960002E2E2E280050726F62653A3A70726F6286
:10397000655F61745F706F696E740050726F62652D
:103980003A3A70726F62655F646F776E5F746F5FF3
:103990007A00205472696767657265642065617298
:1039A0006C792E00204E6F20747269676765722EE5
:1039B000002050726F6265206661696C21202D00C5
:1039C000FFFFFF290A005D005B002C20002C200077
:1039D0002E2E2E2800646F5F686F6D696E675F6DB5
:1039E0006F76650043616E6E6F74206F70656E2038
:1039F0007375626469722000204500205A002059C6
:103A00000020204D393220580053746570732070A7
:103A1000657220756E697400496E76616C69642008
:103A200065787472756465720A00220A00556E6BBF
:103A30006E6F776E20636F6D6D616E643A20220049
:103A400020453A00205A3A0020593A00583A006F6F
:103A50006B0A00526573656E643A20006E6F74697C
:103A60006669636174696F6E2000544D3344203180
:103A7000305350726F56322052656164792E005077
:103A800072696E74696E672E2E2E005072696E74A4
:103A90002050617573656400524553554D45204F64
:103AA0005054494F4E533A0048656174696E672E11
:103AB0002E2E000000436C69636B20746F206865D4
:103AC0006174000000526573756D696E672E2E2E4D
:103AD00000000050757267696E672E2E2E00000080
:103AE0004C6F6164696E672E2E2E000000496E7364
:103AF00065727420616E6420436C69636B00000022
:103B0000436C69636B20746F20636F6E74696E75AC
:103B100065000000456A656374696E672E2E2E008D
:103B20000000506C6561736520776169742E2E2EDC
:103B30000000005061726B696E672E2E2E0000002F
:103B400050617573654D73673D00C2018801112492
:103B50001FBECFEFD1E2DEBFCDBF00E00CBF84B708
:103B600080930A1914BE0FB6F894A895809160004E
:103B7000886180936000109260000FBE16E0A0E0A4
:103B8000B2E0E8EDFFE702E00BBF02C007900D9244
:103B9000A037B107D9F729E1A0E7B6E001C01D922F
:103BA000AA30B207E1F71DE1C6EADDE100E006C098
:103BB00021970109802FFE010F94193CC53AD107C6
:103BC00080E00807A9F70F9425280D94DA3F0C949C
:103BD0000000CF93DF93C091D714D091D81481E027
:103BE000CE31D105E4F020E030E040E05FE36091C9
:103BF000D3147091D4148091D5149091D6140F944D
:103C0000223C0F948E3D6C1B7D0B77FF03C071959A
:103C10006195710981E0633071050CF080E0DF91FE
:103C2000CF910895CF93DF93DB01F9019C919130FF
:103C3000C1F0943080F094509C938830D1F480810E
:103C40009181009771F0019791838083480F591FEC
:103C5000EA01188206C08C3539F49C5F9C9394303D
:103C600041F4DF91CF9108958B3339F781E08C9344
:103C7000F8CF20813181B9016F5F7F4F71836083FD
:103C8000420F531FEA018883808191818F3591050E
:103C90006CF7E7CF0F931F9381E0009128171091E5
:103CA000291720912A1730912B17409124175091F2
:103CB00025176091261770912717041715072607F7
:103CC000370708F480E01F910F91089520916A074B
:103CD000833021F425FD0CC024FD0CC030E0A90187
:103CE00002C0559547958A95E2F7CA0181700895FB
:103CF00081E0089580E00895CF92DF92EF92FF92E5
:103D0000CF93DF93EC01CC80DD80EE80FF8029E64D
:103D100030E040E251ECC701B6010F94823E87FDCE
:103D200023C023E030E04BE953E4C701B6010F9410
:103D30003E351816CCF0C880D980EA80FB8029E691
:103D400030E040E751ECC701B6010F94823E87FD99
:103D50000BC0C1E023E030E84DE953E4C701B601F0
:103D60000F943E3518160CF4C0E08C2FDF91CF91E4
:103D7000FF90EF90DF90CF900895682F70E090E073
:103D800080E00F9445352091E2073091E3074091A0
:103D9000E4075091E5070F94A4352091DA0730919C
:103DA000DB074091DC075091DD070F94223C08951A
:103DB000682F70E090E080E00F9445352091DE0799
:103DC0003091DF074091E0075091E1070F94A4354F
:103DD0002091D6073091D7074091D8075091D90745
:103DE0000F94223C08958091D50781110EC0209137
:103DF0001102309112022150310981E040910315E6
:103E000050910415421753070CF080E00895269A4C
:103E10002E9A089580917307909174072FEF3FEFCA
:103E2000981751F0E92FF0E0ED58F84F228130E07B
:103E30009F5F9F7390937407C9010895AB01BC0104
:103E4000409328175093291760932A1770932B17C4
:103E500080E998E10C94B58DEF92FF920F931F9338
:103E6000CF937C0100916D0710916E07C0E0F701C0
:103E7000EC0FF11D6081662351F0062E000C770BCC
:103E8000C8010F94703F892B49F4CF5FF0CF80E0D9
:103E9000CF911F910F91FF90EF90089581E0F8CF9F
:103EA000682F880F770B80916D0790916E070F94A4
:103EB000703FFC0181E0309709F480E0309781F099
:103EC000918120ED290F2A3030F09E3251F49281F9
:103ED00090539A3098F43196F0936507E093640715
:103EE00008959D3211F09B3249F4928120ED290F03
:103EF0002A3088F39E3211F49381EACFF0E0E0E0BB
:103F0000EBCF0E94501F882341F081E0209164078D
:103F100030916507232B09F480E008950F931F93D8
:103F2000CF93DF9300D01F92CDB7DEB79C010BEC8F
:103F30001EE090E1E8E5F2E0D80101900D929A953B
:103F4000E1F7F9012081318142815381F8016085D7
:103F50007185828593850F94223CF8016087718773
:103F60008287938780E090E0A0EAB0E489839A8317
:103F7000AB83BC83CE0101960E9403D60F900F90B5
:103F80000F900F90DF91CF911F910F9108952F9275
:103F90003F924F925F926F927F928F929F92AF92D9
:103FA000BF92CF92DF92EF92FF921F93CF93DF9356
:103FB000CDB7DEB72C970FB6F894DEBF0FBECDBFDE
:103FC0007A011901DC012D913D914D915C912D8378
:103FD0003E834F835887FB0140805180628073800D
:103FE0008090580290905902A0905A02B0905B02C3
:103FF000A50194016D817E818F8198850F943E3556
:1040000081110EC011E0A301920160915C027091D8
:104010005D0280915E0290915F020F943E358111A6
:1040200010E0D1012D913D914D915C9129873A8706
:104030004B875C87F701C080D180E280F3802091BC
:104040000602309107024091080250910902C7010F
:10405000B6010F943E35882309F44EC0C092060283
:10406000D0920702E0920802F09209028091640265
:1040700090916502A0916602B091670240915C0246
:1040800050915D0260915E0270915F028092CB0E52
:104090009092CC0EA092CD0EB092CE0E4093CF0E49
:1040A0005093D00E6093D10E7093D20EC092D30E67
:1040B000D092D40EE092D50EF092D60E8093D70E09
:1040C0009093D80EA093D90EB093DA0E20E030E092
:1040D00040E05FE360916C0F70916D0F80916E0F07
:1040E00090916F0F0F94A43569837A838B839C839F
:1040F000CE0101960E9403D62D813E814F815885C5
:104100002093CB0E3093CC0E4093CD0E5093CE0E19
:104110004092CF0E5092D00E6092D10E7092D20E7D
:10412000D1012D913D914D915C916091D70E70918F
:10413000D80E8091D90E9091DA0E0F94223C6093A4
:10414000D70E7093D80E8093D90E9093DA0E11117A
:104150002FC020E030E0A90169857A858B859C8598
:104160000F943E35811133C060E070E088EC92E43A
:1041700069837A838B839C83CE0101960E9403D648
:104180002C960FB6F894DEBF0FBECDBFDF91CF9156
:104190001F91FF90EF90DF90CF90BF90AF909F90D6
:1041A0008F907F906F905F904F903F902F900895E9
:1041B0002AEF3EE74AE25FE36091700F7091710F62
:1041C0008091720F9091730F0F94A435D1CF60E05E
:1041D00070E080EA91E4CCCF80916407909165070C
:1041E000009731F04AE050E070E060E00D94593300
:1041F00060E070E0CB010895CF93DF9300D01F9271
:10420000CDB7DEB780E090E0A0EAB0E489839A837E
:10421000AB83BC8361E0CE0101960E94FCCA0F9083
:104220000F900F900F90DF91CF9108950F931F93F0
:10423000CF93DF9300D000D01F921F92CDB7DEB78F
:104240008B01FC0123A5211102C00F94B71E1D8212
:104250001E821F82188620E030E040E05FE360911C
:1042600060027091610280916202909163020F94EA
:10427000223C69837A838B839C839E012B5F3F4F13
:10428000AE014F5F5F4F6CE572E088E592E00E94FF
:10429000C71F1D821E821F82188620E030E040E08A
:1042A0005FE3F80160857185828593850F94223CD8
:1042B00069837A838B839C83B8016C5F7F4F9E01F7
:1042C0002B5F3F4FAE014F5F5F4FC8010E94C71F7A
:1042D00028960FB6F894DEBF0FBECDBFDF91CF9109
:1042E0001F910F9108958091640790916507009741
:1042F00031F04AE050E070E060E00D942B3260E075
:1043000070E0CB010895CF93DF93EB010E94811FF2
:10431000882319F00E947321EB01CE01DF91CF9128
:1043200008950E94732197FD0CC00E9473216F3F76
:1043300071058105910509F034F40E947321862FDF
:10434000089580E008958FEF0895CF93C62F0E94BF
:10435000811F882319F0CF910C9491218C2FCF913C
:1043600008958091640790916507892B41F00E9420
:10437000912191E0811101C090E0892F089591E091
:10438000FCCFCF93DF93C82FD62F0E94811F8823A5
:1043900021F0DF91CF910C94B1218C2F0E94501FFE
:1043A000811101C08D2FDF91CF9108950E9473215B
:1043B000CB010895CF93DF93EB010E94811F8823E7
:1043C00021F0DF91CF910C94D621CE01DF91CF91D6
:1043D00008950F931F93CF93809164079091650781
:1043E000009709F1FC018F01C1912C2F2F7DA1F0C5
:1043F000C53431F0C53621F0C83511F0C83799F70A
:10440000F801108270E060E00F94CD30F801C083B5
:10441000CF911F910F91089570E060E0CF911F91AF
:104420000F910D94CD3060E070E0CB01F1CFCF92D1
:10443000DF92EF92FF926A017B010E94811F882325
:1044400031F0FF90EF90DF90CF900C94E921C701FD
:10445000B601FF90EF90DF90CF9008950D947B12FE
:104460000F931F93CF9310926C0710926B072FE35B
:1044700020937207109271071092700710926F07C5
:104480009C01F90190812F5F3F4F9032D1F39E3410
:10449000C9F4818190ED980F9A3020F08D3211F09F
:1044A0008B3281F432969F012F5F3F4F8081805382
:1044B0008A3008F475C09F012F5F3F4F80818032A2
:1044C00009F470C0F0938C0FE0938B0F8F010F5F96
:1044D0001F4FC0816AE270E0C8010F94703F0097DF
:1044E00031F0FC01319780818032E1F31182CD34CB
:1044F00029F0C43519F0C73409F04EC0F8018081A5
:104500000F5F1F4F8032D1F380538A3008F044C0D0
:10451000C093720730E020E04AE0DF011196429F2D
:10452000C001439F900D11249C01205331098081CB
:10453000280F311D87FD3A95818190ED980F9A30B3
:1045400098F130937107209370078E3261F43296A0
:1045500090E04AE0DF0131968C9150ED580F5A30CF
:1045600028F190936F07FD01119680818032D9F375
:10457000F0936E07E0936D07CD3441F52E31310590
:1045800039F0D0F42731310519F02C313105F1F42F
:10459000F0936C07E0936B07CF911F910F910895F3
:1045A000F90181CFF90187CFFD01B7CF949F800D2D
:1045B000112490ED980FCECF2537310538F02737ED
:1045C000310530F3203A83E0380711F350E040E042
:1045D000CF0101966081662309F45AC0613291F4DB
:1045E000CD3481F42032310569F490936C078093C7
:1045F0006B0763E270E00F94703F009769F2FC0173
:104600001082CACFFC01DF018D91803271F090EDF4
:10461000980F9A3008F18E3251F4918190539A306C
:10462000D8F041155105E1F414C0FD01ECCF8D32F5
:1046300011F08B3259F4918160ED690F6A3060F0AE
:104640009E3221F4928190539A3030F041155105F9
:1046500019F4AF014150510981548A3108F4B8CF9F
:10466000DF01FD018D91882309F4B2CF90ED980F01
:104670009A30B8F393ED980F923098F38B3289F318
:10468000CF0101966081603209F0A2CFFC01F8CF22
:1046900050936C0740936B077FCF81E080930615A2
:1046A0000895FC016591759185919491089580E03C
:1046B0000C944CCB682F70E090E080E00D947B125E
:1046C0009B01AC01485F5F4FBC016C5F7F4F0C9456
:1046D000C71F2F923F924F925F926F927F928F925D
:1046E0009F92AF92BF92CF92DF92EF92FF920F9381
:1046F0001F93CF93DF93CDB7DEB7A6970FB6F8948D
:10470000DEBF0FBECDBF8C011B015A874987409089
:1047100058025090590260905A0270905B0280904B
:104720005C0290905D02A0905E02B0905F02DB019F
:104730008D919D910D90BC91A02D8B8B9C8BAD8B01
:10474000BE8B9C01AD01C301B2010F94213C6B01F2
:104750007C01D10114968D919D910D90BC91A02D5D
:104760008F8B988FA98FBA8F9C01AD01C501B401C1
:104770000F94213C6B8F7C8F8D8F9E8FA985BA857E
:104780008D919D910D90BC91A02D8B879C87AD87BD
:10479000BE879C01AD01C301B2010F94213C6F8F14
:1047A00078A389A39AA3A985BA8514968D919D9122
:1047B0000D90BC91A02D8F87988BA98BBA8B9C01F3
:1047C000AD01C501B4010F94213C6BA37CA38DA363
:1047D0009EA3A7019601C701B6010F94A4356B01F2
:1047E0007C012B8D3C8D4D8D5E8DCA01B9010F94DE
:1047F000A4359B01AC01C701B6010F94223C4B01CB
:104800005C012B893C894D895E896B857C858D8512
:104810009E850F94213C2B013C012F89388D498DB9
:104820005A8D6F85788989899A890F94213C6B010B
:104830007C01A3019201C301B2010F94A4352B01A5
:104840003C01A7019601C701B6010F94A4359B0155
:10485000AC01C301B2010F94223C0F94D03E6B0116
:104860007C012F8D38A149A15AA1CA01B9010F9429
:10487000A4352B013C012BA13CA14DA15EA1CA0195
:10488000B9010F94A4359B01AC01C301B2010F948F
:10489000223C9B01AC01C501B4010F94823E181665
:1048A000B4F520E030E0A901C701B6010F94823EC3
:1048B00087FF2AC0C701B601905820E030E040EAE7
:1048C00050E40F94823E181614F5A10169857A858B
:1048D000C8010E946923A6960FB6F894DEBF0FBEEA
:1048E000CDBFDF91CF911F910F91FF90EF90DF909F
:1048F000CF90BF90AF909F908F907F906F905F9080
:104900004F903F902F900895C701B601D6CF20E079
:1049100030E040E050E4C501B4010F94823E181627
:1049200024F4B101C8010E94162119821A821B8247
:104930001C82BE016F5F7F4FC1010E9460232DEC7E
:104940003CEC4CEC5CE3C701B6010F94A4359B0131
:10495000AC01F80160817181828193810F94A4354B
:104960006D837E838F839887D8019B968C919B97CC
:104970008823C9F02AE939E949E95FE314966D9182
:104980007D918D919C9117970F94A43569837A83BB
:104990008B839C83BE016F5F7F4F8BEC9EE00E94F8
:1049A0006023F80113A6BE016B5F7F4F89859A854E
:1049B0000E94602390CF3F924F925F926F927F92BE
:1049C0008F929F92AF92BF92CF92DF92EF92FF921F
:1049D0000F931F93CF93DF93CDB7DEB76C970FB6CE
:1049E000F894DEBF0FBECDBF8C01DB018C91A42EED
:1049F000A80EB4E0BA1508F4E4C0FB01B180322E71
:104A00003B0CB31508F4DDC0EB2DF0E0E65AF84F8F
:104A1000E081F0E0082E02C0F595E7950A94E2F7F0
:104A2000E0FFCFC0E32DF0E0E65AF84FE081F0E080
:104A30000A2C02C0F595E7950A94E2F7E0FFC1C0A1
:104A4000822E942E0E94D81E6B017C01692D660F68
:104A5000770B072E000C880B990B0F9445352B0113
:104A60003C01AC019B01C701B6010F94223C6B01D4
:104A70007C01CD86DE86EF86F88A8A2D0E94D81EBC
:104A8000A30192010F94213C698F7A8F8B8F9C8FA9
:104A900069837A838B839C838B2D0E94BD1E2B019F
:104AA0003C01682D660F770B072E000C880B990BC5
:104AB0000F9445354B015C01AC019B01C301B20170
:104AC0000F94223C2B013C01498A5A8A6B8A7C8ACA
:104AD000832D0E94BD1EA50194010F94213C4B0122
:104AE0005C018D829E82AF82B886F80180859185B7
:104AF000A285B38589879A87AB87BC878D8B9E8B70
:104B0000AF8BB88F20E030E040E151ECC301B2013F
:104B10000F943E3587FF6DC080E090E0A0E1B1ECDE
:104B2000898B9A8BAB8BBC8B20E030E040E151EC61
:104B3000C501B4010F943E3587FF6BC080E090E063
:104B4000A0E1B1EC8D839E83AF83B88720E030E095
:104B500040E651ECC701B6010F943E3587FF69C0AE
:104B600080E090E0A0E6B1EC8D879E87AF87B88BA0
:104B700020E030E040E651EC698D7A8D8B8D9C8D84
:104B80000F943E3587FF65C080E090E0A0E6B1EC71
:104B900089839A83AB83BC83CE010D960E947C1ED1
:104BA000882379F0CE0101960E947C1E882349F06B
:104BB000AE014F5F5F4FBE01635F7F4FC8010E9430
:104BC00069236C960FB6F894DEBF0FBECDBFDF91A0
:104BD000CF911F910F91FF90EF90DF90CF90BF90FA
:104BE000AF909F908F907F906F905F904F903F908D
:104BF000089520E030E84AE953E4C301B2010F947C
:104C0000823E18160CF090CF80E090E8AAE9B3E459
:104C100087CF20E030E84AE953E4C501B4010F949E
:104C2000823E18160CF092CF80E090E8AAE9B3E437
:104C300089CF20E030E04DE953E4C701B6010F947D
:104C4000823E18160CF094CF80E090E0ADE9B3E41A
:104C50008BCF20E030E04DE953E4698D7A8D8B8D68
:104C60009C8D0F94823E18160CF096CF80E090E059
:104C7000ADE9B3E48DCFCF92DF92EF92FF92CF9365
:104C80006B017C01C42F8091E90D8F5F09F4B5C0E1
:104C90008093E90D8091E90D8093980E20E030E03B
:104CA00040E752E46091540270915502809156029F
:104CB000909157020F94A4350F94953D7093FB0D7E
:104CC0006093FA0DC092FC0DD092FD0DE092FE0DA6
:104CD000F092FF0D8091970EC0FB80F98093970EA4
:104CE0008CE0E3E4F9E0A0E0BEE001900D928A954B
:104CF000E1F78CE0E8ECF7E0ACE0BEE001900D926B
:104D00008A95E1F78091F2079091970E80FB94F9D4
:104D10009093970E882381F08091EE079091EF0792
:104D2000A091F007B091F1078093180E9093190E9F
:104D3000A0931A0EB0931B0E809103159091041549
:104D400090931D0E80931C0E8091D7149091D814CF
:104D500090931F0E80931E0E8091990E8093200ECB
:104D60008091970E9091C10E90FB83F98093970EDE
:104D70008091C20E9091C30EA091C40EB091C50E49
:104D80008093210E9093220EA093230EB093240EB5
:104D90000E94DDB26093920E7093930E8093940EF6
:104DA0009093950E80916A078093960E9091CA0E0B
:104DB0008091970E93FB81F99091D50790FB82F932
:104DC0008093970E80E00E94CCEF40E050E0BA0163
:104DD00081E397E10E94B58D40EB50E069EE7DE004
:104DE00081E397E10E94498E81E397E1CF91FF90A3
:104DF000EF90DF90CF900C94769181E049CF4F9265
:104E00005F926F927F928F929F92AF92BF92CF925A
:104E1000DF92EF92FF920F931F93CF93DF9300D017
:104E20001F92CDB7DEB719821A821B821C829BECBF
:104E3000A92E93E0B92ECE0101964C012BECC22E87
:104E40002EE0D22E38E5E32E32E0F32E10E000E023
:104E5000F50181915F010E94811FF40181934F014F
:104E6000882309F4C1C00E94E9212B013C01802F55
:104E70000E94661E882309F4A7C0F70120813181B2
:104E800042815381C301B2010F94223CF601608339
:104E90007183828393830F5F1F4FF4E0CF0ED11C89
:104EA00084E0E80EF11C0330110591F685E40E94C0
:104EB000811F8C83882309F4A2C00E94E9216B0121
:104EC0007C0183E00E94661E882371F020916402B9
:104ED000309165024091660250916702C701B601A8
:104EE0000F94223C6B017C01C092D70ED092D80E59
:104EF000E092D90EF092DA0E80919D0E882391F106
:104F000080912C1782FF2EC087FD2CC08C818823B6
:104F100049F18981811103C08A81882319F12DEC1F
:104F20003CEC4CE45DE36091F20D7091F30D8091E7
:104F3000F40D9091F50D0F94223C9B01AC01609112
:104F400060027091610280916202909163020F94FD
:104F5000823E18163CF440E060E070E080E090E4AF
:104F60000E943B2640E050E0BA0186E40E941722EE
:104F700020E030E0A9010F94823E181684F40E94CC
:104F8000E92120E030E040E752E40F941C3D6093BB
:104F900054027093550280935602909357020F90DB
:104FA0000F900F900F90DF91CF911F910F91FF9075
:104FB000EF90DF90CF90BF90AF909F908F907F90B9
:104FC0006F905F904F900895F801EE0FFF1FEE0F66
:104FD000FF1FE357F04F2081318142815381C3018C
:104FE000B2010F94213C52CFF70180819181A281BF
:104FF000B381F60180839183A283B3834CCF8091E8
:10500000640290916502A0916602B091670280935C
:10501000D70E9093D80EA093D90EB093DA0E6CCF22
:10502000E9EEFDE080EBDF011D928A95E9F7089536
:1050300080919D0E811104C00E9410280C9407F0ED
:1050400080912C1782FF09C087FD07C040E060E017
:1050500070E080E090E40C943B2608958091E90D87
:10506000882361F09091980E891308C080912C17C5
:1050700084FF04C085E29EE00C9463EF80E0089515
:10508000FC01238121110C9476910895CF93DF9335
:10509000C0910315D0910415209729F16091FF1458
:1050A0007091001580910115909102150F948E3D1D
:1050B0006E5F7F4F24976C177D07ACF470931108D7
:1050C000609310080E94EBEE605A75418F4F9F4F1E
:1050D0006093120870931308809314089093150836
:1050E000DF91CF9108951092120810921308109238
:1050F000140810921508F4CFCF92DF92EF92FF922E
:105100001F93CF93DF93182F662351F01092590706
:105110001092550710925607109257071092580791
:105120000E94EBEE6B017C01809155079091560730
:10513000A0915707B0915807A7019601281B390B7A
:105140004A0B5B0BDA01C901B7FD3DC0209159073D
:1051500017FD13C0412F012E000C550B4C5F5F4F04
:10516000822F022E000C990B4817590764F184EF27
:1051700091E0A0E0B0E0211724F488EE93E0A0E0F5
:10518000B0E08C0D9D1DAE1DBF1D80935507909303
:105190005607A0935707B09358072170C22F30E0ED
:1051A000D32F84E28C9FB0018D9F700D7C1B112446
:1051B00060597C4F82E390E00E946AD68091590743
:1051C0008F5F80935907DF91CF911F91FF90EF90F0
:1051D000DF90CF900895CF93DF93C091D714D091F3
:1051E000D814209729F16091D3147091D414809130
:1051F000D5149091D6140F948E3D6E5F7F4F2497F7
:105200006C177D07ACF470930708609306080E9442
:10521000EBEE605E70448D4F9F4F60930808709373
:10522000090880930A0890930B08DF91CF910895A5
:10523000109208081092090810920A0810920B08A0
:10524000F4CFCF93DF939091CA0E93FD3CC0C82F4B
:1052500083E50E94811FD82F882371F10E94D621F7
:105260008C3891059CF59093D8148093D7140E94A4
:10527000EB286091D7147091D814072E000C880B7E
:10528000990B0F9445352091D3143091D41440914B
:10529000D5145091D6140F94823E60E01816CCF4C9
:1052A00087ED96E10E942FB7CC2369F060E08D2F47
:1052B000DF91CF910C946B95CC2329F082E50E946D
:1052C000811F8111CBCFDF91CF9108958CE890E0C1
:1052D000CACF88EC96E1E6CFCF93C1E020E030E082
:1052E000A9016091DE077091DF078091E00790913E
:1052F000E1070F943E35811101C0C0E08C2FCF91A2
:1053000008954F925F926F927F928F929F92AF9289
:10531000BF92CF92DF92EF92FF920F931F93CF93A2
:10532000DF93EC012091D6073091D7074091D80741
:105330005091D907688179818A819B810F94213CA2
:105340006B017C012091DA073091DB074091DC078B
:105350005091DD076C817D818E819F810F94213C6E
:105360004B015C01A701960160914D0770914E07BA
:1053700080914F07909150070F943E35882309F490
:1053800050C0C0924D07D0924E07E0924F07F09266
:1053900050072091450730914607409147075091AB
:1053A0004807C701B6010F94A4352B013C010F94A7
:1053B000C43D6B017C0120E030E0A9010F943E3533
:1053C00087FD70C020E030E040E450E4C701B60142
:1053D0000F94823E18162CF4C12CD12CC0E4EC2E74
:1053E000FE2CA7019601C301B2010F94213C6093EA
:1053F0003D0770933E0780933F0790934007C70196
:10540000B6010F948E3D60933B07062E000C770B80
:105410006F5F7F4F6430710514F064E070E060935B
:105420003907D091370710913B07A501940160918E
:1054300051077091520780915307909154070F9430
:105440003E35811133C0D11381C020911F073091A7
:105450002007409121075091220760913D077091EC
:105460003E0780913F07909140070F94A43520910B
:1054700023073091240740912507509126070F9468
:10548000223CDF91CF911F910F91FF90EF90DF9021
:10549000CF90BF90AF909F908F907F906F905F90D4
:1054A0004F900895C12CD12C76019BCF809251074B
:1054B00090925207A0925307B09254072091490747
:1054C00030914A0740914B0750914C07C501B401F8
:1054D0000F94A4354B015C010F94C43D6B017C011A
:1054E00020E030E0A9010F943E3587FDF3C020E0B5
:1054F00030E040E450E4C701B6010F94823E181634
:105500002CF4C12CD12CB0E4EB2EFE2CA70196017B
:10551000C501B4010F94213C609341077093420789
:105520008093430790934407C701B6010F948E3DC3
:1055300060933C07062E000C770B6F5F7F4F643043
:10554000710514F064E070E060933A07C0913C0785
:10555000D11305C0809138078C1709F470C0809171
:105560003B0790913C0790933807809337070C2EA8
:10557000000CDD0B25E01203C0011124FC01EC0F2F
:10558000FD1FEE0FFF1FEE0FFF1FE552F14F2081B1
:105590003181428153812093330730933407409304
:1055A00035075093360700913A07002E000C110B77
:1055B000FC01E00FF11FEE0FFF1FEE0FFF1FE55282
:1055C000F14F60817181828193810F94213C6093BE
:1055D0002F07709330078093310790933207209103
:1055E000390735E02303F0011124CE0FDF1FCC0F64
:1055F000DD1FCC0FDD1FC552D14F288139814A8173
:105600005B8120932B0730932C0740932D075093F9
:105610002E07E00FF11FEE0FFF1FEE0FFF1FE552E9
:10562000F14F60817181828193810F94213C60935D
:105630002707709328078093290790932A07809063
:10564000410790904207A0904307B09044072091F3
:105650002F07309130074091310750913207C50133
:10566000B4010F94A4352091330730913407409151
:105670003507509136070F94223C6B017C01C09294
:105680002307D0922407E0922507F0922607209165
:105690002707309128074091290750912A07C50113
:1056A000B4010F94A43520912B0730912C07409121
:1056B0002D0750912E070F94223CA70196010F94BD
:1056C000213C60931F0770932007809321079093DC
:1056D0002207BBCEC12CD12C760118CFEDE4F7E028
:1056E00080EF9FEFA9E7B4EC84839583A683B7830B
:1056F00080839183A283B383E7E3F7E08DE981831D
:10570000808308958F929F92AF92BF92CF92DF9243
:10571000EF92FF92FC0198E0AEEDB7E001900D92A0
:105720009A95E1F788E0FB01A6EDB7E001900D92B4
:105730008A95E1F7C090DE07D090DF07E090E007A0
:10574000F090E10720E030E0A901C701B6010F9415
:105750003E358823E1F1A701960160E070E080E822
:105760009FE30F941C3D6B017C018090E2079090B9
:10577000E307A090E407B090E50720E030E0A9013E
:10578000C501B4010F943E35882329F1A501940188
:1057900060E070E080E89FE30F941C3DC0924507F5
:1057A000D0924607E0924707F09248076093490776
:1057B00070934A0780934B0790934C07FF90EF90AC
:1057C000DF90CF90BF90AF909F908F900895C12CA5
:1057D000D12C7601CACF60E070E0CB01DFCFEFE6DD
:1057E000F0E08081826080830895809166129091BC
:1057F0006712892B79F48091661290916712892B38
:1058000049F4209166123091671281E0232B19F43C
:1058100080E0089581E008958F929F92AF92BF92A9
:10582000CF92DF92EF92FF92CF93DF93EC018090C3
:10583000C20E9090C30EA090C40EB090C50E20E092
:1058400030E0A901C501B4010F943E35882309F465
:105850005EC0C880D980EA80FB8020E030E0A901EA
:10586000C701B6010F943E3518160CF050C0A701C1
:105870009601C501B4010F943E3518160CF04CC0CA
:105880002091B90E3091BA0E4091BB0E5091BC0ED2
:10589000C701B6010F943E35882331F1C092B90E8D
:1058A000D092BA0EE092BB0EF092BC0E2091BD0ECB
:1058B0003091BE0E4091BF0E5091C00E688179812B
:1058C0008A819B810F94A4359B01AC0160E070E05C
:1058D00080E89FE30F94213C6093020270930302DF
:1058E000809304029093050260910202709103027A
:1058F0008091040290910502DF91CF91FF90EF908B
:10590000DF90CF90BF90AF909F908F90089560E010
:1059100070E080E89FE3F0CF60E070E0CB01ECCF77
:10592000CF92DF92EF92FF926B017C0183E3C81666
:10593000D104E104F10470F082E3C81AD108E1084F
:10594000F10862E370E080E090E00E9450EE0E9477
:1059500069D1ECCFC701B6010E9450EEFF90EF90E5
:10596000DF90CF900C9469D11092E50D8091FC07E7
:105970009091FD07A091FE07B091FF078093F80773
:105980009093F907A093FA07B093FB0708959091BD
:105990006912109269129230B9F09430C1F09130CE
:1059A000E1F4882319F0813021F008959093E60DF9
:1059B000089582E08093E60D8091E50D882369F0DB
:1059C0001092CE090C94B42C1092E70D089583E543
:1059D00099E19093100A80930F0A08956C98749A35
:1059E0000C94B42C90912C1794FB882780F994FF89
:1059F00006C081E090919318911101C080E0089554
:105A00000E94F22C882339F080912C1782FB882782
:105A100080F991E08927089580919E0E811106C03A
:105A200080916812823011F00C94002D81E008956D
:105A30000C9427B581E00895CF93DF93EC01E62F16
:105A4000660FFF0BEA59FE4CE491E250E13108F099
:105A5000B0C0F0E08827E05DF24D8F4F0D94193C07
:105A6000412DD92DD92DD92DD92D6B2D4D2D8F2DE2
:105A70008D2D6D2DB32DB12D912DD92DD72DD52D4A
:105A8000B52D82E1E5E7F2E0DE0101900D928A9505
:105A9000E1F7CE01DF91CF91089581E020EB30E076
:105AA0003983288321EB30E03B832A831D821C82CB
:105AB00023EB30E03F832E8324EB30E039872887C7
:105AC0001B861A861D861C8692E09E878F8781E042
:105AD000888B198ADECF80E0E1CF81E08F5F20E9FB
