:100000000C94B0200C94F0200C94F0200C94F02070
:100010000C94F0200C94F0200C94F0200C94F02020
:100020000C94F0200C94F0200C94F0200C94F02010
:100030000C94F0200C94F0200C94F0200C94F02000
:100040000C94F0200C94D79E0C94F0200C94F0208B
:100050000C94F0200C945E9D0C94F0200C9468F4A9
:100060000C94F0200C94273D0C941D3D0C94F02032
:100070000C94F0200C94F0200C94F0200C94F020C0
:100080000C94F0200C94F0200C94F0200C94F020B0
:100090000C94F0200C94F0200C94F0200C94F020A0
:1000A0000C94F0200C94F0200C94F0200C94F02090
:1000B0000C94F0200C94F0200C94F0200C94F02080
:1000C0000C94F0200C94F0200C94F0200C94FE3151
:1000D0000C94C8310C94F0200C94F0200C94F02077
:1000E0000C94F020084AD73B3BCE016E84BCBFFD88
:1000F000C12F3D6C74319ABD56833DDA3D00C77FF8
:1001000011BED9E4BB4C3E916BAAAABE0000008090
:100110003F05A84CCDB2D44EB93836A9020C50B91F
:10012000918688083CA6AAAA2ABE000000803F004B
:100130000D94B50C0D9452060C948CE10D94440969
:100140000D94F4080C94B3400C940F300C94AEBF93
:100150000C9483300C9492E10C9442410C943F3205
:100160000D9493080C9488E10D941F080D941918B0
:100170000D94E5060C9471E10D9413180C943B302A
:100180000D9487070C94D38B0C94B83D0C94C73D09
:100190000D943E090D9413060C94AA320C946E3201
:1001A0000C9430860C94C4460C94C5400C9496E193
:1001B0000C94A7300C94B4320C94D1400C94FB8A6C
:1001C0000C94C2400C9484E10C94CB400C945D30B0
:1001D0000C9439300C94A0E10C94B78A0C94EA3D4D
:1001E0000C946DE10D940A180C94DD3D0C9431864D
:1001F0000C949AE10C94BC400C94D83D0D947F086B
:100200000C94F9BF0C94CC320C949E8C0C94CB3D86
:100210000D9426090D94C40C0D9422090D94051813
:100220000D940F090C94B2C00D9422180C94BF3D8C
:100230000D9416180D94910C0C945F300C94864616
:100240000D94DC0C0C949FE10D9447090D94251836
:100250000C9474E10C949A320D9483330C943E41C7
:100260000C947AE10C94AF320D9428090D9428185F
:100270000C94A3300C94BF400C94FD3D0C94D432EC
:100280000D9403070C94973D0C9468C00C94E23DC8
:100290000C94C33D0C94018A0C9422BF0C9465E12C
:1002A0000D94FD080C94A2320C94C8400C949E321C
:1002B0000D94B1070C94A4E10C94F53D0D940D1828
:1002C0000C94683D0D94850C0D94D00C0D9433095D
:1002D0000C94B9320C94968A0D9410180C94948B4B
:1002E0000C9464BF0C9480400C94B9400C945B3027
:1002F0000C9469E10D9441090D9448080C94CF3D8C
:100300000C94B6400D94EB0C0C941B300C941E8A8C
:100310000D941C180D945C080C948F320C94813051
:100320000D9465330C947F300C9443C00C94F646C6
:100330000C94A68B0C94CE400D9418090C9411418A
:100340000C9489BF0C947D320D941F180C94A53029
:100350000C948DC00D94EB080C947EE10D94E00894
:100360000C945FE10C94A63D0C94AE850C941EC0D9
:100370000C9496320D94B2080C94D33D0C94AF4675
:100380000C94C1320D9406090C94A6320C94168B71
:100390004E414E494E495459494E46CDCCCC3D0A6A
:1003A000D7233C17B7D13877CC2B329595E6241F4D
:1003B000B14F0A000020410000C84200401C462006
:1003C000BCBE4CCA1B0E5AAEC59D7400407A10F3D9
:1003D0005A00A0724E18090010A5D4E80000E87673
:1003E00048170000E40B54020000CA9A3B000000CA
:1003F000E1F505000080969800000040420F0000E3
:1004000000A08601000000102700000000E80300A3
:100410000000006400000000000A0000000000016D
:1004200000000000002C76D888DC674F0823DFC16D
:10043000DFAE59E1B1B796E5E3E453C63AE6519928
:100440007696E8E6C28426EB898C9B62ED407C6F51
:10045000FCEFBC9C9F40F2BAA56FA5F490055A2A08
:10046000F75C936B6CF9676DC11BFCE0E40D47FE14
:10047000F520E6B500D0ED902E0300943577050009
:1004800080841E080000204E0A000000C80C333390
:1004900033330F986E12831141EF8D2114893BE69F
:1004A0005516CFFEE6DB18D1844B381BF77C1D9028
:1004B0001DA4BBE424203284725E228100C9F12491
:1004C000ECA1E53D2744455441494C00434F4D4D77
:1004D000554E49434154494F4E0044525952554E8E
:1004E000004552524F525300494E464F0045434833
:1004F0004F0053544F505045442E20005072696EA7
:100500007465722073746F70706564206475652003
:10051000746F206572726F72732E20466978207432
:100520006865206572726F7220616E6420757365F4
:10053000204D39393920746F20726573746172747B
:100540002E202854656D706572617475726520691E
:10055000732072657365742E20536574206974204E
:1005600061667465722072657374617274696E6716
:10057000290A004E6F20436865636B73756D2077A1
:10058000697468206C696E65206E756D6265722C89
:10059000204C617374204C696E653A20004E6F20C8
:1005A000436865636B73756D2077697468206C6947
:1005B0006E65206E756D6265722C204C61737420BF
:1005C0004C696E653A2000636865636B73756D20D6
:1005D0006D69736D617463682C204C617374204C79
:1005E000696E653A20004C696E65204E756D6265D6
:1005F00072206973206E6F74204C617374204C6993
:100600006E65204E756D6265722B312C204C6173C6
:1006100074204C696E653A20004D313130005365CD
:100620007269616C20737461747573206D69736D88
:10063000617463680A0053442072656164206572C6
:10064000726F720A00746F6F206D75636820696E37
:100650006163746976652074696D65202D2063750A
:100660007272656E7420636F6D6D616E643A200006
:100670002121204B494C4C206361757365642062D5
:10068000792000486F74656E642049646C6520545D
:10069000696D656F757400486F74656E6420496498
:1006A0006C652054696D656F75740A0062757379A5
:1006B0003A2070617573656420666F7220696E7090
:1006C00075740A00627573793A2070617573656498
:1006D00020666F7220757365720A00627573793ACD
:1006E0002070726F63657373696E670A004D3130F5
:1006F000303053003D3D6F6E46696C616D656E74C0
:1007000052756E6F75743D3D007061757365004D77
:10071000363030002066696C616D656E745F72758D
:100720006E6F7574200066696C616D656E745F72C2
:10073000756E6F757420540046696C616D656E74DA
:1007400052756E6F757420540025533A202553005E
:100750002A2A2A6B696C6C2A2A2A00706F776572C4
:100760006F6666004B494C4C45442E200050726920
:100770006E7465722068616C7465642E206B696CA0
:100780006C28292063616C6C6564210A00656368CC
:100790006F3A004572726F723A0020286469736183
:1007A000626C6564290A0020280041424C204164A3
:1007B0006A7573746D656E74205A005A20466164C0
:1007C000653A20002028656E61626C6564290A0024
:1007D00041626F76650053616D65205A2061730038
:1007E00042656C6F77004175746F20426564204CE0
:1007F0006576656C696E673A2042494C494E4541C1
:100800005200204E6F7A7A6C65290A00202620005B
:100810002D43656E746572002D46726F6E74002DE7
:100820004261636B002028416C69676E65642057E4
:100830006974680020284D6964646C650020284C48
:1008400065667400202852696768740050726F6290
:1008500065204F666673657420580050726F62653C
:100860003A204649585F4D4F554E5445445F5052CB
:100870004F42450A004D616368696E652054797086
:10088000653A2043617274657369616E0A0042695A
:100890006C696E656172204C6576656C696E672067
:1008A000477269643A0A003E3E3E003C3C3C00739D
:1008B00065745F6265645F6C6576656C696E675FC1
:1008C000656E61626C65640072657365745F626514
:1008D000645F6C6576656C0A00203A204C6576652D
:1008E0006C696E67204F4E0A002020637572726536
:1008F0006E745F706F736974696F6E3D00203A208B
:100900004C6576656C696E67204F46460A0020206C
:1009100063757272656E745F706F736974696F6E00
:100920003D002F2F616374696F6E3A006E6F7469BA
:100930006669636174696F6E2000656E6400736838
:100940006F7700627574746F6E00486F74656E64C3
:1009500020746F6F20636F6C640A0053656E6420AF
:100960004D31303820746F20726573756D650A00E3
:10097000496E736572742066696C616D656E742072
:10098000616E642073656E64204D3130380A005208
:10099000656865617420446F6E65005265686561C5
:1009A00074696E672E2E2E0052656865617400486A
:1009B00065617465722054696D656F757400536567
:1009C0006E64204D31303820746F2068656174206A
:1009D0006E6F7A7A6C650A004E6F7A7A6C65205079
:1009E00061726B6564007061757365640050617558
:1009F00073650057616974696E6720666F7220685D
:100A000065617475702E0A004C656176696E6720A9
:100A1000473236003F5370656369666965642058E4
:100A20002C5920636F6F7264696E617465206F75F5
:100A300074206F6620626F756E64732E0A003F2803
:100A4000522965706561742076616C7565206E6FE2
:100A50007420706C61757369626C653B206D757391
:100A600074206265206174206C6561737420312E7E
:100A70000A003F2852296570656174206D75737492
:100A800020626520737065636966696564207768B4
:100A9000656E206E6F74207573696E6720616E20BD
:100AA0004C43442E0A003F53706563696669656470
:100AB000206E6F7A7A6C652074656D7065726174F2
:100AC000757265206E6F7420706C61757369626CED
:100AD000652E0A003F537065636966696564206628
:100AE000696C616D656E742073697A65206E6F74D0
:100AF00020706C61757369626C652E0A003F5370DB
:100B000065636966696564207072696D65206C65EE
:100B10006E677468206E6F7420706C6175736962A3
:100B20006C652E0A003F5072696D65206C656E67BA
:100B30007468206D757374206265207370656369D5
:100B400066696564207768656E206E6F74207573C2
:100B5000696E6720616E204C43442E0A003F53703B
:100B600065636966696564206E6F7A7A6C65207367
:100B7000697A65206E6F7420706C61757369626C40
:100B8000652E0A003F52657472616374696F6E204E
:100B90004D756C7469706C696572206D7573742025
:100BA0006265207370656369666965642E0A003F3B
:100BB0005370656369666965642052657472616328
:100BC00074696F6E204D756C7469706C6965722004
:100BD0006E6F7420706C61757369626C652E0A00AB
:100BE0003F537065636966696564206C61796572FD
:100BF00020686569676874206E6F7420706C617519
:100C00007369626C652E0A0043292E0A003F5370F7
:100C100065636966696564206265642074656D70EA
:100C200065726174757265206E6F7420706C617589
:100C30007369626C65202834302D0047323620738A
:100C400074617274696E672E2E2E0A004F46460A32
:100C500000466164652048656967687420004265E4
:100C600064204C6576656C696E6720004661696C2E
:100C7000656420746F20656E61626C6520426564F6
:100C8000204C6576656C696E670A00496E76616C0A
:100C90006964206D6573682E0A00203A203E20703A
:100CA000726F62696E6720636F6D706C6574650A40
:100CB00000202063757272656E745F706F73697463
:100CC000696F6E3D0050726F62696E6720506F6988
:100CD0006E740025532025692F2569002E0A002FE8
:100CE0000050726F62696E67206D65736820706F67
:100CF000696E742000202844525952554E290047ED
:100D00003239204175746F20426564204C657665E8
:100D10006C696E67003F20284C2C522C462C4229CF
:100D2000206F7574206F6620626F756E64732E0A73
:100D300000204200204600205200473239204C005B
:100D40003F2856296572626F7365206C6576656C05
:100D500020696D706C61757369626C652028302D37
:100D600034292E0A00426164205A2076616C756530
:100D70000A004E6F2062696C696E6561722067724D
:100D800069640A004732384C30003E204175746F68
:100D90002D6C6576656C206E6F74206E656564657C
:100DA000642C20736B69700A004732390041495F37
:100DB00044454255473A20717569636B5F686F6DB2
:100DC000655F78792829204B4F4EC48CC38D0A006B
:100DD0002C200041495F44454255473A20717569CE
:100DE000636B5F686F6D655F7879202D20706F7A17
:100DF000696365206E6173746176656E61206E61F2
:100E0000203D200041495F44454255473A207175D5
:100E100069636B5F686F6D655F7879202D20785FFF
:100E2000617869735F686F6D655F646972203D20EA
:100E3000002C200041495F44454255473A207175D6
:100E400069636B5F686F6D655F7879202D20706FC7
:100E50007A6963652072657365746F76C3A16E618C
:100E6000206E61203D20002C200041495F44454216
:100E700055473A20717569636B5F686F6D655F7880
:100E800079202D20616B7475C3A16C6EC3AD207089
:100E90006F7A6963652070C59965642072657365B2
:100EA00074656D203D200041495F44454255473AF5
:100EB00020717569636B5F686F6D655F787928294C
:100EC000205A41C48CC38D4EC3810A005A205072EF
:100ED0006F62652050617374204265640A005A2075
:100EE00050726F6265205061737420426564002CFB
:100EF000200041495F44454255473A20506F2073D6
:100F0000796E635F706C616E5F706F736974696F27
:100F10006E202D2063757272656E745F706F7369D9
:100F200074696F6E203D20002C200041495F4445CC
:100F30004255473A2050C59965642073796E635FC6
:100F4000706C616E5F706F736974696F6E202D20B5
:100F500063757272656E745F706F736974696F6EBA
:100F6000203D20002C200041495F44454255473A2E
:100F700020506F205A20686F6D696E6775202D2094
:100F800063757272656E745F706F736974696F6E8A
:100F9000203D20002C200041495F44454255473AFE
:100FA0002050C5996564205A20686F6D696E676529
:100FB0006D202D2063757272656E745F706F73693A
:100FC00074696F6E203D2000203A20686F6D655F68
:100FD0007A5F736166656C790A00202064657374BA
:100FE000696E6174696F6E3D002C200041495F4459
:100FF000454255473A2064657374696E6174696F40
:101000006E2073657420746F203D20002C200041F9
:10101000495F44454255473A206F6B61795F686F7D
:101020006D696E675F7879203D20002C2000414972
:101030005F44454255473A20686F6D655F6F66664D
:10104000736574203D20002C200041495F444542D7
:1010500055473A20736166655F686F6D696E675FBB
:101060007879203D200041495F44454255473A2068
:101070005A5F534146455F484F4D494E475F595F60
:10108000504F494E54203D200041495F4445425550
:10109000473A205A5F534146455F484F4D494E47B6
:1010A0005F585F504F494E54203D2000686F6D657A
:1010B0005F7A5F736166656C79002C200041495F3F
:1010C00044454255473A20473238202D20706F7AE8
:1010D00069636520706F20717569636B5F686F6D00
:1010E000655F7879203D20002C200041495F444510
:1010F0004255473A20473238202D20706F7A696375
:10110000652070C599656420717569636B5F686F50
:101110006D655F7879203D200041495F4445425527
:10112000473A20473238202D20766F6CC3A12073B8
:101130006520717569636B5F686F6D655F7879288D
:10114000290A005A7665646E65205A202870C59970
:10115000656420686F6D696E67656D29206F20007A
:101160003E20686F6D696E67206E656EC3AD20703E
:101170006F74C5996562612C2070C59965736B6F3A
:10118000C48D69740A002C20002C200041495F4462
:10119000454255473A20473238202D20616B7475FF
:1011A000C3A16C6EC3AD20706F7A696365206E61F8
:1011B000207A61C48DC3A1746B75203D2000414924
:1011C0005F44454255473A204732382829205A4142
:1011D000C48CC38D4EC3810A0047323800204400BE
:1011E00020204D3230302053002028446973616242
:1011F0006C6564293A0046696C616D656E74207394
:10120000657474696E67730020204D323031205848
:10121000004D617820416363656C65726174696F2C
:101220006E2028756E6974732F7332290020204D4B
:101230003230332058004D617820666565647261F4
:101240007465732028756E6974732F73290020529A
:101250000020204D323034205000416363656C65BE
:10126000726174696F6E2028756E6974732F7332A2
:10127000292028503C7072696E742D616363656C1F
:101280003E20523C726574726163742D61636365C4
:101290006C3E20543C74726176656C2D61636365AD
:1012A0006C3E290020580020540020530020204D7F
:1012B000323035204200416476616E6365642028D7
:1012C000423C6D696E5F7365676D656E745F7469CE
:1012D0006D655F75733E20533C6D696E5F66656535
:1012E00064726174653E20543C6D696E5F74726116
:1012F00076656C5F66656564726174653E20583C16
:101300006D61785F6A65726B3E20593C6D61785FF4
:101310006A65726B3E205A3C6D61785F6A65726BDC
:101320003E20453C6D61785F6A65726B3E29002006
:10133000440020490020204D333031205000486FB8
:1013400074656E6420504944002044002049002008
:10135000204D333034205000426564205049440011
:10136000203B0020550020204D363033204C0046D5
:10137000696C616D656E74206C6F61642F756E6C45
:101380006F6164004D323453256C6454256C6400E5
:101390004739322E394525730047314625640047C9
:1013A000315A257346363030004731582573592558
:1013B000734633303030004D313036502569532577
:1013C00069004D313039532569004D3230304425A4
:1013D00073004739322E395A2573004D3432305359
:1013E00025635A2573004732385230585900473127
:1013F0005A257346363030004739322E395A257314
:10140000004739322E394530004D31303953256986
:10141000004D313930532569004D3432302053307E
:10142000205A30003D3D4F6E506F7765724C6F73A0
:1014300073526573756D653D3D00203B2000202093
:101440004D343133205300506F7765722D6C6F73BC
:1014500073207265636F76657279004F4646004F60
:101460004E00203B20486F73742068616E646C6985
:101470006E672000203B204D6F646520006D6D007D
:10148000203B2044697374616E6365200046696C7B
:10149000616D656E742072756E6F757420003B20EF
:1014A0000020496E76616C69642065787472756499
:1014B0006572200047322F473320626164207061DB
:1014C00072616D65746572730A00536C6565702E88
:1014D0002E2E00205A3A200020593A2000426564FE
:1014E00020583A20004D65736820706F696E742033
:1014F0006F7574206F662072616E67650A006265A1
:1015000067696E004D302053746F70004D31205369
:10151000746F7000436C69636B20746F2052657345
:10152000756D652E2E2E004E6F204D6F76652E0048
:10153000456E642066696C65206C6973740A0042AC
:101540006567696E2066696C65206C6973740A0052
:101550004E6F206D656469610A00526573756D692F
:101560006E6720534400286E6F2066696C65290001
:1015700043757272656E742066696C653A20004E20
:101580006F74205344207072696E74696E670A002C
:101590005344207072696E74696E67206279746555
:1015A00020002569730025696D2025697300256970
:1015B000682025696D2025697300256964202569E7
:1015C000682025696D2025697300256979202569C2
:1015D00064202569682025696D2025697300507293
:1015E000696E742074696D653A20003F43616E6EC8
:1015F0006F7420777269746520746F20494E50555E
:10160000540A00496E76616C69642050696E204D01
:101610006F64650A006F6B006F666600ED04E80496
:10162000E104DA04CC04C50444454255473A004D70
:10163000313133205300544D3344203130535072F4
:101640006F5632204F46462E004649524D57415262
:10165000455F4E414D453A4D61726C696E2044576D
:10166000372E342E3720544D33442053534D444E9F
:101670004220284175672032362032303235203101
:10168000383A30303A30332920534F555243455F72
:10169000434F44455F55524C3A68747470733A2F07
:1016A0002F6769746875622E636F6D2F496E736161
:1016B0006E6974794175746F6D6174696F6E2F4DC9
:1016C00061726C696E2F747265652F437265616C0F
:1016D0006974794477696E5F322E302050524F54CE
:1016E0004F434F4C5F56455253494F4E3A312E307F
:1016F000204D414348494E455F545950453A544D59
:1017000033442031305350726F5632204558545272
:10171000554445525F434F554E543A312055554933
:10172000443A63656465326132662D343161322D2D
:10173000343734382D396231322D633535633632E2
:10174000663336376666002F2F005741524E494E9A
:101750004721204C6F77205A204A65726B206D61BB
:1017600079206C65616420746F20756E77616E748A
:101770006564207061757365732E0A0020204D61C9
:10178000783A2000200020204D696E3A2000203B4E
:10179000200020204D323131205300536F667420D9
:1017A000656E6473746F707300250A0046523A00C8
:1017B00020466C6F773A200050726F7465637465D1
:1017C000642050696E0A00363726033C3D380E2EE1
:1017D000303E121A1C180A43090844000142616293
:1017E0007973746570205A0064697300656E0043F4
:1017F000290A0061626C656420286D696E20746539
:101800006D702000436F6C64206578747275646538
:1018100073206172652000504944204175746F74D3
:10182000756E6500206661696C65642120426164A3
:10183000206865617465722069640A00504944201B
:101840004175746F74756E65004D34323120696E68
:10185000636F727265637420706172616D65746527
:10186000722075736167650A004D65736820706F3B
:10187000696E74206F7574206F662072616E676583
:101880000A00203B204C6576656C696E672000205D
:10189000204D3432302053004175746F204265640E
:1018A000204C6576656C696E670020204D393030BC
:1018B000204B004C696E65617220416476616E63F5
:1018C000650020500020440020204D353931205340
:1018D0000046696C616D656E742072756E6F75740B
:1018E0002073656E736F7200204A002020473239E2
:1018F000205720490020204D3134392043203B20FF
:10190000556E69747320696E2043656C73697573D5
:101910000A0054656D706572617475726520556E4C
:10192000697473002020473231203B004C696E659A
:10193000617220556E69747300454550524F4D20B9
:101940004F4B0A00290A0020746F20003F5A206F75
:101950007574206F662072616E6765202800290A01
:101960000020746F20003F59206F7574206F66202F
:1019700072616E676520282D00290A0020746F208F
:10198000003F58206F7574206F662072616E676526
:1019900020282D002E0A002028302D31302900204B
:1019A00076616C7565206F7574206F662072616E4C
:1019B000676500416476616E6365204B3D004D387C
:1019C0003400446F6E65207072696E74696E6720B2
:1019D00066696C650A004D3737004D333100290ABE
:1019E000002E2E2E2800540020204D323036205854
:1019F00000486F6D65206F6666736574004F66669C
:101A000073657473204170706C696564004572720F
:101A10003A20546F6F206661722100546F6F206608
:101A200061722066726F6D207265666572656E63A5
:101A30006520706F696E740A0020286D6D29002082
:101A40003B0020204D3835312058005A2D50726F00
:101A50006265204F666673657400436F6F6C696ED4
:101A6000672E2E2E00453120255300426564204309
:101A70006F6F6C696E672E2E2E004265642048657C
:101A80006174696E672E2E2E003D3D4477696E208D
:101A9000496E697420436F6D706C6574653D3D00DF
:101AA00068616E646C652077616974776179203D47
:101AB0003D0020202A2A2A2A2A2A2A5254535F48E3
:101AC000616E646C65446174612A2A2A2A2A2A2A72
:101AD0002A2000202D206434200064333A20002086
:101AE0002D206432200064313A2000202D206C65C6
:101AF0006E200056502072656365697665643A20F1
:101B0000002A2A2A4E6F7A7A6C6554656D70537478
:101B1000617475735B325D203D003D3D48656174C5
:101B2000696E6720446F6E65204368616E6765204B
:101B300046696C616D656E743D3D00202073746173
:101B4000727470726F677265737320004D32320A5F
:101B50004D3231003D3D7761697477617920353DC3
:101B60003D003D3D7761697477617920343D3D00EA
:101B70003D3D7761697477617920333D3D003D3D9E
:101B80007761697477617920313D3D00436F6E66FE
:101B900069726D20436F6E74696E75650050617572
:101BA000736553746174757300524553554D4520E8
:101BB0004F5054494F4E533A0048656174696E67FF
:101BC0002E2E2E000000436C69636B20746F20681A
:101BD000656174000000526573756D696E672E2E25
:101BE0002E00000050757267696E672E2E2E000061
:101BF00000496E7365727420616E6420436C696382
:101C00006B000000436C69636B20746F20636F6E20
:101C100074696E7565000000456A656374696E6776
:101C20002E2E2E000000506C65617365207761696F
:101C3000742E2E2E0000005061726B696E672E2E7E
:101C40002E0000002A2A2A496E6974696E67206393
:101C5000617264206973204F4B2A2A2A003D3D6F30
:101C60006E5072696E7454696D657253746F7070E2
:101C700065643D3D003D3D6F6E55736572436F6E0B
:101C80006669726D52657175697265643D3D00509B
:101C900061757365204D6F6465205374617475734D
:101CA000004C6F6164696E672E2E2E0000003D3D72
:101CB0006F6E466163746F727952657365743D3DF2
:101CC00000270A0A0000272027002027002D006394
:101CD000616E63656C005072696E742041626F7250
:101CE0007465640055492041626F727465640072C6
:101CF0006573756D65004D3234002A2A2A43506C95
:101D0000617920546F6E652A2A2A003D3D6F6E501E
:101D100072696E7454696D65725061757365643D66
:101D20003D003D3D6F6E5072696E7454696D657211
:101D3000537461727465643D3D00486F6D696E67F0
:101D4000204661696C65640050524553454E54000D
:101D50004F5554006F70656E0054524947474552C5
:101D60004544003A20004D4F54494F4E203A200040
:101D70004F46460A003A200066696C616D656E74D4
:101D8000007A5F6D696E00795F6D696E00785F6DD6
:101D9000696E005265706F7274696E6720656E645B
:101DA00073746F70207374617475730A0041495FB6
:101DB00044454255473A2043415254455349414EC8
:101DC000202D205820706F7A69636520646F7361DD
:101DD000C5BE6974656C6EC3A13A20005D0A002C13
:101DE0002000206D696D6F20726F7A736168205BCF
:101DF0000041495F44454255473A205920706F7A67
:101E0000696365206E656EC3AD20646F7361C5BE86
:101E10006974656C6EC3A1212072793D002C205934
:101E20005F4D41585F504F533D0041495F4445422B
:101E300055473A20595F4D494E5F504F533D002C56
:101E400020585F4D41585F504F533D0041495F441A
:101E5000454255473A20585F4D494E5F504F533DDC
:101E6000002C20793D0041495F44454255473A20C6
:101E7000706F736974696F6E5F69735F72656163B8
:101E80006861626C65206B6F6E74726F6C756A65E9
:101E900020783D00203A2073796E635F706C616E2C
:101EA0005F706F736974696F6E0A002020637572CA
:101EB00072656E745F706F736974696F6E3D002C2C
:101EC00020002C200041495F44454255473A206498
:101ED0006F5F626C6F636B696E675F6D6F76655F76
:101EE000746F20646F6B6F6EC48D656E61202D20E2
:101EF00063757272656E745F706F736974696F6E0B
:101F0000203D20002C20002C200041495F44454208
:101F100055473A20416B7475C3A16C6EC3AD2070F8
:101F20006F7A6963652070C599656420706F687900
:101F300062656D203D20002C207A3D002C20793DEB
:101F40000041495F44454255473A20646F5F626CE7
:101F50006F636B696E675F6D6F76655F746F207618
:101F60006F6CC3A16E61207320783D003E20006439
:101F70006F5F626C6F636B696E675F6D6F76655FD5
:101F8000746F0020746F6F206C6F6E6720657874BB
:101F9000727573696F6E2070726576656E746564B4
:101FA0000A0020636F6C6420657874727573696FC2
:101FB0006E2070726576656E7465640A00486F6D98
:101FC00065202573204669727374005761726E69CB
:101FD0006E673A20486F6D696E672042756D70209C
:101FE00044697669736F72203C20310A0002020452
:101FF000290A003C3C3C207365745F617869735F1B
:1020000069735F61745F686F6D652800203A200A0C
:1020100000202063757272656E745F706F736974EF
:10202000696F6E3D005D203D20003E20686F6D654C
:102030005F6F66667365745B002A2A2A205A2048FF
:102040004F4D454420574954482050524F42452057
:10205000285A5F4D494E5F50524F42455F55534598
:10206000535F5A5F4D494E5F454E4453544F505F46
:1020700050494E29202A2A2A0A3E2070726F626532
:102080002E6F66667365742E7A203D20002C20002A
:1020900041495F44454255473A207365745F617812
:1020A00069735F69735F61745F686F6D65285A2932
:1020B000202D20706F20626173655F686F6D655FB2
:1020C000706F73202D2063757272656E745F706F10
:1020D000736974696F6E203D200041495F44454239
:1020E00055473A205A5F4D41585F504F53203D208D
:1020F0000041495F44454255473A205A5F4D494E99
:102100005F504F53203D200041495F4445425547B1
:102110003A205A5F484F4D455F504F53203D2000B5
:1021200041495F44454255473A20626173655F68A3
:102130006F6D655F706F73285A29203D2000000085
:1021400070C1000020C1000000002C200041495F48
:1021500044454255473A207365745F617869735FFF
:1021600069735F61745F686F6D65285A29202D203F
:1021700070C599656420626173655F686F6D655FA6
:10218000706F73202D2063757272656E745F706F4F
:10219000736974696F6E203D2000290A003E3E3E3F
:1021A000207365745F617869735F69735F61745FE1
:1021B000686F6D652800290A003C3C3C20686F6D03
:1021C00065617869732800203A203E2041465445D5
:1021D00052207365745F617869735F69735F6174BE
:1021E0005F686F6D650A00202063757272656E749A
:1021F0005F706F736974696F6E3D006D6D0A005298
:10220000652D62756D703A20006D6D0A004D6F7618
:102210006520417761793A20006D6D0A00486F6D45
:102220006520466173743A20000000A5430000A0B9
:10223000430000C8430000004100000041000000CE
:1022400040290A003E3E3E20686F6D6561786973E3
:10225000280020706F736974696F6E5F73686966B8
:1022600074203D200020686F6D655F6F6666736542
:1022700074203D20004178697320000000000100B7
:10228000000001000080005555550000004000335B
:10229000333300AAAA2A004992240000002000C774
:1022A000711C0099991900D1451700555515003B2F
:1022B000B113002449120011111100000010000F89
:1022C0000F0F00E3380E0043790D00CCCC0C00C397
:1022D000300C00E8A20B0064210B00AAAA0A0070CF
:1022E0003D0A009DD80900427B090092240900DCC8
:1022F000D30800888808001042080000000800F099
:10230000C107008787070075500700711C07003E52
:10231000EB0600A1BC060069900600666606007028
:102320003E06006118060017F4050074D105005B35
:10233000B00500B2900500627205005555050078A1
:10234000390500B81E0500050505004EEC040087A0
:10235000D40400A1BD040090A7040049920400C168
:102360007D0400EE690400C7560400444404005C88
:102370003204000821040041100400000004003F62
:10238000F00300F8E0030026D20300C3C30300CC2F
:10239000B503003AA803000A9B0300388E0300C06F
:1023A0008103009F750300D0690300505E03001D88
:1023B00053030034480300913D03003333030016F8
:1023C000290300381F030097150300300C03000396
:1023D0000303000BFA020049F10200BAE802005CB4
:1023E000E002002DD802002DD0020059C80200B032
:1023F000C0020031B90200DAB10200AAAA0200A0AC
:10240000A30200BC9C0200FA9502005C8F0200DF70
:1024100088020082820200457C02002776020027A3
:10242000700200436A02007C640200D05E02003F3A
:10243000590200C8530200FFFDFCFAF8F6F4F2F06E
:10244000EEECEAE9E7E5E3E1E0DEDCDAD9D7D5D482
:10245000D2D0CFCDCBCAC8C7C5C3C2C0BFBDBCBA1E
:10246000B9B7B6B4B3B2B0AFADACAAA9A8A6A5A48B
:10247000A2A1A09E9D9C9A99989795949392908FD3
:102480008E8D8B8A8988878684838281807F7E7DFA
:102490007B7A797877767574737271706F6E6D6C04
:1024A0006B6A696867666564636261605F5E5D5CF4
:1024B0005B5A5958585756555453525150504F4ED5
:1024C0004D4C4B4A4A49484746464544434242419F
:1024D000403F3E3E3D3C3B3B3A3938383736353558
:1024E000343332323130302F2E2E2D2C2B2B2A2903
:1024F0002928272726252524232322212120201FA0
:102500001E1E1D1C1C1B1B1A191918181716161530
:102510001514131312121111100F0F0E0E0D0D0CB6
:102520000C0B0A0A09090808070706060505040432
:1025300003030202010000290A0050726F62653A2B
:102540003A646F5F7A5F72616973652800646570D1
:102550006C6F793A2000203A2050726F62653A3AE7
:102560007365745F6465706C6F7965640A00202020
:1025700063757272656E745F706F736974696F6E84
:102580003D00206D61783A00206D696E3A00417817
:102590006973200000809D4300009B430000C843F6
:1025A000000070C1000020C1000000005361766986
:1025B0006E67204457494E204C4344207365747421
:1025C000696E672066726F6D20454550524F4D0A07
:1025D000003D3D6F6E53657474696E677353746F1D
:1025E0007265643D3D0053657474696E6773205372
:1025F000746F72656400290A002062797465733B08
:1026000020637263200053657474696E677320538E
:10261000746F7265642028000A20696E6974207ADC
:1026200070726F62655F7A6F6666736574203D20B5
:10263000003D3D6F6E436F6E6669677572617469C8
:102640006F6E53746F7265526561643D3D00454520
:1026500050524F4D20496E697469616C697A6564A6
:102660000A0048617264636F646564204465666152
:10267000756C742053657474696E6773204C6F6158
:1026800064656400454550524F4D20646174617328
:10269000697A65206572726F722E0A0053657474D0
:1026A000696E6720566F6C756D65204F6E203A20FD
:1026B0000053657474696E67205374616E64627947
:1026C000204F6E203A200053657474696E6720565F
:1026D0006F6C756D65203A200053657474696E6780
:1026E00020526F746174696F6E203A2000536574D4
:1026F00074696E67205374616E6462792054696DE9
:1027000065203A200053657474696E6720537461C4
:102710006E646279203A200053657474696E672094
:102720004272696768746E657373203A20004C6F5B
:102730006164696E67204457494E204C43442073BE
:10274000657474696E672066726F6D2045455052DE
:102750004F4D0A0044697363617264696E67204477
:1027600057494E204C43442073657474696E67204A
:1027700066726F6D20454550524F4D202D20736578
:102780007474696E67732076657273696F6E206901
:102790006E636F72726563740A0044697363617279
:1027A00064696E67204457494E204C43442073654A
:1027B0007474696E672066726F6D20454550524F84
:1027C0004D202D2073697A6520696E636F72726582
:1027D00063740A00290A002062797465733B2063E0
:1027E000726320002073746F726564207365747463
:1027F000696E6773207265747269657665642028F6
:1028000000202863616C63756C6174656429210A1A
:102810000020213D2000454550524F4D204352435A
:10282000206D69736D61746368202D202873746F47
:102830007265642920002053697A653A2000496E48
:102840006465783A20000000FA430000FA43000073
:10285000204100008C420000A0420000A042000085
:10286000C84300000243EE020000EE0200006400D4
:1028700000003C000000454550524F4D2056657207
:1028800073696F6E204572726F7200204D61726CB9
:10289000696E3D563837290A00454550524F4D2044
:1028A00076657273696F6E206D69736D61746368AC
:1028B0002028454550524F4D3D0024F404D9201B9B
:1028C000C40C5C0E9804C4095F0265077101F4052D
:1028D000F900FB04B30048048700C10369005803F2
:1028E000550003034500BE023A0084023100530242
:1028F0002A002902250004022000E4011C00C8016E
:102900001900AF0117009801140084011300710130
:1029100010006101100051010E0043010D0036014D
:102920000B002B010B0020010B00150109000C010D
:10293000090003010800FB000800F3000800EB0099
:102940000700E4000600DE000600D8000600D20002
:102950000600CC000500C7000500C2000500BD0050
:102960000400B9000400B5000400B1000400AD008B
:102970000400A9000400A5000300A20003009F00BA
:1029800004009B00030098000300950002009300E0
:102990000300900003008D0002008B0003008800FC
:1029A00002008600020084000300810002007F0014
:1029B00002007D0002007B00020079000200770027
:1029C0000100760002007400020072000100710034
:1029D00002006F0002006D0001006C0002006A003E
:1029E0000100690002006700010066000100650047
:1029F000010064000200620001006100010060004B
:102A000001005F0002005D0001005C0001005B004E
:102A100001005A0001005900010058000100570050
:102A20000100560001005500010054000100530050
:102A3000000053000100520001005100010050004D
:102A400001004F0001004E0000004E0001004D004B
:102A500001004C0001004B0000004B0001004A0047
:102A60000100490001004800000048000100470043
:102A7000010046000000460001004500000045003E
:102A80000100440001004300000043000100420037
:102A90000000420001004100000041000100400030
:102AA00001003F0000003F0001003E0000003E002A
:102AB00001003D0000003D0001003C0000003C0022
:102AC00000003C0001003B0000003B0001003A0018
:102AD00000003A0001003900000039000100380010
:102AE0000000380000003800010037000000370007
:102AF00001003600000036000000360001003500FD
:102B000000003500000035000100340000003400F2
:102B100000003400010033000000330000003300E7
:102B200001003200000032000000320001003100DC
:102B300000003100000031000100300000003000D2
:102B40000000300001002F0000002F0000002F00C7
:102B500000002F0001002E0000002E0000002E00BB
:102B600001002D0000002D0000002D0000002D00B0
:102B700001002C0000002C0000002C0000002C00A4
:102B800001002B0000002B0000002B0000002B0098
:102B900001002A0000002A0000002A0000002A008C
:102BA0000100290000002900000029000000290080
:102BB0000000290001002800000028000000280073
:102BC0000000280000002800010027000000270066
:102BD0000000270000002700000027000100260059
:102BE000000026000000260000002600000026004D
:102BF0000100250000002500000025000000250040
:102C00000000250000002500010024000000240031
:102C10000000240000002400000024000100230024
:102C20000000230000002300000023000000230018
:102C30000000230000002300010022000000220009
:102C400000002200000022000000220000002200FC
:102C500001002100000021000000210000002100EF
:102C600000002100000021000000210001002000E0
:102C700000002000000020000000200000002000D4
:102C800000002000000020000000200001001F00C4
:102C900000001F0000001F0000001F0000001F00B8
:102CA00000001F0000001F0001001E0000001E00A9
:102CB00000001E0000001E00000024F4D43050C3A9
:102CC0008E20C2A24017828B7011127A910D816CF6
:102CD000D90AA861E108C7586607615143061E4B2F
:102CE0005D05C145A7041A411104093D98037139D6
:102CF00031034036DB0265339102D4305402802E1A
:102D00001D02632CEE01752AC501B028A001102711
:102D100081018F2564012B244B01E0223401AC2179
:102D20001F018D200D01801FFC00841EED00971DEA
:102D3000DF00B81CD200E61BC600201BBC00641AD2
:102D4000B200B219A8000A19A0006A189900D11798
:102D5000910040178B00B516840031167E00B31524
:102D600079003A157300C7146F0058146A00EE1307
:102D700066008813630025135E00C7125B006C12A7
:102D8000570015125400C111510070114F0021114C
:102D90004B00D61049008D10470046104400021029
:102DA0004200C00F4000800F3E00420F3C00060F63
:102DB0003B00CB0E3800930E37005C0E3500270E1B
:102DC0003400F30D3200C10D3100900D3000600D64
:102DD0002E00320D2D00050D2C00D90C2B00AE0C51
:102DE0002900850C29005C0C2700350C27000E0CEF
:102DF0002600E80B2400C40B2400A00B23007D0B4D
:102E000023005A0B2100390B2100180B2000F80A6F
:102E10001F00D90A1E00BB0A1E009D0A1D00800A61
:102E20001D00630A1C00470A1B002C0A1B00110A24
:102E30001A00F7091A00DD091900C4091900AB09C5
:102E40001900920917007B091800630917004C0943
:102E5000160036091600200916000A091500F508A3
:102E60001500E0081400CC081400B8081400A408E9
:102E70001400900813007D0812006B081300580816
:102E8000120046081200340811002308110012082D
:102E9000110001081100F0071000E0071000D00732
:102EA0001000C0071000B0070F00A1071000910725
:102EB0000E0083070F0074070F0065070E00570709
:102EC0000E0049070E003B070D002E070E002007DD
:102ED0000D0013070D0006070D00F9060C00ED06A6
:102EE0000D00E0060C00D4060C00C8060C00BC0661
:102EF0000C00B0060C00A4060B0099060C008D0611
:102F00000B0082060B0077060B006C060B006106B7
:102F10000A0057060B004C060A0042060A00380653
:102F20000A002E060A0024060A001A060A001006E5
:102F3000090007060A00FD050900F4050900EB0574
:102F40000900E2050900D9050900D0050900C705F7
:102F50000900BE050900B5050800AD050800A50576
:102F600009009C050800940508008C0508008405EC
:102F700008007C050800740508006C05070065055D
:102F800008005D050700560508004E0507004705C7
:102F900007004005080038050700310507002A052D
:102FA0000700230507001C050600160507000F058E
:102FB00007000805060002050700FB040600F504EB
:102FC0000700EE040600E8040600E2040700DB0444
:102FD0000600D5040600CF040600C9040600C30499
:102FE0000600BD040600B7040600B1040500AC04E9
:102FF0000600A6040600A00405009B040600950434
:103000000500900406008A0405008504050080047C
:1030100006007A04050075040500700405006B04C1
:10302000050066040500610405005C040500570402
:103030000500520405004D04050048040500430442
:1030400005003E0404003A04050035040500300480
:1030500004002C04050027040400230405001E04BA
:1030600004001A04040016040500110404000D04F1
:103070000400090405000404040000040400FC0327
:103080000400F8030400F4030400F0030400EC035C
:103090000400E8030400E4030400E0030400DC038C
:1030A0000400D8030400D4030400D0030400CC03BC
:1030B0000400C8030300C503030020436F756E744A
:1030C00020583A0023646566696E65204445464190
:1030D000554C545F0000626564004B6420004B69EE
:1030E00020004B7020005049442074756E696E6753
:1030F00020646F6E65002066696E6973686564217F
:103100002050757420746865206C617374204B7056
:103110002C204B6920616E64204B6420636F6E73BA
:1031200074616E74732066726F6D2062656C6F7768
:1031300020696E746F20436F6E6669677572617483
:10314000696F6E2E680A00504944204175746F748F
:10315000756E6500206661696C6564212074696D17
:10316000656F75740A00504944204175746F747519
:103170006E65004175746F74756E65206661696C6B
:103180006564212054696D656F75742E0020666139
:10319000696C6564212054656D7065726174757227
:1031A0006520746F6F20686967680A005049442081
:1031B0004175746F74756E6500504944204379639E
:1031C0006C65730025532025692F256900204B6409
:1031D0003A2000204B693A2000204B703A20002012
:1031E000436C617373696320504944200A00204E88
:1031F0006F206F76657273686F6F740A0020547564
:103200003A2000204B753A2000206D61783A20006A
:10321000206D696E3A200020643A200020626961C6
:10322000733A200048656174696E672E2E2E002067
:1032300073746172740A00504944204175746F744C
:10324000756E65004175746F74756E652066616991
:103250006C6564212054656D70657261747572656A
:1032600020746F6F20686967682E00206661696C42
:103270006564212054656D70657261747572652096
:10328000746F6F20686967680A005049442041756F
:10329000746F74756E6500426564004531004500C9
:1032A000626564002C2073797374656D2073746F8C
:1032B0007070656421204865617465725F49443AA5
:1032C00020004572723A204D415854454D50004DF2
:1032D000415854454D502074726967676572656442
:1032E0000048656174696E67204661696C656400B9
:1032F00048656174696E67206661696C6564004D3C
:10330000353234004D3131322053687574646F7733
:103310006E001000C90210012C0140012201700151
:103320001801B0010E01F00104015002FA00B002D0
:10333000F0003003E600D003DC009004D2007005FA
:10334000C800A006BE000008B400B009AA00D00B57
:10335000A000600E960060118C00001582002019FC
:103360007800C01D6E00A0226400B0275A00902C87
:10337000500000314600E0343C0010383200903AF2
:103380002800603C1E00A03D1400803E0A00203F43
:1033900000004572723A204D494E54454D50004D43
:1033A000494E54454D502074726967676572656473
:1033B00000544845524D414C2052554E41574159B9
:1033C00000546865726D616C2052756E6177617929
:1033D00000202F002042403A0020403A0020573A77
:1033E0000020573A007C3C3E5E2B3D3F2F5B5D3B0F
:1033F0002C2A225C004D6564696120496E69742045
:103400004661696C0053442063617264206F6B0AEB
:10341000006F70656E526F6F74206661696C6564D1
:103420000A00766F6C756D652E696E697420666131
:10343000696C65640A004E6F2053442063617264B6
:103440000A00534420636172642072656C65617385
:1034500065640A000A4D3234004D32332025730072
:103460002E0A006F70656E206661696C65642C20A1
:1034700046696C653A200046696C652073656C6529
:10348000637465640A002053697A653A20004669CE
:103490006C65206F70656E65643A2000454E44206F
:1034A000535542524F5554494E450A002220706FE1
:1034B00073002220706172656E743A220053554287
:1034C000524F5554494E452043414C4C2074617233
:1034D0006765743A220053756263616C6C204F76A5
:1034E0006572666C6F770045786365656465642016
:1034F0006D617820535542524F5554494E452064D2
:10350000657074683A002E0A0044656C6574696FD2
:103510006E206661696C65642C2046696C653A2092
:103520000046696C652064656C657465643A005793
:10353000726974696E6720746F2066696C653A20E1
:1035400000667265736800646F696E670020666963
:103550006C653A20004E6F7720002F6175746F25DF
:10356000632E67002020506C616E6E657242756636
:1035700066657242797465733A200020467265650B
:10358000204D656D6F72793A200020436F6D706930
:103590006C65643A2041756720323620323032350E
:1035A0000A00204C61737420557064617465643A3C
:1035B00020323032332D30322D3033207C20417593
:1035C00074686F723A2054696E794D616368696EF0
:1035D000657333440A004D61726C696E204457373D
:1035E0002E342E370A0020536F667477617265207F
:1035F00052657365740A00205761746368646F676D
:103600002052657365740A002042726F776E206FD6
:1036100075742052657365740A002045787465726C
:103620006E616C2052657365740A00506F77657225
:1036300055700A0073746172740A004739310A4781
:10364000315A350A4739300A4D38340A4D31303451
:1036500053300A4D3134305330004D313030310069
:103660006F6B006572726F722077726974696E6732
:1036700020746F2066696C650A00446F6E65207364
:103680006176696E672066696C652E0A004D323975
:1036900000456E6473746F7073002553202563209A
:1036A000256320256320256300205A3A0020593ADB
:1036B0000020583A00656E6473746F7073206869F7
:1036C000743A200000002100240027002A002D0069
:1036D0003000330001010000040107010A0100006D
:1036E0002200250028002B002E00310034000201AA
:1036F0000000050108010B01000020002300260046
:1037000029002C002F0032000001000003010601F7
:103710000901050505050705080808080202020257
:103720000A0A08080404040401010101010101015D
:103730000303030303030303040707070C0C0C0C28
:103740000C0C0C0C02020202060606060606060611
:103750000B0B0B0B0B0B0B0B01021020200808109E
:1037600020401020408002010201080402010102F1
:1037700004081020408080402010080402018004CA
:103780000201804020100804020108040201010225
:10379000040810204080010204081020408000002E
:1037A0000A0B02090C0D0E080703040100000000BB
:1037B0000000000000000000000000000000000009
:1037C00000000000000000000000121110000000C6
:1037D00000000000000000000000000000000000E9
:1037E00000000000702600009B1E0000C3150000B2
:1037F000C70D0000F40700004F0400004002000065
:10380000260100004572726F722077726974696ECA
:103810006720746F20454550524F4D210A00207497
:103820006F6F206C6F6E6720657874727573696F47
:103830006E2070726576656E7465640A0020636F31
:103840006C6420657874727573696F6E2070726530
:1038500076656E7465640A004D323520500A4D322B
:103860003400526573756D6500554920506175735C
:10387000650043616E6E6F7420656E7465722073AF
:1038800075626469723A20004E6F204D61746368FE
:10389000203A00436F6E73747261696E206D6573B8
:1038A0006856616C20006D65736856616C20007904
:1038B000506E74200078506E7420006D65736850EF
:1038C0006F696E742000446973706C61794272692B
:1038D0006768746E657373205365743A2000446999
:1038E00073706C61794272696768746E6573732076
:1038F0004C43443A20004D32320A4D323100526579
:1039000066726573680050675570005067446F7742
:103910006E0049732046696C652000497320446934
:10392000722000476F557044697200486173204DE2
:10393000656469610046696C656E616D65205365FB
:103940006C6563746564004D3130303043004D3137
:10395000303030002046696C616D656E74205265B0
:1039600073706F6E7365204E6F00526573756D6571
:103970002059657320647572696E67207072696E74
:1039800074000A204E6F2046696C616D656E74008C
:10399000496E76616C6964204F7074696F6E004D7A
:1039A0003530300053746F72652053657474696EDE
:1039B0006773004D3939390A4D3238305030533140
:1039C000363000424C546F756368205265736574DD
:1039D000004D3530320A4D35303000496E69742063
:1039E000454550524F4D004D3530300053746F7285
:1039F000652053657474696E677300496E4C616E1F
:103A00006743686F696365000A202A2A2A72656322
:103A10006461742E646174615B305D203D004732E7
:103A2000380A4731204631303030205A3130005585
:103A30006E737570706F72746564204F7074696F07
:103A40006E2053656C6563746564004D3630355384
:103A5000300A47323858004D36303553310A543029
:103A60000A4732380A4D36303553320A4732385811
:103A70000A473158300A4D3630355333004D363011
:103A80003553310A54300A4732380A4D36303553EF
:103A9000320A473238580A47315830004D363035EF
:103AA00053310A473238580A47315830004D3231C5
:103AB0003153300A4739310A47315A302E303235C6
:103AC0000A4739300A4D3231315331004D323131EC
:103AD00053300A4739310A47315A2D302E303235AA
:103AE0000A4739300A4D32313153310047323953A8
:103AF00032004732395331004732365232353500C1
:103B00004D343230205330004D34323020533100A8
:103B10004732380A4732390A4D3530300A4D34328F
:103B20003053310A4D313137204C6576656C696E02
:103B30006720446F6E6500473120463130303020B9
:103B40005A302E30004732380A4731204631303063
:103B500030205A302E30005A204F6666736574202C
:103B60003A202573005A204F6666736574203A2008
:103B70002573004732385A0A473146313530305ABA
:103B8000302E30004732380A473146313530305A0E
:103B9000302E3000426564204C6576656C204F7095
:103BA00074696F6E200052657475726E203A200041
:103BB0004D383400473146313030305A302E3000E5
:103BC0004732380A473146313030305A302E3000D3
:103BD0004D616E75616C53657454656D70005A204B
:103BE0004F6666736574203A20257300526F756EB8
:103BF00064696E6720746F2073746570005265711C
:103C0000756573746564204F666673657420005330
:103C1000746F7020547269676765726564005374CD
:103C20006F70204E6F0053746F705072696E740025
:103C300048616E646C6520446174612041646A75FA
:103C4000737420322053657474696E6720536372F5
:103C500065656E200048616E646C65204461746126
:103C6000205072696E7446696C6520332053657408
:103C700074696E672053637265656E200048616EDB
:103C8000646C652044617461205072696E74466989
:103C90006C6520322053657474696E6720536372BB
:103CA00065656E20004D38340048616E646C652097
:103CB00044617461205072696E7446696C6520506D
:103CC0006F73740048616E646C6520446174612098
:103CD0005072696E7446696C652050726500426569
:103CE00067696E537769746368003D3D204368657A
:103CF000636B6B65793D3D007265636461742E6131
:103D0000646472203D3D007265636461742E646179
:103D100074615B305D203D3D0070012C01900127F6
:103D200001B0012201C0011D01F0011801100213B0
:103D30000130020E016002090190020401C002FF7D
:103D4000000003FA004003F5008003F000D003EB0D
:103D5000002004E6007004E100E004DC004005D728
:103D600000C005D2004006CD00D006C8008007C3C1
:103D7000003008BE00F008B900C009B400B00AAFB6
:103D800000B00BAA00D00CA500000EA000500F9BA5
:103D900000C01096005012910000148C00C01587CE
:103DA00000B0178200B0197D00D01B7800001E7390
:103DB0000040206E0090226900F024640040275FDC
:103DC0000090295A00E02B5500102E500020304B57
:103DD0000010324600E033410090353C0010373788
:103DE0000070383200A0392D00B03A2800A03B23E3
:103DF00000603C1E00103D1900903D1400103E0F65
:103E000000703E0A00C03E0500003F0000403FFB3E
:103E1000FF803FF6FFC03FF1FF70726F6D70745FFF
:103E200000626567696E0044697361626C65527512
:103E30006E6F75740050757267654D6F72650050D6
:103E4000617573656400436F6E74696E7565004CCF
:103E50006F61642046696C616D656E742054004C1E
:103E60006F61642046696C616D656E7400496E73A4
:103E70006572742066696C616D656E7420616E6434
:103E80002073656E64204D3130380A007265737599
:103E90006D6564004469736D697373005265737571
:103EA0006D696E67002044697363726570616E634B
:103EB000793A00326E642050726F6265205A3A007F
:103EC000534C4F57003173742050726F6265205A03
:103ED0003A00464153540050726F62653A3A727527
:103EE0006E5F7A5F70726F6265006D656173757287
:103EF00065645F7A3A200050726F62696E6720468F
:103F000061696C65640A0050726F62696E67204671
:103F100061696C656400205A3A200020593A2000FB
:103F200042656420583A2000506F736974696F6E5F
:103F3000204E6F7420526561636861626C650A008F
:103F4000203A200A00202063757272656E745F70DB
:103F50006F736974696F6E3D005F72656C6174693F
:103F60007665290A002C20002C20002C20002C2013
:103F7000002E2E2E280050726F62653A3A70726FD2
:103F800062655F61745F706F696E740050726F621A
:103F9000653A3A70726F62655F646F776E5F746FD7
:103FA0005F7A002054726967676572656420656195
:103FB000726C792E00204E6F20747269676765728B
:103FC0002E002050726F6265206661696C21202D81
:103FD00000FFFFFF290A005D005B002C20002C2061
:103FE000002E2E2E2800646F5F686F6D696E675F0C
:103FF0006D6F76650043616E6E6F74206F70656ED5
:10400000207375626469722000204500205A0020E8
:10401000590020204D3932205800537465707320A8
:1040200070657220756E697400496E76616C6964A2
:104030002065787472756465720A00220A00556EF4
:104040006B6E6F776E20636F6D6D616E643A2022C8
:104050000020453A00205A3A0020593A00583A00C8
:104060006F6B0A00526573656E643A20006E6F7460
:10407000696669636174696F6E2000544D33442032
:1040800031305350726F56322052656164792E0080
:104090005072696E74696E672E2E2E005072696EB2
:1040A000742050617573656400524553554D452029
:1040B0004F5054494F4E533A0048656174696E67DA
:1040C0002E2E2E000000436C69636B20746F2068F5
:1040D000656174000000526573756D696E672E2E00
:1040E0002E00000050757267696E672E2E2E00003C
:1040F000004C6F6164696E672E2E2E000000496EC1
:104100007365727420616E6420436C69636B000098
:1041100000436C69636B20746F20636F6E74696E0B
:104120007565000000456A656374696E672E2E2E02
:10413000000000506C6561736520776169742E2EF4
:104140002E0000005061726B696E672E2E2E0000EB
:104150000050617573654D73673D00002C0190013F
:1041600011241FBECFEFD1E2DEBFCDBF00E00CBFF8
:1041700084B78093161914BE0FB6F894A895809151
:104180006000886180936000109260000FBE16E0AE
:10419000A0E0B2E0EAE2FAE802E00BBF02C007905A
:1041A0000D92AC37B107D9F729E1ACE7B6E001C011
:1041B0001D92A631B207E1F710E2CFEAD0E200E0AB
:1041C00006C021970109802FFE010F944241CE3A8B
:1041D000D10780E00807A9F70F944E2D0D940345F1
:1041E0000C940000CF93DF93C091E314D091E414BA
:1041F00081E0CE31D105E4F020E030E040E05FE343
:104200006091DF147091E0148091E1149091E214B8
:104210000F944B410F94B7426C1B7D0B77FF03C08B
:1042200071956195710981E0633071050CF080E052
:10423000DF91CF910895CF93DF93DB01F9019C913A
:104240009130C1F0943080F094509C938830D1F438
:1042500080819181009771F0019791838083480F4D
:10426000591FEA01188206C08C3539F49C5F9C9373
:10427000943041F4DF91CF9108958B3339F781E089
:104280008C93F8CF20813181B9016F5F7F4F7183AB
:104290006083420F531FEA018883808191818F35AB
:1042A00091056CF7E7CF0F931F9381E000913417CE
:1042B00010913517209136173091371740913017EC
:1042C0005091311760913217709133170417150709
:1042D0002607370708F480E01F910F910895209179
:1042E0007607833021F425FD0CC024FD0CC030E09E
:1042F000A90102C0559547958A95E2F7CA018170D8
:10430000089581E0089580E00895682F70E090E0BE
:1043100080E00F946E3A2091EE073091EF074091C4
:10432000F0075091F1070F94CD3A2091E6073091B4
:10433000E7074091E8075091E9070F944B41089532
:10434000682F70E090E080E00F946E3A2091EA07C9
:104350003091EB074091EC075091ED070F94CD3A67
:104360002091E2073091E3074091E4075091E5077F
:104370000F944B4108958091E10781110EC0209167
:104380001102309112022150310981E040910F1544
:1043900050911015421753070CF080E00895269AAB
:1043A0002E9A089580917F07909180072FEF3FEF1D
:1043B000981751F0E92FF0E0E158F84F228130E0F2
:1043C0009F5F9F7390938007C9010895AB01BC0163
:1043D00040933417509335176093361770933717FF
:1043E0008CE998E10C94B491EF92FF920F931F9394
:1043F000CF937C010091790710917A07C0E0F70113
:10440000EC0FF11D6081662351F0062E000C770B36
:10441000C8010F949944892B49F4CF5FF0CF80E015
:10442000CF911F910F91FF90EF90089581E0F8CF09
:10443000682F880F770B8091790790917A070F94F6
:104440009944FC0181E0309709F480E0309781F0D5
:10445000918120ED290F2A3030F09E3251F4928163
:1044600090539A3098F43196F0937107E093700767
:1044700008959D3211F09B3249F4928120ED290F6D
:104480002A3088F39E3211F49381EACFF0E0E0E025
:10449000EBCF0E941822882341F081E02091700721
:1044A00030917107232B09F480E008950F931F9337
:1044B000CF93DF9300D01F92CDB7DEB79C0107EDFD
:1044C0001EE090E1E8E5F2E0D80101900D929A95A6
:1044D000E1F7F9012081318142815381F801608542
:1044E0007185828593850F944B41F80160877187B0
:1044F0008287938780E090E0A0EAB0E489839A8382
:10450000AB83BC83CE0101960E9452DB0F900F90CB
:104510000F900F90DF91CF911F910F9108952F92DF
:104520003F924F925F926F927F928F929F92AF9243
:10453000BF92CF92DF92EF92FF921F93CF93DF93C0
:10454000CDB7DEB72C970FB6F894DEBF0FBECDBF48
:104550007A011901DC012D913D914D915C912D83E2
:104560003E834F835887FB01408051806280738077
:104570008090580290905902A0905A02B0905B022D
:10458000A50194016D817E818F8198850F94673A92
:1045900081110EC011E0A301920160915C02709143
:1045A0005D0280915E0290915F020F94673A8111E3
:1045B00010E0D1012D913D914D915C9129873A8771
:1045C0004B875C87F701C080D180E280F380209127
:1045D0000602309107024091080250910902C7017A
:1045E000B6010F94673A882309F44EC0C0920602C0
:1045F000D0920702E0920802F092090280916402D0
:1046000090916502A0916602B091670240915C02B0
:1046100050915D0260915E0270915F028092D70EB0
:104620009092D80EA092D90EB092DA0E4093DB0E83
:104630005093DC0E6093DD0E7093DE0EC092DF0EA1
:10464000D092E00EE092E10EF092E20E8093E30E43
:104650009093E40EA093E50EB093E60E20E030E0D8
:1046600040E05FE36091780F7091790F80917A0F4D
:1046700090917B0F0F94CD3A69837A838B839C83CF
:10468000CE0101960E9452DB2D813E814F815885DB
:104690002093D70E3093D80E4093D90E5093DA0E54
:1046A0004092DB0E5092DC0E6092DD0E7092DE0EB8
:1046B000D1012D913D914D915C916091E30E7091EE
:1046C000E40E8091E50E9091E60E0F944B416093BD
:1046D000E30E7093E40E8093E50E9093E60E1111B5
:1046E0002FC020E030E0A90169857A858B859C8503
:1046F0000F94673A811133C060E070E088EC92E477
:1047000069837A838B839C83CE0101960E9452DB5E
:104710002C960FB6F894DEBF0FBECDBFDF91CF91C0
:104720001F91FF90EF90DF90CF90BF90AF909F9040
:104730008F907F906F905F904F903F902F90089553
:104740002AEF3EE74AE25FE360917C0F70917D0FB4
:1047500080917E0F90917F0F0F94CD3AD1CF60E082
:1047600070E080EA91E4CCCF80917007909171075E
:10477000009731F04AE050E070E060E00D9482383C
:1047800060E070E0CB010895CF93DF9300D01F92DB
:10479000CDB7DEB780E090E0A0EAB0E489839A83E9
:1047A000AB83BC8361E0CE0101960E9401D00F90E3
:1047B0000F900F900F90DF91CF9108950F931F935B
:1047C000CF93DF9300D000D01F921F92CDB7DEB7FA
:1047D0008B01FC0123A5211102C00F94DD231D8252
:1047E0001E821F82188620E030E040E05FE3609187
:1047F00060027091610280916202909163020F9455
:104800004B4169837A838B839C839E012B5F3F4F4F
:10481000AE014F5F5F4F6CE572E088E592E00E9469
:104820008F221D821E821F82188620E030E040E029
:104830005FE3F80160857185828593850F944B4114
:1048400069837A838B839C83B8016C5F7F4F9E0161
:104850002B5F3F4FAE014F5F5F4FC8010E948F2219
:1048600028960FB6F894DEBF0FBECDBFDF91CF9173
:104870001F910F9108958091700790917107009793
:1048800031F04AE050E070E060E00D94543760E0B1
:1048900070E0CB010895CF93DF93EB010E94492292
:1048A000882319F00E943B24EB01CE01DF91CF91C8
:1048B00008950E943B2497FD0CC00E943B246F3F4B
:1048C00071058105910509F034F40E943B24862F7F
:1048D000089580E008958FEF0895CF93C62F0E942A
:1048E0004922882319F0CF910C9459248C2FCF9111
:1048F00008958091700790917107892B41F00E9473
:10490000592491E0811101C090E0892F089591E030
:10491000FCCFCF93DF93C82FD62F0E944922882344
:1049200021F0DF91CF910C9479248C2F0E941822D2
:10493000811101C08D2FDF91CF9108950E943B24FA
:10494000CB010895CF93DF93EB010E944922882386
:1049500021F0DF91CF910C949E24CE01DF91CF9175
:1049600008950F931F93CF938091700790917107D3
:10497000009709F1FC018F01C1912C2F2F7DA1F02F
:10498000C53431F0C53621F0C83511F0C83799F774
:10499000F801108270E060E00F94F635F801C083F2
:1049A000CF911F910F91089570E060E0CF911F911A
:1049B0000F910D94F63560E070E0CB01F1CFCF920E
:1049C000DF92EF92FF926A017B010E9449228823C5
:1049D00031F0FF90EF90DF90CF900C94B124C7019D
:1049E000B601FF90EF90DF90CF9008950D94B61729
:1049F0000F931F93CF9310927807109277072FE3AE
:104A000020937E0710927D0710927C0710927B07FF
:104A10009C01F90190812F5F3F4F9032D1F39E347A
:104A2000C9F4818190ED980F9A3020F08D3211F009
:104A30008B3281F432969F012F5F3F4F80818053EC
:104A40008A3008F475C09F012F5F3F4F808180320C
:104A500009F470C0F093980FE093970F8F010F5FE8
:104A60001F4FC0816AE270E0C8010F94994400971B
:104A700031F0FC01319780818032E1F31182CD3435
:104A800029F0C43519F0C73409F04EC0F80180810F
:104A90000F5F1F4F8032D1F380538A3008F044C03B
:104AA000C0937E0730E020E04AE0DF011196429F8C
:104AB000C001439F900D11249C0120533109808136
:104AC000280F311D87FD3A95818190ED980F9A301E
:104AD00098F130937D0720937C078E3261F43296F3
:104AE00090E04AE0DF0131968C9150ED580F5A303A
:104AF00028F190937B07FD01119680818032D9F3D4
:104B0000F0937A07E0937907CD3441F52E313105E2
:104B100039F0D0F42731310519F02C313105F1F499
:104B2000F0937807E0937707CF911F910F91089545
:104B3000F90181CFF90187CFFD01B7CF949F800D97
:104B4000112490ED980FCECF2537310538F0273757
:104B5000310530F3203A83E0380711F350E040E0AC
:104B6000CF0101966081662309F45AC0613291F445
:104B7000CD3481F42032310569F490937807809325
:104B8000770763E270E00F949944009769F2FC01A3
:104B90001082CACFFC01DF018D91803271F090ED5F
:104BA000980F9A3008F18E3251F4918190539A30D7
:104BB000D8F041155105E1F414C0FD01ECCF8D3260
:104BC00011F08B3259F4918160ED690F6A3060F019
:104BD0009E3221F4928190539A3030F04115510564
:104BE00019F4AF014150510981548A3108F4B8CF0A
:104BF000DF01FD018D91882309F4B2CF90ED980F6C
:104C00009A30B8F393ED980F923098F38B3289F382
:104C1000CF0101966081603209F0A2CFFC01F8CF8C
:104C200050937807409377077FCF81E080931215E8
:104C30000895FC016591759185919491089580E0A6
:104C40000C9451D0682F70E090E080E00D94B6177E
:104C50009B01AC01485F5F4FBC016C5F7F4F0C94C0
:104C60008F222F923F924F925F926F927F928F92FC
:104C70009F92AF92BF92CF92DF92EF92FF920F93EB
:104C80001F93CF93DF93CDB7DEB7A6970FB6F894F7
:104C9000DEBF0FBECDBF8C011B015A8749874090F4
:104CA00058025090590260905A0270905B028090B6
:104CB0005C0290905D02A0905E02B0905F02DB010A
:104CC0008D919D910D90BC91A02D8B8B9C8BAD8B6C
:104CD000BE8B9C01AD01C301B2010F944A416B012F
:104CE0007C01D10114968D919D910D90BC91A02DC8
:104CF0008F8B988FA98FBA8F9C01AD01C501B4012C
:104D00000F944A416B8F7C8F8D8F9E8FA985BA85BA
:104D10008D919D910D90BC91A02D8B879C87AD8727
:104D2000BE879C01AD01C301B2010F944A416F8F50
:104D300078A389A39AA3A985BA8514968D919D918C
:104D40000D90BC91A02D8F87988BA98BBA8B9C015D
:104D5000AD01C501B4010F944A416BA37CA38DA39F
:104D60009EA3A7019601C701B6010F94CD3A6B012E
:104D70007C012B8D3C8D4D8D5E8DCA01B9010F9448
:104D8000CD3A9B01AC01C701B6010F944B414B01D9
:104D90005C012B893C894D895E896B857C858D857D
:104DA0009E850F944A412B013C012F89388D498DF6
:104DB0005A8D6F85788989899A890F944A416B0148
:104DC0007C01A3019201C301B2010F94CD3A2B01E2
:104DD0003C01A7019601C701B6010F94CD3A9B0192
:104DE000AC01C301B2010F944B410F94F9436B0125
:104DF0007C012F8D38A149A15AA1CA01B9010F9494
:104E0000CD3A2B013C012BA13CA14DA15EA1CA01D1
:104E1000B9010F94CD3A9B01AC01C301B2010F94CB
:104E20004B419B01AC01C501B4010F94AB43181673
:104E3000B4F520E030E0A901C701B6010F94AB43FF
:104E400087FF2AC0C701B601905820E030E040EA51
:104E500050E40F94AB43181614F5A10169857A85C7
:104E6000C8010E943126A6960FB6F894DEBF0FBE89
:104E7000CDBFDF91CF911F910F91FF90EF90DF9009
:104E8000CF90BF90AF909F908F907F906F905F90EA
:104E90004F903F902F900895C701B601D6CF20E0E4
:104EA00030E040E050E4C501B4010F94AB43181664
:104EB00024F4B101C8010E94DE2319821A821B82E8
:104EC0001C82BE016F5F7F4FC1010E9428262DEC1E
:104ED0003CEC4CEC5CE3C701B6010F94CD3A9B016E
:104EE000AC01F80160817181828193810F94CD3A88
:104EF0006D837E838F839887D8019B968C919B9737
:104F00008823C9F02AE939E949E95FE314966D91EC
:104F10007D918D919C9117970F94CD3A69837A83F7
:104F20008B839C83BE016F5F7F4F87ED9EE00E9465
:104F30002826F80113A6BE016B5F7F4F89859A85ED
:104F40000E94282690CF3F924F925F926F927F925D
:104F50008F929F92AF92BF92CF92DF92EF92FF9289
:104F60000F931F93CF93DF93CDB7DEB76C970FB638
:104F7000F894DEBF0FBECDBF8C01DB018C91A42E57
:104F8000A80EB4E0BA1508F4EAC0FB01B180322ED5
:104F90003B0CB31508F4E3C0EB2DF0E0EA59F84FF1
:104FA000E081F0E0082E02C0F595E7950A94E2F75B
:104FB000E0FFD5C0E32DF0E0EA59F84FE081F0E0E2
:104FC0000A2C02C0F595E7950A94E2F7E0FFC7C006
:104FD000822E942E0E94A0216B017C01692D660F08
:104FE000770B072E000C880B990B0F946E3A2B0150
:104FF0003C01AC019B01C701B6010F944B416B0111
:105000007C01CD86DE86EF86F88A8A2D0E94A0215B
:10501000A30192010F944A41698F7A8F8B8F9C8FE5
:1050200069837A838B839C838B2D0E9485212B013E
:105030003C01682D660F770B072E000C880B990B2F
:105040000F946E3A4B015C01AC019B01C301B201AC
:105050000F944B412B013C01498A5A8A6B8A7C8A06
:10506000832D0E948521A50194010F944A414B0193
:105070005C018D829E82AF82B886F8018085918521
:10508000A285B38589879A87AB87BC878D8B9E8BDA
:10509000AF8BB88F20E030E040E151ECC301B201AA
:1050A0000F94673A87FF73C080E090E0A0E1B1EC15
:1050B000898B9A8BAB8BBC8B20E030E040E151ECCC
:1050C000C501B4010F94673A87FF71C080E090E09A
:1050D000A0E1B1EC8D839E83AF83B88720E030E000
:1050E00040E651ECC701B6010F94673A87FF6FC0E5
:1050F00080E090E0A0E6B1EC8D879E87AF87B88B0B
:1051000020E030E040E651EC698D7A8D8B8D9C8DEE
:105110000F94673A87FF6BC080E090E0A0E6B1ECA7
:1051200089839A83AB83BC83BE016F5E7F4FCE01C0
:105130000D960E94A0B3882391F0BE016B5F7F4F54
:10514000CE0101960E94A0B3882349F0AE014F5FC3
:105150005F4FBE01635F7F4FC8010E9431266C968E
:105160000FB6F894DEBF0FBECDBFDF91CF911F9178
:105170000F91FF90EF90DF90CF90BF90AF909F90F6
:105180008F907F906F905F904F903F90089520E0B8
:1051900030E84AE953E4C301B2010F94AB43181657
:1051A0000CF08ACF80E090E8AAE9B3E481CF20E058
:1051B00030E84AE953E4C501B4010F94AB43181633
:1051C0000CF08CCF80E090E8AAE9B3E483CF20E034
:1051D00030E04DE953E4C701B6010F94AB43181614
:1051E0000CF08ECF80E090E0ADE9B3E485CF20E015
:1051F00030E04DE953E4698D7A8D8B8D9C8D0F9451
:10520000AB4318160CF090CF80E090E0ADE9B3E42A
:1052100087CFCF92DF92EF92FF92CF936B017C0109
:10522000C42F8091F50D8F5F09F4B5C08093F50D03
:105230008091F50D8093A40E20E030E040E752E429
:1052400060915402709155028091560290915702DC
:105250000F94CD3A0F94BE427093070E6093060EE2
:10526000C092080ED092090EE0920A0EF0920B0E38
:105270008091A30EC0FB80F98093A30E8CE0EFE435
:10528000F9E0ACE0BEE001900D928A95E1F78CE088
:10529000E4EDF7E0A8E1BEE001900D928A95E1F718
:1052A0008091FE079091A30E80FB94F99093A30E3A
:1052B000882381F08091FA079091FB07A091FC0769
:1052C000B091FD078093240E9093250EA093260E97
:1052D000B093270E80910F15909110159093290E81
:1052E0008093280E8091E3149091E41490932B0EF8
:1052F00080932A0E8091A50E80932C0E8091A30E90
:105300009091CD0E90FB83F98093A30E8091CE0EE9
:105310009091CF0EA091D00EB091D10E80932D0E12
:1053200090932E0EA0932F0EB093300E0E948EB746
:1053300060939E0E70939F0E8093A00E9093A10E8B
:10534000809176078093A20E9091D60E8091A30E45
:1053500093FB81F99091E10790FB82F98093A30E72
:1053600080E00E941BF540E050E0BA018DE397E138
:105370000E94B49140EB50E065EF7DE08DE397E152
:105380000E9448928DE397E1CF91FF90EF90DF90DC
:10539000CF900C94759581E049CF4F925F926F92B8
:1053A0007F928F929F92AF92BF92CF92DF92EF92B5
:1053B000FF920F931F93CF93DF9300D01F92CDB72F
:1053C000DEB719821A821B821C8297EDA92E93E008
:1053D000B92ECE0101964C0127EDC22E2EE0D22E21
:1053E00038E5E32E32E0F32E10E000E0F501819184
:1053F0005F010E944922F40181934F01882309F43F
:10540000C1C00E94B1242B013C01802F0E946F215A
:10541000882309F4A7C0F70120813181428153819B
:10542000C301B2010F944B41F60160837183828303
:1054300093830F5F1F4FF4E0CF0ED11C84E0E80E82
:10544000F11C0330110591F685E40E9449228C83FA
:10545000882309F4A2C00E94B1246B017C0183E07F
:105460000E946F21882371F02091640230916502BF
:105470004091660250916702C701B6010F944B41FB
:105480006B017C01C092E30ED092E40EE092E50E37
:10549000F092E60E8091A90E882391F18091381741
:1054A00082FF2EC087FD2CC08C81882349F1898121
:1054B000811103C08A81882319F12DEC3CEC4CE466
:1054C0005DE36091FE0D7091FF0D8091000E909153
:1054D000010E0F944B419B01AC01609160027091F1
:1054E000610280916202909163020F94AB4318169F
:1054F0003CF440E060E070E080E090E40E94092924
:1055000040E050E0BA0186E40E94DF2420E030E071
:10551000A9010F94AB43181684F40E94B12420E033
:1055200030E040E752E40F94454260935402709398
:10553000550280935602909357020F900F900F9050
:105540000F90DF91CF911F910F91FF90EF90DF901F
:10555000CF90BF90AF909F908F907F906F905F9013
:105560004F900895F801EE0FFF1FEE0FFF1FE75653
:10557000F04F2081318142815381C301B2010F94E8
:105580004A4152CFF70180819181A281B381F60116
:1055900080839183A283B3834CCF809164029091E6
:1055A0006502A0916602B09167028093E30E90932A
:1055B000E40EA093E50EB093E60E6CCFE5EFFDE0B0
:1055C00080EBDF011D928A95E9F708958091A90E7D
:1055D000811104C00E94DE2A0C9456F58091381780
:1055E00082FF09C087FD07C040E060E070E080E016
:1055F00090E40C94092908958091F50D882361F0B9
:105600009091A40E891308C08091381784FF04C0BC
:1056100081E39EE00C94B2F480E00895FC012381C4
:1056200021110C9475950895CF93DF93C0910F15B8
:10563000D0911015209729F160910B1570910C15E0
:1056400080910D1590910E150F94B7426E5F7F4FAC
:1056500024976C177D07ACF470931D0860931C08A9
:105660000E943AF4605A75418F4F9F4F60931E0815
:1056700070931F088093200890932108DF91CF91A9
:10568000089510921E0810921F0810922008109280
:105690002108F4CFCF92DF92EF92FF921F93CF9326
:1056A000DF93182F662351F010926507109261075F
:1056B0001092620710926307109264070E943AF4F6
:1056C0006B017C018091610790916207A091630753
:1056D000B0916407A7019601281B390B4A0B5B0B9D
:1056E000DA01C901B7FD3DC02091650717FD13C060
:1056F000412F012E000C550B4C5F5F4F822F022E65
:10570000000C990B4817590764F184EF91E0A0E071
:10571000B0E0211724F488EE93E0A0E0B0E08C0D17
:105720009D1DAE1DBF1D8093610790936207A093DE
:105730006307B09364072170C22F30E0D32F84E257
:105740008C9FB0018D9F700D7C1B112460597C4F84
:1057500082E390E00E94B9DB809165078F5F8093C0
:105760006507DF91CF911F91FF90EF90DF90CF9071
:105770000895CF93DF93C091E314D091E414209760
:1057800029F16091DF147091E0148091E1149091FF
:10579000E2140F94B7426E5F7F4F24976C177D071A
:1057A000ACF470931308609312080E943AF4605EA0
:1057B00070448D4F9F4F6093140870931508809329
:1057C000160890931708DF91CF910895109214084E
:1057D000109215081092160810921708F4CFCF9364
:1057E000DF939091D60E93FD3CC0C82F83E50E94B5
:1057F0004922D82F882371F10E949E248C3891056C
:105800009CF59093E4148093E3140E94B92B60916B
:10581000E3147091E414072E000C880B990B0F947D
:105820006E3A2091DF143091E0144091E1145091D0
:10583000E2140F94AB4360E01816CCF48AE79AE1C7
:105840000E94E0BBCC2369F060E08D2FDF91CF9107
:105850000C946A99CC2329F082E50E944922811197
:10586000CBCFDF91CF9108958CE890E0CACF8BE643
:105870009AE1E6CFCF93C1E020E030E0A90160914A
:10588000EA077091EB078091EC079091ED070F9478
:10589000673A811101C0C0E08C2FCF9108954F92DB
:1058A0005F926F927F928F929F92AF92BF92CF92B0
:1058B000DF92EF92FF920F931F93CF93DF93EC0150
:1058C0002091E2073091E3074091E4075091E5070A
:1058D000688179818A819B810F944A416B017C01A7
:1058E0002091E6073091E7074091E8075091E907DA
:1058F0006C817D818E819F810F944A414B015C01B7
:10590000A70196016091590770915A0780915B0732
:1059100090915C070F94673A882309F450C0C092B5
:105920005907D0925A07E0925B07F0925C072091EA
:105930005107309152074091530750915407C701C6
:10594000B6010F94CD3A2B013C010F94ED426B014F
:105950007C0120E030E0A9010F94673A87FD70C018
:1059600020E030E040E450E4C701B6010F94AB43BF
:1059700018162CF4C12CD12CC0E4EC2EFE2CA7015F
:105980009601C301B2010F944A4160934907709395
:105990004A0780934B0790934C07C701B6010F94B9
:1059A000B74260934707062E000C770B6F5F7F4F5F
:1059B0006430710514F064E070E060934507D091A5
:1059C000430710914707A501940160915D0770910D
:1059D0005E0780915F07909160070F94673A81118D
:1059E00033C0D11381C020912B0730912C074091F7
:1059F0002D0750912E076091490770914A078091B9
:105A00004B0790914C070F94CD3A20912F0730917E
:105A1000300740913107509132070F944B41DF918D
:105A2000CF911F910F91FF90EF90DF90CF90BF909B
:105A3000AF909F908F907F906F905F904F90089560
:105A4000C12CD12C76019BCF80925D0790925E078E
:105A5000A0925F07B09260072091550730915607DA
:105A60004091570750915807C501B4010F94CD3AA2
:105A70004B015C010F94ED426B017C0120E030E0B2
:105A8000A9010F94673A87FDF3C020E030E040E4BD
:105A900050E4C701B6010F94AB4318162CF4C12C87
:105AA000D12CB0E4EB2EFE2CA7019601C501B40168
:105AB0000F944A4160934D0770934E0780934F07B0
:105AC00090935007C701B6010F94B74260934807FF
:105AD000062E000C770B6F5F7F4F6430710514F05A
