:100000000C94E21D0C94221E0C94221E0C94221EB1
:100010000C94221E0C94221E0C94221E0C94221E60
:100020000C94221E0C94221E0C94221E0C94221E50
:100030000C94221E0C94221E0C94221E0C94221E40
:100040000C94221E0C947EE20C94221E0C94221E10
:100050000C94221E0C9487D70C94221E0C94DCC5A1
:100060000C94221E0C94863B0C947C3B0C94221E18
:100070000C94221E0C94221E0C94221E0C94221E00
:100080000C94221E0C94221E0C94221E0C94221EF0
:100090000C94221E0C94221E0C94221E0C94221EE0
:1000A0000C94221E0C94221E0C94221E0C94221ED0
:1000B0000C94221E0C94221E0C94221E0C94221EC0
:1000C0000C94221E0C94221E0C94221E0C94F22FCF
:1000D0000C94BC2F0C94221E0C94221E0C94221EF5
:1000E0000C94221E084AD73B3BCE016E84BCBFFD58
:1000F000C12F3D6C74319ABD56833DDA3D00C77FF8
:1001000011BED9E4BB4C3E916BAAAABE0000008090
:100110003F05A84CCDB2D44EB93836A9020C50B91F
:10012000918688083CA6AAAA2ABE000000803F004B
:100130000C94112F0C9492300D94C0210C942A7CB5
:100140000C94A7760C9492BF0D9431220C94ABB30F
:100150000C94872E0C9420B00C9492760C94223C34
:100160000C9431C40C9485AF0C94CFB30C94F63B33
:100170000C948A300C9410BF0C949D760C948DAE28
:100180000C9442B00D941A2C0D94BD210C94DEB346
:100190000D94A5210C9483300C9432B00D94BA21A7
:1001A0000C9433300C94277C0C94132F0D9426114F
:1001B0000C94413C0C9417B00C940EB00D94752720
:1001C0000D9474120C9493BF0D94E0110C94323C76
:1001D0000D94AE210C9458B00D946F210C94EEC484
:1001E0000C94493C0C94C8300C9458AD0C94ED2EF2
:1001F0000D942A120C94B5300C94C72E0C94173C15
:100200000C941E3C0C9440B00C94C8760C94367C34
:100210000C94AFC40C94A3300C942A3C0C949676A6
:100220000D9405120C9419AD0D94B7210C94EBADFF
:100230000C9439C30C943F7C0C9462AF0C945C3CDE
:100240000C949FB30C9405B40C94B7AE0C943C7C06
:100250000C9496300C94337C0C948E760D94A821DB
:100260000C9416C40C94C3760C94227C0C945EB04F
:100270000C94B5760C949A300C94EF2E0C942D7C43
:100280000C94A72E0C940F2F0D94B4210C94A52E32
:100290000C94C73B0C949A760C94A8300C94FAAF4B
:1002A0000D94382C0C943C3C0C945BB00C9425AF12
:1002B0000C94C9760C9471300C9409AE0D94E41032
:1002C0000C94BB760C943CB00C94CD760D94B32773
:1002D0000D94A2210D94E5270D9470110C94B17624
:1002E0000C949E300C94B9C50C9429B00C94B8AF02
:1002F0000C94EAB30C94307C0C94AD760D944B11B5
:100300000C948E300C94F6B30C94053C0C947B2E1C
:100310000C9461B00C94EB2E0C94427C0D949E27AF
:100320000C94D2C30C94B1C30C944DB00C946230B5
:100330000D944F120D94BB110C94373C0C94543C0B
:100340000D94B1210C94C92E0C94457C0C94A37689
:100350000C94AD300D94AB210D9400220C94C03060
:100360000C94263C0C94397C0C94BF760C94C1C43C
:100370000C94CB2E0C942E3C0C941CC30C948876BD
:100380000D942D220C9405B00C944EAF0C9499AFA3
:100390004E414E494E495459494E46CDCCCC3D0A6A
:1003A000D7233C17B7D13877CC2B329595E6241F4D
:1003B000B14F0A000020410000C84200401C462006
:1003C000BCBE4CCA1B0E5AAEC59D7400407A10F3D9
:1003D0005A00A0724E18090010A5D4E80000E87673
:1003E00048170000E40B54020000CA9A3B000000CA
:1003F000E1F505000080969800000040420F0000E3
:1004000000A08601000000102700000000E80300A3
:100410000000006400000000000A0000000000016D
:1004200000000000002C76D888DC674F0823DFC16D
:10043000DFAE59E1B1B796E5E3E453C63AE6519928
:100440007696E8E6C28426EB898C9B62ED407C6F51
:10045000FCEFBC9C9F40F2BAA56FA5F490055A2A08
:10046000F75C936B6CF9676DC11BFCE0E40D47FE14
:10047000F520E6B500D0ED902E0300943577050009
:1004800080841E080000204E0A000000C80C333390
:1004900033330F986E12831141EF8D2114893BE69F
:1004A0005516CFFEE6DB18D1844B381BF77C1D9028
:1004B0001DA4BBE424203284725E228100C9F12491
:1004C000ECA1E53D2744455441494C00434F4D4D77
:1004D000554E49434154494F4E0044525952554E8E
:1004E000004552524F525300494E464F0045434833
:1004F0004F004572726F722077726974696E67205F
:10050000746F20454550524F4D210A0053544F50AF
:100510005045442E20005072696E746572207374C9
:100520006F707065642064756520746F20657272E9
:100530006F72732E20466978207468652065727228
:100540006F7220616E6420757365204D39393920D2
:10055000746F20726573746172742E202854656DF7
:100560007065726174757265206973207265736558
:10057000742E20536574206974206166746572203E
:1005800072657374617274696E67290A004E6F2018
:10059000436865636B73756D2077697468206C6957
:1005A0006E65206E756D6265722C204C61737420CF
:1005B0004C696E653A20004E6F20436865636B732B
:1005C000756D2077697468206C696E65206E756D35
:1005D0006265722C204C617374204C696E653A2000
:1005E00000636865636B73756D206D69736D61740D
:1005F00063682C204C617374204C696E653A20004E
:100600004C696E65204E756D626572206973206E4F
:100610006F74204C617374204C696E65204E756D4B
:100620006265722B312C204C617374204C696E65AD
:100630003A20004D3131300053657269616C20738E
:100640007461747573206D69736D617463680A00F9
:1006500053442072656164206572726F720A00747F
:100660006F6F206D75636820696E6163746976656C
:100670002074696D65202D2063757272656E74201B
:10068000636F6D6D616E643A20002121204B494CEF
:100690004C206361757365642062792000486F7433
:1006A000656E642049646C652054696D656F75746E
:1006B00000486F74656E642049646C652054696DF0
:1006C000656F75740A00627573793A20706175738D
:1006D000656420666F7220696E7075740A006275B9
:1006E00073793A2070617573656420666F72207546
:1006F0007365720A00627573793A2070726F636570
:100700007373696E670A004D3130303053003D3DE0
:100710006F6E46696C616D656E7452756E6F75743F
:100720003D3D007061757365004D363030002066C8
:10073000696C616D656E745F72756E6F75742000A3
:1007400066696C616D656E745F72756E6F7574202D
:10075000540046696C616D656E7452756E6F757488
:1007600020540025533A202553002A2A2A6B696C0D
:100770006C2A2A2A00706F7765726F6666004B4993
:100780004C4C45442E20005072696E74657220688E
:10079000616C7465642E206B696C6C282920636120
:1007A0006C6C6564210A006563686F3A004572727B
:1007B0006F723A00202864697361626C6564290A6B
:1007C0000020280041424C2041646A7573746D65B5
:1007D0006E74205A005A20466164653A2000202831
:1007E000656E61626C6564290A0041626F7665001E
:1007F00053616D65205A2061730042656C6F77000C
:100800004175746F20426564204C6576656C696E35
:10081000673A2042494C494E45415200204E6F7A7A
:100820007A6C65290A00202620002D43656E7465C8
:1008300072002D46726F6E74002D4261636B002052
:1008400028416C69676E65642057697468002028C8
:100850004D6964646C650020284C6566740020282E
:1008600052696768740050726F6265204F666673E4
:10087000657420580050726F62653A204649585F8F
:100880004D4F554E5445445F50524F42450A004D1E
:10089000616368696E6520547970653A20436172BE
:1008A00074657369616E0A0042696C696E65617294
:1008B000204C6576656C696E6720477269643A0AF8
:1008C000003E3E3E003C3C3C007365745F626564E4
:1008D0005F6C6576656C696E675F656E61626C659D
:1008E000640072657365745F6265645F6C657665EC
:1008F0006C0A00203A204C6576656C696E67204F63
:100900004E0A00202063757272656E745F706F739B
:100910006974696F6E3D00203A204C6576656C699C
:100920006E67204F46460A00202063757272656E1E
:10093000745F706F736974696F6E3D002F2F616310
:1009400074696F6E3A006E6F746966696361746989
:100950006F6E2000656E640073686F770062757457
:10096000746F6E00486F74656E6420746F6F2063DF
:100970006F6C640A0053656E64204D31303820740A
:100980006F20726573756D650A00496E73657274C8
:100990002066696C616D656E7420616E642073659C
:1009A0006E64204D3130380A0052656865617420EC
:1009B000446F6E6500526568656174696E672E2EBE
:1009C0002E00526568656174004865617465722027
:1009D00054696D656F75740053656E64204D3130D8
:1009E0003820746F2068656174206E6F7A7A6C6548
:1009F0000A004E6F7A7A6C65205061726B656400F4
:100A00007061757365640050617573650057616945
:100A100074696E6720666F72206865617475702EE8
:100A20000A004C656176696E6720473236003F5395
:100A3000706563696669656420582C5920636F6F1F
:100A40007264696E617465206F7574206F662062D0
:100A50006F756E64732E0A003F28522965706561B8
:100A6000742076616C7565206E6F7420706C617592
:100A70007369626C653B206D7573742062652061DB
:100A800074206C6561737420312E0A003F2852294E
:100A90006570656174206D75737420626520737074
:100AA00065636966696564207768656E206E6F743A
:100AB000207573696E6720616E204C43442E0A00D6
:100AC0003F537065636966696564206E6F7A7A6CFE
:100AD000652074656D7065726174757265206E6FE6
:100AE0007420706C61757369626C652E0A003F53E7
:100AF00070656369666965642066696C616D656EC1
:100B0000742073697A65206E6F7420706C617573E0
:100B100069626C652E0A003F53706563696669659A
:100B200064207072696D65206C656E677468206EF4
:100B30006F7420706C61757369626C652E0A003F7A
:100B40005072696D65206C656E677468206D757391
:100B500074206265207370656369666965642077D7
:100B600068656E206E6F74207573696E6720616EA4
:100B7000204C43442E0A003F5370656369666965E3
:100B800064206E6F7A7A6C652073697A65206E6F67
:100B90007420706C61757369626C652E0A003F5237
:100BA000657472616374696F6E204D756C746970E1
:100BB0006C696572206D7573742062652073706551
:100BC0006369666965642E0A003F537065636966F0
:100BD0006965642052657472616374696F6E204D3B
:100BE000756C7469706C696572206E6F7420706CBE
:100BF00061757369626C652E0A003F5370656369A5
:100C000066696564206C61796572206865696768EA
:100C100074206E6F7420706C61757369626C652EE0
:100C20000A0043292E0A003F5370656369666965AF
:100C300064206265642074656D706572617475729C
:100C400065206E6F7420706C61757369626C6520CD
:100C50002834302D00473236207374617274696E07
:100C6000672E2E2E0A004F46460A00466164652014
:100C70004865696768742000426564204C65766544
:100C80006C696E6720004661696C656420746F2032
:100C9000656E61626C6520426564204C6576656CAA
:100CA000696E670A00496E76616C6964206D6573D0
:100CB000682E0A00203A203E2070726F62696E67CB
:100CC00020636F6D706C6574650A00202063757217
:100CD00072656E745F706F736974696F6E3D0050FA
:100CE000726F62696E6720506F696E7400255320C1
:100CF00025692F2569002E0A002F0050726F626946
:100D00006E67206D65736820706F696E74200020B7
:100D10002844525952554E290047323920417574A2
:100D20006F20426564204C6576656C696E67003F94
:100D300020284C2C522C462C4229206F7574206F91
:100D40006620626F756E64732E0A00204200204692
:100D500000205200473239204C003F285629657246
:100D6000626F7365206C6576656C20696D706C616F
:100D7000757369626C652028302D34292E0A004273
:100D80006164205A2076616C75650A004E6F20629E
:100D9000696C696E65617220677269640A00473226
:100DA000384C30003E204175746F2D6C6576656C53
:100DB000206E6F74206E65656465642C20736B69AA
:100DC000700A00473239005A2050726F6265205015
:100DD000617374204265640A005A2050726F626524
:100DE00020506173742042656400203A20686F6D62
:100DF000655F7A5F736166656C790A0020206465BF
:100E00007374696E6174696F6E3D00686F6D655FC4
:100E10007A5F736166656C79005261697365205A07
:100E200020286265666F726520686F6D696E67293C
:100E300020627920003E20686F6D696E67206E6FBA
:100E400074206E65656465642C20736B69700A009C
:100E50004732380020440020204D323030205300EB
:100E6000202844697361626C6564293A0046696CA4
:100E7000616D656E742073657474696E67730020AC
:100E8000204D3230312058004D6178204163636538
:100E90006C65726174696F6E2028756E6974732F4A
:100EA0007332290020204D3230332058004D6178B4
:100EB000206665656472617465732028756E697457
:100EC000732F73290020520020204D3230342050DF
:100ED00000416363656C65726174696F6E2028758B
:100EE0006E6974732F7332292028503C7072696EBA
:100EF000742D616363656C3E20523C72657472614F
:100F000063742D616363656C3E20543C747261763A
:100F1000656C2D616363656C3E2900205800205488
:100F20000020530020204D323035204200416476AD
:100F3000616E6365642028423C6D696E5F7365670E
:100F40006D656E745F74696D655F75733E20533CAB
:100F50006D696E5F66656564726174653E20543CC0
:100F60006D696E5F74726176656C5F6665656472EB
:100F70006174653E20583C6D61785F6A65726B3EB6
:100F800020593C6D61785F6A65726B3E205A3C6DFA
:100F900061785F6A65726B3E20453C6D61785F6A7F
:100FA00065726B3E290020440020490020204D330B
:100FB0003031205000486F74656E64205049440001
:100FC00020440020490020204D333034205000427E
:100FD00065642050494400203B0020550020204DEE
:100FE000363033204C0046696C616D656E74206C40
:100FF0006F61642F756E6C6F6164004D32345325E0
:101000006C6454256C64004739322E3945257300D1
:1010100047314625640047315A2573463630300043
:1010200047315825735925734633303030004D31E0
:101030003036502569532569004D313039532569C3
:10104000004D323030442573004739322E395A254D
:1010500073004D3432305325635A257300473238BC
:10106000523058590047315A2573463630300047C0
:1010700039322E395A2573004739322E394530001E
:101080004D313039532569004D31393053256900D0
:101090004D343230205330205A30003D3D4F6E5099
:1010A0006F7765724C6F7373526573756D653D3DF7
:1010B00000203B200020204D343133205300506F5E
:1010C0007765722D6C6F7373207265636F766572CE
:1010D00079004F4646004F4E00203B20486F737406
:1010E0002068616E646C696E672000203B204D6F44
:1010F000646520006D6D00203B2044697374616E4F
:101100006365200046696C616D656E742072756E52
:101110006F757420003B200020496E76616C696415
:10112000206578747275646572200047322F4733EA
:101130002062616420706172616D65746572730A0A
:1011400000536C6565702E2E2E00205A3A20002028
:10115000593A200042656420583A20004D65736872
:1011600020706F696E74206F7574206F66207261D5
:101170006E67650A00626567696E004D30205374C2
:101180006F70004D312053746F7000436C69636B56
:1011900020746F20526573756D652E2E2E004E6F74
:1011A000204D6F76652E00456E642066696C652063
:1011B0006C6973740A00426567696E2066696C65C4
:1011C000206C6973740A004E6F206D656469610A52
:1011D00000526573756D696E6720534400286E6F09
:1011E0002066696C65290043757272656E742066AD
:1011F000696C653A20004E6F742053442070726908
:101200006E74696E670A005344207072696E746967
:101210006E67206279746520005072696E74207464
:10122000696D653A20003F43616E6E6F742077727E
:1012300069746520746F20494E5055540A00496EF8
:1012400076616C69642050696E204D6F64650A0098
:101250006F6B006F666600ED04E804E104DA04CC0D
:1012600004C50444454255473A004D3131332053BB
:1012700000544D3344203130532050726F204F467C
:10128000462E004649524D574152455F4E414D450D
:101290003A4D61726C696E204457372E342E3720D8
:1012A000544D33442053534D4442422028417567E6
:1012B00020323220323032352031313A33323A3531
:1012C000362920534F555243455F434F44455F55A0
:1012D000524C3A68747470733A2F2F67697468754A
:1012E000622E636F6D2F496E73616E6974794175FB
:1012F000746F6D6174696F6E2F4D61726C696E2FC2
:10130000747265652F437265616C6974794477699D
:101310006E5F322E302050524F544F434F4C5F5629
:10132000455253494F4E3A312E30204D41434849A2
:101330004E455F545950453A544D33442031305353
:101340002050726F2045585452554445525F434FC8
:10135000554E543A3120555549443A6365646532D7
:101360006132662D343161322D343734382D396293
:1013700031322D6335356336326633363766660073
:101380002F2F005741524E494E4721204C6F772056
:101390005A204A65726B206D6179206C656164200A
:1013A000746F20756E77616E7465642070617573FB
:1013B00065732E0A0020204D61783A20002000201D
:1013C000204D696E3A2000203B200020204D323114
:1013D00031205300536F667420656E6473746F70B0
:1013E0007300250A0046523A0020466C6F773A2077
:1013F0000050726F7465637465642050696E0A00F2
:10140000363726033C3D380E2E303E121A1C180A81
:1014100043090844000150726F6265204F6666738D
:101420006574205A0050726F6265204F666673655E
:1014300074205A0064697300656E0043290A0061D4
:10144000626C656420286D696E2074656D70200083
:10145000436F6C6420657874727564657320617283
:10146000652000504944204175746F74756E6500A5
:10147000206661696C656421204261642068656151
:101480007465722069640A00504944204175746F84
:1014900074756E65004D34323120696E636F7272FF
:1014A00065637420706172616D6574657220757317
:1014B0006167650A004D65736820706F696E7420FE
:1014C0006F7574206F662072616E67650A00203B3D
:1014D000204C6576656C696E67200020204D3432A3
:1014E000302053004175746F20426564204C65764E
:1014F000656C696E670020204D393030204B004C00
:10150000696E65617220416476616E63650020508A
:101510000020440020204D35393120530046696CAD
:10152000616D656E742072756E6F75742073656E73
:10153000736F7200204A002020473239205720491B
:101540000020204D3134392043203B20556E6974F2
:101550007320696E2043656C736975730A00546566
:101560006D706572617475726520556E6974730073
:101570002020473231203B004C696E656172205556
:101580006E69747300454550524F4D204F4B0A0011
:10159000290A0020746F20003F5A206F7574206F55
:1015A000662072616E6765202800290A0020746F2A
:1015B00020003F59206F7574206F662072616E673E
:1015C0006520282D00290A0020746F20003F582034
:1015D0006F7574206F662072616E676520282D001C
:1015E0002E0A002028302D313029002076616C75BC
:1015F00065206F7574206F662072616E67650041AB
:101600006476616E6365204B3D004D383400446F55
:101610006E65207072696E74696E672066696C65AC
:101620000A004D3737004D333100290A002E2E2E87
:101630002800540020204D323036205800486F6D6D
:1016400065206F6666736574004F666673657473B4
:10165000204170706C696564004572723A20546F65
:101660006F206661722100546F6F20666172206680
:10167000726F6D207265666572656E636520706F4E
:10168000696E740A0020286D6D2900203B0020201F
:101690004D3835312058005A2D50726F6265204FF9
:1016A0006666736574002569730025696D20256978
:1016B00073002569682025696D20256973002569F7
:1016C00064202569682025696D20256973002569D6
:1016D0007920256964202569682025696D202569A0
:1016E00073000A53746174733A2046696C616D65C6
:1016F0006E7420757365643A20002C204C6F6E6701
:10170000657374206A6F623A2000546F74616C20B4
:1017100074696D653A200053746174733A20002C2B
:10172000204661696C65643A20002C2046696E6928
:10173000736865643A20005072696E74733A2000D1
:1017400053746174733A2000436F6F6C696E672E37
:101750002E2E0045312025530042656420436F6FD3
:101760006C696E672E2E2E00426564204865617498
:10177000696E672E2E2E003D3D4477696E20496EBE
:10178000697420436F6D706C6574653D3D00700138
:101790002C0190012701B0012201C0011D01F001BF
:1017A00018011002130130020E01600209019002BB
:1017B0000401C002FF000003FA004003F5008003AB
:1017C000F000D003EB002004E6007004E100E00428
:1017D000DC004005D700C005D2004006CD00D00691
:1017E000C8008007C3003008BE00F008B900C00977
:1017F000B400B00AAF00B00BAA00D00CA500000ED8
:10180000A000500F9B00C0109600501291000014D1
:101810008C00C0158700B0178200B0197D00D01B66
:101820007800001E730040206E0090226900F024B2
:10183000640040275F0090295A00E02B5500102ECD
:10184000500020304B0010324600E033410090350C
:101850003C001037370070383200A0392D00B03A04
:101860002800A03B2300603C1E00103D1900903D65
:101870001400103E0F00703E0A00C03E0500003FFD
:101880000000403FFBFF803FF6FFC03FF1FF00003C
:101890002100240027002A002D0030003300010120
:1018A0000000040107010A010000220025002800B1
:1018B0002B002E0031003400020100000501080158
:1018C0000B01000020002300260029002C002F001F
:1018D00032000001000003010601090105050505AC
:1018E000070508080808020202020A0A0808040498
:1018F00004040101010101010101030303030303C6
:101900000303040707070C0C0C0C0C0C0C0C020254
:10191000020206060606060606060B0B0B0B0B0B51
:101920000B0B0102102020080810204010204080DE
:101930000201020108040201010204081020408093
:101940008040201008040201800402018040201021
:10195000080402010804020101020408102040806A
:10196000010204081020408000000A0B02090C0D3F
:101970000E08070304010000000000000000000042
:101980000000000000000000000000000000000057
:101990000000000012111000000000000000000014
:1019A00000000000000000000000000000007026A1
:1019B00000009B1E0000C3150000C70D0000F407C7
:1019C00000004F04000040020000260100002074C7
:1019D0006F6F206C6F6E6720657874727573696FB6
:1019E0006E2070726576656E7465640A0020636FA0
:1019F0006C6420657874727573696F6E207072659F
:101A000076656E7465640A004D323520500A4D3299
:101A10003400526573756D650055492050617573CA
:101A2000650043616E6E6F7420656E74657220731D
:101A300075626469723A20004E6F204D617463686C
:101A4000203A00436F6E73747261696E206D657326
:101A50006856616C20006D65736856616C20007972
:101A6000506E74200078506E7420006D657368505D
:101A70006F696E742000446973706C617942726999
:101A80006768746E657373205365743A2000446907
:101A900073706C61794272696768746E65737320E4
:101AA0004C43443A20004D32320A4D3231005265E7
:101AB00066726573680050675570005067446F77B1
:101AC0006E0049732046696C6520004973204469A3
:101AD000722000476F557044697200486173204D51
:101AE000656469610046696C656E616D652053656A
:101AF0006C6563746564004D3130303043004D31A6
:101B0000303030002046696C616D656E742052651E
:101B100073706F6E7365204E6F00526573756D65DF
:101B20002059657320647572696E67207072696EE2
:101B300074000A204E6F2046696C616D656E7400FA
:101B4000496E76616C6964204F7074696F6E004DE8
:101B50003530300053746F72652053657474696E4C
:101B60006773004D3939390A4D32383050305331AE
:101B7000363000424C546F7563682052657365744B
:101B8000004D3530320A4D35303000496E697420D1
:101B9000454550524F4D004D3530300053746F72F3
:101BA000652053657474696E677300496E4C616E8D
:101BB0006743686F696365000A202A2A2A72656391
:101BC0006461742E646174615B305D203D00473256
:101BD000380A4731204631303030205A31300055F4
:101BE0006E737570706F72746564204F7074696F76
:101BF0006E2053656C6563746564004D36303553F3
:101C0000300A47323858004D36303553310A543097
:101C10000A4732380A4D36303553320A473238587F
:101C20000A473158300A4D3630355333004D36307F
:101C30003553310A54300A4732380A4D363035535D
:101C4000320A473238580A47315830004D3630355D
:101C500053310A473238580A47315830004D323133
:101C60003153300A4739310A47315A302E30323534
:101C70000A4739300A4D3231315331004D3231315A
:101C800053300A4739310A47315A2D302E30323518
:101C90000A4739300A4D3231315331004732395316
:101CA000320047323953310047323652323535002F
:101CB0004D3139305335350A4732380A4732390AFF
:101CC0004D3430300A4D313034533231350A4732D9
:101CD000380A4D313039533231350A4D34323053B0
:101CE000310A473158313030593130304635303093
:101CF000300A47315A300A4D3530300A4D313137CC
:101D000020536574205A204F66667365740047310E
:101D1000204631303030205A302E30004732380AD9
:101D20004731204631303030205A302E30005A2092
:101D30004F6666736574203A202573005A204F66FB
:101D400066736574203A202573004732385A0A4773
:101D50003146313530305A302E30004732380A475C
:101D60003146313530305A302E3000426564204CD7
:101D70006576656C204F7074696F6E2000526574D3
:101D800075726E203A20004D3834004731463130AC
:101D900030305A302E30004732380A473146313021
:101DA00030305A302E30004D616E75616C53657461
:101DB00054656D70005A204F6666736574203A2032
:101DC000257300526F756E64696E6720746F20739F
:101DD00074657000526571756573746564204F6633
:101DE00066736574200053746F702054726967675E
:101DF000657265640053746F70204E6F0053746F8A
:101E0000705072696E740048616E646C6520446144
:101E100074612041646A7573742032205365747450
:101E2000696E672053637265656E200048616E6459
:101E30006C652044617461205072696E7446696CEF
:101E40006520332053657474696E6720536372652F
:101E5000656E200048616E646C6520446174612089
:101E60005072696E7446696C6520322053657474D3
:101E7000696E672053637265656E20004D383400CB
:101E800048616E646C652044617461205072696EB3
:101E90007446696C6520506F73740048616E646CA1
:101EA000652044617461205072696E7446696C6586
:101EB0002050726500426567696E53776974636884
:101EC000003D3D20436865636B6B65793D3D007265
:101ED00065636461742E61646472203D3D007265C7
:101EE000636461742E646174615B305D203D3D000C
:101EF00070726F6D70745F00626567696E0044692F
:101F00007361626C6552756E6F757400507572679F
:101F1000654D6F72650050617573656400436F6E47
:101F200074696E7565004C6F61642046696C616D03
:101F3000656E742054004C6F61642046696C616D5D
:101F4000656E7400496E736572742066696C616DAC
:101F5000656E7420616E642073656E64204D31304F
:101F6000380A00726573756D6564004469736D6944
:101F7000737300526573756D696E670020446973F1
:101F800063726570616E63793A00326E64205072DC
:101F90006F6265205A3A00534C4F570031737420DA
:101FA00050726F6265205A3A004641535400507295
:101FB0006F62653A3A72756E5F7A5F70726F6265D2
:101FC000006D656173757265645F7A3A20005072C6
:101FD0006F62696E67204661696C65640A005072C1
:101FE0006F62696E67204661696C656400205A3AC9
:101FF000200020593A200042656420583A200050C1
:102000006F736974696F6E204E6F742052656163DF
:102010006861626C650A00203A200A00202063751E
:102020007272656E745F706F736974696F6E3D0074
:102030005F72656C6174697665290A002C20002C3A
:1020400020002C20002C20002E2E2E280050726FF5
:1020500062653A3A70726F62655F61745F706F6952
:102060006E740050726F62653A3A70726F62655FAB
:10207000646F776E5F746F5F7A0020547269676770
:1020800065726564206561726C792E00204E6F2048
:10209000747269676765722E002050726F626520E6
:1020A0006661696C21202D0043616E6E6F74206F34
:1020B00070656E207375626469722000204500208F
:1020C0005A0020590020204D3932205800537465A1
:1020D00070732070657220756E697400496E766148
:1020E0006C69642065787472756465720A00220AEE
:1020F00000556E6B6E6F776E20636F6D6D616E64F1
:102100003A20220020453A00205A3A0020593A004D
:10211000583A006F6B0A00526573656E643A20008E
:102120006E6F74696669636174696F6E2000544DE7
:102130003344203130532050726F205265616479EE
:102140002E005072696E74696E672E2E2E005072CA
:10215000696E742050617573656400524553554D26
:1021600045204F5054494F4E533A004865617469B9
:102170006E672E2E2E000000436C69636B20746F17
:102180002068656174000000526573756D696E6743
:102190002E2E2E00000050757267696E672E2E2E4F
:1021A0000000004C6F6164696E672E2E2E000000E7
:1021B000496E7365727420616E6420436C69636B51
:1021C000000000436C69636B20746F20636F6E7452
:1021D000696E7565000000456A656374696E672EF7
:1021E0002E2E000000506C65617365207761697464
:1021F0002E2E2E0000005061726B696E672E2E2EFF
:1022000000000050617573654D73673D000A2069D9
:102210006E6974207A70726F62655F7A6F6666733A
:102220006574203D20003D3D6F6E436F6E666967AB
:1022300075726174696F6E53746F72655265616413
:102240003D3D00454550524F4D20496E69746961CE
:102250006C697A65640A0048617264636F646564DE
:102260002044656661756C742053657474696E678B
:1022700073204C6F6164656400454550524F4D209A
:102280006461746173697A65206572726F722E0A77
:102290000053657474696E6720566F6C756D6520A8
:1022A0004F6E203A200053657474696E6720537432
:1022B000616E646279204F6E203A20005365747419
:1022C000696E6720566F6C756D65203A2000536506
:1022D0007474696E6720526F746174696F6E203A0E
:1022E000200053657474696E67205374616E646274
:1022F000792054696D65203A200053657474696EC5
:1023000067205374616E646279203A2000536574CB
:1023100074696E67204272696768746E65737320B2
:102320003A20004C6F6164696E67204457494E2023
:102330004C43442073657474696E672066726F6DD8
:1023400020454550524F4D0A0044697363617264E1
:10235000696E67204457494E204C4344207365748E
:1023600074696E672066726F6D20454550524F4DFF
:10237000202D2073657474696E677320766572739F
:10238000696F6E20696E636F72726563740A0044D0
:10239000697363617264696E67204457494E204CCB
:1023A00043442073657474696E672066726F6D2094
:1023B000454550524F4D202D2073697A6520696E36
:1023C000636F72726563740A00290A00206279746F
:1023D00065733B2063726320002073746F726564C1
:1023E0002073657474696E677320726574726965B1
:1023F000766564202800202863616C63756C6174C5
:10240000656429210A0020213D2000454550524F96
:102410004D20435243206D69736D61746368202DB4
:10242000202873746F7265642920002053697A65CF
:102430003A2000496E6465783A20000000FA4300B3
:1024400000FA430000204100008C420000A042003E
:1024500000A0420000C84300000243EE020000EE6C
:10246000020000640000003C000000454550524F4F
:102470004D2056657273696F6E204572726F7200DF
:10248000204D61726C696E3D563837290A0045450A
:1024900050524F4D2076657273696F6E206D69736F
:1024A0006D617463682028454550524F4D3D0024AE
:1024B000F404D9201BC40C5C0E9804C4095F0265A7
:1024C000077101F405F900FB04B30048048700C15B
:1024D0000369005803550003034500BE023A008417
:1024E00002310053022A002902250004022000E4E0
:1024F000011C00C8011900AF0117009801140084E5
:10250000011300710110006101100051010E004320
:10251000010D0036010B002B010B0020010B0015F3
:102520000109000C01090003010800FB000800F389
:10253000000800EB000700E4000600DE000600D8FB
:10254000000600D2000600CC000500C7000500C24E
:10255000000500BD000400B9000400B5000400B18E
:10256000000400AD000400A9000400A5000300A2BF
:102570000003009F0004009B0003009800030095E7
:1025800000020093000300900003008D0002008B06
:10259000000300880002008600020084000300811E
:1025A0000002007F0002007D0002007B0002007933
:1025B0000002007700010076000200740002007241
:1025C000000100710002006F0002006D0001006C4C
:1025D0000002006A00010069000200670001006655
:1025E000000100650001006400020062000100615A
:1025F000000100600001005F0002005D0001005C5E
:102600000001005B0001005A000100590001005860
:102610000001005700010056000100550001005460
:10262000000100530000005300010052000100515E
:10263000000100500001004F0001004E0000004E5C
:102640000001004D0001004C0001004B0000004B58
:102650000001004A00010049000100480000004854
:10266000000100470001004600000046000100454F
:102670000000004500010044000100430000004349
:102680000001004200000042000100410000004142
:10269000000100400001003F0000003F0001003E3B
:1026A0000000003E0001003D0000003D0001003C34
:1026B0000000003C0000003C0001003B0000003B2B
:1026C0000001003A0000003A000100390000003922
:1026D0000001003800000038000000380001003719
:1026E0000000003700010036000000360000003610
:1026F0000001003500000035000000350001003405
:1027000000000034000000340001003300000033FA
:1027100000000033000100320000003200000032EF
:1027200000010031000000310000003100010030E4
:1027300000000030000000300001002F0000002FDA
:102740000000002F0000002F0001002E0000002ECE
:102750000000002E0001002D0000002D0000002DC3
:102760000000002D0001002C0000002C0000002CB7
:102770000000002C0001002B0000002B0000002BAB
:102780000000002B0001002A0000002A0000002A9F
:102790000000002A00010029000000290000002993
:1027A0000000002900000029000100280000002886
:1027B0000000002800000028000000280001002779
:1027C000000000270000002700000027000000276D
:1027D0000001002600000026000000260000002660
:1027E0000000002600010025000000250000002553
:1027F0000000002500000025000000250001002445
:102800000000002400000024000000240000002438
:10281000000100230000002300000023000000232B
:10282000000000230000002300000023000100221C
:102830000000002200000022000000220000002210
:102840000000002200010021000000210000002102
:1028500000000021000000210000002100000021F4
:1028600000010020000000200000002000000020E7
:1028700000000020000000200000002000000020D8
:102880000001001F0000001F0000001F0000001FCB
:102890000000001F0000001F0000001F0001001EBC
:1028A0000000001E0000001E0000001E00000024AA
:1028B000F4D43050C38E20C2A24017828B70111204
:1028C0007A910D816CD90AA861E108C75866076141
:1028D0005143061E4B5D05C145A7041A4111040969
:1028E0003D9803713931034036DB0265339102D4E0
:1028F000305402802E1D02632CEE01752AC501B0F2
:1029000028A001102781018F2564012B244B01E0B1
:10291000223401AC211F018D200D01801FFC008499
:102920001EED00971DDF00B81CD200E61BC600207C
:102930001BBC00641AB200B219A8000A19A0006AF0
:10294000189900D117910040178B00B516840031FB
:10295000167E00B31579003A157300C7146F00583E
:10296000146A00EE1366008813630025135E00C727
:10297000125B006C12570015125400C11151007007
:10298000114F0021114B00D61049008D1047004611
:1029900010440002104200C00F4000800F3E004271
:1029A0000F3C00060F3B00CB0E3800930E37005C47
:1029B0000E3500270E3400F30D3200C10D310090AA
:1029C0000D3000600D2E00320D2D00050D2C00D9AC
:1029D0000C2B00AE0C2900850C29005C0C2700355F
:1029E0000C27000E0C2600E80B2400C40B2400A0CA
:1029F0000B23007D0B23005A0B2100390B210018FB
:102A00000B2000F80A1F00D90A1E00BB0A1E009DF9
:102A10000A1D00800A1D00630A1C00470A1B002CC7
:102A20000A1B00110A1A00F7091A00DD091900C46F
:102A3000091900AB091900920917007B09180063F6
:102A40000917004C09160036091600200916000A5D
:102A5000091500F5081500E0081400CC081400B8AA
:102A6000081400A4081400900813007D0812006BDD
:102A700008130058081200460812003408110023F9
:102A80000811001208110001081100F0071000E001
:102A9000071000D0071000C0071000B0070F00A1FA
:102AA00007100091070E0083070F0074070F0065E1
:102AB000070E0057070E0049070E003B070D002EBA
:102AC000070E0020070D0013070D0006070D00F983
:102AD000060C00ED060D00E0060C00D4060C00C844
:102AE000060C00BC060C00B0060C00A4060B0099F6
:102AF000060C008D060B0082060B0077060B006C9F
:102B0000060B0061060A0057060B004C060A00423D
:102B1000060A0038060A002E060A0024060A001AD1
:102B2000060A001006090007060A00FD050900F460
:102B3000050900EB050900E2050900D9050900D0E7
:102B4000050900C7050900BE050900B5050800AD67
:102B5000050800A50509009C050800940508008CDF
:102B6000050800840508007C050800740508006C51
:102B7000050700650508005D050700560508004EBD
:102B80000507004705070040050800380507003124
:102B90000507002A050700230507001C0506001687
:102BA0000507000F0507000805060002050700FBE2
:102BB000040600F5040700EE040600E8040600E23F
:102BC000040700DB040600D5040600CF040600C994
:102BD000040600C3040600BD040600B7040600B1E5
:102BE000040500AC040600A6040600A00405009B32
:102BF00004060095040500900406008A040500857B
:102C0000040500800406007A0405007504050070C0
:102C10000405006B04050066040500610405005C02
:102C200004050057040500520405004D0405004842
:102C3000040500430405003E0404003A0405003581
:102C4000040500300404002C0405002704040023BC
:102C50000405001E0404001A0404001604050011F3
:102C60000404000D04040009040500040404000029
:102C7000040400FC030400F8030400F4030400F05F
:102C8000030400EC030400E8030400E4030400E090
:102C9000030400DC030400D8030400D4030400D0C0
:102CA000030400CC030400C8030300C50303002091
:102CB000436F756E7420583A0023646566696E65CB
:102CC0002044454641554C545F0000626564004B0A
:102CD0006420004B6920004B702000504944207450
:102CE000756E696E6720646F6E65002066696E6937
:102CF00073686564212050757420746865206C6168
:102D00007374204B702C204B6920616E64204B64DF
:102D100020636F6E7374616E74732066726F6D20C2
:102D200062656C6F7720696E746F20436F6E6669A1
:102D30006775726174696F6E2E680A00504944208D
:102D40004175746F74756E6500206661696C6564A9
:102D5000212074696D656F75740A005049442041E3
:102D600075746F74756E65004175746F74756E65FA
:102D7000206661696C6564212054696D656F7574A6
:102D80002E00206661696C6564212054656D706554
:102D900072617475726520746F6F20686967680A64
:102DA00000504944204175746F74756E6500504938
:102DB00044204379636C65730025532025692F25D2
:102DC0006900204B643A2000204B693A2000204BD8
:102DD000703A200020436C6173736963205049444A
:102DE000200A00204E6F206F76657273686F6F74D3
:102DF0000A002054753A2000204B753A2000206DBF
:102E000061783A2000206D696E3A200020643A20F3
:102E10000020626961733A200048656174696E67D9
:102E20002E2E2E002073746172740A0050494420C3
:102E30004175746F74756E65004175746F74756E4D
:102E400065206661696C6564212054656D706572EA
:102E5000617475726520746F6F20686967682E00F1
:102E6000206661696C6564212054656D70657261CE
:102E70007475726520746F6F20686967680A005006
:102E80004944204175746F74756E65004265640035
:102E90004531004500626564002C207379737465C8
:102EA0006D2073746F70706564212048656174656E
:102EB000725F49443A20004572723A204D4158549D
:102EC000454D50004D415854454D5020747269672E
:102ED00067657265640048656174696E6720466164
:102EE000696C65640048656174696E672066616934
:102EF0006C6564004D353234004D313132205368F9
:102F00007574646F776E001000C90210012C0140C7
:102F100001220170011801B0010E01F001040150FD
:102F200002FA00B002F0003003E600D003DC0090AB
:102F300004D2007005C800A006BE000008B400B0AE
:102F400009AA00D00BA000600E960060118C000052
:102F500015820020197800C01D6E00A0226400B008
:102F6000275A00902C500000314600E0343C0010FD
:102F7000383200903A2800603C1E00A03D140080CA
:102F80003E0A00203F00004572723A204D494E54DF
:102F9000454D50004D494E54454D5020747269675F
:102FA000676572656400544845524D414C20525546
:102FB0004E4157415900546865726D616C205275DD
:102FC0006E6177617900202F002042403A00204056
:102FD0003A0020573A0020573A007C3C3E5E2B3D99
:102FE0003F2F5B5D3B2C2A225C004D6564696120AC
:102FF000496E6974204661696C00534420636172B4
:1030000064206F6B0A006F70656E526F6F7420667C
:1030100061696C65640A00766F6C756D652E696E0A
:103020006974206661696C65640A004E6F205344C0
:1030300020636172640A00534420636172642072E9
:10304000656C65617365640A000A4D3234004D3267
:1030500033202573002E0A006F70656E206661694B
:103060006C65642C2046696C653A200046696C6585
:103070002073656C65637465640A002053697A6522
:103080003A200046696C65206F70656E65643A2071
:1030900000454E4420535542524F5554494E450A1F
:1030A000002220706F73002220706172656E743A86
:1030B0002200535542524F5554494E452043414CEE
:1030C0004C207461726765743A22005375626361C3
:1030D0006C6C204F766572666C6F7700457863651F
:1030E00065646564206D617820535542524F555494
:1030F000494E452064657074683A002E0A004465A4
:103100006C6574696F6E206661696C65642C20461D
:10311000696C653A200046696C652064656C65746D
:1031200065643A0057726974696E6720746F20662F
:10313000696C653A2000667265736800646F696E39
:1031400067002066696C653A20004E6F7720002F7B
:103150006175746F25632E67002020506C616E6E60
:10316000657242756666657242797465733A2000CD
:103170002046726565204D656D6F72793A2000209A
:10318000436F6D70696C65643A2041756720323217
:1031900020323032350A00204C617374205570643F
:1031A000617465643A20323032332D30322D303341
:1031B000207C20417574686F723A2054696E794D95
:1031C000616368696E657333440A004D61726C69AE
:1031D0006E204457372E342E370A0020536F667402
:1031E000776172652052657365740A0020576174B7
:1031F0006368646F672052657365740A00204272C9
:103200006F776E206F75742052657365740A0020A5
:1032100045787465726E616C2052657365740A003E
:10322000506F77657255700A0073746172740A008A
:103230004739310A47315A350A4739300A4D38344F
:103240000A4D31303453300A4D3134305330004D53
:1032500031303031006F6B006572726F722077729F
:103260006974696E6720746F2066696C650A004432
:103270006F6E6520736176696E672066696C652E76
:103280000A004D323900456E6473746F7073002507
:103290005320256320256320256320256300205AC1
:1032A0003A0020593A0020583A00656E6473746FF2
:1032B0007073206869743A200068616E646C6520E0
:1032C00077616974776179203D3D0020202A2A2AA0
:1032D0002A2A2A2A5254535F48616E646C654461FD
:1032E00074612A2A2A2A2A2A2A2A2000202D2064C8
:1032F00034200064333A2000202D20643220006402
:10330000313A2000202D206C656E2000565020722E
:10331000656365697665643A20002A2A2A4E6F7AC9
:103320007A6C6554656D705374617475735B325D4E
:10333000203D003D3D48656174696E6720446F6EB5
:1033400065204368616E67652046696C616D656ED6
:10335000743D3D002020737461727470726F6772E7
:1033600065737320004D32320A4D3231003D3D7796
:1033700061697477617920353D3D003D3D77616934
:103380007477617920343D3D003D3D776169747704
:10339000617920333D3D003D3D7761697477617906
:1033A00020313D3D00436F6E6669726D20436F6E44
:1033B00074696E75650050617573655374617475D9
:1033C0007300524553554D45204F5054494F4E536D
:1033D0003A0048656174696E672E2E2E0000004326
:1033E0006C69636B20746F20686561740000005223
:1033F0006573756D696E672E2E2E00000050757214
:1034000067696E672E2E2E000000496E7365727418
:1034100020616E6420436C69636B000000436C693B
:10342000636B20746F20636F6E74696E7565000046
:1034300000456A656374696E672E2E2E0000005089
:103440006C6561736520776169742E2E2E00000013
:103450005061726B696E672E2E2E0000002A2A2A98
:10346000496E6974696E67206361726420697320B4
:103470004F4B2A2A2A003D3D6F6E5072696E74547C
:10348000696D657253746F707065643D3D003D3DBC
:103490006F6E55736572436F6E6669726D526571BA
:1034A00075697265643D3D005061757365204D6FAF
:1034B000646520537461747573004C6F6164696E48
:1034C000672E2E2E0000003D3D6F6E466163746FC7
:1034D000727952657365743D3D00270A0A00002722
:1034E0002027002027002D0063616E63656C00506B
:1034F00072696E742041626F727465640055492070
:1035000041626F7274656400726573756D65004D1C
:103510003234002A2A2A43506C617920546F6E6538
:103520002A2A2A003D3D6F6E5072696E7454696D8F
:1035300065725061757365643D3D00486F6D696EDD
:1035400067204661696C65640050524553454E548E
:10355000004F5554006F70656E00545249474745FF
:10356000524544003A20004D4F54494F4E203A20D6
:10357000004F46460A003A200066696C616D656E30
:1035800074007A5F6D696E00795F6D696E00785FB7
:103590006D696E005265706F7274696E6720656E3A
:1035A0006473746F70207374617475730A00203AC9
:1035B0002073796E635F706C616E5F706F73697496
:1035C000696F6E0A00202063757272656E745F7099
:1035D0006F736974696F6E3D003E2000646F5F62B7
:1035E0006C6F636B696E675F6D6F76655F746F009C
:1035F00020746F6F206C6F6E6720657874727573BE
:10360000696F6E2070726576656E7465640A00205D
:10361000636F6C6420657874727573696F6E207067
:10362000726576656E7465640A00486F6D65202565
:103630007320466972737400290A005D005B002CD8
:1036400020002C20002E2E2E2800646F5F686F6DE6
:10365000696E675F6D6F7665005761726E696E6740
:103660003A20486F6D696E672042756D702044691D
:103670007669736F72203C20310A00020204290A25
:10368000003C3C3C207365745F617869735F6973CB
:103690005F61745F686F6D652800203A200A002022
:1036A0002063757272656E745F706F736974696F91
:1036B0006E3D005D203D20003E20686F6D655F6FB0
:1036C00066667365745B002A2A2A205A20484F4D8B
:1036D000454420574954482050524F424520285ACB
:1036E0005F4D494E5F50524F42455F555345535FC2
:1036F0005A5F4D494E5F454E4453544F505F5049B9
:103700004E29202A2A2A0A3E2070726F62652E6F87
:1037100066667365742E7A203D2000000016430013
:1037200000164300000000290A003E3E3E2073655B
:10373000745F617869735F69735F61745F686F6DEF
:10374000652800290A003C3C3C20686F6D65617863
:1037500069732800203A203E204146544552207388
:1037600065745F617869735F69735F61745F686FC7
:103770006D650A00202063757272656E745F706FEC
:10378000736974696F6E3D006D6D0A0052652D623C
:10379000756D703A20006D6D0A004D6F76652041A1
:1037A0007761793A20006D6D0A00486F6D6520469B
:1037B0006173743A20000000A5430000A04300009C
:1037C000C843000000410000004100000040FFFF2E
:1037D000FF290A003E3E3E20686F6D65617869737F
:1037E000280020706F736974696F6E5F7368696613
:1037F00074203D200020686F6D655F6F666673659D
:1038000074203D2000417869732000000000010011
:1038100000000100008000555555000000400033B5
:10382000333300AAAA2A004992240000002000C7CE
:10383000711C0099991900D1451700555515003B89
:10384000B113002449120011111100000010000FE3
:103850000F0F00E3380E0043790D00CCCC0C00C3F1
:10386000300C00E8A20B0064210B00AAAA0A007029
:103870003D0A009DD80900427B090092240900DC22
:10388000D30800888808001042080000000800F0F3
:10389000C107008787070075500700711C07003EAD
:1038A000EB0600A1BC060069900600666606007083
:1038B0003E06006118060017F4050074D105005B90
:1038C000B00500B2900500627205005555050078FC
:1038D000390500B81E0500050505004EEC040087FB
:1038E000D40400A1BD040090A7040049920400C1C3
:1038F0007D0400EE690400C7560400444404005CE3
:103900003204000821040041100400000004003FBC
:10391000F00300F8E0030026D20300C3C30300CC89
:10392000B503003AA803000A9B0300388E0300C0C9
:103930008103009F750300D0690300505E03001DE2
:1039400053030034480300913D0300333303001652
:10395000290300381F030097150300300C030003F0
:103960000303000BFA020049F10200BAE802005C0E
:10397000E002002DD802002DD0020059C80200B08C
:10398000C0020031B90200DAB10200AAAA0200A006
:10399000A30200BC9C0200FA9502005C8F0200DFCB
:1039A00088020082820200457C02002776020027FE
:1039B000700200436A02007C640200D05E02003F95
:1039C000590200C8530200FFFDFCFAF8F6F4F2F0C9
:1039D000EEECEAE9E7E5E3E1E0DEDCDAD9D7D5D4DD
:1039E000D2D0CFCDCBCAC8C7C5C3C2C0BFBDBCBA79
:1039F000B9B7B6B4B3B2B0AFADACAAA9A8A6A5A4E6
:103A0000A2A1A09E9D9C9A99989795949392908F2D
:103A10008E8D8B8A8988878684838281807F7E7D54
:103A20007B7A797877767574737271706F6E6D6C5E
:103A30006B6A696867666564636261605F5E5D5C4E
:103A40005B5A5958585756555453525150504F4E2F
:103A50004D4C4B4A4A4948474646454443424241F9
:103A6000403F3E3E3D3C3B3B3A39383837363535B2
:103A7000343332323130302F2E2E2D2C2B2B2A295D
:103A80002928272726252524232322212120201FFA
:103A90001E1E1D1C1C1B1B1A19191818171616158B
:103AA0001514131312121111100F0F0E0E0D0D0C11
:103AB0000C0B0A0A0909080807070606050504048D
:103AC000030302020100003D3D6F6E5072696E7487
:103AD00054696D6572537461727465643D3D00296B
:103AE0000A0050726F62653A3A646F5F7A5F726182
:103AF00069736528006465706C6F793A2000203A1C
:103B00002050726F62653A3A7365745F6465706CD9
:103B10006F7965640A00202063757272656E745F48
:103B2000706F736974696F6E3D00206D61783A0043
:103B3000206D696E3A0041786973200000809D43D2
:103B400000009B430000C843000070C1000020C17A
:103B500000000000536176696E67204457494E208B
:103B60004C43442073657474696E672066726F6D90
:103B700020454550524F4D0A003D3D6F6E536574D0
:103B800074696E677353746F7265643D3D0053656D
:103B90007474696E67732053746F72656400290AC8
:103BA000002062797465733B206372632000536563
:103BB0007474696E67732053746F72656420280093
:103BC0005001C20011241FBECFEFD1E2DEBFCDBF36
:103BD00000E00CBF84B78093311914BE0FB6F8947F
:103BE000A8958091600088618093600010926000C9
:103BF0000FBE16E0A0E0B2E0E8E0F9E802E00BBF9B
:103C000002C007900D92AC37B107D9F729E1ACE7B4
:103C1000B6E001C01D92A133B207E1F71DE1C1EE8C
:103C2000DDE100E006C021970109802FFE010F941D
:103C3000B140C03ED10780E00807A9F70F94E92DF5
:103C40000D9472440C940000CF93DF93C091B01296
:103C5000D091B11281E0CE31D105E4F020E030E026
:103C600040E05FE36091AC127091AD128091AE12B2
:103C70009091AF120F94BA400F9426426C1B7D0BAB
:103C800077FF03C071956195710981E0633071051B
:103C90000CF080E0DF91CF910895CF93DF93DB01AB
:103CA000F9019C919130C1F0943080F094509C9334
:103CB0008830D1F480819181009771F001979183D0
:103CC0008083480F591FEA01188206C08C3539F4E9
:103CD0009C5F9C93943041F4DF91CF9108958B3396
:103CE00039F781E08C93F8CF20813181B9016F5F82
:103CF0007F4F71836083420F531FEA018883808165
:103D000091818F3591056CF7E7CF0F931F9381E079
:103D10000091ED141091EE142091EF143091F014F5
:103D20004091E9145091EA146091EB147091EC14F5
:103D3000041715072607370708F480E01F910F9135
:103D4000089520917E07833021F425FD0CC024FDC9
:103D50000CC030E0A90102C0559547958A95E2F75D
:103D6000CA018170089581E0089580E00895CF929E
:103D7000DF92EF92FF92CF93DF93EC01CC80DD8056
:103D8000EE80FF8029E630E040E251ECC701B60149
:103D90000F941A4387FD23C023E030E04BE953E43E
:103DA000C701B6010F94D6391816CCF0C880D98057
:103DB000EA80FB8029E630E040E751ECC701B6011C
:103DC0000F941A4387FD0BC0C1E023E030E84DE9B2
:103DD00053E4C701B6010F94D63918160CF4C0E0AD
:103DE0008C2FDF91CF91FF90EF90DF90CF900895CF
:103DF000682F70E090E080E00F94DD392091001989
:103E00003091011940910219509103190F943C3AD5
:103E10002091F8183091F9184091FA185091FB1838
:103E20000F94BA400895682F70E090E080E00F94FE
:103E3000DD392091FC183091FD184091FE18509109
:103E4000FF180F943C3A2091F4183091F5184091E6
:103E5000F6185091F7180F94BA4008958091EB1816
:103E600081110EC020916F023091700221503109F2
:103E700081E04091DC125091DD12421753070CF0A3
:103E800080E00895269A2E9A08952F923F924F929D
:103E90005F926F927F928F929F92AF92BF92CF92DA
:103EA000DF92EF92FF920F931F93CF93DF93D62F62
:103EB000C72FFC0180809180A280B380C501B4012E
:103EC00020E831E541E050E00F941A40C9016DE669
:103ED00071E00F9489406B017C01C501B40120E1C0
:103EE0003EE040E050E00F941A40CA01B90128E1D9
:103EF00030E040E050E00F941A40362E272E062F77
:103F0000172F8CE3482E512C612C712CC501B40164
:103F1000A30192010F941A40B62EA72ECA01B9012F
:103F2000A30192010F941A40CB01C114D10479F17D
:103F3000AF92BF927F936F932F923F92FF92EF9237
:103F4000DF92CF928EEC96E19F938F93CF93DF9386
:103F50000F946D398DB79EB70E960FB6F8949EBF2D
:103F60000FBE8DBF8D2F9C2FDF91CF911F910F9191
:103F7000FF90EF90DF90CF90BF90AF909F908F9089
:103F80007F906F905F904F903F902F900895E11435
:103F9000F104C9F0AF92BF927F936F932F923F923B
:103FA000FF92EF928EEB96E19F938F93CF93DF93E7
:103FB0000F946D39EDB7FEB73C960FB6F894FEBF7F
:103FC0000FBEEDBFCFCF012BB9F0AF92BF927F9361
:103FD0006F932F923F9282EB96E19F938F93CF93B3
:103FE000DF930F946D398DB79EB70A960FB6F8948C
:103FF0009EBF0FBE8DBFB6CF892BA9F0AF92BF92E7
:104000007F936F938AEA96E19F938F93CF93DF9389
:104010000F946D39EDB7FEB738960FB6F894FEBF22
:104020000FBEEDBF9FCFAF92BF9286EA96E19F93FE
:104030008F93CF93DF930F946D390F900F900F9064
:104040000F900F900F908ECFAB01BC014093ED14F9
:104050005093EE146093EF147093F01485E596E19D
:104060000C9453CAEF92FF920F931F93CF937C014E
:104070000091810710918207C0E0F701EC0FF11D5C
:104080006081662351F0062E000C770BC8010F9457
:104090000844892B49F4CF5FF0CF80E0CF911F9186
:1040A0000F91FF90EF90089581E0F8CF682F880F6F
:1040B000770B80918107909182070F940844FC014F
:1040C00081E0309709F480E0309781F0918120ED14
:1040D000290F2A3030F09E3251F4928190539A3059
:1040E00098F43196F0937907E093780708959D321C
:1040F00011F09B3249F4928120ED290F2A3088F388
:104100009E3211F49381EACFF0E0E0E0EBCF0E9421
:104110005620882341F081E020917807309179077B
:10412000232B09F480E008950F931F93CF93DF931F
:1041300000D01F92CDB7DEB79C0106EA1CE090E1EB
:10414000EBE3F2E0D80101900D929A95E1F7F901C5
:104150002081318142815381F8016085718582859A
:1041600093850F94BA40F80160877187828793879F
:1041700080E090E0A0EAB0E489839A83AB83BC83BB
:10418000CE0101960F9487040F900F900F900F901F
:10419000DF91CF911F910F9108952F923F924F92EF
:1041A0005F926F927F928F929F92AF92BF92CF92C7
:1041B000DF92EF92FF921F93CF93DF93CDB7DEB7DD
:1041C0002C970FB6F894DEBF0FBECDBF7A01190150
:1041D000DC012D913D914D915C912D833E834F8368
:1041E0005887FB01408051806280738080903B0241
:1041F00090903C02A0903D02B0903E02A501940137
:104200006D817E818F8198850F94D63981110EC082
:1042100011E0A301920160913F02709140028091F0
:104220004102909142020F94D639811110E0D101E0
:104230002D913D914D915C9129873A874B875C8701
:10424000F701C080D180E280F38020910602309196
:1042500007024091080250910902C701B6010F946C
:10426000D639882309F44EC0C0920602D0920702C4
:10427000E0920802F0920902809147029091480270
:10428000A0914902B0914A0240913F0250914002F0
:1042900060914102709142028092A60C9092A70C0C
:1042A000A092A80CB092A90C4093AA0C5093AB0C0E
:1042B0006093AC0C7093AD0CC092AE0CD092AF0C6E
:1042C000E092B00CF092B10C8093B20C9093B30CCE
:1042D000A093B40CB093B50C20E030E040E05FE375
:1042E0006091470D7091480D8091490D90914A0D54
:1042F0000F943C3A69837A838B839C83CE01019629
:104300000F9487042D813E814F8158852093A60C00
:104310003093A70C4093A80C5093A90C4092AA0C80
:104320005092AB0C6092AC0C7092AD0CD1012D91FF
:104330003D914D915C916091B20C7091B30C809164
:10434000B40C9091B50C0F94BA406093B20C70937A
:10435000B30C8093B40C9093B50C11112FC020E0D6
:1043600030E0A90169857A858B859C850F94D639C3
:10437000811133C060E070E088EC92E469837A8355
:104380008B839C83CE0101960F9487042C960FB6E5
:10439000F894DEBF0FBECDBFDF91CF911F91FF908C
:1043A000EF90DF90CF90BF90AF909F908F907F90D5
:1043B0006F905F904F903F902F9008952AEF3EE7C7
:1043C0004AE25FE360914B0D70914C0D80914D0D71
:1043D00090914E0D0F943C3AD1CF60E070E080EAAE
:1043E00091E4CCCF8091780790917907009731F0D4
:1043F0004AE050E070E060E00D94F13760E070E07A
:10440000CB010895CF93DF9300D01F92CDB7DEB7D5
:1044100080E090E0A0EAB0E489839A83AB83BC8318
:1044200061E0CE0101960F94491B0F900F900F9001
:104430000F90DF91CF9108950F931F93CF93DF9348
:1044400000D000D01F921F92CDB7DEB78B01FC01C8
:1044500023A5211102C00E94D1811D821E821F82CC
:10446000188620E030E040E05FE360914302709105
:10447000440280914502909146020F94BA406983AC
:104480007A838B839C839E012B5F3F4FAE014F5FEE
:104490005F4F6FE372E08BE392E00E94CD201D82BC
:1044A0001E821F82188620E030E040E05FE3F801C2
:1044B00060857185828593850F94BA4069837A837C
:1044C0008B839C83B8016C5F7F4F9E012B5F3F4FB6
:1044D000AE014F5F5F4FC8010E94CD2028960FB6F6
:1044E000F894DEBF0FBECDBFDF91CF911F910F912A
:1044F00008958091780790917907009731F04AE00C
:1045000050E070E060E00D94C33660E070E0CB01F5
:104510000895CF93DF93EB010E948720882319F041
:104520000E947922EB01CE01DF91CF9108950E9484
:10453000792297FD0CC00E9479226F3F7105810599
:10454000910509F034F40E947922862F089580E0C5
:1045500008958FEF0895CF93C62F0E948720882358
:1045600019F0CF910C9497228C2FCF9108958091C0
:10457000780790917907892B41F00E94972291E06A
:10458000811101C090E0892F089591E0FCCFCF9375
:10459000DF93C82FD62F0E948720882321F0DF9138
:1045A000CF910C94B7228C2F0E945620811101C00C
:1045B0008D2FDF91CF9108950E947922CB0108952C
:1045C000CF93DF93EB010E948720882321F0DF91B6
:1045D000CF910C94DC22CE01DF91CF9108950F93FF
:1045E0001F93CF938091780790917907009709F1F5
:1045F000FC018F01C1912C2F2F7DA1F0C53431F02A
:10460000C53621F0C83511F0C83799F7F801108286
:1046100070E060E00F946535F801C083CF911F9181
:104620000F91089570E060E0CF911F910F910D946C
:10463000653560E070E0CB01F1CFCF92DF92EF9271
:10464000FF926A017B010E948720882331F0FF904E
:10465000EF90DF90CF900C94EF22C701B601FF904E
:10466000EF90DF90CF9008950C94D37B0F931F931E
:10467000CF931092800710927F072FE32093860735
:104680001092850710928407109283079C01F9010C
:1046900090812F5F3F4F9032D1F39E34C9F48181D6
:1046A00090ED980F9A3020F08D3211F08B3281F41A
:1046B00032969F012F5F3F4F808180538A3008F4EC
:1046C00075C09F012F5F3F4F8081803209F470C019
:1046D000F093690DE093680D8F010F5F1F4FC0814C
:1046E0006AE270E0C8010F940844009731F0FC01C1
:1046F000319780818032E1F31182CD3429F0C435C5
:1047000019F0C73409F04EC0F80180810F5F1F4FC8
:104710008032D1F380538A3008F044C0C0938607BA
:1047200030E020E04AE0DF011196429FC001439F44
:10473000900D11249C01205331098081280F311DD7
:1047400087FD3A95818190ED980F9A3098F13093DA
:104750008507209384078E3261F4329690E04AE018
:10476000DF0131968C9150ED580F5A3028F190931B
:104770008307FD01119680818032D9F3F09382077F
:10478000E0938107CD3441F52E31310539F0D0F475
:104790002731310519F02C313105F1F4F093800700
:1047A000E0937F07CF911F910F910895F90181CF79
:1047B000F90187CFFD01B7CF949F800D112490EDB3
:1047C000980FCECF2537310538F02737310530F334
:1047D000203A83E0380711F350E040E0CF01019622
:1047E0006081662309F45AC0613291F4CD3481F4BA
:1047F0002032310569F49093800780937F0763E24C
:1048000070E00F940844009769F2FC011082CACF4F
:10481000FC01DF018D91803271F090ED980F9A309C
:1048200008F18E3251F4918190539A30D8F04115AD
:104830005105E1F414C0FD01ECCF8D3211F08B3243
:1048400059F4918160ED690F6A3060F09E3221F475
:10485000928190539A3030F04115510519F4AF010F
:104860004150510981548A3108F4B8CFDF01FD016C
:104870008D91882309F4B2CF90ED980F9A30B8F358
:1048800093ED980F923098F38B3289F3CF01019614
:104890006081603209F0A2CFFC01F8CF509380070D
:1048A00040937F077FCF81E08093DF120895FC0162
:1048B0006591759185919491089580E00D94991B6F
:1048C000682F70E090E080E00C94D37B9B01AC01FA
:1048D000485F5F4FBC016C5F7F4F0C94CD202F92DF
:1048E0003F924F925F926F927F928F929F92AF9280
:1048F000BF92CF92DF92EF92FF920F931F93CF93CD
:10490000DF93CDB7DEB7A6970FB6F894DEBF0FBE24
:10491000CDBF8C011B015A87498740903B025090C4
:104920003C0260903D0270903E0280903F02909069
:104930004002A0904102B0904202DB018D919D9116
:104940000D90BC91A02D8B8B9C8BAD8BBE8B9C0155
:10495000AD01C301B2010F94B9406B017C01D101DB
:1049600014968D919D910D90BC91A02D8F8B988F59
:10497000A98FBA8F9C01AD01C501B4010F94B94054
:104980006B8F7C8F8D8F9E8FA985BA858D919D9120
:104990000D90BC91A02D8B879C87AD87BE879C0115
:1049A000AD01C301B2010F94B9406F8F78A389A301
:1049B0009AA3A985BA8514968D919D910D90BC916D
:1049C000A02D8F87988BA98BBA8B9C01AD01C50157
:1049D000B4010F94B9406BA37CA38DA39EA3A70140
:1049E0009601C701B6010F943C3A6B017C012B8DF7
:1049F0003C8D4D8D5E8DCA01B9010F943C3A9B01EF
:104A0000AC01C701B6010F94BA404B015C012B8980
:104A10003C894D895E896B857C858D859E850F944B
:104A2000B9402B013C012F89388D498D5A8D6F85F6
:104A3000788989899A890F94B9406B017C01A30117
:104A40009201C301B2010F943C3A2B013C01A70132
:104A50009601C701B6010F943C3A9B01AC01C3011A
:104A6000B2010F94BA400F9468436B017C012F8D03
:104A700038A149A15AA1CA01B9010F943C3A2B01AE
:104A80003C012BA13CA14DA15EA1CA01B9010F942B
:104A90003C3A9B01AC01C301B2010F94BA409B01A7
:104AA000AC01C501B4010F941A431816B4F520E007
:104AB00030E0A901C701B6010F941A4387FF2AC04D
:104AC000C701B601905820E030E040EA50E40F946E
:104AD0001A43181614F5A10169857A85C8010E9448
:104AE0006F24A6960FB6F894DEBF0FBECDBFDF9140
:104AF000CF911F910F91FF90EF90DF90CF90BF90DB
:104B0000AF909F908F907F906F905F904F903F906D
:104B10002F900895C701B601D6CF20E030E040E0E5
:104B200050E4C501B4010F941A43181624F4B101DE
:104B3000C8010E941C2219821A821B821C82BE019B
:104B40006F5F7F4FC1010E9466242DEC3CEC4CEC62
:104B50005CE3C701B6010F943C3A9B01AC01F8013C
:104B600060817181828193810F943C3A6D837E8351
:104B70008F839887D8019B968C919B978823C9F047
:104B80002AE939E949E95FE314966D917D918D91A8
:104B90009C9117970F943C3A69837A838B839C830B
:104BA000BE016F5F7F4F86EA9CE00E946624F80199
:104BB00013A6BE016B5F7F4F89859A850E9466248C
:104BC00090CF3F924F925F926F927F928F929F927F
:104BD000AF92BF92CF92DF92EF92FF920F931F930B
:104BE000CF93DF93CDB7DEB76C970FB6F894DEBFE7
:104BF0000FBECDBF8C01DB018C91A42EA80EB4E0BA
:104C0000BA1508F4E4C0FB01B180322E3B0CB31599
:104C100008F4DDC0EB2DF0E0E259F84FE081F0E060
:104C2000082E02C0F595E7950A94E2F7E0FFCFC0A1
:104C3000E32DF0E0E259F84FE081F0E00A2C02C0E9
:104C4000F595E7950A94E2F7E0FFC1C0822E942E15
:104C50000E94131F6B017C01692D660F770B072ED5
:104C6000000C880B990B0F94DD392B013C01AC0132
:104C70009B01C701B6010F94BA406B017C01CD8640
:104C8000DE86EF86F88A8A2D0E94131FA301920107
:104C90000F94B940698F7A8F8B8F9C8F69837A8349
:104CA0008B839C838B2D0E94F81E2B013C01682D69
:104CB000660F770B072E000C880B990B0F94DD39CC
:104CC0004B015C01AC019B01C301B2010F94BA40DE
:104CD0002B013C01498A5A8A6B8A7C8A832D0E9467
:104CE000F81EA50194010F94B9404B015C018D821F
:104CF0009E82AF82B886F80180859185A285B385B2
:104D000089879A87AB87BC878D8B9E8BAF8BB88F3B
:104D100020E030E040E151ECC301B2010F94D639FC
:104D200087FF6DC080E090E0A0E1B1EC898B9A8BA9
:104D3000AB8BBC8B20E030E040E151ECC501B4010D
:104D40000F94D63987FF6BC080E090E0A0E1B1EC12
:104D50008D839E83AF83B88720E030E040E651EC3E
:104D6000C701B6010F94D63987FF69C080E090E093
:104D7000A0E6B1EC8D879E87AF87B88B20E030E04E
:104D800040E651EC698D7A8D8B8D9C8D0F94D639D0
:104D900087FF65C080E090E0A0E6B1EC89839A834C
:104DA000AB83BC83CE010D960E94B71E882379F099
:104DB000CE0101960E94B71E882349F0AE014F5FD5
:104DC0005F4FBE01635F7F4FC8010E946F246C96E6
:104DD0000FB6F894DEBF0FBECDBFDF91CF911F910C
:104DE0000F91FF90EF90DF90CF90BF90AF909F908A
:104DF0008F907F906F905F904F903F90089520E04C
:104E000030E84AE953E4C301B2010F941A4318167B
:104E10000CF090CF80E090E8AAE9B3E487CF20E0DF
:104E200030E84AE953E4C501B4010F941A43181657
:104E30000CF092CF80E090E8AAE9B3E489CF20E0BB
:104E400030E04DE953E4C701B6010F941A43181638
:104E50000CF094CF80E090E0ADE9B3E48BCF20E09C
:104E600030E04DE953E4698D7A8D8B8D9C8D0F94E4
:104E70001A4318160CF096CF80E090E0ADE9B3E449
:104E80008DCFCF92DF92EF92FF92CF936B017C0197
:104E9000C42F8091CA0B8F5F09F4B5C08093CA0BF1
:104EA0008091CA0B8093790C20E030E040E752E417
:104EB00060913702709138028091390290913A02E4
:104EC0000F943C3A0F942D427093DC0B6093DB0BF4
:104ED000C092DD0BD092DE0BE092DF0BF092E00B84
:104EE0008091780CC0FB80F98093780C8CE0E4ED25
:104EF000F7E1A1EEBBE001900D928A95E1F78CE01D
:104F0000EEEDF8E1ADEEBBE001900D928A95E1F790
:104F1000809100179091780C80FB94F99093780C15
:104F2000882381F08091FC169091FD16A091FE16C9
:104F3000B091FF168093F90B9093FA0BA093FB0BA3
:104F4000B093FC0B8091DC129091DD129093FE0BDC
:104F50008093FD0B8091B0129091B1129093000C50
:104F60008093FF0B8091640D8093010C8091780CED
:104F700090919E0C90FB83F98093780C80919F0C0C
:104F80009091A00CA091A10CB091A20C8093020C66
:104F90009093030CA093040CB093050C0F940E088F
:104FA0006093730C7093740C8093750C9093760CD3
:104FB00080917E078093770C9091A50C8091780C5E
:104FC00093FB81F99091EB1890FB82F98093780C18
:104FD00080E00E940EF240E050E0BA0186EF94E1DA
:104FE0000E9453CA40EB50E06AEC7BE086EF94E10C
:104FF0000E94E7CA86EF94E1CF91FF90EF90DF9097
:10500000CF900C9414CE81E049CF4F925F926F9273
:105010007F928F929F92AF92BF92CF92DF92EF9248
:10502000FF920F931F93CF93DF9300D01F92CDB7C2
:10503000DEB719821A821B821C8296EF892E93E0BA
:10504000992ECE0101965C0126EAC22E2CE0D22ECA
:105050003BE3E32E32E0F32E10E000E0F401819117
:105060004F010E948720F50181935F01882309F495
:10507000EDC00E94EF222B013C01802F0E94A11E57
:10508000882309F4D3C0F701208131814281538103
:10509000C301B2010F94BA40F60160837183828329
:1050A00093830F5F1F4FF4E0CF0ED11C84E0E80E16
:1050B000F11C0330110591F685E40E9487208C8352
:1050C000882309F4CEC00E94EF226B017C0183E0AB
:1050D0000E94A11E882371F020914702309148025E
:1050E0004091490250914A02C701B6010F94BA405B
:1050F0006B017C01C092B20CD092B30CE092B40C64
:10510000F092B50C80917A0C882391F18091F11482
:1051100082FF2EC087FD2CC08C81882349F18981B4
:10512000811103C08A81882319F12DEC3CEC4CE4F9
:105130005DE36091D30B7091D40B8091D50B90916E
:10514000D60B0F94BA409B01AC0160914302709161
:10515000440280914502909146020F941A4318161A
:105160003CF440E060E070E080E090E40E94412781
:1051700040E050E0BA0186E40E941D2320E030E0C8
:10518000A9010F941A43181684F40E94EF2220E01C
:1051900030E040E752E40F94B441609337027093DB
:1051A00038028093390290933A028091A50C83FDD6
:1051B00028C08091BF17882321F1209147023091A8
:1051C00048024091490250914A026091B20C70919C
:1051D000B30C8091B40C9091B50C0F94B940209110
:1051E000CC173091CD174091CE175091CF170F9417
:1051F000BA406093CC177093CD178093CE179093DD
:10520000CF170F900F900F900F90DF91CF911F91BC
:105210000F91FF90EF90DF90CF90BF90AF909F9055
:105220008F907F906F905F904F900895F801EE0FF0
:10523000FF1FEE0FFF1FE659F24F2081318142819F
:105240005381C301B2010F94B94026CFF701808189
:105250009181A281B381F60180839183A283B3837C
:1052600020CF8091470290914802A0914902B091CD
:105270004A028093B20C9093B30CA093B40CB093F9
:10528000B50C40CFEAECFBE080EBDF011D928A9584
:10529000E9F7089580917A0C811104C00E94422997
:1052A0000C949AF28091F11482FF09C087FD07C027
:1052B00040E060E070E080E090E40C9441270895C5
:1052C0008091CA0B882361F09091790C891308C0F2
:1052D0008091F11484FF04C086E09CE00C94DBD143
:1052E00080E00895FC01238121110C9414CE0895CF
:1052F000CF93DF93C091DC12D091DD12209729F17A
:105300006091D8127091D9128091DA129091DB12CB
:105310000F9426426E5F7F4F24976C177D07ACF485
:1053200070934417609343170E947396605A7541B7
:105330008F4F9F4F60934517709346178093471781
:1053400090934817DF91CF910895109245171092CE
:1053500046171092471710924817F4CFCF92DF925A
:10536000EF92FF921F93CF93DF93182F662351F094
:1053700010926D071092690710926A0710926B07DE
:1053800010926C070E9473966B017C0180916907F3
:1053900090916A07A0916B07B0916C07A7019601E5
:1053A000281B390B4A0B5B0BDA01C901B7FD3DC065
:1053B00020916D0717FD13C0412F012E000C550BD6
:1053C0004C5F5F4F822F022E000C990B4817590734
:1053D00064F184EF91E0A0E0B0E0211724F488EEBE
:1053E00093E0A0E0B0E08C0D9D1DAE1DBF1D80932D
:1053F000690790936A07A0936B07B0936C072170BD
:10540000C22F30E0D32F84E28C9FB0018D9F700DAE
:105410007C1B112460597C4F82E390E00F94CF0BEA
:1054200080916D078F5F80936D07DF91CF911F9102
:10543000FF90EF90DF90CF900895CF93DF93C091CE
:10544000B012D091B112209729F16091AC127091F5
:10545000AD128091AE129091AF120F9426426E5F02
:105460007F4F24976C177D07ACF470933A176093C5
:1054700039170E947396605E70448D4F9F4F609302
:105480003B1770933C1780933D1790933E17DF9125
:10549000CF91089510923B1710923C1710923D1730
:1054A00010923E17F4CFCF93DF939091A50C93FD0C
:1054B00041C0C82F83E50E948720D82F882399F107
:1054C0000E94DC228C389105C4F59093B112809330
:1054D000B0120E941D2A6091B0127091B112072E75
:1054E000000C880B990B0F94DD392091AC12309190
:1054F000AD124091AE125091AF120F941A4360E07A
:105500001816F4F488E697E10F94270D61E06C27F4
:105510008C2F0E94BFD7CC2369F060E08D2FDF91E4
:10552000CF910C9493D3CC2329F082E50E9487205D
:105530008111C6CFDF91CF9108958CE890E0C5CF5F
:1055400089E597E1E1CFCF93C1E020E030E0A90108
:105550006091FC187091FD188091FE189091FF18D1
:105560000F94D639811101C0C0E08C2FCF910895DE
:105570004F925F926F927F928F929F92AF92BF9263
:10558000CF92DF92EF92FF920F931F93CF93DF930F
:10559000EC012091F4183091F5184091F6185091D3
:1055A000F718688179818A819B810F94B9406B01DA
:1055B0007C012091F8183091F9184091FA18509117
:1055C000FB186C817D818E819F810F94B9404B01C6
:1055D0005C01A7019601609161077091620780915B
:1055E0006307909164070F94D639882309F450C05B
:1055F000C0926107D0926207E0926307F09264075D
:105600002091590730915A0740915B0750915C07F0
:10561000C701B6010F943C3A2B013C010F945C4248
:105620006B017C0120E030E0A9010F94D63987FDA1
:1056300070C020E030E040E450E4C701B6010F94B0
:105640001A4318162CF4C12CD12CC0E4EC2EFE2CDD
:10565000A7019601C301B2010F94B94060935107AD
:10566000709352078093530790935407C701B60174
:105670000F94264260934F07062E000C770B6F5F46
:105680007F4F6430710514F064E070E060934D0763
:10569000D0914B0710914F07A501940160916507C8
:1056A0007091660780916707909168070F94D639CB
:1056B000811133C0D11381C0209133073091340759
:1056C000409135075091360760915107709152070C
:1056D00080915307909154070F943C3A20913707DB
:1056E000309138074091390750913A070F94BA40EA
:1056F000DF91CF911F910F91FF90EF90DF90CF90AE
:10570000BF90AF909F908F907F906F905F904F90E1
:105710000895C12CD12C76019BCF80926507909281
:105720006607A0926707B092680720915D073091E5
:105730005E0740915F0750916007C501B4010F9467
:105740003C3A4B015C010F945C426B017C0120E010
:1057500030E0A9010F94D63987FDF3C020E030E096
:1057600040E450E4C701B6010F941A4318162CF414
:10577000C12CD12CB0E4EB2EFE2CA7019601C50163
:10578000B4010F94B9406093550770935607809306
:10579000570790935807C701B6010F9426426093AC
:1057A0005007062E000C770B6F5F7F4F643071053A
:1057B00014F064E070E060934E07C0915007D1137D
:1057C00005C080914C078C1709F470C080914F0779
:1057D0009091500790934C0780934B070C2E000C30
:1057E000DD0B25E01203C0011124FC01EC0FFD1FAD
:1057F000EE0FFF1FEE0FFF1FEA54F34F20813181A0
:1058000042815381209347073093480740934907CB
:1058100050934A0700914E07002E000C110BFC011B
:10582000E00FF11FEE0FFF1FEE0FFF1FEA54F34FC3
:1058300060817181828193810F94B94060934307A5
:1058400070934407809345079093460720914D0736
:1058500035E02303F0011124CE0FDF1FCC0FDD1F35
:10586000CC0FDD1FCA54D34F288139814A815B8117
:1058700020933F07309340074093410750934207DE
:10588000E00FF11FEE0FFF1FEE0FFF1FEA54F34F63
:1058900060817181828193810F94B94060933B074D
:1058A00070933C0780933D0790933E078090550787
:1058B00090905607A0905707B09058072091430743
:1058C000309144074091450750914607C501B40106
:1058D0000F943C3A2091470730914807409149077F
:1058E00050914A070F94BA406B017C01C092370770
:1058F000D0923807E0923907F0923A0720913B079F
:1059000030913C0740913D0750913E07C501B401DD
:105910000F943C3A20913F07309140074091410756
:10592000509142070F94BA40A70196010F94B940D5
:10593000609333077093340780933507909336074D
:10594000BBCEC12CD12C760118CFE1E6F7E080EF79
:105950009FEFA9E7B4EC84839583A683B783808304
:105960009183A283B383EBE4F7E08DE981838083A5
:1059700008958F929F92AF92BF92CF92DF92EF9253
:10598000FF92FC0198E0ACEFB8E101900D929A957E
:10599000E1F788E0FB01A4EFB8E101900D928A9550
:1059A000E1F7C090FC18D090FD18E090FE18F09040
:1059B000FF1820E030E0A901C701B6010F94D639E5
:1059C0008823E1F1A701960160E070E080E89FE3A1
:1059D0000F94B4416B017C018090001990900119E3
:1059E000A0900219B090031920E030E0A901C50190
:1059F000B4010F94D639882329F1A501940160E000
:105A000070E080E89FE30F94B441C0925907D092B0
:105A10005A07E0925B07F0925C0760935D07709312
:105A20005E0780935F0790936007FF90EF90DF9091
:105A3000CF90BF90AF909F908F900895C12CD12CA4
:105A40007601CACF60E070E0CB01DFCFEFE6F0E097
:105A500080818260808308958091411090914210EE
:105A6000892B79F48091411090914210892B49F44F
:105A7000209141103091421081E0232B19F480E0F5
:105A8000089581E008958F929F92AF92BF92CF9236
:105A9000DF92EF92FF92CF93DF93EC0180909F0C07
:105AA0009090A00CA090A10CB090A20C20E030E04F
:105AB000A901C501B4010F94D639882309F45EC049
:105AC000C880D980EA80FB8020E030E0A901C701CE
:105AD000B6010F94D63918160CF050C0A7019601E4
