:100000000C94BE1D0C94FE1D0C94FE1D0C94FE1D44
:100010000C94FE1D0C94FE1D0C94FE1D0C94FE1DF4
:100020000C94FE1D0C94FE1D0C94FE1D0C94FE1DE4
:100030000C94FE1D0C94FE1D0C94FE1D0C94FE1DD4
:100040000C94FE1D0C94959D0C94FE1D0C94FE1DAD
:100050000C94FE1D0C941C9C0C94FE1D0C9476F0CC
:100060000C94FE1D0C94513D0C94473D0C94FE1DC8
:100070000C94FE1D0C94FE1D0C94FE1D0C94FE1D94
:100080000C94FE1D0C94FE1D0C94FE1D0C94FE1D84
:100090000C94FE1D0C94FE1D0C94FE1D0C94FE1D74
:1000A0000C94FE1D0C94FE1D0C94FE1D0C94FE1D64
:1000B0000C94FE1D0C94FE1D0C94FE1D0C94FE1D54
:1000C0000C94FE1D0C94FE1D0C94FE1D0C94A73187
:1000D0000C9471310C94FE1D0C94FE1D0C94FE1DAD
:1000E0000C94FE1D084AD73B3BCE016E84BCBFFD7D
:1000F000C12F3D6C74319ABD56833DDA3D00C77FF8
:1001000011BED9E4BB4C3E916BAAAABE0000008090
:100110003F05A84CCDB2D44EB93836A9020C50B91F
:10012000918688083CA6AAAA2ABE000000803F004B
:100130000D948B080D9423020C942A300C945832A1
:100140000C946A320C94C13D0D942F040D948F04CD
:100150000D94E2080C943F320D9497080C94DF89BB
:100160000C946DDD0C9482DD0C946F8A0C941F3E10
:100170000D9424140C9448C00C94E0400D94C22FAC
:100180000C94ADDD0D9462020D941B140C94F53D9E
:100190000C94B82F0C949ADD0C94CA880C94F240FD
:1001A0000C946DC00C94FD3D0C94F5400C944E30B5
:1001B0000D944A050C94143E0C9496DD0D9458044D
:1001C0000C947BDD0C944B320C942C300C94283026
:1001D0000C9473DD0D942A050D946B050D94C103E9
:1001E0000C949C8A0C940C3E0C94E22F0C9477DDBA
:1001F0000C94E23D0C94C42F0C94EE460D942714FD
:100200000D9415140C946C410C9426320D94180521
:100210000C9480890C94E93D0C9468410C94FA8408
:100220000C94A0DD0D9468050D94C2040C94533217
:100230000C945F890C94A8DD0C9492DD0C943832F8
:100240000D9430140C94DDBE0D9418140C94678B2F
:100250000C94923D0D9421140C945D320C94F93D54
:100260000C94ED3D0C9462320D944C050C94E340DB
:100270000C94F8400C9420470D943C050C940830E5
:100280000C94B0460D94D6080D94CA080C94063010
:100290000C9417320C94FEBF0C94023E0D940D1476
:1002A0000C94B4BF0D942D140C9423C00C944732BD
:1002B0000C94E7880D94A42F0D9433050C94AEDDB7
:1002C0000D946C040D94F1080C944F320C94FB4087
:1002D0000C94EF400C9488DD0D94BB080C947D3297
:1002E0000C94273E0D94F5020D940F050C9469BFF4
:1002F0000D9465050C947FDD0C94A4DD0C9444BF33
:100300000C94B2DD0C9477840C94E42F0D942A1491
:100310000C94F13D0C9443320D9421050C94E9406A
:100320000C94073E0C94E6400C9404300C948CDD45
:100330000D9457050D9446050D9404050C94DD406D
:100340000C94EC400C941FBF0C94E8310D94A30462
:100350000C94D9BF0D9412140C94C4890C945D8A2A
:100360000D9497030D9462050C94D03D0D941303E6
:100370000C9450300D941E140C944C300C94753227
:100380000C94D9460C94F9840C94AA400C943B41EB
:100390004E414E494E495459494E46CDCCCC3D0A6A
:1003A000D7233C17B7D13877CC2B329595E6241F4D
:1003B000B14F0A000020410000C84200401C462006
:1003C000BCBE4CCA1B0E5AAEC59D7400407A10F3D9
:1003D0005A00A0724E18090010A5D4E80000E87673
:1003E00048170000E40B54020000CA9A3B000000CA
:1003F000E1F505000080969800000040420F0000E3
:1004000000A08601000000102700000000E80300A3
:100410000000006400000000000A0000000000016D
:1004200000000000002C76D888DC674F0823DFC16D
:10043000DFAE59E1B1B796E5E3E453C63AE6519928
:100440007696E8E6C28426EB898C9B62ED407C6F51
:10045000FCEFBC9C9F40F2BAA56FA5F490055A2A08
:10046000F75C936B6CF9676DC11BFCE0E40D47FE14
:10047000F520E6B500D0ED902E0300943577050009
:1004800080841E080000204E0A000000C80C333390
:1004900033330F986E12831141EF8D2114893BE69F
:1004A0005516CFFEE6DB18D1844B381BF77C1D9028
:1004B0001DA4BBE424203284725E228100C9F12491
:1004C000ECA1E53D2744455441494C00434F4D4D77
:1004D000554E49434154494F4E0044525952554E8E
:1004E000004552524F525300494E464F0045434833
:1004F0004F0053544F505045442E20005072696EA7
:100500007465722073746F70706564206475652003
:10051000746F206572726F72732E20466978207432
:100520006865206572726F7220616E6420757365F4
:10053000204D39393920746F20726573746172747B
:100540002E202854656D706572617475726520691E
:10055000732072657365742E20536574206974204E
:1005600061667465722072657374617274696E6716
:10057000290A004E6F20436865636B73756D2077A1
:10058000697468206C696E65206E756D6265722C89
:10059000204C617374204C696E653A20004E6F20C8
:1005A000436865636B73756D2077697468206C6947
:1005B0006E65206E756D6265722C204C61737420BF
:1005C0004C696E653A2000636865636B73756D20D6
:1005D0006D69736D617463682C204C617374204C79
:1005E000696E653A20004C696E65204E756D6265D6
:1005F00072206973206E6F74204C617374204C6993
:100600006E65204E756D6265722B312C204C6173C6
:1006100074204C696E653A20004D313130005365CD
:100620007269616C20737461747573206D69736D88
:10063000617463680A0053442072656164206572C6
:10064000726F720A00746F6F206D75636820696E37
:100650006163746976652074696D65202D2063750A
:100660007272656E7420636F6D6D616E643A200006
:100670002121204B494C4C206361757365642062D5
:10068000792000486F74656E642049646C6520545D
:10069000696D656F757400486F74656E6420496498
:1006A0006C652054696D656F75740A0062757379A5
:1006B0003A2070617573656420666F7220696E7090
:1006C00075740A00627573793A2070617573656498
:1006D00020666F7220757365720A00627573793ACD
:1006E0002070726F63657373696E670A004D3130F5
:1006F000303053003D3D6F6E46696C616D656E74C0
:1007000052756E6F75743D3D007061757365004D77
:10071000363030002066696C616D656E745F72758D
:100720006E6F7574200066696C616D656E745F72C2
:10073000756E6F757420540046696C616D656E74DA
:1007400052756E6F757420540025533A202553005E
:100750002A2A2A6B696C6C2A2A2A00706F776572C4
:100760006F6666004B494C4C45442E200050726920
:100770006E7465722068616C7465642E206B696CA0
:100780006C28292063616C6C6564210A00656368CC
:100790006F3A004572726F723A0020286469736183
:1007A000626C6564290A0020280041424C204164A3
:1007B0006A7573746D656E74205A005A20466164C0
:1007C000653A20002028656E61626C6564290A0024
:1007D00041626F76650053616D65205A2061730038
:1007E00042656C6F77004175746F20426564204CE0
:1007F0006576656C696E673A2042494C494E4541C1
:100800005200204E6F7A7A6C65290A00202620005B
:100810002D43656E746572002D46726F6E74002DE7
:100820004261636B002028416C69676E65642057E4
:100830006974680020284D6964646C650020284C48
:1008400065667400202852696768740050726F6290
:1008500065204F666673657420580050726F62653C
:100860003A204649585F4D4F554E5445445F5052CB
:100870004F42450A004D616368696E652054797086
:10088000653A2043617274657369616E0A0042695A
:100890006C696E656172204C6576656C696E672067
:1008A000477269643A0A003E3E3E003C3C3C00739D
:1008B00065745F6265645F6C6576656C696E675FC1
:1008C000656E61626C65640072657365745F626514
:1008D000645F6C6576656C0A00203A204C6576652D
:1008E0006C696E67204F4E0A002020637572726536
:1008F0006E745F706F736974696F6E3D00203A208B
:100900004C6576656C696E67204F46460A0020206C
:1009100063757272656E745F706F736974696F6E00
:100920003D002F2F616374696F6E3A006E6F7469BA
:100930006669636174696F6E2000656E6400736838
:100940006F7700627574746F6E00486F74656E64C3
:1009500020746F6F20636F6C640A0053656E6420AF
:100960004D31303820746F20726573756D650A00E3
:10097000496E736572742066696C616D656E742072
:10098000616E642073656E64204D3130380A005208
:10099000656865617420446F6E65005265686561C5
:1009A00074696E672E2E2E0052656865617400486A
:1009B00065617465722054696D656F757400536567
:1009C0006E64204D31303820746F2068656174206A
:1009D0006E6F7A7A6C650A004E6F7A7A6C65205079
:1009E00061726B6564007061757365640050617558
:1009F00073650057616974696E6720666F7220685D
:100A000065617475702E0A004C656176696E6720A9
:100A1000473236003F5370656369666965642058E4
:100A20002C5920636F6F7264696E617465206F75F5
:100A300074206F6620626F756E64732E0A003F2803
:100A4000522965706561742076616C7565206E6FE2
:100A50007420706C61757369626C653B206D757391
:100A600074206265206174206C6561737420312E7E
:100A70000A003F2852296570656174206D75737492
:100A800020626520737065636966696564207768B4
:100A9000656E206E6F74207573696E6720616E20BD
:100AA0004C43442E0A003F53706563696669656470
:100AB000206E6F7A7A6C652074656D7065726174F2
:100AC000757265206E6F7420706C61757369626CED
:100AD000652E0A003F537065636966696564206628
:100AE000696C616D656E742073697A65206E6F74D0
:100AF00020706C61757369626C652E0A003F5370DB
:100B000065636966696564207072696D65206C65EE
:100B10006E677468206E6F7420706C6175736962A3
:100B20006C652E0A003F5072696D65206C656E67BA
:100B30007468206D757374206265207370656369D5
:100B400066696564207768656E206E6F74207573C2
:100B5000696E6720616E204C43442E0A003F53703B
:100B600065636966696564206E6F7A7A6C65207367
:100B7000697A65206E6F7420706C61757369626C40
:100B8000652E0A003F52657472616374696F6E204E
:100B90004D756C7469706C696572206D7573742025
:100BA0006265207370656369666965642E0A003F3B
:100BB0005370656369666965642052657472616328
:100BC00074696F6E204D756C7469706C6965722004
:100BD0006E6F7420706C61757369626C652E0A00AB
:100BE0003F537065636966696564206C61796572FD
:100BF00020686569676874206E6F7420706C617519
:100C00007369626C652E0A0043292E0A003F5370F7
:100C100065636966696564206265642074656D70EA
:100C200065726174757265206E6F7420706C617589
:100C30007369626C65202834302D0047323620738A
:100C400074617274696E672E2E2E0A004F46460A32
:100C500000466164652048656967687420004265E4
:100C600064204C6576656C696E6720004661696C2E
:100C7000656420746F20656E61626C6520426564F6
:100C8000204C6576656C696E670A00496E76616C0A
:100C90006964206D6573682E0A00203A203E20703A
:100CA000726F62696E6720636F6D706C6574650A40
:100CB00000202063757272656E745F706F73697463
:100CC000696F6E3D0050726F62696E6720506F6988
:100CD0006E740025532025692F2569002E0A002FE8
:100CE0000050726F62696E67206D65736820706F67
:100CF000696E742000202844525952554E290047ED
:100D00003239204175746F20426564204C657665E8
:100D10006C696E67003F20284C2C522C462C4229CF
:100D2000206F7574206F6620626F756E64732E0A73
:100D300000204200204600205200473239204C005B
:100D40003F2856296572626F7365206C6576656C05
:100D500020696D706C61757369626C652028302D37
:100D600034292E0A00426164205A2076616C756530
:100D70000A004E6F2062696C696E6561722067724D
:100D800069640A004732384C30003E204175746F68
:100D90002D6C6576656C206E6F74206E656564657C
:100DA000642C20736B69700A00473239005A205056
:100DB000726F62652050617374204265640A005A44
:100DC0002050726F62652050617374204265640028
:100DD000203A20686F6D655F7A5F736166656C7934
:100DE0000A00202064657374696E6174696F6E3DDA
:100DF00000686F6D655F7A5F736166656C7900523C
:100E000061697365205A20286265666F7265206883
:100E10006F6D696E672920627920003E20686F6DD2
:100E2000696E67206E6F74206E65656465642C2042
:100E3000736B69700A004732380020440020204D4F
:100E4000323030205300202844697361626C65643D
:100E5000293A0046696C616D656E7420736574741F
:100E6000696E67730020204D3230312058004D618B
:100E70007820416363656C65726174696F6E2028C8
:100E8000756E6974732F7332290020204D32303310
:100E90002058004D617820666565647261746573E1
:100EA0002028756E6974732F73290020520020204A
:100EB0004D323034205000416363656C657261745B
:100EC000696F6E2028756E6974732F73322920281C
:100ED000503C7072696E742D616363656C3E205284
:100EE0003C726574726163742D616363656C3E204E
:100EF000543C74726176656C2D616363656C3E2948
:100F00000020580020540020530020204D3230355E
:100F1000204200416476616E6365642028423C6D26
:100F2000696E5F7365676D656E745F74696D655F2B
:100F300075733E20533C6D696E5F666565647261D2
:100F400074653E20543C6D696E5F74726176656CA9
:100F50005F66656564726174653E20583C6D6178BA
:100F60005F6A65726B3E20593C6D61785F6A65729D
:100F70006B3E205A3C6D61785F6A65726B3E20451E
:100F80003C6D61785F6A65726B3E290020440020E9
:100F9000490020204D333031205000486F74656E79
:100FA00064205049440020440020490020204D3353
:100FB00030342050004265642050494400203B00FA
:100FC00020550020204D363033204C0046696C619E
:100FD0006D656E74206C6F61642F756E6C6F6164EB
:100FE000004D323453256C6454256C64004739320B
:100FF0002E394525730047314625640047315A256F
:1010000073463630300047315825735925734633BF
:10101000303030004D313036502569532569004D50
:10102000313039532569004D323030442573004743
:1010300039322E395A2573004D3432305325635AD4
:10104000257300473238523058590047315A2573BA
:1010500046363030004739322E395A257300473929
:10106000322E394530004D313039532569004D312C
:101070003930532569004D343230205330205A30F6
:10108000003D3D4F6E506F7765724C6F73735265C4
:1010900073756D653D3D00203B200020204D3431AF
:1010A00033205300506F7765722D6C6F737320720D
:1010B00065636F76657279004F4646004F4E00209B
:1010C0003B20486F73742068616E646C696E6720A2
:1010D00000203B204D6F646520006D6D00203B209B
:1010E00044697374616E6365200046696C616D6567
:1010F0006E742072756E6F757420003B200020495D
:101100006E76616C696420657874727564657220AE
:101110000047322F47332062616420706172616D35
:1011200065746572730A00536C6565702E2E2E000F
:10113000205A3A200020593A200042656420583A4B
:1011400020004D65736820706F696E74206F757430
:10115000206F662072616E67650A00626567696E5E
:10116000004D302053746F70004D312053746F70F8
:1011700000436C69636B20746F20526573756D65F5
:101180002E2E2E004E6F204D6F76652E00456E641C
:101190002066696C65206C6973740A004265676932
:1011A0006E2066696C65206C6973740A004E6F204E
:1011B0006D656469610A00286E6F2066696C652937
:1011C0000043757272656E742066696C653A200022
:1011D0004E6F74205344207072696E74696E670A92
:1011E000005344207072696E74696E67206279746E
:1011F0006520002569730025696D20256973002528
:1012000069682025696D202569730025696420259A
:1012100069682025696D2025697300256979202575
:101220006964202569682025696D2025697300504F
:1012300072696E742074696D653A20003F43616E77
:101240006E6F7420777269746520746F20494E50F8
:1012500055540A00496E76616C69642050696E20AD
:101260004D6F64650A006F6B006F666600ED04E801
:1012700004E104DA04CC04C50444454255473A006D
:101280004D313133205300544D33442031305350CD
:10129000726F5632204F46462E004649524D5741F6
:1012A00052455F4E414D453A4D61726C696E204426
:1012B00057372E342E3720544D33442053534D444A
:1012C0004155202841756720313020323032352099
:1012D00031323A33383A34372920534F5552434547
:1012E0005F434F44455F55524C3A68747470733A8B
:1012F0002F2F6769746875622E636F6D2F496E7347
:10130000616E6974794175746F6D6174696F6E2F68
:101310004D61726C696E2F747265652F43726561E1
:101320006C6974794477696E5F322E302050524F69
:10133000544F434F4C5F56455253494F4E3A312E0E
:1013400030204D414348494E455F545950453A5429
:101350004D33442031305350726F5632204558542B
:1013600052554445525F434F554E543A31205555DE
:1013700049443A63656465326132662D34316132C5
:101380002D343734382D396231322D63353563369B
:1013900032663336376666002F2F005741524E496A
:1013A0004E4721204C6F77205A204A65726B206D82
:1013B0006179206C65616420746F20756E77616E51
:1013C000746564207061757365732E0A0020204D6A
:1013D00061783A2000200020204D696E3A200020DC
:1013E0003B200020204D323131205300536F667472
:1013F00020656E6473746F707300250A0046523A5C
:101400000020466C6F773A200050726F74656374E9
:1014100065642050696E0A00363726033C3D380E5D
:101420002E303E131A1C180A43090844000150725A
:101430006F6265204F6666736574205A0050726F44
:101440006265204F6666736574205A006469730094
:10145000656E0043290A0061626C656420286D692D
:101460006E2074656D702000436F6C642065787425
:101470007275646573206172652000504944204193
:1014800075746F74756E6500206661696C656421A2
:1014900020426164206865617465722069640A0095
:1014A000504944204175746F74756E65004D343237
:1014B0003120696E636F727265637420706172614E
:1014C0006D657465722075736167650A004D65739B
:1014D0006820706F696E74206F7574206F6620725B
:1014E000616E67650A00203B204C6576656C696E0D
:1014F00067200020204D3432302053004175746F36
:1015000020426564204C6576656C696E670020201A
:101510004D393030204B004C696E6561722041645A
:1015200076616E63650020500020440020204D3518
:10153000393120530046696C616D656E7420727597
:101540006E6F75742073656E736F7200204A002091
:1015500020473239205720490020204D313439208E
:1015600043203B20556E69747320696E2043656C7F
:10157000736975730A0054656D7065726174757274
:101580006520556E697473002020473231203B007E
:101590004C696E65617220556E69747300454550E3
:1015A000524F4D204F4B0A00290A0020746F200033
:1015B0003F5A206F7574206F662072616E676520D8
:1015C0002800290A0020746F20003F59206F75748D
:1015D000206F662072616E676520282D00290A0041
:1015E00020746F20003F58206F7574206F66207242
:1015F000616E676520282D002E0A002028302D31CD
:101600003029002076616C7565206F7574206F66D7
:101610002072616E676500416476616E6365204B80
:101620003D004D383400446F6E65207072696E74F1
:10163000696E672066696C650A004D3737004D3367
:101640003100290A002E2E2E2800540020204D3271
:101650003036205800486F6D65206F66667365747C
:10166000004F666673657473204170706C696564C1
:10167000004572723A20546F6F20666172210054E7
:101680006F6F206661722066726F6D20726566658D
:1016900072656E636520706F696E740A0020286D34
:1016A0006D2900203B0020204D3835312058005A4C
:1016B0002D50726F6265204F6666736574005265C7
:1016C00073756D696E6720534400436F6F6C696E6C
:1016D000672E2E2E0045312025530042656420439D
:1016E0006F6F6C696E672E2E2E0042656420486510
:1016F0006174696E672E2E2E003D3D4477696E2021
:10170000496E697420436F6D706C6574653D3D0072
:1017100068616E646C652077616974776179203DDA
:101720003D0020202A2A2A2A2A2A2A5254535F4876
:10173000616E646C65446174612A2A2A2A2A2A2A05
:101740002A2000202D206434200064333A20002019
:101750002D206432200064313A2000202D206C6559
:101760006E200056502072656365697665643A2084
:10177000002A2A2A4E6F7A7A6C6554656D7053740C
:10178000617475735B325D203D003D3D4865617459
:10179000696E6720446F6E65204368616E676520DF
:1017A00046696C616D656E743D3D00202073746107
:1017B000727470726F677265737320004D32320AF3
:1017C0004D3231003D3D7761697477617920353D57
:1017D0003D003D3D7761697477617920343D3D007E
:1017E0003D3D7761697477617920333D3D003D3D32
:1017F0007761697477617920313D3D00436F6E6692
:1018000069726D20436F6E74696E75650050617505
:10181000736553746174757300524553554D45207B
:101820004F5054494F4E533A0048656174696E6792
:101830002E2E2E000000436C69636B20746F2068AD
:10184000656174000000526573756D696E672E2EB8
:101850002E00000050757267696E672E2E2E0000F4
:1018600000496E7365727420616E6420436C696315
:101870006B000000436C69636B20746F20636F6EB4
:1018800074696E7565000000456A656374696E670A
:101890002E2E2E000000506C656173652077616903
:1018A000742E2E2E0000005061726B696E672E2E12
:1018B0002E0000002A2A2A496E6974696E67206327
:1018C000617264206973204F4B2A2A2A003D3D6FC4
:1018D0006E5072696E7454696D657253746F707076
:1018E00065643D3D003D3D6F6E55736572436F6E9F
:1018F0006669726D52657175697265643D3D00502F
:1019000061757365204D6F646520537461747573E0
:10191000004C6F6164696E672E2E2E0000003D3D05
:101920006F6E466163746F727952657365743D3D85
:1019300000270A0A0000272027002027002D006327
:10194000616E63656C005072696E742041626F72E3
:101950007465640055492041626F72746564007259
:101960006573756D65004D3234002A2A2A43506C28
:10197000617920546F6E652A2A2A003D3D6F6E50B2
:1019800072696E7454696D65725061757365643DFA
:101990003D003D3D6F6E5072696E7454696D6572A5
:1019A000537461727465643D3D00486F6D696E6784
:1019B000204661696C65640050524553454E5400A1
:1019C0004F5554006F70656E005452494747455259
:1019D0004544003A20004D4F54494F4E203A2000D4
:1019E0004F46460A003A200066696C616D656E7468
:1019F000007A5F6D696E00795F6D696E00785F6D6A
:101A0000696E005265706F7274696E6720656E64EE
:101A100073746F70207374617475730A00203A20B8
:101A200073796E635F706C616E5F706F73697469F8
:101A30006F6E0A00202063757272656E745F706F3E
:101A4000736974696F6E3D003E2000646F5F626C65
:101A50006F636B696E675F6D6F76655F746F002093
:101A6000746F6F206C6F6E67206578747275736920
:101A70006F6E2070726576656E7465640A0020630F
:101A80006F6C6420657874727573696F6E20707204
:101A90006576656E7465640A00486F6D6520257310
:101AA000204669727374005761726E696E673A20DE
:101AB000486F6D696E672042756D70204469766964
:101AC000736F72203C20310A00020204290A003C94
:101AD0003C3C207365745F617869735F69735F6113
:101AE000745F686F6D652800203A200A002020632B
:101AF000757272656E745F706F736974696F6E3D35
:101B0000005D203D20003E20686F6D655F6F66665A
:101B10007365745B002A2A2A205A20484F4D454499
:101B200020574954482050524F424520285A5F4D73
:101B3000494E5F50524F42455F555345535F5A5F80
:101B40004D494E5F454E4453544F505F50494E29C6
:101B5000202A2A2A0A3E2070726F62652E6F6666FE
:101B60007365742E7A203D20000000000000000004
:101B70000000000000290A003E3E3E207365745FAD
:101B8000617869735F69735F61745F686F6D652801
:101B900000290A003C3C3C20686F6D6561786973E0
:101BA0002800203A203E2041465445522073657457
:101BB0005F617869735F69735F61745F686F6D659A
:101BC0000A00202063757272656E745F706F7369AE
:101BD00074696F6E3D006D6D0A0052652D62756D02
:101BE000703A20006D6D0A004D6F76652041776177
:101BF000793A20006D6D0A00486F6D65204661736B
:101C0000743A200000809D4300009B430000C843BD
:101C1000000000410000004100000040290A003E91
:101C20003E3E20686F6D6561786973280020706F93
:101C3000736974696F6E5F7368696674203D200014
:101C400020686F6D655F6F6666736574203D200068
:101C500041786973200000000001000000010000CD
:101C60008000555555000000400033333300AAAAC8
:101C70002A004992240000002000C7711C00999995
:101C80001900D1451700555515003BB113002449E3
:101C9000120011111100000010000F0F0F00E338A7
:101CA0000E0043790D00CCCC0C00C3300C00E8A230
:101CB0000B0064210B00AAAA0A00703D0A009DD8FF
:101CC0000900427B090092240900DCD308008888BF
:101CD00008001042080000000800F0C107008787D4
:101CE000070075500700711C07003EEB0600A1BC01
:101CF00006006990060066660600703E06006118E0
:101D0000060017F4050074D105005BB00500B29021
:101D10000500627205005555050078390500B81EAA
:101D20000500050505004EEC040087D40400A1BDA4
:101D3000040090A7040049920400C17D0400EE69EC
:101D40000400C7560400444404005C320400082127
:101D5000040041100400000004003FF00300F8E01C
:101D6000030026D20300C3C30300CCB503003AA886
:101D700003000A9B0300388E0300C08103009F7597
:101D80000300D0690300505E03001D530300344874
:101D90000300913D03003333030016290300381F6D
:101DA000030097150300300C0300030303000BFA34
:101DB000020049F10200BAE802005CE002002DD8FE
:101DC00002002DD0020059C80200B0C0020031B993
:101DD0000200DAB10200AAAA0200A0A30200BC9C81
:101DE0000200FA9502005C8F0200DF880200828206
:101DF0000200457C02002776020027700200436A39
:101E000002007C640200D05E02003F590200C85309
:101E10000200FFFDFCFAF8F6F4F2F0EEECEAE9E776
:101E2000E5E3E1E0DEDCDAD9D7D5D4D2D0CFCDCB33
:101E3000CAC8C7C5C3C2C0BFBDBCBAB9B7B6B4B3C0
:101E4000B2B0AFADACAAA9A8A6A5A4A2A1A09E9D20
:101E50009C9A99989795949392908F8E8D8B8A895E
:101E600088878684838281807F7E7D7B7A7978777C
:101E7000767574737271706F6E6D6C6B6A6968677A
:101E8000666564636261605F5E5D5C5B5A59585869
:101E90005756555453525150504F4E4D4C4B4A4A41
:101EA0004948474646454443424241403F3E3E3D05
:101EB0003C3B3B3A393838373635353433323231BA
:101EC00030302F2E2E2D2C2B2B2A29292827272660
:101ED000252524232322212120201F1E1E1D1C1CFA
:101EE0001B1B1A1919181817161615151413131287
:101EF000121111100F0F0E0E0D0D0C0C0B0A0A090A
:101F00000908080707060605050404030302020181
:101F10000000290A0050726F62653A3A646F5F7A76
:101F20005F726169736528006465706C6F793A202F
:101F300000203A2050726F62653A3A7365745F64AC
:101F400065706C6F7965640A002020637572726534
:101F50006E745F706F736974696F6E3D00206D61A0
:101F6000783A00206D696E3A00417869732000006C
:101F7000809D4300009B430000C843000000000018
:101F800000000000000000536176696E672044572E
:101F9000494E204C43442073657474696E67206613
:101FA000726F6D20454550524F4D0A003D3D6F6E9A
:101FB00053657474696E677353746F7265643D3DE5
:101FC0000053657474696E67732053746F7265642F
:101FD00000290A002062797465733B2063726320D4
:101FE0000053657474696E67732053746F7265640F
:101FF0002028000A20696E6974207A70726F626509
:102000005F7A6F6666736574203D20003D3D6F6E9C
:10201000436F6E66696775726174696F6E53746F32
:102020007265526561643D3D00454550524F4D20FB
:10203000496E697469616C697A65640A0048617205
:1020400064636F6465642044656661756C742053D5
:10205000657474696E6773204C6F616465640045D4
:102060004550524F4D206461746173697A652065F3
:1020700072726F722E0A0053657474696E6720560F
:102080006F6C756D65204F6E203A20005365747437
:10209000696E67205374616E646279204F6E203AD6
:1020A000200053657474696E6720566F6C756D659A
:1020B000203A200053657474696E6720526F746112
:1020C00074696F6E203A200053657474696E6720DE
:1020D0005374616E6462792054696D65203A200002
:1020E00053657474696E67205374616E64627920FD
:1020F0003A200053657474696E672042726967689C
:10210000746E657373203A20004C6F6164696E676A
:10211000204457494E204C43442073657474696EC3
:10212000672066726F6D20454550524F4D0A00443E
:10213000697363617264696E67204457494E204C2D
:1021400043442073657474696E672066726F6D20F6
:10215000454550524F4D202D2073657474696E674C
:10216000732076657273696F6E20696E636F727229
:102170006563740A0044697363617264696E672001
:102180004457494E204C43442073657474696E670C
:102190002066726F6D20454550524F4D202D2073A3
:1021A000697A6520696E636F72726563740A0029CB
:1021B0000A002062797465733B20637263200020FB
:1021C00073746F7265642073657474696E677320CD
:1021D00072657472696576656420280020286361E1
:1021E0006C63756C6174656429210A0020213D20AF
:1021F00000454550524F4D20435243206D69736D49
:1022000061746368202D202873746F7265642920BF
:10221000002053697A653A2000496E6465783A2057
:10222000000000FA430000FA430000204100008C47
:10223000420000A0420000A0420000C84300000C81
:1022400043EE020000EE020000640000003C0000CB
:1022500000454550524F4D2056657273696F6E2090
:102260004572726F7200204D61726C696E3D563816
:1022700037290A00454550524F4D207665727369E3
:102280006F6E206D69736D617463682028454550D9
:10229000524F4D3D0024F404D9201BC40C5C0E9811
:1022A00004C4095F0265077101F405F900FB04B37A
:1022B0000048048700C10369005803550003034523
:1022C00000BE023A008402310053022A002902258E
:1022D0000004022000E4011C00C8011900AF01172E
:1022E00000980114008401130071011000610110B5
:1022F0000051010E0043010D0036010B002B010BB4
:102300000020010B00150109000C01090003010860
:1023100000FB000800F3000800EB000700E40006E3
:1023200000DE000600D8000600D2000600CC000542
:1023300000C7000500C2000500BD000400B900048C
:1023400000B5000400B1000400AD000400A90004C1
:1023500000A5000300A20003009F0004009B0003EF
:102360000098000300950002009300030090000312
:10237000008D0002008B000300880002008600022E
:102380000084000300810002007F0002007D000243
:10239000007B000200790002007700010076000255
:1023A000007400020072000100710002006F000260
:1023B000006D0001006C0002006A0001006900026B
:1023C0000067000100660001006500010064000272
:1023D000006200010061000100600001005F000276
:1023E000005D0001005C0001005B0001005A00017B
:1023F000005900010058000100570001005600017B
:10240000005500010054000100530000005300017A
:10241000005200010051000100500001004F000176
:10242000004E0000004E0001004D0001004C000174
:10243000004B0000004B0001004A00010049000170
:10244000004800000048000100470001004600006D
:102450000046000100450000004500010044000165
:102460000043000000430001004200000042000160
:10247000004100000041000100400001003F000059
:10248000003F0001003E0000003E0001003D000052
:10249000003D0001003C0000003C0000003C000149
:1024A000003B0000003B0001003A0000003A000140
:1024B0000039000000390001003800000038000039
:1024C000003800010037000000370001003600002E
:1024D0000036000000360001003500000035000025
:1024E0000035000100340000003400000034000119
:1024F0000033000000330000003300010032000010
:102500000032000000320001003100000031000004
:1025100000310001003000000030000000300001F8
:10252000002F0000002F0000002F0000002F0001EE
:10253000002E0000002E0000002E0001002D0000E3
:10254000002D0000002D0000002D0001002C0000D7
:10255000002C0000002C0000002C0001002B0000CB
:10256000002B0000002B0000002B0001002A0000BF
:10257000002A0000002A0000002A000100290000B3
:1025800000290000002900000029000000290001A6
:10259000002800000028000000280000002800009B
:1025A000002800010027000000270000002700008D
:1025B0000027000000270001002600000026000080
:1025C0000026000000260000002600010025000073
:1025D0000025000000250000002500000025000067
:1025E0000025000100240000002400000024000059
:1025F000002400000024000100230000002300004C
:10260000002300000023000000230000002300003E
:102610000023000100220000002200000022000030
:102620000022000000220000002200010021000022
:102630000021000000210000002100000021000016
:102640000021000000210001002000000020000007
:1026500000200000002000000020000000200000FA
:102660000020000000200001001F0000001F0000EB
:10267000001F0000001F0000001F0000001F0000DE
:10268000001F0001001E0000001E0000001E0000D0
:10269000001E00000024F4D43050C38E20C2A2409B
:1026A00017828B7011127A910D816CD90AA861E1A1
:1026B00008C7586607615143061E4B5D05C145A713
:1026C000041A411104093D9803713931034036DB86
:1026D0000265339102D4305402802E1D02632CEE29
:1026E00001752AC501B028A001102781018F25643A
:1026F000012B244B01E0223401AC211F018D200D60
:1027000001801FFC00841EED00971DDF00B81CD265
:1027100000E61BC600201BBC00641AB200B219A858
:10272000000A19A0006A189900D117910040178B70
:1027300000B516840031167E00B31579003A157382
:1027400000C7146F0058146A00EE13660088136304
:102750000025135E00C7125B006C1257001512545F
:1027600000C111510070114F0021114B00D61049CA
:10277000008D1047004610440002104200C00F4078
:1027800000800F3E00420F3C00060F3B00CB0E388E
:1027900000930E37005C0E3500270E3400F30D3227
:1027A00000C10D3100900D3000600D2E00320D2D56
:1027B00000050D2C00D90C2B00AE0C2900850C292E
:1027C000005C0C2700350C27000E0C2600E80B24BB
:1027D00000C40B2400A00B23007D0B23005A0B2107
:1027E00000390B2100180B2000F80A1F00D90A1E1F
:1027F00000BB0A1E009D0A1D00800A1D00630A1C02
:1028000000470A1B002C0A1B00110A1A00F7091ABC
:1028100000DD091900C4091900AB09190092091754
:10282000007B091800630917004C091600360916C9
:1028300000200916000A091500F5081500E0081423
:1028400000CC081400B8081400A408140090081361
:10285000007D0812006B0813005808120046081289
:10286000003408110023081100120811000108119A
:1028700000F0071000E0071000D0071000C007109C
:1028800000B0070F00A107100091070E0083070F8B
:102890000074070F0065070E0057070E0049070E6A
:1028A000003B070D002E070E0020070D0013070D3B
:1028B0000006070D00F9060C00ED060D00E0060C01
:1028C00000D4060C00C8060C00BC060C00B0060CB8
:1028D00000A4060B0099060C008D060B0082060B67
:1028E0000077060B006C060B0061060A0057060B0A
:1028F000004C060A0042060A0038060A002E060AA4
:102900000024060A001A060A001006090007060A33
:1029100000FD050900F4050900EB050900E20509C1
:1029200000D9050900D0050900C7050900BE050941
:1029300000B5050800AD050800A50509009C0508BF
:1029400000940508008C050800840508007C050833
:1029500000740508006C050700650508005D0507A3
:1029600000560508004E050700470507004005080A
:102970000038050700310507002A05070023050771
:10298000001C050600160507000F050700080506D0
:102990000002050700FB040600F5040700EE04062C
:1029A00000E8040600E2040700DB040600D5040684
:1029B00000CF040600C9040600C3040600BD0406D7
:1029C00000B7040600B1040500AC040600A6040626
:1029D00000A00405009B0406009504050090040671
:1029E000008A04050085040500800406007A0405B9
:1029F0000075040500700405006B040500660405FD
:102A000000610405005C040500570405005204053C
:102A1000004D04050048040500430405003E04047D
:102A2000003A04050035040500300404002C0405B8
:102A30000027040400230405001E0404001A0404F3
:102A40000016040500110404000D04040009040527
:102A5000000404040000040400FC030400F8030460
:102A600000F4030400F0030400EC030400E8030492
:102A700000E4030400E0030400DC030400D80304C2
:102A800000D4030400D0030400CC030400C80303F3
:102A900000C503030020436F756E7420583A00236D
:102AA000646566696E652044454641554C545F0037
:102AB00000626564004B6420004B6920004B70206D
:102AC000005049442074756E696E6720646F6E65AE
:102AD000002066696E6973686564212050757420F2
:102AE000746865206C617374204B702C204B6920D6
:102AF000616E64204B6420636F6E7374616E7473D7
:102B00002066726F6D2062656C6F7720696E746FDE
:102B100020436F6E66696775726174696F6E2E68A7
:102B20000A00504944204175746F74756E65002029
:102B30006661696C6564212074696D656F75740ADE
:102B400000504944204175746F74756E650041757D
:102B5000746F74756E65206661696C6564212054BC
:102B6000696D656F75742E00206661696C656421FE
:102B70002054656D706572617475726520746F6F35
:102B800020686967680A00504944204175746F7471
:102B9000756E6500504944204379636C6573002568
:102BA000532025692F256900204B643A2000204BD3
:102BB000693A2000204B703A200020436C61737307
:102BC000696320504944200A00204E6F206F7665CB
:102BD0007273686F6F740A002054753A2000204B9E
:102BE000753A2000206D61783A2000206D696E3AB8
:102BF000200020643A200020626961733A20004876
:102C0000656174696E672E2E2E0020737461727474
:102C10000A00504944204175746F74756E65004117
:102C200075746F74756E65206661696C65642120CA
:102C300054656D706572617475726520746F6F2074
:102C4000686967682E00206661696C65642120549C
:102C5000656D706572617475726520746F6F206840
:102C60006967680A00504944204175746F74756E35
:102C70006500426564004531004500626564002CD2
:102C80002073797374656D2073746F70706564213F
:102C9000204865617465725F49443A20004572724C
:102CA0003A204D415854454D50004D415854454DE2
:102CB0005020747269676765726564004865617465
:102CC000696E67204661696C656400486561746976
:102CD0006E67206661696C6564004D353234004D65
:102CE0003131322053687574646F776E001000C9FB
:102CF0000210012C014001220170011801B0010EE7
:102D000001F00104015002FA00B002F0003003E6C5
:102D100000D003DC009004D2007005C800A006BEFD
:102D2000000008B400B009AA00D00BA000600E9605
:102D30000060118C000015820020197800C01D6E03
:102D400000A0226400B0275A00902C5000003146A9
:102D500000E0343C0010383200903A2800603C1EFD
:102D600000A03D1400803E0A00203F000045727222
:102D70003A204D494E54454D50004D494E54454D15
:102D800050207472696767657265640054484552E3
:102D90004D414C2052554E4157415900546865727F
:102DA0006D616C2052756E6177617900202F002073
:102DB00042403A0020403A0020573A0020573A005B
:102DC0007C3C3E5E2B3D3F2F5B5D3B2C2A225C0012
:102DD0004D6564696120496E6974204661696C00C3
:102DE00053442063617264206F6B0A006F70656EDC
:102DF000526F6F74206661696C65640A00766F6C4F
:102E0000756D652E696E6974206661696C65640A0A
:102E1000004E6F20534420636172640A00534420C3
:102E2000636172642072656C65617365640A000A8F
:102E30004D3234004D3233202573002E0A006F705E
:102E4000656E206661696C65642C2046696C653A24
:102E5000200046696C652073656C65637465640A5F
:102E6000002053697A653A200046696C65206F70CE
:102E7000656E65643A2000454E4420535542524FDA
:102E80005554494E450A002220706F73002220706D
:102E90006172656E743A2200535542524F5554493F
:102EA0004E452043414C4C207461726765743A2250
:102EB0000053756263616C6C204F766572666C6F4F
:102EC00077004578636565646564206D617820539B
:102ED0005542524F5554494E452064657074683AC6
:102EE000002E0A0044656C6574696F6E2066616926
:102EF0006C65642C2046696C653A200046696C65F7
:102F00002064656C657465643A0057726974696E13
:102F10006720746F2066696C653A2000667265737D
:102F20006800646F696E67002066696C653A20000E
:102F30004E6F7720002F6175746F25632E67002018
:102F400020506C616E6E657242756666657242797C
:102F50007465733A20002046726565204D656D6F7B
:102F600072793A200020436F6D70696C65643A2075
:102F700041756720313020323032350A00204C61F3
:102F8000737420557064617465643A203230323352
:102F90002D30322D3033207C20417574686F723AA9
:102FA0002054696E794D616368696E657333440AB4
:102FB000004D61726C696E204457372E342E370AEB
:102FC0000020536F66747761726520526573657473
:102FD0000A00205761746368646F672052657365E7
:102FE000740A002042726F776E206F7574205265EC
:102FF0007365740A002045787465726E616C2052A6
:10300000657365740A00506F77657255700A0073B6
:10301000746172740A004739310A47315A350A47D8
:1030200039300A4D38340A4D31303453300A4D317D
:1030300034305330004D31303031006F6B006572E9
:10304000726F722077726974696E6720746F206680
:10305000696C650A00446F6E6520736176696E67FE
:103060002066696C652E0A004D323900456E647326
:10307000746F70730025532025632025632025631A
:1030800020256300205A3A0020593A0020583A007F
:10309000656E6473746F7073206869743A20000001
:1030A000002100240027002A002D003000330001F9
:1030B000010000040107010A010000220025002888
:1030C000002B002E00310034000201000005010831
:1030D000010B01000020002300260029002C002FF6
:1030E0000032000001000003010601090105050589
:1030F00005070508080808020202020A0A0808046F
:10310000040404010101010101010103030303039C
:10311000030303040707070C0C0C0C0C0C0C0C022B
:1031200002020206060606060606060B0B0B0B0B32
:103130000B0B0B010210202008081020401020402B
:10314000800201020108040201010204081020406B
:103150008080402010080402018004020180402089
:1031600010080402010804020101020408102040B2
:1031700080010204081020408000000A0B02090CA4
:103180000D0E08070304010000000000000000000D
:10319000000000000000000000000000000000002F
:1031A00000000000001211100000000000000000EC
:1031B000000000000000000000000000000000709F
:1031C0002600009B1E0000C3150000C70D0000F480
:1031D0000700004F040000400200002601000045E7
:1031E00072726F722077726974696E6720746F20D3
:1031F000454550524F4D210A0020746F6F206C6F6F
:103200006E6720657874727573696F6E2070726571
:1032100076656E7465640A0020636F6C642065785F
:1032200074727573696F6E2070726576656E746501
:10323000640A004D323520500A4D32340052657315
:10324000756D650055492050617573650043616E69
:103250006E6F7420656E7465722073756264697236
:103260003A20004E6F204D61746368203A00436F2E
:103270006E73747261696E206D65736856616C203F
:10328000006D65736856616C200079506E74200083
:1032900078506E7420006D657368506F696E74208D
:1032A00000446973706C61794272696768746E6515
:1032B0007373205365743A2000446973706C6179AC
:1032C0004272696768746E657373204C43443A2098
:1032D000004D32320A4D32310052656672657368B4
:1032E0000050675570005067446F776E0049732037
:1032F00046696C6520004973204469722000476F5D
:10330000557044697200486173204D6564696100BD
:1033100046696C656E616D652053656C65637465A7
:1033200064004D3130303043004D313030300020BA
:1033300046696C616D656E7420526573706F6E7353
:1033400065204E6F00526573756D65205965732059
:10335000647572696E67207072696E74000A204E1F
:103360006F2046696C616D656E7400496E76616CA4
:103370006964204F7074696F6E004D3530300053B2
:10338000746F72652053657474696E6773004D398C
:1033900039390A4D32383050305331363000424CD2
:1033A000546F756368205265736574004D35303213
:1033B0000A4D35303000496E697420454550524FF2
:1033C0004D004D3530300053746F72652053657475
:1033D00074696E677300496E4C616E6743686F690C
:1033E0006365000A202A2A2A7265636461742E6468
:1033F0006174615B305D203D004732380A473120FF
:103400004631303030205A313000556E737570704F
:103410006F72746564204F7074696F6E2053656CB1
:103420006563746564004D36303553300A47323871
:1034300058004D36303553310A54300A4732380A75
:103440004D36303553320A473238580A47315830F2
:103450000A4D3630355333004D36303553310A542A
:10346000300A4732380A4D36303553320A4732383F
:10347000580A47315830004D36303553310A4732FB
:1034800038580A47315830004D32313153300A47ED
:1034900039310A47315A302E3032350A4739300A2D
:1034A0004D3231315331004D32313153300A4739C9
:1034B000310A47315A2D302E3032350A4739300A19
:1034C0004D323131533100473239533200473239AE
:1034D00053310047323652323535004D3139305391
:1034E00035350A4732380A47323950310A473239BE
:1034F00050330A47323953310A47323953300A4779
:10350000323946302E300A473239410A4D31303493
:10351000533231350A4732380A4D3130395332315E
:10352000350A47315831353059313530463530302C
:10353000300A47315A300A4D3530300A4D34303078
:103540000A4D31313720536574205A204F66667317
:103550006574004731204631303030205A302E30EB
:10356000004732380A4731204631303030205A3057
:103570002E30005A204F6666736574203A202573FA
:10358000005A204F6666736574203A202573004701
:1035900032385A0A473146313530305A302E3000F1
:1035A0004732380A473146313530305A302E3000F4
:1035B000426564204C6576656C204F7074696F6E4F
:1035C000200052657475726E203A20004D38340028
:1035D000473146313030305A302E30004732380AC9
:1035E000473146313030305A302E30004D616E75E3
:1035F000616C53657454656D70005A204F66667334
:103600006574203A20257300526F756E64696E6789
:1036100020746F20737465700052657175657374E2
:103620006564204F6666736574200053746F702064
:103630005472696767657265640053746F70204ED9
:103640006F0053746F705072696E740048616E64DD
:103650006C6520446174612041646A757374203222
:103660002053657474696E672053637265656E20BC
:103670000048616E646C6520446174612050726919
:103680006E7446696C6520332053657474696E6787
:103690002053637265656E200048616E646C65201E
:1036A00044617461205072696E7446696C652032A1
:1036B0002053657474696E672053637265656E206C
:1036C000004D38340048616E646C6520446174615B
:1036D000205072696E7446696C6520506F73740077
:1036E00048616E646C652044617461205072696E3B
:1036F0007446696C652050726500426567696E5357
:103700007769746368003D3D20436865636B6B6552
:10371000793D3D007265636461742E61646472205A
:103720003D3D007265636461742E646174615B3059
:103730005D203D3D0070012C0190012701B0012268
:1037400001C0011D01F00118011002130130020E29
:10375000016002090190020401C002FF000003FAA7
:10376000004003F5008003F000D003EB002004E6E6
:10377000007004E100E004DC004005D700C005D281
:10378000004006CD00D006C8008007C3003008BE48
:1037900000F008B900C009B400B00AAF00B00BAA2D
:1037A00000D00CA500000EA000500F9B00C010968A
:1037B000005012910000148C00C0158700B01782D1
:1037C00000B0197D00D01B7800001E730040206EF1
:1037D0000090226900F024640040275F0090295A7D
:1037E00000E02B5500102E500020304B00103246C8
:1037F00000E033410090353C00103737007038321C
:1038000000A0392D00B03A2800A03B2300603C1EE8
:1038100000103D1900903D1400103E0F00703E0A4C
:1038200000C03E0500003F0000403FFBFF803FF628
:10383000FFC03FF1FF70726F6D70745F006265676B
:10384000696E0044697361626C6552756E6F757460
:103850000050757267654D6F7265005061757365D4
:103860006400436F6E74696E7565004C6F6164200F
:1038700046696C616D656E742054004C6F61642004
:1038800046696C616D656E7400496E736572742073
:1038900066696C616D656E7420616E642073656E1F
:1038A00064204D3130380A00726573756D656400AF
:1038B0004469736D69737300526573756D696E67E2
:1038C000002044697363726570616E63793A0032F7
:1038D0006E642050726F6265205A3A00534C4F5705
:1038E000003173742050726F6265205A3A0046416D
:1038F00053540050726F62653A3A72756E5F7A5F28
:1039000070726F6265006D656173757265645F7A70
:103910003A200050726F62696E67204661696C657B
:10392000640A0050726F62696E67204661696C6557
:103930006400205A3A200020593A20004265642051
:10394000583A2000506F736974696F6E204E6F741F
:1039500020526561636861626C650A00203A200A42
:1039600000202063757272656E745F706F73697486
:10397000696F6E3D005F72656C6174697665290AD6
:10398000002C20002C20002C20002C20002E2E2E7D
:10399000280050726F62653A3A70726F62655F61BB
:1039A000745F706F696E740050726F62653A3A703E
:1039B000726F62655F646F776E5F746F5F7A00200D
:1039C000547269676765726564206561726C792EEF
:1039D00000204E6F20747269676765722E00205058
:1039E000726F6265206661696C21202D00FFFFFF08
:1039F000290A005D005B002C20002C20002E2E2EBA
:103A00002800646F5F686F6D696E675F6D6F7665C4
:103A10000043616E6E6F74206F70656E2073756207
:103A20006469722000204500205A0020590020209F
:103A30004D393220580053746570732070657220C0
:103A4000756E697400496E76616C6964206578747E
:103A500072756465720A00220A00556E6B6E6F778C
:103A60006E20636F6D6D616E643A20220020453ACE
:103A700000205A3A0020593A00583A006F6B0A0069
:103A8000526573656E643A20006E6F74696669638F
:103A90006174696F6E2000544D33442031305350AF
:103AA000726F56322052656164792E005072696ED1
:103AB00074696E672E2E2E005072696E74205061EC
:103AC0007573656400524553554D45204F50544918
:103AD0004F4E533A0048656174696E672E2E2E0072
:103AE0000000436C69636B20746F2068656174002B
:103AF0000000526573756D696E672E2E2E000000F2
:103B000050757267696E672E2E2E0000004C6F6133
:103B100064696E672E2E2E000000496E7365727404
:103B200020616E6420436C69636B000000436C6924
:103B3000636B20746F20636F6E74696E756500002F
:103B400000456A656374696E672E2E2E0000005072
:103B50006C6561736520776169742E2E2E000000FC
:103B60005061726B696E672E2E2E000000506175D9
:103B700073654D73673D0000BE005A0111241FBEDE
:103B8000CFEFD1E2DEBFCDBF00E00CBF84B78093A2
:103B9000351914BE0FB6F894A8958091600088611D
:103BA00080936000109260000FBE16E0A0E0B2E0CB
:103BB000E8EAF2E802E00BBF02C007900D92A036DF
:103BC000B107D9F729E1A0E6B6E001C01D92A533FF
:103BD000B207E1F71DE1CDEBDDE100E006C0219782
:103BE0000109802FFE010F94813DCC3BD10780E07D
:103BF0000807A9F70F948D290D9442410C940000F9
:103C0000CF93DF93C0910215D091031581E0CE319F
:103C1000D105E4F020E030E040E05FE36091FE1485
:103C20007091FF1480910015909101150F948A3DB9
:103C30000F94F63E6C1B7D0B77FF03C07195619569
:103C4000710981E0633071050CF080E0DF91CF9164
:103C50000895CF93DF93DB01F9019C919130C1F07E
:103C6000943080F094509C938830D1F4808191817D
:103C7000009771F0019791838083480F591FEA01E3
:103C8000188206C08C3539F49C5F9C93943041F4C3
:103C9000DF91CF9108958B3339F781E08C93F8CF82
:103CA00020813181B9016F5F7F4F71836083420F43
:103CB000531FEA018883808191818F3591056CF7CC
:103CC000E7CF0F931F9381E0009153171091541782
:103CD000209155173091561740914F17509150171A
:103CE000609151177091521704171507260737076F
:103CF00008F480E01F910F91089520915B078330B5
:103D000021F425FD0CC024FD0CC030E0A90102C047
:103D1000559547958A95E2F7CA018170089581E02B
:103D2000089580E00895CF92DF92EF92FF92CF93B3
:103D3000DF93EC01CC80DD80EE80FF8027E137EB64
:103D400041ED58EBC701B6010F94EA3F87FD23C050
:103D500023E030E04BE953E4C701B6010F94A636E7
:103D60001816CCF0C880D980EA80FB8027E137EBB9
:103D700041ED58EBC701B6010F94EA3F87FD0BC038
:103D8000C1E023E030E84DE953E4C701B6010F94E8
:103D9000A63618160CF4C0E08C2FDF91CF91FF905F
:103DA000EF90DF90CF900895682F70E090E080E072
:103DB0000F94AD362091D3073091D4074091D507A9
:103DC0005091D6070F940C372091CB073091CC0738
:103DD0004091CD075091CE070F948A3D0895682FEA
:103DE00070E090E080E00F94AD362091CF073091E5
:103DF000D0074091D1075091D2070F940C372091F2
:103E0000C7073091C8074091C9075091CA070F945E
:103E10008A3D08958091C60781110EC0209111023C
:103E2000309112022150310981E040912E155091BC
:103E30002F15421753070CF080E00895269A2E9A0A
:103E4000089580916407909165072FEF3FEF9817D1
:103E500051F0E92FF0E0EC59F84F228130E09F5FFC
:103E60009F7390936507C9010895AB01BC0140930E
:103E700053175093541760935517709356178BEB45
:103E800098E10C947290EF92FF920F931F93CF934F
:103E90007C0100915E0710915F07C0E0F701EC0F15
:103EA000F11D6081662351F0062E000C770BC801CE
:103EB0000F94D840892B49F4CF5FF0CF80E0CF91A9
:103EC0001F910F91FF90EF90089581E0F8CF682F38
:103ED000880F770B80915E0790915F070F94D84011
:103EE000FC0181E0309709F480E0309781F0918106
:103EF00020ED290F2A3030F09E3251F492819053F8
:103F00009A3098F43196F0935607E0935507089548
:103F10009D3211F09B3249F4928120ED290F2A3015
:103F200088F39E3211F49381EACFF0E0E0E0EBCF2A
:103F30000E94671F882341F081E02091550730914E
:103F40005607232B09F480E008950F931F93CF9316
:103F5000DF9300D01F92CDB7DEB79C010CEA1EE0C4
:103F600090E1EAE9FFE0D80101900D929A95E1F71E
:103F7000F9012081318142815381F8016085718589
:103F8000828593850F948A3DF801608771878287C7
:103F9000938780E090E0A0EAB0E489839A83AB83C2
:103FA000BC83CE0101960E94A7B20F900F900F9094
:103FB0000F90DF91CF911F910F9108952F923F9213
:103FC0004F925F926F927F928F929F92AF92BF9229
:103FD000CF92DF92EF92FF921F93CF93DF93CDB7F3
:103FE000DEB72C970FB6F894DEBF0FBECDBF7A01B7
:103FF0001901DC012D913D914D915C912D833E8302
:104000004F835887FB01408051806280738080908D
:104010009A0F90909B0FA0909C0FB0909D0FA501C0
:1040200094016D817E818F8198850F94A6368111D0
:104030000EC011E0A301920160919E0F70919F0F3D
:104040008091A00F9091A10F0F94A636811110E0DE
:10405000D1012D913D914D915C9129873A874B87F4
:104060005C87F701C080D180E280F3802091060256
:10407000309107024091080250910902C701B60130
:104080000F94A636882309F44EC0C0920602D0923F
:104090000702E0920802F09209028091A60F909127
:1040A000A70FA091A80FB091A90F40919E0F50911A
:1040B0009F0F6091A00F7091A10F8092AC0E909213
:1040C000AD0EA092AE0EB092AF0E4093B00E5093D4
:1040D000B10E6093B20E7093B30EC092B40ED09234
:1040E000B50EE092B60EF092B70E8093B80E909394
:1040F000B90EA093BA0EB093BB0E20E030E040E0C2
:104100005FE36091790F70917A0F80917B0F9091AE
:104110007C0F0F940C3769837A838B839C83CE0149
:1041200001960E94A7B22D813E814F815885209330
:10413000AC0E3093AD0E4093AE0E5093AF0E409246
:10414000B00E5092B10E6092B20E7092B30ED101C9
:104150002D913D914D915C916091B80E7091B90E89
:104160008091BA0E9091BB0E0F948A3D6093B80E69
:104170007093B90E8093BA0E9093BB0E11112FC09D
:1041800020E030E0A90169857A858B859C850F94B4
:10419000A636811133C060E070E088EC92E4698358
:1041A0007A838B839C83CE0101960E94A7B22C96C2
:1041B0000FB6F894DEBF0FBECDBFDF91CF911F9138
:1041C000FF90EF90DF90CF90BF90AF909F908F9037
:1041D0007F906F905F904F903F902F9008952AEFBF
:1041E0003EE74AE25FE360917D0F70917E0F809120
:1041F0007F0F9091800F0F940C37D1CF60E070E06B
:1042000080EA91E4CCCF80915507909156070097B2
:1042100031F04AE050E070E060E00D94C13460E0BD
:1042200070E0CB010895CF93DF9300D01F92CDB7FC
:10423000DEB780E090E0A0EAB0E489839A83AB83A4
:10424000BC8361E0CE0101960E946CCF0F900F906D
:104250000F900F90DF91CF9108950F931F93CF93FD
:10426000DF9300D000D01F921F92CDB7DEB78B0135
:10427000FC0123A5211102C00F941F201D821E8264
:104280001F82188620E030E040E05FE36091A20FDB
:104290007091A30F8091A40F9091A50F0F948A3D68
:1042A00069837A838B839C839E012B5F3F4FAE0192
:1042B0004F5F5F4F6EE97FE08AE99FE00E94DE1F5B
:1042C0001D821E821F82188620E030E040E05FE3FE
:1042D000F80160857185828593850F948A3D698395
:1042E0007A838B839C83B8016C5F7F4F9E012B5F29
:1042F0003F4FAE014F5F5F4FC8010E94DE1F2896FF
:104300000FB6F894DEBF0FBECDBFDF91CF911F91E6
:104310000F9108958091550790915607009731F0BD
:104320004AE050E070E060E00D94933360E070E0AC
:10433000CB010895CF93DF93EB010E94981F882350
:1043400019F00E948A21EB01CE01DF91CF910895EF
:104350000E948A2197FD0CC00E948A216F3F71053F
:104360008105910509F034F40E948A21862F089571
:1043700080E008958FEF0895CF93C62F0E94981F75
:10438000882319F0CF910C94A8218C2FCF910895F8
:104390008091550790915607892B41F00E94A821E2
:1043A00091E0811101C090E0892F089591E0FCCF48
:1043B000CF93DF93C82FD62F0E94981F882321F018
:1043C000DF91CF910C94C8218C2F0E94671F81111F
:1043D00001C08D2FDF91CF9108950E948A21CB01DA
:1043E0000895CF93DF93EB010E94981F882321F05B
:1043F000DF91CF910C94ED21CE01DF91CF91089503
:104400000F931F93CF938091550790915607009774
:1044100009F1FC018F01C1912C2F2F7DA1F0C53432
:1044200031F0C53621F0C83511F0C83799F7F801D9
:10443000108270E060E00F943532F801C083CF91B4
:104440001F910F91089570E060E0CF911F910F913F
:104450000D94353260E070E0CB01F1CFCF92DF9266
:10446000EF92FF926A017B010E94981F882331F02E
:10447000FF90EF90DF90CF900C940022C701B6011F
:10448000FF90EF90DF90CF9008950D94BE130F939F
:104490001F93CF9310925D0710925C072FE3209338
:1044A00063071092620710926107109260079C01E7
:1044B000F90190812F5F3F4F9032D1F39E34C9F4C0
:1044C000818190ED980F9A3020F08D3211F08B326F
:1044D00081F432969F012F5F3F4F808180538A3055
:1044E00008F475C09F012F5F3F4F8081803209F42F
:1044F00070C0F093990FE093980F8F010F5F1F4FDB
:10450000C0816AE270E0C8010F94D840009731F092
:10451000FC01319780818032E1F31182CD3429F0A2
:10452000C43519F0C73409F04EC0F80180810F5F1F
:104530001F4F8032D1F380538A3008F044C0C093BB
:10454000630730E020E04AE0DF011196429FC0019E
:10455000439F900D11249C01205331098081280F25
:10456000311D87FD3A95818190ED980F9A3098F131
:1045700030936207209361078E3261F4329690E0A7
:104580004AE0DF0131968C9150ED580F5A3028F1F6
:1045900090936007FD01119680818032D9F3F093EA
:1045A0005F07E0935E07CD3441F52E31310539F0D8
:1045B000D0F42731310519F02C313105F1F4F093A5
:1045C0005D07E0935C07CF911F910F910895F9016A
:1045D00081CFF90187CFFD01B7CF949F800D1124C2
:1045E00090ED980FCECF2537310538F027373105BC
:1045F00030F3203A83E0380711F350E040E0CF0178
:1046000001966081662309F45AC0613291F4CD3479
:1046100081F42032310569F490935D0780935C0743
:1046200063E270E00F94D840009769F2FC011082B9
:10463000CACFFC01DF018D91803271F090ED980FAF
:104640009A3008F18E3251F4918190539A30D8F01B
:1046500041155105E1F414C0FD01ECCF8D3211F08C
:104660008B3259F4918160ED690F6A3060F09E32AF
:1046700021F4928190539A3030F04115510519F48C
:10468000AF014150510981548A3108F4B8CFDF019C
:10469000FD018D91882309F4B2CF90ED980F9A30E7
:1046A000B8F393ED980F923098F38B3289F3CF01E2
:1046B00001966081603209F0A2CFFC01F8CF5093DF
:1046C0005D0740935C077FCF81E0809331150895AB
:1046D000FC016591759185919491089580E00C9409
:1046E000BCCF682F70E090E080E00D94BE139B017A
:1046F000AC01485F5F4FBC016C5F7F4F0C94DE1FC5
:104700002F923F924F925F926F927F928F929F92E1
:10471000AF92BF92CF92DF92EF92FF920F931F93CF
:10472000CF93DF93CDB7DEB7A6970FB6F894DEBF71
:104730000FBECDBF8C011B015A87498740909A0F4D
:1047400050909B0F60909C0F70909D0F80909E0FDB
:1047500090909F0FA090A00FB090A10FDB018D91C2
:104760009D910D90BC91A02D8B8B9C8BAD8BBE8BA6
:104770009C01AD01C301B2010F94893D6B017C0125
:10478000D10114968D919D910D90BC91A02D8F8B90
:10479000988FA98FBA8F9C01AD01C501B4010F9408
:1047A000893D6B8F7C8F8D8F9E8FA985BA858D916A
:1047B0009D910D90BC91A02D8B879C87AD87BE8766
:1047C0009C01AD01C301B2010F94893D6F8F78A3A5
:1047D00089A39AA3A985BA8514968D919D910D9070
:1047E000BC91A02D8F87988BA98BBA8B9C01AD01B2
:1047F000C501B4010F94893D6BA37CA38DA39EA337
:10480000A7019601C701B6010F940C376B017C011B
:104810002B8D3C8D4D8D5E8DCA01B9010F940C37E7
:104820009B01AC01C701B6010F948A3D4B015C01AD
:104830002B893C894D895E896B857C858D859E851C
:104840000F94893D2B013C012F89388D498D5A8D5C
:104850006F85788989899A890F94893D6B017C01DC
:10486000A3019201C301B2010F940C372B013C014B
:10487000A7019601C701B6010F940C379B01AC014B
:10488000C301B2010F948A3D0F9438406B017C0143
:104890002F8D38A149A15AA1CA01B9010F940C3733
:1048A0002B013C012BA13CA14DA15EA1CA01B90184
:1048B0000F940C379B01AC01C301B2010F948A3DE8
:1048C0009B01AC01C501B4010F94EA3F1816B4F581
:1048D00020E030E0A901C701B6010F94EA3F87FF4D
:1048E0002AC0C701B601905820E030E040EA50E409
:1048F0000F94EA3F181614F5A10169857A85C8015D
:104900000E948023A6960FB6F894DEBF0FBECDBFDF
:10491000DF91CF911F910F91FF90EF90DF90CF909B
:10492000BF90AF909F908F907F906F905F904F90CF
:104930003F902F900895C701B601D6CF20E030E018
:1049400040E050E4C501B4010F94EA3F181624F486
:10495000B101C8010E942D2119821A821B821C827A
:10496000BE016F5F7F4FC1010E9477232DEC3CECAD
:104970004CEC5CE3C701B6010F940C379B01AC0112
:10498000F80160817181828193810F940C376D836E
:104990007E838F839887D8019B968C919B978823E1
:1049A000C9F02AE939E949E95FE314966D917D91EF
:1049B0008D919C9117970F940C3769837A838B8321
:1049C0009C83BE016F5F7F4F8CEA9EE00E9477233D
:1049D000F80113A6BE016B5F7F4F89859A850E94FF
:1049E000772390CF3F924F925F926F927F928F92F8
:1049F0009F92AF92BF92CF92DF92EF92FF920F936E
:104A00001F93CF93DF93CDB7DEB76C970FB6F894B3
:104A1000DEBF0FBECDBF8C01DB018C91A42EA80E92
:104A2000B5E0BA1508F4E4C0FB01B180322E3B0CAE
:104A3000B31508F4DDC0EB2DF0E0E65BF84FE08144
:104A4000F0E0082E02C0F595E7950A94E2F7E0FF42
:104A5000CFC0E32DF0E0E65BF84FE081F0E00A2CF8
:104A600002C0F595E7950A94E2F7E0FFC1C0822EF7
:104A7000942E0E94EF1E6B017C01692D660F770B4F
:104A8000072E000C880B990B0F94AD362B013C01BF
:104A9000AC019B01C701B6010F948A3D6B017C01FB
:104AA000CD86DE86EF86F88A8A2D0E94EF1EA3014E
:104AB00092010F94893D698F7A8F8B8F9C8F6983C8
:104AC0007A838B839C838B2D0E94D41E2B013C0107
:104AD000682D660F770B072E000C880B990B0F942F
:104AE000AD364B015C01AC019B01C301B2010F94D7
:104AF0008A3D2B013C01498A5A8A6B8A7C8A832D24
:104B00000E94D41EA50194010F94893D4B015C01C4
:104B10008D829E82AF82B886F80180859185A285BC
:104B2000B38589879A87AB87BC878D8B9E8BAF8B2C
:104B3000B88F20E030E040E85FE3C301B2010F949A
:104B4000A63687FF6DC080E090E0A0E8BFE3898BC8
:104B50009A8BAB8BBC8B20E030E040E85FE3C50173
:104B6000B4010F94A63687FF6BC080E090E0A0E808
:104B7000BFE38D839E83AF83B88720E030E040E8B9
:104B80005FE3C701B6010F94A63687FF69C080E0D6
:104B900090E0A0E8BFE38D879E87AF87B88B20E0C9
:104BA00030E040E85FE3698D7A8D8B8D9C8D0F94AA
:104BB000A63687FF65C080E090E0A0E8BFE3898368
:104BC0009A83AB83BC83CE010D960E94931E8823EB
:104BD00079F0CE0101960E94931E882349F0AE0120
:104BE0004F5F5F4FBE01635F7F4FC8010E9480230C
:104BF0006C960FB6F894DEBF0FBECDBFDF91CF919C
:104C00001F910F91FF90EF90DF90CF90BF90AF90EA
:104C10009F908F907F906F905F904F903F900895FE
:104C200020E030E84AE953E4C301B2010F94EA3FBF
:104C300018160CF090CF80E090E8AAE9B3E487CF93
:104C400020E030E84AE953E4C501B4010F94EA3F9B
:104C500018160CF092CF80E090E8AAE9B3E489CF6F
:104C600020E030E04DE953E4C701B6010F94EA3F7C
:104C700018160CF094CF80E090E0ADE9B3E48BCF50
:104C800020E030E04DE953E4698D7A8D8B8D9C8D69
:104C90000F94EA3F18160CF096CF80E090E0ADE953
:104CA000B3E48DCFCF92DF92EF92FF92CF936B015F
:104CB0007C01C42F8091CA0D8F5F09F4B5C0809329
:104CC000CA0D8091CA0D8093790E20E030E040E754
:104CD00052E4609154027091550280915602909175
:104CE00057020F940C370F94FD3E7093DC0D6093C8
:104CF000DB0DC092DD0DD092DE0DE092DF0DF09263
:104D0000E00D8091780EC0FB80F98093780E8CE0E6
:104D1000E4E3F9E0A1EEBDE001900D928A95E1F7A0
:104D20008CE0E9EBF7E0ADEEBDE001900D928A95E5
:104D3000E1F78091E3079091780E80FB94F99093CE
:104D4000780E882381F08091DF079091E007A09191
:104D5000E107B091E2078093F90D9093FA0DA093CB
:104D6000FB0DB093FC0D80912E1590912F15909313
:104D7000FE0D8093FD0D8091021590910315909387
:104D8000000E8093FF0D80917A0E8093010E80912A
:104D9000780E9091A20E90FB83F98093780E80910B
:104DA000A30E9091A40EA091A50EB091A60E809393
:104DB000020E9093030EA093040EB093050E0E9472
:104DC0003FB76093730E7093740E8093750E90933B
:104DD000760E80915B078093770E9091AB0E809159
:104DE000780E93FB81F99091C60790FB82F980932E
:104DF000780E80E00E9429F140E050E0BA018CE595
:104E000097E10E94729040EB50E06AEC7DE08CE507
:104E100097E10E9406918CE597E1CF91FF90EF908A
:104E2000DF90CF900C94339481E049CF4F925F9202
:104E30006F927F928F929F92AF92BF92CF92DF92AA
:104E4000EF92FF920F931F93CF93DF9300D01F92A7
:104E5000CDB7DEB719821A821B821C829BEBA92E6A
:104E600093E0B92ECE0101964C012CEAC22E2EE021
:104E7000D22E3AE9E32E3FE0F32E10E000E0F501F8
:104E800081915F010E94981FF40181934F01882353
:104E900009F4C1C00E9400222B013C01802F0E9416
:104EA0007D1E882309F4A7C0F7012081318142814A
:104EB0005381C301B2010F948A3DF601608371836F
:104EC000828393830F5F1F4FF4E0CF0ED11C84E0E9
:104ED000E80EF11C0330110591F685E40E94981F3D
:104EE0008C83882309F4A2C00E9400226B017C01FC
:104EF00083E00E947D1E882371F02091A60F3091DF
:104F0000A70F4091A80F5091A90FC701B6010F94A8
:104F10008A3D6B017C01C092B80ED092B90EE0922E
:104F2000BA0EF092BB0E80917E0E882391F1809193
:104F3000571782FF2EC087FD2CC08C81882349F132
:104F40008981811103C08A81882319F12DEC3CEC01
:104F50004CE45DE36091D30D7091D40D8091D50D3B
:104F60009091D60D0F948A3D9B01AC016091A20FE8
:104F70007091A30F8091A40F9091A50F0F94EA3F19
:104F800018163CF440E060E070E080E090E40E949D
:104F9000522640E050E0BA0186E40E942E2220E032
:104FA00030E0A9010F94EA3F181684F40E94002211
:104FB00020E030E040E752E40F94843E60935402D6
:104FC0007093550280935602909357020F900F9062
:104FD0000F900F90DF91CF911F910F91FF90EF9065
:104FE000DF90CF90BF90AF909F908F907F906F9009
:104FF0005F904F900895F801EE0FFF1FEE0FFF1F17
:10500000E655F04F2081318142815381C301B201C5
:105010000F94893D52CFF70180819181A281B381A4
:10502000F60180839183A283B3834CCF8091A60F36
:105030009091A70FA091A80FB091A90F8093B80EDF
:105040009093B90EA093BA0EB093BB0E6CCFEAEC5E
:10505000FDE080EBDF011D928A95E9F708958091CC
:105060007E0E811104C00E9427280C9464F1809167
:10507000571782FF09C087FD07C040E060E070E07D
:1050800080E090E40C94522608958091CA0D882304
:1050900061F09091790E891308C08091571784FFB1
:1050A00004C086E09EE00C94C0F080E00895FC010E
:1050B000238121110C9433940895CF93DF93C091F1
:1050C0002E15D0912F15209729F160912A157091F6
:1050D0002B1580912C1590912D150F94F63E6E5F37
:1050E0007F4F24976C177D07ACF470930208609390
:1050F00001080E9448F0605A75418F4F9F4F60939E
:105100000308709304088093050890930608DF91C4
:10511000CF91089510920308109204081092050888
:1051200010920608F4CFCF92DF92EF92FF921F9376
:10513000CF93DF93182F662351F0109249071092F6
:1051400045071092460710924707109248070E94A1
:1051500048F06B017C018091450790914607A09132
:105160004707B0914807A7019601281B390B4A0B46
:105170005B0BDA01C901B7FD3DC02091490717FD5E
:1051800013C0412F012E000C550B4C5F5F4F822F37
:10519000022E000C990B4817590764F184EF91E037
:1051A000A0E0B0E0211724F488EE93E0A0E0B0E0A6
:1051B0008C0D9D1DAE1DBF1D809345079093460726
:1051C000A0934707B09348072170C22F30E0D32F38
:1051D00084E28C9FB0018D9F700D7C1B112460595F
:1051E0007C4F82E390E00E94C7D7809149078F5F90
:1051F00080934907DF91CF911F91FF90EF90DF904F
:10520000CF900895CF93DF93C0910215D0910315ED
:10521000209729F16091FE147091FF148091001580
:10522000909101150F94F63E6E5F7F4F24976C1797
:105230007D07ACF47093F8076093F7070E9448F07D
:10524000605E70448D4F9F4F6093F9077093FA072B
:105250008093FB079093FC07DF91CF910895109204
:10526000F9071092FA071092FB071092FC07F4CF8F
:10527000CF93DF939091AB0E93FD3CC0C82F83E595
:105280000E94981FD82F882371F10E94ED218C383D
:1052900091059CF590930315809302150E940229B5
:1052A0006091021570910315072E000C880B990B65
:1052B0000F94AD362091FE143091FF1440910015EB
:1052C000509101150F94EA3F60E01816CCF48AEE75
:1052D00096E10E949BBBCC2369F060E08D2FDF91AB
:1052E000CF910C942898CC2329F082E50E94981F36
:1052F0008111CBCFDF91CF9108958CE890E0CACF98
:105300008BED96E1E6CFCF93C1E020E030E0A9013C
:105310006091CF077091D0078091D1079091D2070B
:105320000F94A636811101C0C0E08C2FCF91089553
:105330002F923F924F925F926F927F928F929F92A5
:10534000AF92BF92CF92DF92EF92FF920F931F9393
:10535000CF93DF93CDB7DEB7AC970FB6F894DEBF2F
:105360000FBECDBF9CA78BA77C8F6B8F5E8F4D8FA1
:1053700040909A0F50909B0F60909C0F70909D0FE3
:105380002091C7073091C8074091C9075091CA07BB
:105390002F8F38A349A35AA380913D0790913E07D0
:1053A000A0913F07B09140078BA39CA3ADA3BEA3E0
:1053B000C0909E0FD0909F0FE090A00FF090A10F93
:1053C0008090CB079090CC07A090CD07B090CE07EF
:1053D0002091410730914207409143075091440783
:1053E0002FA338A749A75AA78091AC0E9091AD0E74
:1053F000A091AE0EB091AF0E8B8B9C8BAD8BBE8B04
:105400002091B00E3091B10E4091B20E5091B30E7A
:105410002F8B388F498F5A8F2F8D38A149A15AA1D0
:10542000C301B2010F94893D2BA13CA14DA15EA106
:105430000F940C370F94F63E7A8B698B65307105AB
:1054400024F084E090E09A8B898BA989BA89B7FF10
:1054500002C01A8A198AA5019401C701B6010F94E6
:10546000893D2FA138A549A55AA50F940C370F9453
:10547000F63E1B01653071051CF084E0282E312CAE
:1054800037FE02C0312C212C2F8D38A149A15AA101
:105490006B897C898D899E890F94893D2BA13CA1C4
:1054A0004DA15EA10F940C370F94F63E8B01653031
:1054B000710514F004E010E017FF02C010E000E0F6
:1054C000A50194016F89788D898D9A8D0F94893DFE
:1054D0002FA138A549A55AA50F940C370F94F63E75
:1054E0006530710514F064E070E077FF02C070E091
:1054F00060E029893A892017310749F5621573055B
:1055000009F002C180E1ECEAFEE0AAE9BFE0019007
:105510000D928A95E1F78BA59CA5AC960FB6F894F1
:10552000DEBF0FBECDBFDF91CF911F910F91FF90D6
:10553000EF90DF90CF90BF90AF909F908F907F9033
:105540006F905F904F903F902F900C940EB389898D
:105550009A89801791070CF4C801282F41E050E088
:1055600002C0440F551F8A95E2F7CA014B8D5C8D2E
:1055700048235923452B11F280959095AB8DBC8D16
:10558000A823B923BC8FAB8F80E1ECEAFEE0DE01FB
:10559000119601900D928A95E1F7622F220F770BF9
:1055A000880B990B0F94AD362091CF073091D0071F
:1055B0004091D1075091D2070F940C372F8D38A10D
:1055C00049A15AA10F948A3D6093AC0E7093AD0E21
:1055D0008093AE0E9093AF0EA30192010F94893D7C
:1055E0004B015C01A30192016B897C898D899E89A5
:1055F0000F94893D9B01AC01C501B4010F94843E19
:105600004B015C01A70196016F89788D898D9A8D78
:105610000F94893DA50194010F940C37A7019601C1
:105620000F948A3D6093B00E7093B10E8093B20ECA
:105630009093B30EC090A20FD090A30FE090A40F50
:10564000F090A50FA70196016091B40E7091B50E70
:105650008091B60E9091B70E0F94893DA5019401EB
:105660000F940C37A70196010F948A3D6093B40EF6
:105670007093B50E8093B60E9093B70EC090A60FA0
:10568000D090A70FE090A80FF090A90FA701960166
:105690006091B80E7091B90E8091BA0E9091BB0EC8
:1056A0000F94893DA50194010F940C37A701960131
:1056B0000F948A3D6093B80E7093B90E8093BA0E22
:1056C0009093BB0E4D8D5E8D6B8D7C8D8BA59CA5B7
:1056D0000E9498298B899C89AD89BE8989839A8388
:1056E000AB83BC832F89388D498D5A8D2D833E83A2
:1056F0004F83588780E1FE013196ACEABEE001900D
:105700000D928A95E1F734CECB01621573050CF446
:10571000C101682F21E030E002C0220F331F8A95BB
:10572000E2F7C9012D8D3E8D28233923232B09F45F
:10573000E9CE809590954D8D5E8D482359235E8FDF
:105740004D8F80E1ECEAFEE0DE01119601900D92B2
:105750008A95E1F7062E000C770B880B990B0F94B6
:10576000AD362091D3073091D4074091D5075091A1
:10577000D6070F940C37A50194010F948A3D6093CE
:10578000B00E7093B10E8093B20E9093B30EA7013A
:1057900096010F94893D4B015C01A70196016F8929
:1057A000788D898D9A8D0F94893D9B01AC01C5013F
:1057B000B4010F94843E4B015C01A30192016B89FB
:1057C0007C898D899E890F94893DA50194010F9450
:1057D0000C37A30192010F948A3D6093AC0E709335
:1057E000AD0E8093AE0E9093AF0E24CF4F925F928A
:1057F0006F927F928F929F92AF92BF92CF92DF92E1
:10580000EF92FF920F931F93CF93DF93EC012091C0
:10581000C7073091C8074091C9075091CA076881EE
:1058200079818A819B810F94893D6B017C01209154
:10583000CB073091CC074091CD075091CE076C81BA
:105840007D818E819F810F94893D4B015C01A70171
:1058500096016091350770913607809137079091D6
:1058600038070F94A636882309F451C0C092350733
:10587000D0923607E0923707F092380720913D0723
:1058800030913E0740913F0750914007C701B60154
:105890000F940C372B013C010F942C3F6B017C01C2
:1058A00020E030E0A9010F94A63687FD71C020E00A
:1058B00030E040E850E4C701B6010F94EA3F181603
:1058C00034F4C12CD12CC0E8EC2EC0E4FC2EA7018E
:1058D0009601C301B2010F94893D60932D07709327
:1058E0002E0780932F0790933007C701B6010F94BE
:1058F000F63E60932B07062E000C770B6F5F7F4FF1
:105900006530710514F065E070E060932907D0916F
:10591000270710912B07A501940160913907709119
:105920003A0780913B0790913C070F94A63681116E
:1059300033C0D11382C020910F07309110074091DE
:1059400011075091120760912D0770912E078091D9
:105950002F07909130070F940C3720911307309147
:10596000140740911507509116070F948A3DDF9157
:10597000CF911F910F91FF90EF90DF90CF90BF904C
:10598000AF909F908F907F906F905F904F90089511
:10599000C12CD12C76019BCF8092390790923A0787
:1059A000A0923B07B0923C072091410730914207FB
:1059B0004091430750914407C501B4010F940C373F
:1059C0004B015C010F942C3F6B017C0120E030E027
:1059D000A9010F94A63687FDF4C020E030E040E82E
:1059E00050E4C701B6010F94EA3F181634F4C12CF5
:1059F000D12CB0E8EB2EB0E4FB2EA7019601C50137
:105A0000B4010F94893D60933107709332078093FE
:105A1000330790933407C701B6010F94F63E6093A5
:105A20002C07062E000C770B6F5F7F4F65307105DA
:105A300014F065E070E060932A07C0912C07D11341
:105A400005C0809128078C1709F470C080912B073E
:105A500090912C0790932807809327070C2E000C19
:105A6000DD0B26E01203C0011124FC01EC0FFD1F29
:105A7000EE0FFF1FEE0FFF1FE454F14F2081318125
:105A800042815381209323073093240740932507B5
:105A90005093260700912A07002E000C110BFC01E1
:105AA000E00FF11FEE0FFF1FEE0FFF1FE454F14F49
:105AB00060817181828193810F94893D60931F077A
:105AC0007093200780932107909322072091290744
:105AD00036E02303F0011124CE0FDF1FCC0FDD1FB2
