:100000000C94B11D0C94F11D0C94F11D0C94F11D78
:100010000C94F11D0C94F11D0C94F11D0C94F11D28
:100020000C94F11D0C94F11D0C94F11D0C94F11D18
:100030000C94F11D0C94F11D0C94F11D0C94F11D08
:100040000C94F11D0C9457E00C94F11D0C94F11DCF
:100050000C94F11D0C9479D50C94F11D0C94CEC325
:100060000C94F11D0C941A3A0C94103A0C94F11D56
:100070000C94F11D0C94F11D0C94F11D0C94F11DC8
:100080000C94F11D0C94F11D0C94F11D0C94F11DB8
:100090000C94F11D0C94F11D0C94F11D0C94F11DA8
:1000A0000C94F11D0C94F11D0C94F11D0C94F11D98
:1000B0000C94F11D0C94F11D0C94F11D0C94F11D88
:1000C0000C94F11D0C94F11D0C94F11D0C94702EE8
:1000D0000C943A2E0C94F11D0C94F11D0C94F11D0E
:1000E0000C94F11D084AD73B3BCE016E84BCBFFD8A
:1000F000C12F3D6C74319ABD56833DDA3D00C77FF8
:1001000011BED9E4BB4C3E916BAAAABE0000008090
:100110003F05A84CCDB2D44EB93836A9020C50B91F
:10012000918688083CA6AAAA2ABE000000803F004B
:100130000C9479740C94832D0D94D31D0C94D53AA2
:100140000C9475740C94E1AD0C94E7790C94872DA4
:100150000C94D3C10C94ABC20C946EC10C947AAEC7
:100160000C942FB20C94612D0C94432D0C94212FE0
:100170000C944C740C94DE790D940A240C94F3794D
:100180000C94B23A0D94460E0C94462F0C9408B27F
:100190000C94A9AE0C941C2F0C94A3AE0D94CA1D04
:1001A0000C942B2F0C948A3A0D946B0E0D94CD1D4C
:1001B0000C94852D0C94AAAD0C94B12E0C94332F75
:1001C0000C94632D0D94D01D0C9452740C94B63A7B
:1001D0000C94CB2D0C9471740C94E83A0C94EEC1F1
:1001E0000C94102F0C943ABD0C94C9B10C94142F9C
:1001F0000D94251E0C94CF2D0C94AB2D0C94BE3A6F
:100200000C9400AE0D94C3230C94A0AB0D94E51D8B
:100210000C9461AB0C9456AE0C94993A0C946DAD61
:100220000D944A0D0C9461740C9483740D945D28A4
:100230000C94CDAD0C9414B20C9442AE0D94521E9D
:100240000C944DAE0C945B3A0C94BCBD0D94D60D41
:100250000C9420B20C94DB790C94F03A0C94F9B124
:100260000C9467740C94E1790C94C63A0D943F2871
:100270000C94ED790C948C740C945E740C9433ACE7
:100280000C946B740C9476C30C94D5B10C9495AE0D
:100290000C94D9C00C9487740C94CB3A0C94EF2E28
:1002A0000D94900E0C94BA3A0C94A92D0C947F7472
:1002B0000C9491740D94D61D0C94012F0D94B50ED1
:1002C0000C940C2F0C94D0790D948C0D0C94372D2C
:1002D0000D94B10D0C945FAE0D94D91D0C943E2F6E
:1002E0000C94EA790C94F0790C94D5AC0C94C23A45
:1002F0000D94E21D0C9451AC0C94262F0C947EC2EC
:100300000C94F6C00C94D03A0C94E4790C9468AE3A
:100310000D94DF1D0D949A230C945A740C9471AEB5
:100320000C9484AE0D94561E0C94CD2D0C94A6AE58
:100330000C9496AD0D94C71D0C94BDBD0D94D8239F
:100340000C9456740C94E02E0C948FC10C946CC2D7
:100350000C94A0AE0D94DC1D0C94DD3A0C94182F77
:100360000C9488AE0C94D8790D94941D0C94AB3AEF
:100370000C94A72D0C948D740C94FFAC0C948AAE45
:100380000D94DA0E0C94D5790C94082F0D94210E4F
:100390004E414E494E495459494E46CDCCCC3D0A6A
:1003A000D7233C17B7D13877CC2B329595E6241F4D
:1003B000B14F0A000020410000C84200401C462006
:1003C000BCBE4CCA1B0E5AAEC59D7400407A10F3D9
:1003D0005A00A0724E18090010A5D4E80000E87673
:1003E00048170000E40B54020000CA9A3B000000CA
:1003F000E1F505000080969800000040420F0000E3
:1004000000A08601000000102700000000E80300A3
:100410000000006400000000000A0000000000016D
:1004200000000000002C76D888DC674F0823DFC16D
:10043000DFAE59E1B1B796E5E3E453C63AE6519928
:100440007696E8E6C28426EB898C9B62ED407C6F51
:10045000FCEFBC9C9F40F2BAA56FA5F490055A2A08
:10046000F75C936B6CF9676DC11BFCE0E40D47FE14
:10047000F520E6B500D0ED902E0300943577050009
:1004800080841E080000204E0A000000C80C333390
:1004900033330F986E12831141EF8D2114893BE69F
:1004A0005516CFFEE6DB18D1844B381BF77C1D9028
:1004B0001DA4BBE424203284725E228100C9F12491
:1004C000ECA1E53D2744455441494C00434F4D4D77
:1004D000554E49434154494F4E0044525952554E8E
:1004E000004552524F525300494E464F0045434833
:1004F0004F0053544F505045442E20005072696EA7
:100500007465722073746F70706564206475652003
:10051000746F206572726F72732E20466978207432
:100520006865206572726F7220616E6420757365F4
:10053000204D39393920746F20726573746172747B
:100540002E202854656D706572617475726520691E
:10055000732072657365742E20536574206974204E
:1005600061667465722072657374617274696E6716
:10057000290A004E6F20436865636B73756D2077A1
:10058000697468206C696E65206E756D6265722C89
:10059000204C617374204C696E653A20004E6F20C8
:1005A000436865636B73756D2077697468206C6947
:1005B0006E65206E756D6265722C204C61737420BF
:1005C0004C696E653A2000636865636B73756D20D6
:1005D0006D69736D617463682C204C617374204C79
:1005E000696E653A20004C696E65204E756D6265D6
:1005F00072206973206E6F74204C617374204C6993
:100600006E65204E756D6265722B312C204C6173C6
:1006100074204C696E653A20004D313130005365CD
:100620007269616C20737461747573206D69736D88
:10063000617463680A0053442072656164206572C6
:10064000726F720A00746F6F206D75636820696E37
:100650006163746976652074696D65202D2063750A
:100660007272656E7420636F6D6D616E643A200006
:100670002121204B494C4C206361757365642062D5
:10068000792000486F74656E642049646C6520545D
:10069000696D656F757400486F74656E6420496498
:1006A0006C652054696D656F75740A0062757379A5
:1006B0003A2070617573656420666F7220696E7090
:1006C00075740A00627573793A2070617573656498
:1006D00020666F7220757365720A00627573793ACD
:1006E0002070726F63657373696E670A004D3130F5
:1006F000303053003D3D6F6E46696C616D656E74C0
:1007000052756E6F75743D3D007061757365004D77
:10071000363030002066696C616D656E745F72758D
:100720006E6F7574200066696C616D656E745F72C2
:10073000756E6F757420540046696C616D656E74DA
:1007400052756E6F757420540025533A202553005E
:100750002A2A2A6B696C6C2A2A2A00706F776572C4
:100760006F6666004B494C4C45442E200050726920
:100770006E7465722068616C7465642E206B696CA0
:100780006C28292063616C6C6564210A00656368CC
:100790006F3A004572726F723A0020286469736183
:1007A000626C6564290A0020280041424C204164A3
:1007B0006A7573746D656E74205A005A20466164C0
:1007C000653A20002028656E61626C6564290A0024
:1007D00041626F76650053616D65205A2061730038
:1007E00042656C6F77004175746F20426564204CE0
:1007F0006576656C696E673A2042494C494E4541C1
:100800005200204E6F7A7A6C65290A00202620005B
:100810002D43656E746572002D46726F6E74002DE7
:100820004261636B002028416C69676E65642057E4
:100830006974680020284D6964646C650020284C48
:1008400065667400202852696768740050726F6290
:1008500065204F666673657420580050726F62653C
:100860003A204649585F4D4F554E5445445F5052CB
:100870004F42450A004D616368696E652054797086
:10088000653A2043617274657369616E0A0042695A
:100890006C696E656172204C6576656C696E672067
:1008A000477269643A0A003E3E3E003C3C3C00739D
:1008B00065745F6265645F6C6576656C696E675FC1
:1008C000656E61626C65640072657365745F626514
:1008D000645F6C6576656C0A00203A204C6576652D
:1008E0006C696E67204F4E0A002020637572726536
:1008F0006E745F706F736974696F6E3D00203A208B
:100900004C6576656C696E67204F46460A0020206C
:1009100063757272656E745F706F736974696F6E00
:100920003D002F2F616374696F6E3A006E6F7469BA
:100930006669636174696F6E2000656E6400736838
:100940006F7700627574746F6E00486F74656E64C3
:1009500020746F6F20636F6C640A0053656E6420AF
:100960004D31303820746F20726573756D650A00E3
:10097000496E736572742066696C616D656E742072
:10098000616E642073656E64204D3130380A005208
:10099000656865617420446F6E65005265686561C5
:1009A00074696E672E2E2E0052656865617400486A
:1009B00065617465722054696D656F757400536567
:1009C0006E64204D31303820746F2068656174206A
:1009D0006E6F7A7A6C650A004E6F7A7A6C65205079
:1009E00061726B6564007061757365640050617558
:1009F00073650057616974696E6720666F7220685D
:100A000065617475702E0A004C656176696E6720A9
:100A1000473236003F5370656369666965642058E4
:100A20002C5920636F6F7264696E617465206F75F5
:100A300074206F6620626F756E64732E0A003F2803
:100A4000522965706561742076616C7565206E6FE2
:100A50007420706C61757369626C653B206D757391
:100A600074206265206174206C6561737420312E7E
:100A70000A003F2852296570656174206D75737492
:100A800020626520737065636966696564207768B4
:100A9000656E206E6F74207573696E6720616E20BD
:100AA0004C43442E0A003F53706563696669656470
:100AB000206E6F7A7A6C652074656D7065726174F2
:100AC000757265206E6F7420706C61757369626CED
:100AD000652E0A003F537065636966696564206628
:100AE000696C616D656E742073697A65206E6F74D0
:100AF00020706C61757369626C652E0A003F5370DB
:100B000065636966696564207072696D65206C65EE
:100B10006E677468206E6F7420706C6175736962A3
:100B20006C652E0A003F5072696D65206C656E67BA
:100B30007468206D757374206265207370656369D5
:100B400066696564207768656E206E6F74207573C2
:100B5000696E6720616E204C43442E0A003F53703B
:100B600065636966696564206E6F7A7A6C65207367
:100B7000697A65206E6F7420706C61757369626C40
:100B8000652E0A003F52657472616374696F6E204E
:100B90004D756C7469706C696572206D7573742025
:100BA0006265207370656369666965642E0A003F3B
:100BB0005370656369666965642052657472616328
:100BC00074696F6E204D756C7469706C6965722004
:100BD0006E6F7420706C61757369626C652E0A00AB
:100BE0003F537065636966696564206C61796572FD
:100BF00020686569676874206E6F7420706C617519
:100C00007369626C652E0A0043292E0A003F5370F7
:100C100065636966696564206265642074656D70EA
:100C200065726174757265206E6F7420706C617589
:100C30007369626C65202834302D0047323620738A
:100C400074617274696E672E2E2E0A004F46460A32
:100C500000466164652048656967687420004265E4
:100C600064204C6576656C696E6720004661696C2E
:100C7000656420746F20656E61626C6520426564F6
:100C8000204C6576656C696E670A00496E76616C0A
:100C90006964206D6573682E0A00203A203E20703A
:100CA000726F62696E6720636F6D706C6574650A40
:100CB00000202063757272656E745F706F73697463
:100CC000696F6E3D0050726F62696E6720506F6988
:100CD0006E740025532025692F2569002E0A002FE8
:100CE0000050726F62696E67206D65736820706F67
:100CF000696E742000202844525952554E290047ED
:100D00003239204175746F20426564204C657665E8
:100D10006C696E67003F20284C2C522C462C4229CF
:100D2000206F7574206F6620626F756E64732E0A73
:100D300000204200204600205200473239204C005B
:100D40003F2856296572626F7365206C6576656C05
:100D500020696D706C61757369626C652028302D37
:100D600034292E0A00426164205A2076616C756530
:100D70000A004E6F2062696C696E6561722067724D
:100D800069640A004732384C30003E204175746F68
:100D90002D6C6576656C206E6F74206E656564657C
:100DA000642C20736B69700A00473239005A205056
:100DB000726F62652050617374204265640A005A44
:100DC0002050726F62652050617374204265640028
:100DD000203A20686F6D655F7A5F736166656C7934
:100DE0000A00202064657374696E6174696F6E3DDA
:100DF00000686F6D655F7A5F736166656C7900523C
:100E000061697365205A20286265666F7265206883
:100E10006F6D696E672920627920003E20686F6DD2
:100E2000696E67206E6F74206E65656465642C2042
:100E3000736B69700A004732380020440020204D4F
:100E4000323030205300202844697361626C65643D
:100E5000293A0046696C616D656E7420736574741F
:100E6000696E67730020204D3230312058004D618B
:100E70007820416363656C65726174696F6E2028C8
:100E8000756E6974732F7332290020204D32303310
:100E90002058004D617820666565647261746573E1
:100EA0002028756E6974732F73290020520020204A
:100EB0004D323034205000416363656C657261745B
:100EC000696F6E2028756E6974732F73322920281C
:100ED000503C7072696E742D616363656C3E205284
:100EE0003C726574726163742D616363656C3E204E
:100EF000543C74726176656C2D616363656C3E2948
:100F00000020580020540020530020204D3230355E
:100F1000204200416476616E6365642028423C6D26
:100F2000696E5F7365676D656E745F74696D655F2B
:100F300075733E20533C6D696E5F666565647261D2
:100F400074653E20543C6D696E5F74726176656CA9
:100F50005F66656564726174653E20583C6D6178BA
:100F60005F6A65726B3E20593C6D61785F6A65729D
:100F70006B3E205A3C6D61785F6A65726B3E20451E
:100F80003C6D61785F6A65726B3E290020440020E9
:100F9000490020204D333031205000486F74656E79
:100FA00064205049440020440020490020204D3353
:100FB00030342050004265642050494400203B00FA
:100FC00020550020204D363033204C0046696C619E
:100FD0006D656E74206C6F61642F756E6C6F6164EB
:100FE000004D323453256C6454256C64004739320B
:100FF0002E394525730047314625640047315A256F
:1010000073463630300047315825735925734633BF
:10101000303030004D313036502569532569004D50
:10102000313039532569004D323030442573004743
:1010300039322E395A2573004D3432305325635AD4
:10104000257300473238523058590047315A2573BA
:1010500046363030004739322E395A257300473929
:10106000322E394530004D313039532569004D312C
:101070003930532569004D343230205330205A30F6
:10108000003D3D4F6E506F7765724C6F73735265C4
:1010900073756D653D3D00203B200020204D3431AF
:1010A00033205300506F7765722D6C6F737320720D
:1010B00065636F76657279004F4646004F4E00209B
:1010C0003B20486F73742068616E646C696E6720A2
:1010D00000203B204D6F646520006D6D00203B209B
:1010E00044697374616E6365200046696C616D6567
:1010F0006E742072756E6F757420003B200020495D
:101100006E76616C696420657874727564657220AE
:101110000047322F47332062616420706172616D35
:1011200065746572730A00536C6565702E2E2E000F
:10113000205A3A200020593A200042656420583A4B
:1011400020004D65736820706F696E74206F757430
:10115000206F662072616E67650A00626567696E5E
:10116000004D302053746F70004D312053746F70F8
:1011700000436C69636B20746F20526573756D65F5
:101180002E2E2E004E6F204D6F76652E00456E641C
:101190002066696C65206C6973740A004265676932
:1011A0006E2066696C65206C6973740A004E6F204E
:1011B0006D656469610A00286E6F2066696C652937
:1011C0000043757272656E742066696C653A200022
:1011D0004E6F74205344207072696E74696E670A92
:1011E000005344207072696E74696E67206279746E
:1011F0006520002569730025696D20256973002528
:1012000069682025696D202569730025696420259A
:1012100069682025696D2025697300256979202575
:101220006964202569682025696D2025697300504F
:1012300072696E742074696D653A20003F43616E77
:101240006E6F7420777269746520746F20494E50F8
:1012500055540A00496E76616C69642050696E20AD
:101260004D6F64650A006F6B006F666600ED04E801
:1012700004E104DA04CC04C50444454255473A006D
:101280004D313133205300544D33442031305350CD
:10129000726F5632204F46462E004649524D5741F6
:1012A00052455F4E414D453A4D61726C696E204426
:1012B00057372E342E3720544D33442053534D444A
:1012C00042422028417567203130203230323520AB
:1012D00030313A31323A30302920534F555243455C
:1012E0005F434F44455F55524C3A68747470733A8B
:1012F0002F2F6769746875622E636F6D2F496E7347
:10130000616E6974794175746F6D6174696F6E2F68
:101310004D61726C696E2F747265652F43726561E1
:101320006C6974794477696E5F322E302050524F69
:10133000544F434F4C5F56455253494F4E3A312E0E
:1013400030204D414348494E455F545950453A5429
:101350004D33442031305350726F5632204558542B
:1013600052554445525F434F554E543A31205555DE
:1013700049443A63656465326132662D34316132C5
:101380002D343734382D396231322D63353563369B
:1013900032663336376666002F2F005741524E496A
:1013A0004E4721204C6F77205A204A65726B206D82
:1013B0006179206C65616420746F20756E77616E51
:1013C000746564207061757365732E0A0020204D6A
:1013D00061783A2000200020204D696E3A200020DC
:1013E0003B200020204D323131205300536F667472
:1013F00020656E6473746F707300250A0046523A5C
:101400000020466C6F773A200050726F74656374E9
:1014100065642050696E0A00363726033C3D380E5D
:101420002E303E131A1C180A43090844000150725A
:101430006F6265204F6666736574205A0050726F44
:101440006265204F6666736574205A006469730094
:10145000656E0043290A0061626C656420286D692D
:101460006E2074656D702000436F6C642065787425
:101470007275646573206172652000504944204193
:1014800075746F74756E6500206661696C656421A2
:1014900020426164206865617465722069640A0095
:1014A000504944204175746F74756E65004D343237
:1014B0003120696E636F727265637420706172614E
:1014C0006D657465722075736167650A004D65739B
:1014D0006820706F696E74206F7574206F6620725B
:1014E000616E67650A00203B204C6576656C696E0D
:1014F00067200020204D3432302053004175746F36
:1015000020426564204C6576656C696E670020201A
:101510004D393030204B004C696E6561722041645A
:1015200076616E63650020500020440020204D3518
:10153000393120530046696C616D656E7420727597
:101540006E6F75742073656E736F7200204A002091
:1015500020473239205720490020204D313439208E
:1015600043203B20556E69747320696E2043656C7F
:10157000736975730A0054656D7065726174757274
:101580006520556E697473002020473231203B007E
:101590004C696E65617220556E69747300454550E3
:1015A000524F4D204F4B0A00290A0020746F200033
:1015B0003F5A206F7574206F662072616E676520D8
:1015C0002800290A0020746F20003F59206F75748D
:1015D000206F662072616E676520282D00290A0041
:1015E00020746F20003F58206F7574206F66207242
:1015F000616E676520282D002E0A002028302D31CD
:101600003029002076616C7565206F7574206F66D7
:101610002072616E676500416476616E6365204B80
:101620003D004D383400446F6E65207072696E74F1
:10163000696E672066696C650A004D3737004D3367
:101640003100290A002E2E2E2800540020204D3271
:101650003036205800486F6D65206F66667365747C
:10166000004F666673657473204170706C696564C1
:10167000004572723A20546F6F20666172210054E7
:101680006F6F206661722066726F6D20726566658D
:1016900072656E636520706F696E740A0020286D34
:1016A0006D2900203B0020204D3835312058005A4C
:1016B0002D50726F6265204F6666736574005265C7
:1016C00073756D696E6720534400436F6F6C696E6C
:1016D000672E2E2E0045312025530042656420439D
:1016E0006F6F6C696E672E2E2E0042656420486510
:1016F0006174696E672E2E2E003D3D4477696E2021
:10170000496E697420436F6D706C6574653D3D0072
:1017100070012C0190012701B0012201C0011D01BF
:10172000F00118011002130130020E0160020901DC
:1017300090020401C002FF000003FA004003F5001C
:101740008003F000D003EB002004E6007004E10009
:10175000E004DC004005D700C005D2004006CD0003
:10176000D006C8008007C3003008BE00F008B900EA
:10177000C009B400B00AAF00B00BAA00D00CA5009D
:10178000000EA000500F9B00C01096005012910058
:1017900000148C00C0158700B0178200B0197D00BE
:1017A000D01B7800001E730040206E00902269005C
:1017B000F024640040275F0090295A00E02B550078
:1017C000102E500020304B0010324600E033410014
:1017D00090353C001037370070383200A0392D00AA
:1017E000B03A2800A03B2300603C1E00103D1900C9
:1017F000903D1400103E0F00703E0A00C03E0500F0
:10180000003F0000403FFBFF803FF6FFC03FF1FF7D
:1018100000002100240027002A002D0030003300A2
:1018200001010000040107010A0100002200250057
:1018300028002B002E0031003400020100000501B9
:1018400008010B01000020002300260029002C00C5
:101850002F00320000010000030106010901050507
:101860000505070508080808020202020A0A080816
:101870000404040401010101010101010303030344
:1018800003030303040707070C0C0C0C0C0C0C0CD3
:101890000202020206060606060606060B0B0B0BE4
:1018A0000B0B0B0B01021020200808102040102009
:1018B0004080020102010804020101020408102014
:1018C0004080804020100804020180040201804012
:1018D000201008040201080402010102040810207B
:1018E0004080010204081020408000000A0B020919
:1018F0000C0D0E08070304010000000000000000AA
:1019000000000000000000000000000000000000D7
:101910000000000000001211100000000000000094
:1019200000000000000000000000000000000000B7
:10193000702600009B1E0000C3150000C70D0000AC
:10194000F40700004F0400004002000026010000E0
:101950004572726F722077726974696E6720746F56
:1019600020454550524F4D210A0020746F6F206C66
:101970006F6E6720657874727573696F6E20707210
:101980006576656E7465640A0020636F6C6420651B
:101990007874727573696F6E2070726576656E7497
:1019A00065640A004D323520500A4D3234005265CC
:1019B00073756D650055492050617573650043610D
:1019C0006E6E6F7420656E746572207375626469E3
:1019D000723A20004E6F204D61746368203A0043D4
:1019E0006F6E73747261696E206D65736856616C99
:1019F00020006D65736856616C200079506E74200C
:101A00000078506E7420006D657368506F696E7455
:101A10002000446973706C61794272696768746E02
:101A2000657373205365743A2000446973706C6168
:101A3000794272696768746E657373204C43443AE7
:101A400020004D32320A4D323100526566726573A4
:101A5000680050675570005067446F776E00497397
:101A60002046696C65200049732044697220004754
:101A70006F557044697200486173204D65646961F7
:101A80000046696C656E616D652053656C656374B5
:101A90006564004D3130303043004D31303030001E
:101AA0002046696C616D656E7420526573706F6E4F
:101AB0007365204E6F00526573756D6520596573AF
:101AC00020647572696E67207072696E74000A20F6
:101AD0004E6F2046696C616D656E7400496E76616B
:101AE0006C6964204F7074696F6E004D3530300042
:101AF00053746F72652053657474696E6773004D1B
:101B00003939390A4D32383050305331363000428D
:101B10004C546F756368205265736574004D3530A1
:101B2000320A4D35303000496E69742045455052B7
:101B30004F4D004D3530300053746F726520536542
:101B40007474696E677300496E4C616E6743686FA9
:101B5000696365000A202A2A2A7265636461742E0B
:101B6000646174615B305D203D004732380A473163
:101B7000204631303030205A313000556E73757048
:101B8000706F72746564204F7074696F6E20536556
:101B90006C6563746564004D36303553300A4732E6
:101BA0003858004D36303553310A54300A473238F0
:101BB0000A4D36303553320A473238580A473158C1
:101BC000300A4D3630355333004D36303553310AF7
:101BD00054300A4732380A4D36303553320A4732CC
:101BE00038580A47315830004D36303553310A479E
:101BF0003238580A47315830004D32313153300AAB
:101C00004739310A47315A302E3032350A47393098
:101C10000A4D3231315331004D32313153300A47A0
:101C200039310A47315A2D302E3032350A47393092
:101C30000A4D323131533100473239533200473285
:101C40003953310047323652323535004D31393053
:101C50005335350A4732380A4732390A4D34303065
:101C60000A4D313034533231350A4732380A4D315A
:101C70003039533231350A4D34323053310A47311D
:101C8000583130305931303046353030300A4731F4
:101C90005A300A4D3530300A4D3131372053657492
:101CA000205A204F666673657400473120463130F4
:101CB0003030205A302E30004732380A4731204623
:101CC00031303030205A302E30005A204F66667343
:101CD0006574203A202573005A204F666673657438
:101CE000203A202573004732385A0A4731463135A9
:101CF00030305A302E30004732380A4731463135BD
:101D000030305A302E3000426564204C6576656C68
:101D1000204F7074696F6E200052657475726E206A
:101D20003A20004D383400473146313030305A3097
:101D30002E30004732380A473146313030305A3081
:101D40002E30004D616E75616C53657454656D7015
:101D5000005A204F6666736574203A20257300523E
:101D60006F756E64696E6720746F207374657000A0
:101D7000526571756573746564204F66667365742A
:101D8000200053746F7020547269676765726564D0
:101D90000053746F70204E6F0053746F70507269EF
:101DA0006E740048616E646C65204461746120410A
:101DB000646A75737420322053657474696E672089
:101DC00053637265656E200048616E646C652044E3
:101DD000617461205072696E7446696C65203320AD
:101DE00053657474696E672053637265656E200075
:101DF00048616E646C652044617461205072696E44
:101E00007446696C6520322053657474696E67206E
:101E100053637265656E20004D38340048616E640E
:101E20006C652044617461205072696E7446696CFF
:101E30006520506F73740048616E646C6520446166
:101E40007461205072696E7446696C6520507265C9
:101E500000426567696E537769746368003D3D2091
:101E6000436865636B6B65793D3D007265636461D2
:101E7000742E61646472203D3D0072656364617418
:101E80002E646174615B305D203D3D0070726F6D4A
:101E900070745F00626567696E0044697361626CAB
:101EA0006552756E6F75740050757267654D6F720F
:101EB000650050617573656400436F6E74696E757B
:101EC00065004C6F61642046696C616D656E7420BD
:101ED00054004C6F61642046696C616D656E7400DE
:101EE000496E736572742066696C616D656E7420ED
:101EF000616E642073656E64204D3130380A007263
:101F00006573756D6564004469736D697373005220
:101F10006573756D696E67002044697363726570DF
:101F2000616E63793A00326E642050726F62652090
:101F30005A3A00534C4F57003173742050726F62FD
:101F400065205A3A00464153540050726F62653A18
:101F50003A72756E5F7A5F70726F6265006D65616F
:101F600073757265645F7A3A200050726F62696EB1
:101F700067204661696C65640A0050726F62696E21
:101F800067204661696C656400205A3A2000205938
:101F90003A200042656420583A2000506F736974FB
:101FA000696F6E204E6F7420526561636861626C68
:101FB000650A00203A200A00202063757272656E5F
:101FC000745F706F736974696F6E3D005F72656CEA
:101FD0006174697665290A002C20002C20002C20D1
:101FE000002C20002E2E2E280050726F62653A3A87
:101FF00070726F62655F61745F706F696E740050BC
:10200000726F62653A3A70726F62655F646F776E85
:102010005F746F5F7A0020547269676765726564E8
:10202000206561726C792E00204E6F207472696792
:102030006765722E002050726F6265206661696C60
:1020400021202D0043616E6E6F74206F70656E20CD
:102050007375626469722000204500205A0020597F
:102060000020204D39322058005374657073207061
:10207000657220756E697400496E76616C696420C2
:1020800065787472756465720A00220A00556E6B79
:102090006E6F776E20636F6D6D616E643A20220003
:1020A00020453A00205A3A0020593A00583A006F29
:1020B0006B0A00526573656E643A20006E6F746936
:1020C0006669636174696F6E2000544D334420313A
:1020D000305350726F56322052656164792E005031
:1020E00072696E74696E672E2E2E005072696E745E
:1020F0002050617573656400524553554D45204F1E
:102100005054494F4E533A0048656174696E672ECA
:102110002E2E000000436C69636B20746F2068658D
:102120006174000000526573756D696E672E2E2E06
:1021300000000050757267696E672E2E2E00000039
:102140004C6F6164696E672E2E2E000000496E731D
:1021500065727420616E6420436C69636B000000DB
:10216000436C69636B20746F20636F6E74696E7566
:1021700065000000456A656374696E672E2E2E0047
:102180000000506C6561736520776169742E2E2E96
:102190000000005061726B696E672E2E2E000000E9
:1021A00050617573654D73673D000A20696E6974EF
:1021B000207A70726F62655F7A6F666673657420ED
:1021C0003D20003D3D6F6E436F6E666967757261BD
:1021D00074696F6E53746F7265526561643D3D0042
:1021E000454550524F4D20496E697469616C697A5A
:1021F00065640A0048617264636F646564204465C5
:102200006661756C742053657474696E6773204CD5
:102210006F6164656400454550524F4D20646174A0
:102220006173697A65206572726F722E0A00536558
:102230007474696E6720566F6C756D65204F6E20E3
:102240003A200053657474696E67205374616E643C
:102250006279204F6E203A200053657474696E676E
:1022600020566F6C756D65203A2000536574746953
:102270006E6720526F746174696F6E203A2000534C
:10228000657474696E67205374616E64627920545A
:10229000696D65203A200053657474696E67205338
:1022A00074616E646279203A200053657474696EBB
:1022B00067204272696768746E657373203A200004
:1022C0004C6F6164696E67204457494E204C43440B
:1022D0002073657474696E672066726F6D20454562
:1022E00050524F4D0A0044697363617264696E67AE
:1022F000204457494E204C43442073657474696EE2
:10230000672066726F6D20454550524F4D202D203D
:1023100073657474696E67732076657273696F6E26
:1023200020696E636F72726563740A004469736337
:10233000617264696E67204457494E204C434420C3
:1023400073657474696E672066726F6D20454550C1
:10235000524F4D202D2073697A6520696E636F722C
:10236000726563740A00290A002062797465733B00
:102370002063726320002073746F7265642073653C
:102380007474696E677320726574726965766564CA
:10239000202800202863616C63756C617465642972
:1023A000210A0020213D2000454550524F4D204339
:1023B0005243206D69736D61746368202D2028730A
:1023C000746F7265642920002053697A653A200091
:1023D000496E6465783A20000000FA430000FA4331
:1023E0000000204100008C420000A0420000A042FA
:1023F0000000C84300000C43EE020000EE020000A3
:10240000640000003C000000454550524F4D2056EE
:10241000657273696F6E204572726F7200204D6134
:10242000726C696E3D563837290A00454550524F47
:102430004D2076657273696F6E206D69736D61747E
:1024400063682028454550524F4D3D0024F404D97F
:10245000201BC40C5C0E9804C4095F02650771015F
:10246000F405F900FB04B30048048700C1036900C8
:102470005803550003034500BE023A0084023100B0
:1024800053022A002902250004022000E4011C0056
:10249000C8011900AF01170098011400840113004E
:1024A000710110006101100051010E0043010D0087
:1024B00036010B002B010B0020010B001501090058
:1024C0000C01090003010800FB000800F3000800EC
:1024D000EB000700E4000600DE000600D80006005E
:1024E000D2000600CC000500C7000500C2000500B0
:1024F000BD000400B9000400B5000400B1000400F0
:10250000AD000400A9000400A5000300A200030020
:102510009F0004009B000300980003009500020048
:1025200093000300900003008D0002008B00030065
:10253000880002008600020084000300810002007F
:102540007F0002007D0002007B0002007900020093
:1025500077000100760002007400020072000100A2
:10256000710002006F0002006D0001006C000200AB
:102570006A000100690002006700010066000100B6
:1025800065000100640002006200010061000100BA
:10259000600001005F0002005D0001005C000100BE
:1025A0005B0001005A0001005900010058000100C1
:1025B00057000100560001005500010054000100C1
:1025C00053000000530001005200010051000100BF
:1025D000500001004F0001004E0000004E000100BD
:1025E0004D0001004C0001004B0000004B000100B9
:1025F0004A000100490001004800000048000100B5
:1026000047000100460000004600010045000000B0
:1026100045000100440001004300000043000100A8
:1026200042000000420001004100000041000100A2
:10263000400001003F0000003F0001003E0000009C
:102640003E0001003D0000003D0001003C00000094
:102650003C0000003C0001003B0000003B0001008A
:102660003A0000003A000100390000003900010082
:10267000380000003800000038000100370000007A
:10268000370001003600000036000000360001006F
:102690003500000035000000350001003400000066
:1026A000340000003400010033000000330000005B
:1026B000330001003200000032000000320001004F
:1026C0003100000031000000310001003000000046
:1026D00030000000300001002F0000002F0000003B
:1026E0002F0000002F0001002E0000002E0000002F
:1026F0002E0001002D0000002D0000002D00000024
:102700002D0001002C0000002C0000002C00000017
:102710002C0001002B0000002B0000002B0000000B
:102720002B0001002A0000002A0000002A000000FF
:102730002A000100290000002900000029000000F3
:1027400029000000290001002800000028000000E6
:1027500028000000280000002800010027000000D9
:1027600027000000270000002700000027000100CC
:1027700026000000260000002600000026000000C1
:1027800026000100250000002500000025000000B3
:1027900025000000250000002500010024000000A5
:1027A0002400000024000000240000002400010098
:1027B000230000002300000023000000230000008D
:1027C000230000002300000023000100220000007D
:1027D0002200000022000000220000002200000071
:1027E0002200010021000000210000002100000063
:1027F0002100000021000000210000002100010054
:102800002000000020000000200000002000000048
:102810002000000020000000200000002000010037
:102820001F0000001F0000001F0000001F0000002C
:102830001F0000001F0000001F0001001E0000001C
:102840001E0000001E0000001E00000024F4D43012
:1028500050C38E20C2A24017828B7011127A910D44
:10286000816CD90AA861E108C7586607615143061F
:102870001E4B5D05C145A7041A411104093D98038B
:10288000713931034036DB0265339102D430540292
:10289000802E1D02632CEE01752AC501B028A0010F
:1028A000102781018F2564012B244B01E022340184
:1028B000AC211F018D200D01801FFC00841EED0046
:1028C000971DDF00B81CD200E61BC600201BBC0011
:1028D000641AB200B219A8000A19A0006A18990077
:1028E000D117910040178B00B516840031167E0079
:1028F000B31579003A157300C7146F0058146A00B5
:10290000EE1366008813630025135E00C7125B0098
:102910006C12570015125400C111510070114F0074
:1029200021114B00D61049008D104700461044007D
:1029300002104200C00F4000800F3E00420F3C00DA
:10294000060F3B00CB0E3800930E37005C0E3500AF
:10295000270E3400F30D3200C10D3100900D300010
:10296000600D2E00320D2D00050D2C00D90C2B0012
:10297000AE0C2900850C29005C0C2700350C2700C3
:102980000E0C2600E80B2400C40B2400A00B23002F
:102990007D0B23005A0B2100390B2100180B20005E
:1029A000F80A1F00D90A1E00BB0A1E009D0A1D005E
:1029B000800A1D00630A1C00470A1B002C0A1B002A
:1029C000110A1A00F7091A00DD091900C4091900D3
:1029D000AB091900920917007B0918006309170059
:1029E0004C09160036091600200916000A091500C0
:1029F000F5081500E0081400CC081400B80814000D
:102A0000A4081400900813007D0812006B0813003E
:102A1000580812004608120034081100230811005B
:102A20001208110001081100F0071000E007100063
:102A3000D0071000C0071000B0070F00A10710005A
:102A400091070E0083070F0074070F0065070E0043
:102A500057070E0049070E003B070D002E070E001A
:102A600020070D0013070D0006070D00F9060C00E6
:102A7000ED060D00E0060C00D4060C00C8060C00A4
:102A8000BC060C00B0060C00A4060B0099060C0056
:102A90008D060B0082060B0077060B006C060B0000
:102AA00061060A0057060B004C060A0042060A009F
:102AB00038060A002E060A0024060A001A060A0032
:102AC0001006090007060A00FD050900F4050900C3
:102AD000EB050900E2050900D9050900D005090048
:102AE000C7050900BE050900B5050800AD050800C9
:102AF000A50509009C050800940508008C05080040
:102B0000840508007C050800740508006C050700B2
:102B1000650508005D050700560508004E0507001D
:102B20004705070040050800380507003105070084
:102B30002A050700230507001C05060016050700E7
:102B40000F0507000805060002050700FB04060044
:102B5000F5040700EE040600E8040600E20407009E
:102B6000DB040600D5040600CF040600C9040600F5
:102B7000C3040600BD040600B7040600B104050046
:102B8000AC040600A6040600A00405009B04060091
:102B900095040500900406008A04050085040500DC
:102BA000800406007A040500750405007004050021
:102BB0006B04050066040500610405005C04050063
:102BC00057040500520405004D04050048040500A3
:102BD000430405003E0404003A04050035040500E2
:102BE000300404002C04050027040400230405001D
:102BF0001E0404001A040400160405001104040055
:102C00000D04040009040500040404000004040089
:102C1000FC030400F8030400F4030400F0030400C0
:102C2000EC030400E8030400E4030400E0030400F0
:102C3000DC030400D8030400D4030400D003040020
:102C4000CC030400C8030300C503030020436F75D1
:102C50006E7420583A0023646566696E65204445A9
:102C60004641554C545F0000626564004B6420008F
:102C70004B6920004B7020005049442074756E69E8
:102C80006E6720646F6E65002066696E69736865A3
:102C900064212050757420746865206C6173742001
:102CA0004B702C204B6920616E64204B6420636F55
:102CB0006E7374616E74732066726F6D2062656CE2
:102CC0006F7720696E746F20436F6E6669677572E7
:102CD0006174696F6E2E680A005049442041757412
:102CE0006F74756E6500206661696C65642120747F
:102CF000696D656F75740A00504944204175746FA1
:102D000074756E65004175746F74756E65206661CB
:102D1000696C6564212054696D656F75742E00209F
:102D20006661696C6564212054656D7065726174BB
:102D300075726520746F6F20686967680A00504972
:102D400044204175746F74756E650050494420438A
:102D500079636C65730025532025692F2569002050
:102D60004B643A2000204B693A2000204B703A20F7
:102D70000020436C617373696320504944200A004A
:102D8000204E6F206F76657273686F6F740A002033
:102D900054753A2000204B753A2000206D61783A36
:102DA0002000206D696E3A200020643A20002062E5
:102DB0006961733A200048656174696E672E2E2E32
:102DC000002073746172740A005049442041757484
:102DD0006F74756E65004175746F74756E652066ED
:102DE00061696C6564212054656D706572617475EC
:102DF000726520746F6F20686967682E00206661B5
:102E0000696C6564212054656D70657261747572BA
:102E10006520746F6F20686967680A005049442014
:102E20004175746F74756E650042656400453100CC
:102E30004500626564002C2073797374656D20739E
:102E4000746F7070656421204865617465725F49B4
:102E5000443A20004572723A204D415854454D5035
:102E6000004D415854454D50207472696767657232
:102E700065640048656174696E67204661696C65C8
:102E8000640048656174696E67206661696C656499
:102E9000004D353234004D31313220536875746441
:102EA0006F776E001000C90210012C014001220151
:102EB00070011801B0010E01F00104015002FA0086
:102EC000B002F0003003E600D003DC009004D20032
:102ED0007005C800A006BE000008B400B009AA0032
:102EE000D00BA000600E960060118C0000158200CF
:102EF00020197800C01D6E00A0226400B0275A007F
:102F0000902C500000314600E0343C001038320074
:102F1000903A2800603C1E00A03D1400803E0A004C
:102F2000203F00004572723A204D494E54454D50A5
:102F3000004D494E54454D50207472696767657263
:102F4000656400544845524D414C2052554E4157FE
:102F5000415900546865726D616C2052756E6177DD
:102F6000617900202F002042403A0020403A0020A2
:102F7000573A0020573A007C3C3E5E2B3D3F2F5B8A
:102F80005D3B2C2A225C004D6564696120496E69B5
:102F900074204661696C0053442063617264206F41
:102FA0006B0A006F70656E526F6F74206661696C9A
:102FB00065640A00766F6C756D652E696E697420A4
:102FC0006661696C65640A004E6F2053442063613A
:102FD00072640A00534420636172642072656C65F8
:102FE000617365640A000A4D3234004D3233202586
:102FF00073002E0A006F70656E206661696C6564EF
:103000002C2046696C653A200046696C6520736522
:103010006C65637465640A002053697A653A200020
:1030200046696C65206F70656E65643A2000454E98
:103030004420535542524F5554494E450A002220D0
:10304000706F73002220706172656E743A220053B3
:103050005542524F5554494E452043414C4C2074E3
:1030600061726765743A220053756263616C6C200B
:103070004F766572666C6F77004578636565646549
:1030800064206D617820535542524F5554494E4546
:103090002064657074683A002E0A0044656C65749B
:1030A000696F6E206661696C65642C2046696C6589
:1030B0003A200046696C652064656C657465643A05
:1030C0000057726974696E6720746F2066696C6559
:1030D0003A2000667265736800646F696E6700204D
:1030E00066696C653A20004E6F7720002F61757419
:1030F0006F25632E67002020506C616E6E657242F2
:10310000756666657242797465733A20002046726E
:103110006565204D656D6F72793A200020436F6DB3
:1031200070696C65643A2041756720313020323017
:1031300032350A00204C61737420557064617465E7
:10314000643A20323032332D30322D3033207C201F
:10315000417574686F723A2054696E794D61636885
:10316000696E657333440A004D61726C696E204468
:1031700057372E342E370A0020536F6674776172EA
:10318000652052657365740A002057617463686432
:103190006F672052657365740A002042726F776E04
:1031A000206F75742052657365740A002045787429
:1031B00065726E616C2052657365740A00506F779A
:1031C000657255700A0073746172740A0047393170
:1031D0000A47315A350A4739300A4D38340A4D31D9
:1031E000303453300A4D3134305330004D313030AB
:1031F00031006F6B006572726F722077726974694B
:103200006E6720746F2066696C650A00446F6E6596
:1032100020736176696E672066696C652E0A004DC1
:10322000323900456E6473746F7073002553202526
:103230006320256320256320256300205A3A00205F
:10324000593A0020583A00656E6473746F707320A9
:103250006869743A200068616E646C652077616902
:1032600074776179203D3D0020202A2A2A2A2A2AC3
:103270002A5254535F48616E646C65446174612ADC
:103280002A2A2A2A2A2A2A2000202D2064342000D3
:1032900064333A2000202D206432200064313A202B
:1032A00000202D206C656E200056502072656365ED
:1032B000697665643A20002A2A2A4E6F7A7A6C650C
:1032C00054656D705374617475735B325D203D009D
:1032D0003D3D48656174696E6720446F6E652043AB
:1032E00068616E67652046696C616D656E743D3D11
:1032F000002020737461727470726F6772657373EB
:1033000020004D32320A4D3231003D3D7761697403
:1033100077617920353D3D003D3D77616974776186
:103320007920343D3D003D3D7761697477617920B6
:10333000333D3D003D3D7761697477617920313DD2
:103340003D00436F6E6669726D20436F6E74696EE7
:1033500075650050617573655374617475730052BF
:103360004553554D45204F5054494F4E533A004810
:10337000656174696E672E2E2E000000436C6963D0
:103380006B20746F2068656174000000526573756E
:103390006D696E672E2E2E00000050757267696E83
:1033A000672E2E2E000000496E7365727420616EC8
:1033B0006420436C69636B000000436C69636B209D
:1033C000746F20636F6E74696E7565000000456AE6
:1033D000656374696E672E2E2E000000506C656167
:1033E000736520776169742E2E2E00000050617283
:1033F0006B696E672E2E2E0000002A2A2A496E69FC
:1034000074696E672063617264206973204F4B2A70
:103410002A2A003D3D6F6E5072696E7454696D6565
:103420007253746F707065643D3D003D3D6F6E5525
:10343000736572436F6E6669726D526571756972FC
:1034400065643D3D005061757365204D6F64652076
:10345000537461747573004C6F6164696E672E2ECE
:103460002E0000003D3D6F6E466163746F727952AD
:10347000657365743D3D00270A0A00002720270078
:103480002027002D0063616E63656C005072696EC9
:10349000742041626F727465640055492041626F07
:1034A0007274656400726573756D65004D32340029
:1034B0002A2A2A43506C617920546F6E652A2A2A81
:1034C000003D3D6F6E5072696E7454696D65725047
:1034D00061757365643D3D003D3D6F6E5072696E70
:1034E0007454696D6572537461727465643D3D0016
:1034F000486F6D696E67204661696C656400505263
:103500004553454E54004F5554006F70656E00543E
:103510005249474745524544003A20004D4F5449CF
:103520004F4E203A20004F46460A003A2000666976
:103530006C616D656E74007A5F6D696E00795F6DA8
:10354000696E00785F6D696E005265706F727469A4
:103550006E6720656E6473746F7020737461747528
:10356000730A00203A2073796E635F706C616E5F3E
:10357000706F736974696F6E0A00202063757272D0
:10358000656E745F706F736974696F6E3D003E2085
:1035900000646F5F626C6F636B696E675F6D6F76FF
:1035A000655F746F0020746F6F206C6F6E672065AD
:1035B0007874727573696F6E2070726576656E745B
:1035C00065640A0020636F6C64206578747275739B
:1035D000696F6E2070726576656E7465640A004866
:1035E0006F6D6520257320466972737400290A0087
:1035F0005D005B002C20002C20002E2E2E28006465
:103600006F5F686F6D696E675F6D6F76650057619C
:10361000726E696E673A20486F6D696E67204275F9
:103620006D702044697669736F72203C20310A0006
:10363000020204290A003C3C3C207365745F6178F7
:1036400069735F69735F61745F686F6D65280020DF
:103650003A200A00202063757272656E745F706F85
:10366000736974696F6E3D005D203D20003E2068E7
:103670006F6D655F6F66667365745B002A2A2A202A
:103680005A20484F4D454420574954482050524FE6
:10369000424520285A5F4D494E5F50524F42455F88
:1036A000555345535F5A5F4D494E5F454E44535401
:1036B0004F505F50494E29202A2A2A0A3E20707214
:1036C0006F62652E6F66667365742E7A203D2000EA
:1036D000000000000000000000000000290A003E79
:1036E0003E3E207365745F617869735F69735F61E3
:1036F000745F686F6D652800290A003C3C3C2068B7
:103700006F6D65617869732800203A203E2041463C
:10371000544552207365745F617869735F69735FA4
:1037200061745F686F6D650A002020637572726551
:103730006E745F706F736974696F6E3D006D6D0AB2
:103740000052652D62756D703A20006D6D0A004D56
:103750006F766520417761793A20006D6D0A0048E7
:103760006F6D6520466173743A200000809D4300B0
:10377000009B430000C843000000410000004100DE
:10378000000040FFFFFF290A003E3E3E20686F6DAB
:103790006561786973280020706F736974696F6E52
:1037A0005F7368696674203D200020686F6D655FF7
:1037B0006F6666736574203D200041786973200050
:1037C0000000000100000001000080005555550078
:1037D0000000400033333300AAAA2A004992240093
:1037E00000002000C7711C0099991900D1451700ED
:1037F000555515003BB11300244912001111110059
:10380000000010000F0F0F00E3380E0043790D0089
:10381000CCCC0C00C3300C00E8A20B0064210B00E0
:10382000AAAA0A00703D0A009DD80900427B09003F
:1038300092240900DCD308008888080010420800A0
:1038400000000800F0C107008787070075500700D7
:10385000711C07003EEB0600A1BC06006990060043
:1038600066660600703E06006118060017F4050043
:1038700074D105005BB00500B290050062720500CE
:103880005555050078390500B81E050005050500E9
:103890004EEC040087D40400A1BD040090A70400EE
:1038A00049920400C17D0400EE690400C75604007B
:1038B000444404005C320400082104004110040068
:1038C000000004003FF00300F8E0030026D20300EC
:1038D000C3C30300CCB503003AA803000A9B03004E
:1038E000388E0300C08103009F750300D069030078
:1038F000505E03001D53030034480300913D030054
:103900003333030016290300381F03009715030003
:10391000300C0300030303000BFA020049F102001C
:10392000BAE802005CE002002DD802002DD00200AF
:1039300059C80200B0C0020031B90200DAB1020079
:10394000AAAA0200A0A30200BC9C0200FA950200F1
:103950005C8F0200DF88020082820200457C020048
:103960002776020027700200436A02007C6402008E
:10397000D05E02003F590200C8530200FFFDFCFA6E
:10398000F8F6F4F2F0EEECEAE9E7E5E3E1E0DEDC9C
:10399000DAD9D7D5D4D2D0CFCDCBCAC8C7C5C3C248
:1039A000C0BFBDBCBAB9B7B6B4B3B2B0AFADACAAC4
:1039B000A9A8A6A5A4A2A1A09E9D9C9A9998979516
:1039C000949392908F8E8D8B8A8988878684838248
:1039D00081807F7E7D7B7A7978777675747372715A
:1039E000706F6E6D6C6B6A6968676665646362614F
:1039F000605F5E5D5C5B5A59585857565554535238
:103A00005150504F4E4D4C4B4A4A49484746464507
:103A10004443424241403F3E3E3D3C3B3B3A3938C5
:103A20003837363535343332323130302F2E2E2D73
:103A30002C2B2B2A29292827272625252423232216
:103A4000212120201F1E1E1D1C1C1B1B1A191918AA
:103A500018171616151514131312121111100F0F33
:103A60000E0E0D0D0C0C0B0A0A09090808070706B3
:103A7000060505040403030202010000290A0050A0
:103A8000726F62653A3A646F5F7A5F7261697365FB
:103A900028006465706C6F793A2000203A205072DB
:103AA0006F62653A3A7365745F6465706C6F7965CF
:103AB000640A00202063757272656E745F706F73A4
:103AC0006974696F6E3D00206D61783A00206D6900
:103AD0006E3A0041786973200000809D4300009B8E
:103AE000430000C843000000000000000000000088
:103AF00000536176696E67204457494E204C434419
:103B00002073657474696E672066726F6D20454519
:103B100050524F4D0A003D3D6F6E53657474696E8F
:103B2000677353746F7265643D3D005365747469C7
:103B30006E67732053746F72656400290A002062F7
:103B4000797465733B2063726320005365747469F4
:103B50006E67732053746F7265642028000016012D
:103B6000360111241FBECFEFD1E2DEBFCDBF00E092
:103B70000CBF84B780930A1914BE0FB6F894A895A9
:103B800080916000886180936000109260000FBE99
:103B900016E0A0E0B2E0E6EFF0E802E00BBF02C002
:103BA00007900D92A236B107D9F729E1A2E6B6E057
:103BB00001C01D92AA30B207E1F71DE1C0EBDDE1C3
:103BC00000E006C021970109802FFE010F94A83C58
:103BD000CF3AD10780E00807A9F70F940E2A0D9479
:103BE00069400C940000CF93DF93C091A212D09152
:103BF000A31281E0CE31D105E4F020E030E040E0D6
:103C00005FE360919E1270919F128091A01290913B
:103C1000A1120F94B13C0F941D3E6C1B7D0B77FFDE
:103C200003C071956195710981E0633071050CF0F5
:103C300080E0DF91CF910895CF93DF93DB01F9010D
:103C40009C919130C1F0943080F094509C938830D6
:103C5000D1F480819181009771F0019791838083E5
:103C6000480F591FEA01188206C08C3539F49C5F51
:103C70009C93943041F4DF91CF9108958B3339F7C1
:103C800081E08C93F8CF20813181B9016F5F7F4F44
:103C900071836083420F531FEA0188838081918181
:103CA0008F3591056CF7E7CF0F931F9381E000915B
:103CB000DF141091E0142091E1143091E21440914E
:103CC000DB145091DC146091DD147091DE14041744
:103CD00015072607370708F480E01F910F91089514
:103CE00020915C07833021F425FD0CC024FD0CC01D
:103CF00030E0A90102C0559547958A95E2F7CA01BF
:103D00008170089581E0089580E00895CF92DF9258
:103D1000EF92FF92CF93DF93EC01CC80DD80EE80B9
:103D2000FF8027E137EB41ED58EBC701B6010F9457
:103D3000113F87FD23C023E030E04BE953E4C70186
:103D4000B6010F94CD351816CCF0C880D980EA8022
:103D5000FB8027E137EB41ED58EBC701B6010F942B
:103D6000113F87FD0BC0C1E023E030E84DE953E48B
:103D7000C701B6010F94CD3518160CF4C0E08C2F96
:103D8000DF91CF91FF90EF90DF90CF900895682F53
:103D900070E090E080E00F94D4352091D9183091F4
:103DA000DA184091DB185091DC180F9433362091CB
:103DB000D1183091D2184091D3185091D4180F9443
:103DC000B13C0895682F70E090E080E00F94D43506
:103DD0002091D5183091D6184091D7185091D81805
:103DE0000F9433362091CD183091CE184091CF18D2
:103DF0005091D0180F94B13C08958091CC18811146
:103E00000EC020915F02309160022150310981E0A3
:103E10004091CE125091CF12421753070CF080E020
:103E20000895269A2E9A0895AB01BC014093DF14A1
:103E30005093E0146093E1147093E21487E496E1E8
:103E40000C9445C8EF92FF920F931F93CF937C0180
:103E500000915F0710916007C0E0F701EC0FF11DC2
:103E60006081662351F0062E000C770BC8010F9479
:103E7000FF3F892B49F4CF5FF0CF80E0CF911F91B6
:103E80000F91FF90EF90089581E0F8CF682F880F91
:103E9000770B80915F07909160070F94FF3FFC01C3
:103EA00081E0309709F480E0309781F0918120ED36
:103EB000290F2A3030F09E3251F4928190539A307B
:103EC00098F43196F0935707E093560708959D3282
:103ED00011F09B3249F4928120ED290F2A3088F3AA
:103EE0009E3211F49381EACFF0E0E0E0EBCF0E9444
:103EF000461F882341F081E02091560730915707F3
:103F0000232B09F480E008950F931F93CF93DF9341
:103F100000D01F92CDB7DEB79C0104E81CE090E111
:103F2000EAE4FDE0D80101900D929A95E1F7F901DC
:103F30002081318142815381F801608571858285BC
:103F400093850F94B13CF8016087718782879387CE
:103F500080E090E0A0EAB0E489839A83AB83BC83DD
:103F6000CE0101960F9474010F900F900F900F9057
:103F7000DF91CF911F910F9108952F923F924F9211
:103F80005F926F927F928F929F92AF92BF92CF92E9
:103F9000DF92EF92FF921F93CF93DF93CDB7DEB7FF
:103FA0002C970FB6F894DEBF0FBECDBF7A01190172
:103FB000DC012D913D914D915C912D833E834F838A
:103FC0005887FB01408051806280738080904A0D49
:103FD00090904B0DA0904C0DB0904D0DA50194010B
:103FE0006D817E818F8198850F94CD3581110EC0B2
:103FF00011E0A301920160914E0D70914F0D8091DF
:10400000500D9091510D0F94CD35811110E0D101DB
:104010002D913D914D915C9129873A874B875C8723
:10402000F701C080D180E280F380209106023091B8
:1040300007024091080250910902C701B6010F948E
:10404000CD35882309F44EC0C0920602D0920702F3
:10405000E0920802F09209028091560D9091570D5E
:10406000A091580DB091590D40914E0D50914F0DAA
:104070006091500D7091510D8092840C9092850C3E
:10408000A092860CB092870C4093880C5093890CB8
:1040900060938A0C70938B0CC0928C0CD0928D0C18
:1040A000E0928E0CF0928F0C8093900C9093910C78
:1040B000A093920CB093930C20E030E040E05FE3DB
:1040C0006091250D7091260D8091270D9091280DFE
:1040D0000F94333669837A838B839C83CE01019658
:1040E0000F9474012D813E814F8158852093840C5B
:1040F0003093850C4093860C5093870C4092880C2B
:104100005092890C60928A0C70928B0CD1012D9187
:104110003D914D915C916091900C7091910C8091CA
:10412000920C9091930C0F94B13C6093900C70930F
:10413000910C8093920C9093930C11112FC020E05E
:1041400030E0A90169857A858B859C850F94CD35F2
:10415000811133C060E070E088EC92E469837A8377
:104160008B839C83CE0101960F9474012C960FB61D
:10417000F894DEBF0FBECDBFDF91CF911F91FF90AE
:10418000EF90DF90CF90BF90AF909F908F907F90F7
:104190006F905F904F903F902F9008952AEF3EE7E9
:1041A0004AE25FE36091290D70912A0D80912B0DF9
:1041B00090912C0D0F943336D1CF60E070E080EAFF
:1041C00091E4CCCF8091560790915707009731F03A
:1041D0004AE050E070E060E00D94E83360E070E0A9
:1041E000CB010895CF93DF9300D01F92CDB7DEB7F8
:1041F00080E090E0A0EAB0E489839A83AB83BC833B
:1042000061E0CE0101960F946E170F900F900F9002
:104210000F90DF91CF9108950F931F93CF93DF936A
:1042200000D000D01F921F92CDB7DEB78B01FC01EA
:1042300023A5211102C00E94B17F1D821E821F8210
:10424000188620E030E040E05FE36091520D70910D
:10425000530D8091540D9091550D0F94B13C69838D
:104260007A838B839C839E012B5F3F4FAE014F5F10
:104270005F4F6EE47DE08AE49DE00E94BD1F1D82D9
:104280001E821F82188620E030E040E05FE3F801E4
:1042900060857185828593850F94B13C69837A83AB
:1042A0008B839C83B8016C5F7F4F9E012B5F3F4FD8
:1042B000AE014F5F5F4FC8010E94BD1F28960FB629
:1042C000F894DEBF0FBECDBFDF91CF911F910F914C
:1042D00008958091560790915707009731F04AE072
:1042E00050E070E060E00D94BA3260E070E0CB0125
:1042F0000895CF93DF93EB010E94771F882319F075
:104300000E946921EB01CE01DF91CF9108950E94B7
:10431000692197FD0CC00E9469216F3F71058105DD
:10432000910509F034F40E946921862F089580E0F8
:1043300008958FEF0895CF93C62F0E94771F88238B
:1043400019F0CF910C9487218C2FCF9108958091F3
:10435000560790915707892B41F00E94872191E0E1
:10436000811101C090E0892F089591E0FCCFCF9397
:10437000DF93C82FD62F0E94771F882321F0DF916B
:10438000CF910C94A7218C2F0E94461F811101C050
:104390008D2FDF91CF9108950E946921CB0108955F
:1043A000CF93DF93EB010E94771F882321F0DF91E9
:1043B000CF910C94CC21CE01DF91CF9108950F9332
:1043C0001F93CF938091560790915707009709F15B
:1043D000FC018F01C1912C2F2F7DA1F0C53431F04C
:1043E000C53621F0C83511F0C83799F7F8011082A9
:1043F00070E060E00F945C31F801C083CF911F91B1
:104400000F91089570E060E0CF911F910F910D948E
:104410005C3160E070E0CB01F1CFCF92DF92EF92A0
:10442000FF926A017B010E94771F882331F0FF9081
:10443000EF90DF90CF900C94DF21C701B601FF9081
:10444000EF90DF90CF9008950C9481790F931F9394
:10445000CF9310925E0710925D072FE320936407BD
:104460001092630710926207109261079C01F90194
:1044700090812F5F3F4F9032D1F39E34C9F48181F8
:1044800090ED980F9A3020F08D3211F08B3281F43C
:1044900032969F012F5F3F4F808180538A3008F40E
:1044A00075C09F012F5F3F4F8081803209F470C03B
:1044B000F093490DE093480D8F010F5F1F4FC081AE
:1044C0006AE270E0C8010F94FF3F009731F0FC01F1
:1044D000319780818032E1F31182CD3429F0C435E7
:1044E00019F0C73409F04EC0F80180810F5F1F4FEB
:1044F0008032D1F380538A3008F044C0C0936407FF
:1045000030E020E04AE0DF011196429FC001439F66
:10451000900D11249C01205331098081280F311DF9
:1045200087FD3A95818190ED980F9A3098F13093FC
:104530006307209362078E3261F4329690E04AE07E
:10454000DF0131968C9150ED580F5A3028F190933D
:104550006107FD01119680818032D9F3F0936007E5
:10456000E0935F07CD3441F52E31310539F0D0F4B9
:104570002731310519F02C313105F1F4F0935E0744
:10458000E0935D07CF911F910F910895F90181CFBD
:10459000F90187CFFD01B7CF949F800D112490EDD5
:1045A000980FCECF2537310538F02737310530F356
:1045B000203A83E0380711F350E040E0CF01019644
:1045C0006081662309F45AC0613291F4CD3481F4DC
:1045D0002032310569F490935E0780935D0763E2B2
:1045E00070E00F94FF3F009769F2FC011082CACF80
:1045F000FC01DF018D91803271F090ED980F9A30BF
:1046000008F18E3251F4918190539A30D8F04115CF
:104610005105E1F414C0FD01ECCF8D3211F08B3265
:1046200059F4918160ED690F6A3060F09E3221F497
:10463000928190539A3030F04115510519F4AF0131
:104640004150510981548A3108F4B8CFDF01FD018E
:104650008D91882309F4B2CF90ED980F9A30B8F37A
:1046600093ED980F923098F38B3289F3CF01019636
:104670006081603209F0A2CFFC01F8CF50935E0751
:1046800040935D077FCF81E08093D1120895FC01B4
:104690006591759185919491089580E00D94BE1770
:1046A000682F70E090E080E00C9481799B01AC0170
:1046B000485F5F4FBC016C5F7F4F0C94BD1F2F9212
:1046C0003F924F925F926F927F928F929F92AF92A2
:1046D000BF92CF92DF92EF92FF920F931F93CF93EF
:1046E000DF93CDB7DEB7A6970FB6F894DEBF0FBE47
:1046F000CDBF8C011B015A87498740904A0D5090CD
:104700004B0D60904C0D70904D0D80904E0D909023
:104710004F0DA090500DB090510DDB018D919D91EA
:104720000D90BC91A02D8B8B9C8BAD8BBE8B9C0177
:10473000AD01C301B2010F94B03C6B017C01D1010A
:1047400014968D919D910D90BC91A02D8F8B988F7B
:10475000A98FBA8F9C01AD01C501B4010F94B03C83
:104760006B8F7C8F8D8F9E8FA985BA858D919D9142
:104770000D90BC91A02D8B879C87AD87BE879C0137
:10478000AD01C301B2010F94B03C6F8F78A389A330
:104790009AA3A985BA8514968D919D910D90BC918F
:1047A000A02D8F87988BA98BBA8B9C01AD01C50179
:1047B000B4010F94B03C6BA37CA38DA39EA3A7016F
:1047C0009601C701B6010F9433366B017C012B8D26
:1047D0003C8D4D8D5E8DCA01B9010F9433369B011E
:1047E000AC01C701B6010F94B13C4B015C012B89B0
:1047F0003C894D895E896B857C858D859E850F946E
:10480000B03C2B013C012F89388D498D5A8D6F8525
:10481000788989899A890F94B03C6B017C01A30146
:104820009201C301B2010F9433362B013C01A70161
:104830009601C701B6010F9433369B01AC01C30149
:10484000B2010F94B13C0F945F3F6B017C012F8D3F
:1048500038A149A15AA1CA01B9010F9433362B01DD
:104860003C012BA13CA14DA15EA1CA01B9010F944D
:1048700033369B01AC01C301B2010F94B13C9B01E3
:10488000AC01C501B4010F94113F1816B4F520E036
:1048900030E0A901C701B6010F94113F87FF2AC07C
:1048A000C701B601905820E030E040EA50E40F9490
:1048B000113F181614F5A10169857A85C8010E9477
:1048C0005F23A6960FB6F894DEBF0FBECDBFDF9173
:1048D000CF911F910F91FF90EF90DF90CF90BF90FD
:1048E000AF909F908F907F906F905F904F903F9090
:1048F0002F900895C701B601D6CF20E030E040E008
:1049000050E4C501B4010F94113F181624F4B1010D
:10491000C8010E940C2119821A821B821C82BE01CE
:104920006F5F7F4FC1010E9456232DEC3CEC4CEC95
:104930005CE3C701B6010F9433369B01AC01F8016B
:1049400060817181828193810F9433366D837E8380
:104950008F839887D8019B968C919B978823C9F069
:104960002AE939E949E95FE314966D917D918D91CA
:104970009C9117970F94333669837A838B839C833A
:10498000BE016F5F7F4F84E89CE00E945623F801D0
:1049900013A6BE016B5F7F4F89859A850E945623BF
:1049A00090CF3F924F925F926F927F928F929F92A1
:1049B000AF92BF92CF92DF92EF92FF920F931F932D
:1049C000CF93DF93CDB7DEB76C970FB6F894DEBF09
:1049D0000FBECDBF8C01DB018C91A42EA80EB4E0DC
:1049E000BA1508F4E4C0FB01B180322E3B0CB315BC
:1049F00008F4DDC0EB2DF0E0E45BF84FE081F0E07F
:104A0000082E02C0F595E7950A94E2F7E0FFCFC0C3
:104A1000E32DF0E0E45BF84FE081F0E00A2C02C007
:104A2000F595E7950A94E2F7E0FFC1C0822E942E37
:104A30000E94E21E6B017C01692D660F770B072E29
:104A4000000C880B990B0F94D4352B013C01AC0161
:104A50009B01C701B6010F94B13C6B017C01CD866F
:104A6000DE86EF86F88A8A2D0E94E21EA30192015B
:104A70000F94B03C698F7A8F8B8F9C8F69837A8378
:104A80008B839C838B2D0E94C71E2B013C01682DBC
:104A9000660F770B072E000C880B990B0F94D435FB
:104AA0004B015C01AC019B01C301B2010F94B13C0D
:104AB0002B013C01498A5A8A6B8A7C8A832D0E9489
:104AC000C71EA50194010F94B03C4B015C018D827F
:104AD0009E82AF82B886F80180859185A285B385D4
:104AE00089879A87AB87BC878D8B9E8BAF8BB88F5E
:104AF00020E030E040E85FE3C301B2010F94CD3520
:104B000087FF6DC080E090E0A0E8BFE3898B9A8BBF
:104B1000AB8BBC8B20E030E040E85FE3C501B40123
:104B20000F94CD3587FF6BC080E090E0A0E8BFE335
:104B30008D839E83AF83B88720E030E040E85FE359
:104B4000C701B6010F94CD3587FF69C080E090E0C2
:104B5000A0E8BFE38D879E87AF87B88B20E030E069
:104B600040E85FE3698D7A8D8B8D9C8D0F94CD35F8
:104B700087FF65C080E090E0A0E8BFE389839A8367
:104B8000AB83BC83CE010D960E94861E882379F0EC
:104B9000CE0101960E94861E882349F0AE014F5F28
:104BA0005F4FBE01635F7F4FC8010E945F236C9619
:104BB0000FB6F894DEBF0FBECDBFDF91CF911F912E
:104BC0000F91FF90EF90DF90CF90BF90AF909F90AC
:104BD0008F907F906F905F904F903F90089520E06E
:104BE00030E84AE953E4C301B2010F94113F1816AB
:104BF0000CF090CF80E090E8AAE9B3E487CF20E002
:104C000030E84AE953E4C501B4010F94113F181686
:104C10000CF092CF80E090E8AAE9B3E489CF20E0DD
:104C200030E04DE953E4C701B6010F94113F181667
:104C30000CF094CF80E090E0ADE9B3E48BCF20E0BE
:104C400030E04DE953E4698D7A8D8B8D9C8D0F9406
:104C5000113F18160CF096CF80E090E0ADE9B3E478
:104C60008DCFCF92DF92EF92FF92CF936B017C01B9
:104C7000C42F8091A80B8F5F09F4B5C08093A80B57
:104C80008091A80B8093570C20E030E040E752E47D
:104C900060913702709138028091390290913A0206
:104CA0000F9433360F94243E7093BA0B6093B90B74
:104CB000C092BB0BD092BC0BE092BD0BF092BE0B2E
:104CC0008091560CC0FB80F98093560C8CE0E1EB90
:104CD000F7E1AFEBBBE001900D928A95E1F78CE034
:104CE000EFEBF8E1ABECBBE001900D928A95E1F7B8
:104CF0008091F0169091560C80FB94F99093560C8D
:104D0000882381F08091EC169091ED16A091EE161B
:104D1000B091EF168093D70B9093D80BA093D90B3B
:104D2000B093DA0B8091CE129091CF129093DC0B5E
:104D30008093DB0B8091A2129091A3129093DE0BD3
:104D40008093DD0B8091440D8093DF0B8091560C96
:104D500090917C0C90FB83F98093560C80917D0C94
:104D600090917E0CA0917F0CB091800C8093E00B11
:104D70009093E10BA093E20BB093E30B0F94FB0431
:104D80006093510C7093520C8093530C9093540C7D
:104D900080915C078093550C9091830C8091560C08
:104DA00093FB81F99091CC1890FB82F98093560C7B
:104DB00080E00E94B0EF40E050E0BA0188EE94E15C
:104DC0000E9445C840EB50E068EA7BE088EE94E141
:104DD0000E94D9C888EE94E1CF91FF90EF90DF90C8
:104DE000CF900C9406CC81E049CF4F925F926F92A6
:104DF0007F928F929F92AF92BF92CF92DF92EF926B
:104E0000FF920F931F93CF93DF9300D01F92CDB7E4
:104E1000DEB719821A821B821C829AEDA92E93E0BA
:104E2000B92ECE0101964C0124E8C22E2CE0D22EE0
:104E30003AE4E32E3DE0F32E10E000E0F50181912D
:104E40005F010E94771FF40181934F01882309F4C9
:104E5000C1C00E94DF212B013C01802F0E94701EE7
:104E6000882309F4A7C0F701208131814281538151
:104E7000C301B2010F94B13CF60160837183828358
:104E800093830F5F1F4FF4E0CF0ED11C84E0E80E38
:104E9000F11C0330110591F685E40E94771F8C8385
:104EA000882309F4A2C00E94DF216B017C0183E00A
:104EB0000E94701E882371F02091560D3091570D7D
:104EC0004091580D5091590DC701B6010F94B13C56
:104ED0006B017C01C092900CD092910CE092920CEC
:104EE000F092930C8091580C882391F18091E314F7
:104EF00082FF2EC087FD2CC08C81882349F18981D7
:104F0000811103C08A81882319F12DEC3CEC4CE41B
:104F10005DE36091B10B7091B20B8091B30B9091F6
:104F2000B40B0F94B13C9B01AC016091520D709198
:104F3000530D8091540D9091550D0F94113F1816FB
:104F40003CF440E060E070E080E090E40E943126B4
:104F500040E050E0BA0186E40E940D2220E030E0FB
:104F6000A9010F94113F181684F40E94DF2120E05C
:104F700030E040E752E40F94AB3D6093370270930A
:104F800038028093390290933A020F900F900F905D
:104F90000F90DF91CF911F910F91FF90EF90DF90D5
:104FA000CF90BF90AF909F908F907F906F905F90C9
:104FB0004F900895F801EE0FFF1FEE0FFF1FE65A06
:104FC000F24F2081318142815381C301B2010F949C
:104FD000B03C52CFF70180819181A281B381F6016B
:104FE00080839183A283B3834CCF8091560D90919F
:104FF000570DA091580DB091590D8093900C90933E
:10500000910CA093920CB093930C6CCFE8EAFBE068
:1050100080EBDF011D928A95E9F708958091580C85
:10502000811104C00E9406280C943CF08091E31486
:1050300082FF09C087FD07C040E060E070E080E0CB
:1050400090E40C94312608958091A80B882361F098
:105050009091570C891308C08091E31484FF04C019
:1050600084EE9BE00C94CDCF80E00895FC01238179
:1050700021110C9406CC0895CF93DF93C091CE12EA
:10508000D091CF12209729F16091CA127091CB1262
:105090008091CC129091CD120F941D3E6E5F7F4F88
:1050A00024976C177D07ACF4709332176093311717
:1050B0000E94BB94605A75418F4F9F4F6093331786
:1050C000709334178093351790933617DF91CF91F3
:1050D00008951092331710923417109235171092CA
:1050E0003617F4CFCF92DF92EF92FF921F93CF93B8
:1050F000DF93182F662351F010924B071092470749
:10510000109248071092490710924A070E94BB94D8
:105110006B017C018091470790914807A091490756
:10512000B0914A07A7019601281B390B4A0B5B0B6C
:10513000DA01C901B7FD3DC020914B0717FD13C02F
:10514000412F012E000C550B4C5F5F4F822F022E1A
:10515000000C990B4817590764F184EF91E0A0E027
:10516000B0E0211724F488EE93E0A0E0B0E08C0DCD
:105170009D1DAE1DBF1D8093470790934807A093C8
:105180004907B0934A072170C22F30E0D32F84E241
:105190008C9FB0018D9F700D7C1B112460597C4F3A
:1051A00082E390E00F94B00880914B078F5F80936B
:1051B0004B07DF91CF911F91FF90EF90DF90CF9041
:1051C0000895CF93DF93C091A212D091A31220979C
:1051D00029F160919E1270919F128091A01290917E
:1051E000A1120F941D3E6E5F7F4F24976C177D07B1
:1051F000ACF470932817609327170E94BB94605EED
:1052000070448D4F9F4F6093291770932A17809396
:105210002B1790932C17DF91CF9108951092291797
:1052200010922A1710922B1710922C17F4CFCF93AD
:10523000DF939091830C93FD3CC0C82F83E50E94BF
:10524000771FD82F882371F10E94CC218C389105CB
:105250009CF59093A3128093A2120E94E128609182
:10526000A2127091A312072E000C880B990B0F94B9
:10527000D43520919E1230919F124091A0125091EE
:10528000A1120F94113F60E01816CCF48AEE96E15B
:105290000F94080ACC2369F060E08D2FDF91CF9145
:1052A0000C9485D1CC2329F082E50E94771F8111CF
:1052B000CBCFDF91CF9108958CE890E0CACF8BEDF2
:1052C00096E1E6CFCF93C1E020E030E0A901609104
:1052D000D5187091D6188091D7189091D8180F943E
:1052E000CD35811101C0C0E08C2FCF9108954F9230
:1052F0005F926F927F928F929F92AF92BF92CF9266
:10530000DF92EF92FF920F931F93CF93DF93EC0105
:105310002091CD183091CE184091CF185091D018CF
:10532000688179818A819B810F94B03C6B017C01FB
:105330002091D1183091D2184091D3185091D4189F
:105340006C817D818E819F810F94B03C4B015C010B
:10535000A701960160913F07709140078091410736
:10536000909142070F94CD35882309F450C0C09224
:105370003F07D0924007E0924107F0924207209108
:105380003707309138074091390750913A07C701E4
:10539000B6010F9433362B013C010F94533E6B0141
:1053A0007C0120E030E0A9010F94CD3587FD70C06D
:1053B00020E030E040E450E4C701B6010F94113F13
:1053C00018162CF4C12CD12CC0E4EC2EFE2CA70115
:1053D0009601C301B2010F94B03C60932F07709304
:1053E00030078093310790933207C701B6010F94BD
:1053F0001D3E60932D07062E000C770B6F5F7F4FCD
:105400006430710514F064E070E060932B07D09174
:10541000290710912D07A501940160914307709110
:10542000440780914507909146070F94CD3581112F
:1054300033C0D11381C020911107309112074091E0
:1054400013075091140760912F07709130078091D6
:105450003107909132070F94333620911507309120
:10546000160740911707509118070F94B13CDF9130
:10547000CF911F910F91FF90EF90DF90CF90BF9051
:10548000AF909F908F907F906F905F904F90089516
:10549000C12CD12C76019BCF809243079092440778
:1054A000A0924507B092460720913B0730913C07F8
:1054B00040913D0750913E07C501B4010F9433362A
:1054C0004B015C010F94533E6B017C0120E030E006
:1054D000A9010F94CD3587FDF3C020E030E040E412
:1054E00050E4C701B6010F94113F18162CF4C12CDB
:1054F000D12CB0E4EB2EFE2CA7019601C501B4011E
:105500000F94B03C60933307709334078093350752
:1055100090933607C701B6010F941D3E60932E0786
:10552000062E000C770B6F5F7F4F6430710514F00F
:1055300064E070E060932C07C0912E07D11305C082
:1055400080912A078C1709F470C080912D079091E3
:105550002E0790932A07809329070C2E000CDD0B51
:1055600025E01203C0011124FC01EC0FFD1FEE0F1A
:10557000FF1FEE0FFF1FEC56F34F20813181428158
:105580005381209325073093260740932707509394
:10559000280700912C07002E000C110BFC01E00FD6
:1055A000F11FEE0FFF1FEE0FFF1FEC56F34F608150
:1055B0007181828193810F94B03C60932107709335
:1055C0002207809323079093240720912B0735E02F
:1055D0002303F0011124CE0FDF1FCC0FDD1FCC0FF2
:1055E000DD1FCC56D34F288139814A815B812093BE
:1055F0001D0730931E0740931F0750932007E00FAD
:10560000F11FEE0FFF1FEE0FFF1FEC56F34F6081EF
:105610007181828193810F94B03C609319077093DC
:105620001A0780931B0790931C0780903307909074
:105630003407A0903507B0903607209121073091AC
:1056400022074091230750912407C501B4010F940C
:105650003336209125073091260740912707509136
:1056600028070F94B13C6B017C01C0921507D092C2
:105670001607E0921707F09218072091190730914A
:105680001A0740911B0750911C07C501B4010F94E4
:10569000333620911D0730911E0740911F0750910E
:1056A00020070F94B13CA70196010F94B03C609382
:1056B0001107709312078093130790931407BBCEC2
:1056C000C12CD12C760118CFEFE3F7E080EF9FEFEC
:1056D000A9E7B4EC84839583A683B7838083918301
:1056E000A283B383E9E2F7E08DE9818380830895A3
:1056F0008F929F92AF92BF92CF92DF92EF92FF92E2
:10570000FC0198E0A5EDB8E101900D929A95E1F7C2
:1057100088E0FB01ADECB8E101900D928A95E1F7CC
:10572000C090D518D090D618E090D718F090D8181F
:1057300020E030E0A901C701B6010F94CD358823E0
:10574000E1F1A701960160E070E080E89FE30F942B
:10575000AB3D6B017C018090D9189090DA18A09035
:10576000DB18B090DC1820E030E0A901C501B401DD
:105770000F94CD35882329F1A501940160E070E0F4
:1057800080E89FE30F94AB3DC0923707D092380773
:10579000E0923907F0923A0760933B0770933C0719
:1057A00080933D0790933E07FF90EF90DF90CF905E
:1057B000BF90AF909F908F900895C12CD12C76010F
:1057C000CACF60E070E0CB01DFCFEFE6F0E0808190
:1057D0008260808308958091311090913210892BDE
:1057E00079F48091311090913210892B49F42091F5
:1057F00031103091321081E0232B19F480E00895AC
:1058000081E008958F929F92AF92BF92CF92DF92E4
:10581000EF92FF92CF93DF93EC0180907D0C9090FC
:105820007E0CA0907F0CB090800C20E030E0A901AD
:10583000C501B4010F94CD35882309F45EC0C8803A
:10584000D980EA80FB8020E030E0A901C701B601E1
:105850000F94CD3518160CF050C0A7019601C50164
:10586000B4010F94CD3518160CF04CC02091740C77
:105870003091750C4091760C5091770CC701B601B0
:105880000F94CD35882331F1C092740CD092750CF1
:10589000E092760CF092770C2091780C3091790C94
:1058A00040917A0C50917B0C688179818A819B812F
:1058B0000F9433369B01AC0160E070E080E89FE319
:1058C0000F94B03C60930202709303028093040231
:1058D000909305026091020270910302809104028C
:1058E00090910502DF91CF91FF90EF90DF90CF90E4
:1058F000BF90AF909F908F90089560E070E080E837
:105900009FE3F0CF60E070E0CB01ECCFCF92DF926D
:10591000EF92FF926B017C0183E3C816D104E1048E
:10592000F10470F082E3C81AD108E108F10862E3DB
:1059300070E080E090E00E9420940E9449D8ECCF73
:10594000C701B6010E942094FF90EF90DF90CF90A6
:105950000C9449D81092A40B8091FF1690910017D7
:10596000A0910117B09102178093FB169093FC163B
:10597000A093FD16B093FE160895909134101092E6
:1059800034109230B9F09430C1F09130E1F48823B2
:1059900019F0813021F008959093A50B089582E0CD
:1059A0008093A50B8091A40B882369F010929D072A
:1059B0000C94AA2C1092A60B08958CEA94E3909371
:1059C000DF078093DE0708956C98749A0C94AA2CD4
:1059D0009091E31494FB882780F994FF06C081E03E
:1059E00090914A16911101C080E008950E94E82C20
:1059F000882339F08091E31482FB882780F991E0B5
:105A0000892708958091590C811106C08091331027
:105A1000823011F00C94F62C81E008950D94BC07AF
:105A200081E00895CF93DF93EC01E62F660FFF0B23
:105A3000E651F74EE491E250E13108F0B0C0F0E0F9
:105A40008827EA5DF24D8F4F0D94A83C372DCF2D5E
:105A5000CF2DCF2DCF2D612D432D852D832D632D62
:105A6000A92DA72D872DCF2DCD2DCB2DAB2D82E1AF
:105A7000E5E6F2E0DE0101900D928A95E1F7CE01B4
:105A8000DF91CF91089581E020EB30E039832883C6
:105A900021EB30E03B832A831D821C8223EB30E024
:105AA0003F832E8324EB30E0398728871B861A86B4
:105AB0001D861C8692E09E878F8781E0888B198ADD
:105AC000DECF80E0E1CF81E08F5F20E930E03983F5
:105AD000288321E930E03B832A8322E930E03D83BB
