:100000000C94BA1C0C94FA1C0C94FA1C0C94FA1C58
:100010000C94FA1C0C94FA1C0C94FA1C0C94FA1C08
:100020000C94FA1C0C94FA1C0C94FA1C0C94FA1CF8
:100030000C94FA1C0C94FA1C0C94FA1C0C94FA1CE8
:100040000C94FA1C0C94E6E30C94FA1C0C94FA1C25
:100050000C94FA1C0C9403D90C94FA1C0C94E0C672
:100060000C94FA1C0C949B3F0C94913F0C94FA1C3A
:100070000C94FA1C0C94FA1C0C94FA1C0C94FA1CA8
:100080000C94CB300C94FA1C0C94FA1C0C94FA1CB3
:100090000C94FA1C0C94FA1C0C94FA1C0C94FA1C88
:1000A0000C94FA1C0C94FA1C0C949D300C94FA1CC1
:1000B0000C94FA1C0C94FA1C0C94FA1C0C94FA1C68
:1000C0000C94FA1C0C94FA1C0C94FA1C0C949431A9
:1000D0000C945E310C94FA1C0C94FA1C0C94FA1CCF
:1000E0000C94FA1C084AD73B3BCE016E84BCBFFD82
:1000F000C12F3D6C74319ABD56833DDA3D00C77FF8
:1001000011BED9E4BB4C3E916BAAAABE0000008090
:100110003F05A84CCDB2D44EB93836A9020C50B91F
:10012000918688083CA6AAAA2ABE000000803F004B
:100130000C9451400D94AC190C9401B50C9458B624
:100140000C9431BA0D94992A0C94612E0C94B5C478
:100150000C9413320C9420C40C9457320D94B62F87
:100160000D94672A0C9435B40C94AF7C0D948719C8
:100170000D9474240D941B1A0C94E6790C94D87980
:100180000C9447400C94CA790C94D6C40D94E52481
:100190000C94392E0C9469400C941A400C94BB7C3E
:1001A0000C948CB60C94A37C0C94192E0C9435C52D
:1001B0000C945E400C9486C00C9463B30C9422BAE9
:1001C0000D94982F0C9487C00D9417190C94B27C41
:1001D0000C949E7C0D94B4240C9456400C94152ED3
:1001E0000C947CB60C94D52D0C94D2790C94B3C598
:1001F0000C946AB60C94ABB60C9498B50D94D119C6
:100200000C94F2C50D946B240C94AC7C0C94E579A1
:100210000C9444B60C94AB790C943F400C94FBB90D
:100220000C942C400C940B400C94C17C0C947140A9
:100230000C9416BA0D945C240C940ABA0C9497B6DC
:100240000D94401A0C94F32D0C94B87C0C944FB67A
:100250000C9404C00D943C190D9471240C94253217
:100260000C943C320C942C320C9433400C94E3B537
:100270000C941AC50C94B3790C9461B60C943B4061
:100280000C9437400C94E0790C94C92D0C943D2EBD
:100290000C9402B60C945F2E0C94D7B90C943432A3
:1002A0000D9456240C94C5C50C9462320C94A8B6D7
:1002B0000C9473B60D94292A0C94DC790C94A97CC7
:1002C0000C945D2E0C946A320C94CE790C94A57922
:1002D0000C9440320D94F6190C9443400C94CBB915
:1002E0000C94ACB50C94EA790C9404320D945F2410
:1002F0000C94A2B60C9445320D9468240C94A5B6C7
:100300000C9453B40C94A2B30C94D7B40C94303224
:100310000C94C4790D946E240D94B0180C943DC4C3
:100320000C944A320C94BA790C94D5310C94C0795F
:100330000C94BE7C0D94E1240D94522A0D946524F6
:100340000C94A67C0C94BDC60C944C400C946FB5D8
:100350000C94AF790C9486B60D94F2180C94CFB52A
:100360000C943B2E0C94B7790D9462240C94172EA8
:100370000C948AB60C9438320C944F320C94F52DB0
:100380000D9459240C94DC3F0D9423240C94B57CDB
:100390004E414E494E495459494E46CDCCCC3D0A6A
:1003A000D7233C17B7D13877CC2B329595E6241F4D
:1003B000B14F0A000020410000C84200401C462006
:1003C000BCBE4CCA1B0E5AAEC59D7400407A10F3D9
:1003D0005A00A0724E18090010A5D4E80000E87673
:1003E00048170000E40B54020000CA9A3B000000CA
:1003F000E1F505000080969800000040420F0000E3
:1004000000A08601000000102700000000E80300A3
:100410000000006400000000000A0000000000016D
:1004200000000000002C76D888DC674F0823DFC16D
:10043000DFAE59E1B1B796E5E3E453C63AE6519928
:100440007696E8E6C28426EB898C9B62ED407C6F51
:10045000FCEFBC9C9F40F2BAA56FA5F490055A2A08
:10046000F75C936B6CF9676DC11BFCE0E40D47FE14
:10047000F520E6B500D0ED902E0300943577050009
:1004800080841E080000204E0A000000C80C333390
:1004900033330F986E12831141EF8D2114893BE69F
:1004A0005516CFFEE6DB18D1844B381BF77C1D9028
:1004B0001DA4BBE424203284725E228100C9F12491
:1004C000ECA1E53D27434F4D4D554E49434154491D
:1004D0004F4E0044525952554E004552524F5253BE
:1004E00000494E464F004543484F004572726F72B7
:1004F0002077726974696E6720746F204545505289
:100500004F4D210A0053544F505045442E20005067
:1005100072696E7465722073746F707065642064A4
:10052000756520746F206572726F72732E20466934
:100530007820746865206572726F7220616E642025
:10054000757365204D39393920746F207265737465
:100550006172742E202854656D70657261747572B5
:10056000652069732072657365742E20536574204D
:100570006974206166746572207265737461727447
:10058000696E67290A004E6F20436865636B737557
:100590006D2077697468206C696E65206E756D6278
:1005A00065722C204C617374204C696E653A200092
:1005B0004E6F20436865636B73756D20776974684F
:1005C000206C696E65206E756D6265722C204C61C1
:1005D0007374204C696E653A2000636865636B73C1
:1005E000756D206D69736D617463682C204C617347
:1005F00074204C696E653A20004C696E65204E751A
:100600006D626572206973206E6F74204C61737423
:10061000204C696E65204E756D6265722B312C2001
:100620004C617374204C696E653A20004D31313055
:100630000053657269616C20737461747573206D09
:1006400069736D617463680A00776169740A0053A5
:10065000442072656164206572726F720A00746F63
:100660006F206D75636820696E61637469766520BB
:1006700074696D65202D2063757272656E742063D8
:100680006F6D6D616E643A20002121204B494C4C06
:10069000206361757365642062792000486F74651A
:1006A0006E642049646C652054696D656F757400D3
:1006B000486F74656E642049646C652054696D658B
:1006C0006F75740A003D3D6F6E46696C616D656EB5
:1006D0007452756E6F75743D3D0070617573650081
:1006E0004D363030002066696C616D656E745F72E6
:1006F000756E6F7574200066696C616D656E745FF0
:1007000072756E6F757420540046696C616D656E0C
:100710007452756E6F75742054004D313030305303
:1007200000627573793A2070617573656420666F35
:100730007220696E7075740A00627573793A207060
:10074000617573656420666F7220757365720A0047
:10075000627573793A2070726F63657373696E673F
:100760000A0025533A202553002A2A2A6B696C6C0B
:100770002A2A2A00706F7765726F6666004B494CB3
:100780004C45442E20005072696E74657220686179
:100790006C7465642E206B696C6C28292063616C15
:1007A0006C6564210A006563686F3A004572726F78
:1007B000723A0042696C696E656172204C657665BB
:1007C0006C696E6720477269643A0A002F2F616373
:1007D00074696F6E3A006E6F7469666963617469FB
:1007E0006F6E2000656E640073686F7700627574C9
:1007F000746F6E00486F74656E6420746F6F206351
:100800006F6C640A0053656E64204D31303820747B
:100810006F20726573756D650A00496E7365727439
:100820002066696C616D656E7420616E642073650D
:100830006E64204D3130380A00526568656174205D
:10084000446F6E6500526568656174696E672E2E2F
:100850002E00526568656174004865617465722098
:1008600054696D656F75740053656E64204D313049
:100870003820746F2068656174206E6F7A7A6C65B9
:100880000A004E6F7A7A6C65205061726B65640065
:1008900070617573656400506175736500576169B7
:1008A00074696E6720666F72206865617475702E5A
:1008B0000A004C656176696E6720473236003F5307
:1008C000706563696669656420582C5920636F6F91
:1008D0007264696E617465206F7574206F66206242
:1008E0006F756E64732E0A003F285229657065612A
:1008F000742076616C7565206E6F7420706C617504
:100900007369626C653B206D75737420626520614C
:1009100074206C6561737420312E0A003F285229BF
:100920006570656174206D757374206265207370E5
:1009300065636966696564207768656E206E6F74AB
:10094000207573696E6720616E204C43442E0A0047
:100950003F537065636966696564206E6F7A7A6C6F
:10096000652074656D7065726174757265206E6F57
:100970007420706C61757369626C652E0A003F5358
:1009800070656369666965642066696C616D656E32
:10099000742073697A65206E6F7420706C61757352
:1009A00069626C652E0A003F53706563696669650C
:1009B00064207072696D65206C656E677468206E66
:1009C0006F7420706C61757369626C652E0A003FEC
:1009D0005072696D65206C656E677468206D757303
:1009E0007420626520737065636966696564207749
:1009F00068656E206E6F74207573696E6720616E16
:100A0000204C43442E0A003F537065636966696554
:100A100064206E6F7A7A6C652073697A65206E6FD8
:100A20007420706C61757369626C652E0A003F52A8
:100A3000657472616374696F6E204D756C74697052
:100A40006C696572206D75737420626520737065C2
:100A50006369666965642E0A003F53706563696661
:100A60006965642052657472616374696F6E204DAC
:100A7000756C7469706C696572206E6F7420706C2F
:100A800061757369626C652E0A003F537065636916
:100A900066696564206C617965722068656967685C
:100AA00074206E6F7420706C61757369626C652E52
:100AB0000A0043292E0A003F537065636966696521
:100AC00064206265642074656D706572617475720E
:100AD00065206E6F7420706C61757369626C65203F
:100AE0002834302D00473236207374617274696E79
:100AF000672E2E2E0A004F46460A00466164652086
:100B00004865696768742000426564204C657665B5
:100B10006C696E6720004661696C656420746F20A3
:100B2000656E61626C6520426564204C6576656C1B
:100B3000696E670A00496E76616C6964206D657341
:100B4000682E0A0050726F62696E6720506F696E7E
:100B5000740025532025692F2569002E0A002F00D7
:100B600050726F62696E67206D65736820706F697F
:100B70006E742000202844525952554E29004732A5
:100B800039204175746F20426564204C6576656C30
:100B9000696E67003F20284C2C522C462C4229209D
:100BA0006F7574206F6620626F756E64732E0A0015
:100BB0003F2856296572626F7365206C6576656C97
:100BC00020696D706C61757369626C652028302DC9
:100BD00034292E0A00426164205A2076616C7565C2
:100BE0000A004E6F2062696C696E656172206772DF
:100BF00069640A0020440020204D32303020530028
:100C0000202844697361626C6564293A0046696C06
:100C1000616D656E742073657474696E677300200E
:100C2000204D3230312058004D617820416363659A
:100C30006C65726174696F6E2028756E6974732FAC
:100C40007332290020204D3230332058004D617816
:100C5000206665656472617465732028756E6974B9
:100C6000732F73290020520020204D323034205041
:100C700000416363656C65726174696F6E202875ED
:100C80006E6974732F7332292028503C7072696E1C
:100C9000742D616363656C3E20523C7265747261B1
:100CA00063742D616363656C3E20543C747261769D
:100CB000656C2D616363656C3E29002054002053F0
:100CC0000020204D323035204200416476616E6351
:100CD00065642028423C6D696E5F7365676D656E63
:100CE000745F74696D655F75733E20533C6D696E0A
:100CF0005F66656564726174653E20543C6D696E23
:100D00005F74726176656C5F666565647261746557
:100D10003E20583C6D61785F6A65726B3E20593C9D
:100D20006D61785F6A65726B3E205A3C6D61785FD9
:100D30006A65726B3E20453C6D61785F6A65726BD7
:100D40003E290020440020490020204D333031202E
:100D50005000486F74656E64205049440020440080
:100D600020490020204D333034205000426564205B
:100D7000504944003A200020536572766F200020CD
:100D80006F7574206F662072616E67650A00536527
:100D900072766F2000363726033C3D380E2E303EEB
:100DA000131A1C180A43090844000150726F746535
:100DB000637465642050696E0A003F43616E6E6F14
:100DC0007420777269746520746F20494E505554B1
:100DD0000A00496E76616C69642050696E204D6F1F
:100DE00064650A00203B0020550020204D3630333A
:100DF000204C0046696C616D656E74206C6F616497
:100E00002F756E6C6F6164004D323453256C6454E1
:100E1000256C64004739322E394525730047314629
:100E200025640047315A2573463630300047315823
:100E300025735925734633303030004D31303650EC
:100E40002569532569004D313039532569004D32EC
:100E50003030442573004739322E395A2573004DFE
:100E60003432305325635A25730047323852305894
:100E7000590047315A257346363030004739322EF3
:100E8000395A2573004739322E394530004D3130FB
:100E900039532569004D313930532569004D3432BD
:100EA00030205330205A30003D3D4F6E506F7765F3
:100EB000724C6F7373526573756D653D3D00203BD9
:100EC000200020204D343133205300506F7765725D
:100ED0002D6C6F7373207265636F76657279004F46
:100EE0004646004F4E00203B20486F7374206861D7
:100EF0006E646C696E672000203B204D6F64652036
:100F0000006D6D00203B2044697374616E63652041
:100F10000046696C616D656E742072756E6F7574D4
:100F200020003B200020496E76616C696420657862
:100F3000747275646572200047322F4733206261F6
:100F40006420706172616D65746572730A00536C20
:100F50006565702E2E2E005A2050726F62652050EB
:100F6000617374204265640A005A2050726F626592
:100F7000205061737420426564004732384C300061
:100F8000205A3A200020593A200042656420583AFD
:100F900020004D65736820706F696E74206F7574E2
:100FA000206F662072616E67650A004E6F204D6F7C
:100FB00076652E00456E642066696C65206C6973E9
:100FC000740A00426567696E2066696C65206C6909
:100FD00073740A004E6F206D656469610A00286EA3
:100FE0006F2066696C65290043757272656E7420A6
:100FF00066696C653A200043616E6E6F74206F7095
:10100000656E2073756264697220005072696E7437
:101010002074696D653A20006F6B006F666600E6AC
:1010200004E104DA04D304C50444454255473A00B8
:101030004D313133205300544D334420313053501F
:10104000726F5632204F46462E00434F4E46494758
:101050005F4558504F5254004D4541545041434B09
:1010600000434F4F4C45525F54454D5045524154FB
:10107000555245004348414D4245525F54454D50FD
:1010800045524154555245004241425953544550EE
:1010900050494E470041524353004D4F54494F4E23
:1010A0005F4D4F44455300544845524D414C5F50AD
:1010B000524F54454354494F4E00455854454E44B1
:1010C00045445F4D323000435553544F4D5F4649C0
:1010D000524D574152455F55504C4F4144004C468C
:1010E0004E5F5752495445004C4F4E475F46494C5E
:1010F000454E414D45004155544F5245504F525475
:101100005F53445F5354415455530053445F575207
:1011100049544500524550454154004D554C5449A1
:101120005F564F4C554D4500534443415244005087
:10113000524F4D50545F535550504F525400484FEA
:1011400053545F414354494F4E5F434F4D4D414EC1
:10115000445300454D455247454E43595F50415217
:1011600053455200434153455F4C494748545F4201
:1011700052494748544E45535300544F47474C45F6
:101180005F4C494748545300534F465457415245CA
:101190005F504F574552004255494C445F504552AD
:1011A00043454E54004C4556454C494E475F4441DB
:1011B0005441005A5F50524F42450052554E4F55D0
:1011C00054004155544F4C4556454C005052494EE1
:1011D000545F4A4F420050524F47524553530041CB
:1011E00055544F5245504F52545F54454D50004155
:1011F00055544F5245504F52545F504F5300564F25
:101200004C554D455452494300454550524F4D00B1
:1012100042494E4152595F46494C455F5452414EF6
:10122000534645520053455249414C5F584F4E5F1B
:10123000584F4646004649524D574152455F4E4130
:101240004D453A4D61726C696E204457372E342EED
:101250003720544D33442053534D444242202841BB
:10126000756720323220323032352031383A34320C
:101270003A33372920534F555243455F434F444536
:101280005F55524C3A68747470733A2F2F676974C3
:101290006875622E636F6D2F496E73616E69747924
:1012A0004175746F6D6174696F6E2F4D61726C69F9
:1012B0006E2F747265652F437265616C6974794431
:1012C00077696E5F322E302050524F544F434F4C4F
:1012D0005F56455253494F4E3A312E30204D4143CF
:1012E00048494E455F545950453A544D3344203196
:1012F000305350726F56322045585452554445521F
:101300005F434F554E543A3120555549443A636531
:101310006465326132662D343161322D34373438B0
:101320002D396231322D63353563363266333637C7
:101330006666002F2F005741524E494E4721204CE0
:101340006F77205A204A65726B206D6179206C6539
:10135000616420746F20756E77616E7465642070AF
:1013600061757365732E0A0020580020204D617846
:101370003A2000200020204D696E3A2000203B20BA
:101380000020204D323131205300536F66742065A8
:101390006E6473746F707300250A0046523A002021
:1013A000466C6F773A200050726F6265204F666618
:1013B000736574205A0050726F6265204F666673C1
:1013C0006574205A0064697300656E0043290A0041
:1013D00061626C656420286D696E2074656D702093
:1013E00000436F6C64206578747275646573206166
:1013F00072652000424C546F756368204853206D1D
:101400006F646520004D34323120696E636F7272F3
:1014100065637420706172616D65746572207573A7
:101420006167650A004D65736820706F696E74208E
:101430006F7574206F662072616E67650A0045459E
:1014400050524F4D204F4B0A00290A0020746F2044
:10145000003F5A206F7574206F662072616E676559
:10146000202800290A0020746F20003F59206F7542
:1014700074206F662072616E676520282D00290A2E
:101480000020746F20003F58206F7574206F662015
:1014900072616E676520282D002E0A002028302DED
:1014A000313029002076616C7565206F7574206F6E
:1014B000662072616E676500416476616E636520C7
:1014C0004B3D004D383400446F6E65207072696E7C
:1014D00074696E672066696C650A004D3737004D88
:1014E00033310020204D323036205800486F6D6572
:1014F000206F6666736574004F666673657473204B
:101500004170706C696564004572723A20546F6F67
:10151000206661722100546F6F20666172206672CE
:101520006F6D207265666572656E636520706F69A8
:101530006E740A004361703A00626567696E004D1F
:10154000302053746F70004D312053746F7000431E
:101550006C69636B20746F20526573756D652E2EF8
:101560002E00203B0020204D3835312058005A2DC8
:1015700050726F6265204F666673657400526573C2
:10158000756D696E67205344002569730025696D88
:1015900020256973002569682025696D20256973F8
:1015A00000256964202569682025696D20256973F7
:1015B0000025697920256964202569682025696DE1
:1015C00020256973000A53746174733A2046696C6C
:1015D000616D656E7420757365643A20002C204C33
:1015E0006F6E67657374206A6F623A2000546F747F
:1015F000616C2074696D653A200053746174733AAC
:1016000020002C204661696C65643A20002C20463D
:10161000696E69736865643A20005072696E74730C
:101620003A200053746174733A2000436F6F6C6901
:101630006E672E2E2E004531202553004265642012
:10164000436F6F6C696E672E2E2E004265642048D2
:10165000656174696E672E2E2E00504944204175D5
:10166000746F74756E6500206661696C6564212015
:10167000426164206865617465722069640A005083
:101680004944204175746F74756E65003D3D447723
:10169000696E20496E697420436F6D706C65746566
:1016A0003D3D0070012C0190012701B0012201C0D5
:1016B000011D01F00118011002130130020E01603A
:1016C00002090190020401C002FF000003FA004079
:1016D00003F5008003F000D003EB002004E6007067
:1016E00004E100E004DC004005D700C005D2004062
:1016F00006CD00D006C8008007C3003008BE00F049
:1017000008B900C009B400B00AAF00B00BAA00D0FD
:101710000CA500000EA000500F9B00C010960050BA
:1017200012910000148C00C0158700B0178200B021
:10173000197D00D01B7800001E730040206E0090C1
:10174000226900F024640040275F0090295A00E0DD
:101750002B5500102E500020304B0010324600E078
:1017600033410090353C001037370070383200A00C
:10177000392D00B03A2800A03B2300603C1E001029
:101780003D1900903D1400103E0F00703E0A00C04D
:101790003E0500003F0000403FFBFF803FF6FFC0DA
:1017A0003FF1FF00002100240027002A002D003017
:1017B00000330001010000040107010A01000022BA
:1017C00000250028002B002E00310034000201000B
:1017D00000050108010B010000200023002600295C
:1017E000002C002F00320000010000030106010957
:1017F0000105050505070508080808020202020A96
:101800000A080804040404010101010101010103A3
:1018100003030303030303040707070C0C0C0C0C5E
:101820000C0C0C0202020206060606060606060B51
:101830000B0B0B0B0B0B0B010210202008081020C8
:10184000401020408002010201080402010102044C
:10185000081020408080402010080402018004020B
:101860000180402010080402010804020101020462
:101870000810204080010204081020408000000A67
:101880000B02090C0D0E0807030401000000000004
:101890000000000000000000000000000000000048
:1018A0000000000000000000001211100000000005
:1018B0000000000000000000000000000000000028
:1018C0000000004B2600000A1A0000E10F0000EBA8
:1018D000080000C00400007402000040010000A1E4
:1018E00000000020746F6F206C6F6E672065787445
:1018F000727573696F6E2070726576656E7465645B
:101900000A0020636F6C6420657874727573696F68
:101910006E2070726576656E7465640A004D3235AE
:1019200020500A4D323400526573756D650055497B
:101930002050617573650043616E6E6F7420656E33
:10194000746572207375626469723A20004E6F206C
:101950004D61746368203A00436F6E7374726169FD
:101960006E206D65736856616C20006D65736856F6
:10197000616C200079506E74200078506E742000E5
:101980006D657368506F696E742000446973706C84
:1019900061794272696768746E6573732053657408
:1019A0003A2000446973706C6179427269676874A7
:1019B0006E657373204C43443A20004D32320A4D19
:1019C0003231005265667265736800506755700069
:1019D0005067446F776E0049732046696C6520003C
:1019E0004973204469722000476F55704469720042
:1019F000486173204D656469610046696C656E617C
:101A00006D652053656C6563746564004D313030DD
:101A10003043004D31303030002046696C616D65D7
:101A20006E7420526573706F6E7365204E6F005236
:101A30006573756D652059657320647572696E678D
:101A4000207072696E74000A204E6F2046696C61C6
:101A50006D656E7400496E76616C6964204F7074B8
:101A6000696F6E004D3530300053746F72652053CE
:101A7000657474696E6773004D3939390A4D3238AF
:101A80003050305331363000424C546F756368200B
:101A90005265736574004D3530320A4D3530300073
:101AA000496E697420454550524F4D004D353030D8
:101AB0000053746F72652053657474696E677300A8
:101AC000496E4C616E6743686F696365000A202A3E
:101AD0002A2A7265636461742E646174615B305D8F
:101AE000203D004732380A4731204631303030201F
:101AF0005A313000556E737570706F727465642062
:101B00004F7074696F6E2053656C65637465640013
:101B10004D36303553300A47323858004D3630355F
:101B200053310A54300A4732380A4D363035533271
:101B30000A473238580A473158300A4D3630355343
:101B400033004D36303553310A54300A4732380AA3
:101B50004D36303553320A473238580A47315830FB
:101B6000004D36303553310A473238580A4731581C
:101B700030004D32313153300A4739310A47315A3A
:101B8000302E3032350A4739300A4D323131533137
:101B9000004D32313153300A4739310A47315A2D1D
:101BA000302E3032350A4739300A4D323131533117
:101BB0000047323953320047323953310047323609
:101BC00052323535004D3139305335350A473238C8
:101BD0000A4732390A4D3430300A4D3130345332ED
:101BE00031350A4732380A4D313039533231350AEE
:101BF0004D34323053310A47315831303059313059
:101C00003046353030300A47315A300A4D353030A1
:101C10000A4D31313720536574205A204F66667360
:101C20006574004731204631303030205A302E3034
:101C3000004732380A4731204631303030205A30A0
:101C40002E30005A204F6666736574203A20257343
:101C5000005A204F6666736574203A20257300474A
:101C600032385A0A473146313530305A302E30003A
:101C70004732380A473146313530305A302E30003D
:101C8000426564204C6576656C204F7074696F6E98
:101C9000200052657475726E203A20004D38340071
:101CA000473146313030305A302E30004732380A12
:101CB000473146313030305A302E30004D616E752C
:101CC000616C53657454656D70005A204F6666737D
:101CD0006574203A20257300526F756E64696E67D3
:101CE00020746F207374657000526571756573742C
:101CF0006564204F6666736574200053746F7020AE
:101D00005472696767657265640053746F70204E22
:101D10006F0053746F705072696E740048616E6426
:101D20006C6520446174612041646A75737420326B
:101D30002053657474696E672053637265656E2005
:101D40000048616E646C6520446174612050726962
:101D50006E7446696C6520332053657474696E67D0
:101D60002053637265656E200048616E646C652067
:101D700044617461205072696E7446696C652032EA
:101D80002053657474696E672053637265656E20B5
:101D9000004D38340048616E646C652044617461A4
:101DA000205072696E7446696C6520506F737400C0
:101DB00048616E646C652044617461205072696E84
:101DC0007446696C652050726500426567696E53A0
:101DD0007769746368003D3D20436865636B6B659C
:101DE000793D3D007265636461742E6164647220A4
:101DF0003D3D007265636461742E646174615B30A3
:101E00005D203D3D0070726F6D70745F00626567AC
:101E1000696E0044697361626C6552756E6F7574AA
:101E20000050757267654D6F72650050617573651E
:101E30006400436F6E74696E7565004C6F61642059
:101E400046696C616D656E742054004C6F6164204E
:101E500046696C616D656E7400496E7365727420BD
:101E600066696C616D656E7420616E642073656E69
:101E700064204D3130380A00726573756D656400F9
:101E80004469736D69737300526573756D696E672C
:101E90000050726F62696E67204661696C65640A02
:101EA0000050726F62696E67204661696C656400FC
:101EB000205A3A200020593A200042656420583ABE
:101EC0002000204500205A0020590020204D3932A2
:101ED00020580053746570732070657220756E69A8
:101EE0007400220A00556E6B6E6F776E20636F6D03
:101EF0006D616E643A2022002042002050006F6B1A
:101F00000020453A00205A3A0020593A00583A0039
:101F10006F6B0A00526573656E643A20006E6F74D1
:101F2000696669636174696F6E2000544D334420A3
:101F300031305350726F56322052656164792E00F1
:101F40005072696E74696E672E2E2E005072696E23
:101F5000742050617573656400524553554D45209A
:101F60004F5054494F4E533A0048656174696E674B
:101F70002E2E2E000000436C69636B20746F206866
:101F8000656174000000526573756D696E672E2E71
:101F90002E00000050757267696E672E2E2E0000AD
:101FA000004C6F6164696E672E2E2E000000496E32
:101FB0007365727420616E6420436C69636B00000A
:101FC00000436C69636B20746F20636F6E74696E7D
:101FD0007565000000456A656374696E672E2E2E74
:101FE000000000506C6561736520776169742E2E66
:101FF0002E0000005061726B696E672E2E2E00005D
:102000000050617573654D73673D00454550524FF3
:102010004D206461746173697A65206572726F72B4
:102020002E0A0053657474696E6720566F6C756D67
:1020300065204F6E203A200053657474696E6720E6
:102040005374616E646279204F6E203A20005365AC
:102050007474696E6720566F6C756D65203A200048
:1020600053657474696E6720526F746174696F6E22
:10207000203A200053657474696E67205374616E52
:102080006462792054696D65203A20005365747448
:10209000696E67205374616E646279203A20005340
:1020A000657474696E67204272696768746E6573DF
:1020B00073203A20004C6F6164696E672044574971
:1020C0004E204C43442073657474696E67206672B9
:1020D0006F6D20454550524F4D0A0044697363614E
:1020E0007264696E67204457494E204C4344207304
:1020F000657474696E672066726F6D204545505235
:102100004F4D202D2073657474696E67732076655A
:102110007273696F6E20696E636F72726563740AA1
:102120000044697363617264696E67204457494E65
:10213000204C43442073657474696E672066726F27
:102140006D20454550524F4D202D2073697A6520F2
:10215000696E636F72726563740A0053746F72659F
:10216000642073657474696E677320726574726934
:102170006576656400290A002062797465733B20E6
:1021800063726320002073746F72656420736574DA
:1021900074696E6773207265747269657665642010
:1021A0002800454550524F4D2043524320457272FE
:1021B0006F7200202863616C63756C6174656429BB
:1021C000210A0020213D2000454550524F4D20431B
:1021D0005243206D69736D61746368202D202873EC
:1021E000746F7265642920002053697A653A200073
:1021F000496E6465783A20000000FA430000FA4313
:102200000000204100008C420000A0420000A042DB
:102210000000C84300000C43EE020000EE02000084
:10222000640000003C000000454550524F4D2056D0
:10223000657273696F6E204572726F7200204D6116
:10224000726C696E3D563837290A00454550524F29
:102250004D2076657273696F6E206D69736D617460
:1022600063682028454550524F4D3D0024F404D961
:10227000201BC40C5C0E9804C4095F026507710141
:10228000F405F900FB04B30048048700C1036900AA
:102290005803550003034500BE023A008402310092
:1022A00053022A002902250004022000E4011C0038
:1022B000C8011900AF011700980114008401130030
:1022C000710110006101100051010E0043010D0069
:1022D00036010B002B010B0020010B00150109003A
:1022E0000C01090003010800FB000800F3000800CE
:1022F000EB000700E4000600DE000600D800060040
:10230000D2000600CC000500C7000500C200050091
:10231000BD000400B9000400B5000400B1000400D1
:10232000AD000400A9000400A5000300A200030002
:102330009F0004009B00030098000300950002002A
:1023400093000300900003008D0002008B00030047
:102350008800020086000200840003008100020061
:102360007F0002007D0002007B0002007900020075
:102370007700010076000200740002007200010084
:10238000710002006F0002006D0001006C0002008D
:102390006A00010069000200670001006600010098
:1023A000650001006400020062000100610001009C
:1023B000600001005F0002005D0001005C000100A0
:1023C0005B0001005A0001005900010058000100A3
:1023D00057000100560001005500010054000100A3
:1023E00053000000530001005200010051000100A1
:1023F000500001004F0001004E0000004E0001009F
:102400004D0001004C0001004B0000004B0001009A
:102410004A00010049000100480000004800010096
:102420004700010046000000460001004500000092
:10243000450001004400010043000000430001008A
:102440004200000042000100410000004100010084
:10245000400001003F0000003F0001003E0000007E
:102460003E0001003D0000003D0001003C00000076
:102470003C0000003C0001003B0000003B0001006C
:102480003A0000003A000100390000003900010064
:10249000380000003800000038000100370000005C
:1024A0003700010036000000360000003600010051
:1024B0003500000035000000350001003400000048
:1024C000340000003400010033000000330000003D
:1024D0003300010032000000320000003200010031
:1024E0003100000031000000310001003000000028
:1024F00030000000300001002F0000002F0000001D
:102500002F0000002F0001002E0000002E00000010
:102510002E0001002D0000002D0000002D00000005
:102520002D0001002C0000002C0000002C000000F9
:102530002C0001002B0000002B0000002B000000ED
:102540002B0001002A0000002A0000002A000000E1
:102550002A000100290000002900000029000000D5
:1025600029000000290001002800000028000000C8
:1025700028000000280000002800010027000000BB
:1025800027000000270000002700000027000100AE
:1025900026000000260000002600000026000000A3
:1025A0002600010025000000250000002500000095
:1025B0002500000025000000250001002400000087
:1025C000240000002400000024000000240001007A
:1025D000230000002300000023000000230000006F
:1025E000230000002300000023000100220000005F
:1025F0002200000022000000220000002200000053
:102600002200010021000000210000002100000044
:102610002100000021000000210000002100010035
:10262000200000002000000020000000200000002A
:102630002000000020000000200000002000010019
:102640001F0000001F0000001F0000001F0000000E
:102650001F0000001F0000001F0001001E000000FE
:102660001E0000001E0000001E00000024F4D430F4
:1026700050C38E20C2A24017828B7011127A910D26
:10268000816CD90AA861E108C75866076151430601
:102690001E4B5D05C145A7041A411104093D98036D
:1026A000713931034036DB0265339102D430540274
:1026B000802E1D02632CEE01752AC501B028A001F1
:1026C000102781018F2564012B244B01E022340166
:1026D000AC211F018D200D01801FFC00841EED0028
:1026E000971DDF00B81CD200E61BC600201BBC00F3
:1026F000641AB200B219A8000A19A0006A18990059
:10270000D117910040178B00B516840031167E005A
:10271000B31579003A157300C7146F0058146A0096
:10272000EE1366008813630025135E00C7125B007A
:102730006C12570015125400C111510070114F0056
:1027400021114B00D61049008D104700461044005F
:1027500002104200C00F4000800F3E00420F3C00BC
:10276000060F3B00CB0E3800930E37005C0E350091
:10277000270E3400F30D3200C10D3100900D3000F2
:10278000600D2E00320D2D00050D2C00D90C2B00F4
:10279000AE0C2900850C29005C0C2700350C2700A5
:1027A0000E0C2600E80B2400C40B2400A00B230011
:1027B0007D0B23005A0B2100390B2100180B200040
:1027C000F80A1F00D90A1E00BB0A1E009D0A1D0040
:1027D000800A1D00630A1C00470A1B002C0A1B000C
:1027E000110A1A00F7091A00DD091900C4091900B5
:1027F000AB091900920917007B091800630917003B
:102800004C09160036091600200916000A091500A1
:10281000F5081500E0081400CC081400B8081400EE
:10282000A4081400900813007D0812006B08130020
:10283000580812004608120034081100230811003D
:102840001208110001081100F0071000E007100045
:10285000D0071000C0071000B0070F00A10710003C
:1028600091070E0083070F0074070F0065070E0025
:1028700057070E0049070E003B070D002E070E00FC
:1028800020070D0013070D0006070D00F9060C00C8
:10289000ED060D00E0060C00D4060C00C8060C0086
:1028A000BC060C00B0060C00A4060B0099060C0038
:1028B0008D060B0082060B0077060B006C060B00E2
:1028C00061060A0057060B004C060A0042060A0081
:1028D00038060A002E060A0024060A001A060A0014
:1028E0001006090007060A00FD050900F4050900A5
:1028F000EB050900E2050900D9050900D00509002A
:10290000C7050900BE050900B5050800AD050800AA
:10291000A50509009C050800940508008C05080021
:10292000840508007C050800740508006C05070094
:10293000650508005D050700560508004E050700FF
:102940004705070040050800380507003105070066
:102950002A050700230507001C05060016050700C9
:102960000F0507000805060002050700FB04060026
:10297000F5040700EE040600E8040600E204070080
:10298000DB040600D5040600CF040600C9040600D7
:10299000C3040600BD040600B7040600B104050028
:1029A000AC040600A6040600A00405009B04060073
:1029B00095040500900406008A04050085040500BE
:1029C000800406007A040500750405007004050003
:1029D0006B04050066040500610405005C04050045
:1029E00057040500520405004D0405004804050085
:1029F000430405003E0404003A04050035040500C4
:102A0000300404002C0405002704040023040500FE
:102A10001E0404001A040400160405001104040036
:102A20000D0404000904050004040400000404006B
:102A3000FC030400F8030400F4030400F0030400A2
:102A4000EC030400E8030400E4030400E0030400D2
:102A5000DC030400D8030400D4030400D003040002
:102A6000CC030400C8030300C503030020436F75B3
:102A70006E7420583A0023646566696E652044458B
:102A80004641554C545F0000626564004B64200071
:102A90004B6920004B7020005049442074756E69CA
:102AA0006E6720646F6E65002066696E6973686585
:102AB00064212050757420746865206C61737420E3
:102AC0004B702C204B6920616E64204B6420636F37
:102AD0006E7374616E74732066726F6D2062656CC4
:102AE0006F7720696E746F20436F6E6669677572C9
:102AF0006174696F6E2E680A0050494420417574F4
:102B00006F74756E6500206661696C656421207460
:102B1000696D656F75740A00504944204175746F82
:102B200074756E65004175746F74756E65206661AD
:102B3000696C6564212054696D656F75742E002081
:102B40006661696C6564212054656D70657261749D
:102B500075726520746F6F20686967680A00504954
:102B600044204175746F74756E650050494420436C
:102B700079636C65730025532025692F2569002032
:102B80004B643A2000204B693A2000204B703A20D9
:102B90000020436C617373696320504944200A002C
:102BA000204E6F206F76657273686F6F740A002015
:102BB00054753A2000204B753A2000206D61783A18
:102BC0002000206D696E3A200020643A20002062C7
:102BD0006961733A200048656174696E672E2E2E14
:102BE000002073746172740A005049442041757466
:102BF0006F74756E65004175746F74756E652066CF
:102C000061696C6564212054656D706572617475CD
:102C1000726520746F6F20686967682E0020666196
:102C2000696C6564212054656D706572617475729C
:102C30006520746F6F20686967680A0050494420F6
:102C40004175746F74756E650042656400453100AE
:102C50004500626564002C2073797374656D207380
:102C6000746F7070656421204865617465725F4996
:102C7000443A20004572723A204D415854454D5017
:102C8000004D415854454D50207472696767657214
:102C900065640048656174696E67204661696C65AA
:102CA000640048656174696E67206661696C65647B
:102CB000004D353234004D31313220536875746423
:102CC0006F776E001000C90210012C014001220133
:102CD00070011801B0010E01F00104015002FA0068
:102CE000B002F0003003E600D003DC009004D20014
:102CF0007005C800A006BE000008B400B009AA0014
:102D0000D00BA000600E960060118C0000158200B0
:102D100020197800C01D6E00A0226400B0275A0060
:102D2000902C500000314600E0343C001038320056
:102D3000903A2800603C1E00A03D1400803E0A002E
:102D4000203F00004572723A204D494E54454D5087
:102D5000004D494E54454D50207472696767657245
:102D6000656400544845524D414C2052554E4157E0
:102D7000415900546865726D616C2052756E6177BF
:102D8000617900202F002042403A0020403A002084
:102D9000573A0020573A00496E76616C69642065A5
:102DA000787472756465720A007C3C3E5E2B3D3F10
:102DB0002F5B5D3B2C2A225C0043616E6E6F74209A
:102DC0006F70656E2073756264697220004D656472
:102DD000696120496E6974204661696C0053442022
:102DE00063617264206F6B0A006F70656E526F6F63
:102DF00074206661696C65640A00766F6C756D6538
:102E00002E696E6974206661696C65640A004E6F94
:102E100020534420636172640A005344206361724A
:102E2000642072656C65617365640A000A4D323412
:102E3000004D3233202573002E0A006F70656E201E
:102E40006661696C65642C2046696C653A200046B1
:102E5000696C652073656C65637465640A00205352
:102E6000697A653A200046696C65206F70656E6509
:102E7000643A2000454E4420535542524F55544920
:102E80004E450A002220706F730022207061726527
:102E90006E743A2200535542524F5554494E4520C4
:102EA00043414C4C207461726765743A220053753B
:102EB0006263616C6C204F766572666C6F7700455B
:102EC00078636565646564206D617820535542526E
:102ED0004F5554494E452064657074683A002E0A77
:102EE0000044656C6574696F6E206661696C656429
:102EF0002C2046696C653A200046696C6520646543
:102F00006C657465643A004E6F742053442070728F
:102F1000696E74696E670A005344207072696E743A
:102F2000696E672062797465200057726974696EF2
:102F30006720746F2066696C653A2000667265735D
:102F40006800646F696E67002066696C653A2000EE
:102F50004E6F7720002F6175746F25632E670020F8
:102F600020506C616E6E657242756666657242795C
:102F70007465733A20002046726565204D656D6F5B
:102F800072793A200020436F6D70696C65643A2055
:102F900041756720323220323032350A00204C61D0
:102FA000737420557064617465643A203230323332
:102FB0002D30322D3033207C20417574686F723A89
:102FC0002054696E794D616368696E657333440A94
:102FD000004D61726C696E204457372E342E370ACB
:102FE0000020536F66747761726520526573657453
:102FF0000A00205761746368646F672052657365C7
:10300000740A002042726F776E206F7574205265CB
:103010007365740A002045787465726E616C205285
:10302000657365740A00506F77657255700A007396
:10303000746172740A004739310A47315A350A47B8
:1030400039300A4D38340A4D31303453300A4D315D
:1030500034305330004D31303031006572726F7250
:103060002077726974696E6720746F2066696C6579
:103070000A00446F6E6520736176696E6720666929
:103080006C652E0A004D323900456E6473746F70A2
:1030900073002553202563202563202563202563A5
:1030A00000205A3A0020593A0020583A00656E64D0
:1030B00073746F7073206869743A2000202D206447
:1030C00034200064333A2000202D20643220006434
:1030D000313A2000202D206C656E20005650207261
:1030E000656365697665643A200077616974776124
:1030F00079203D3D0020202A2A2A2A2A2A2A5254B1
:10310000535F48616E646C65446174612A2A2A2A9F
:103110002A2A2A2A20002A2A2A4E6F7A7A6C655493
:10312000656D705374617475735B325D203D003D55
:103130003D48656174696E6720446F6E6520436821
:10314000616E67652046696C616D656E743D3D001A
:103150002020737461727470726F6772657373206C
:10316000004D32320A4D3231003D3D77616974774E
:10317000617920353D3D003D3D7761697477617926
:1031800020343D3D003D3D7761697477617920339E
:103190003D3D003D3D7761697477617920313D3D6A
:1031A00000436F6E6669726D20436F6E74696E7551
:1031B0006500506175736553746174757300524591
:1031C00053554D45204F5054494F4E533A00486592
:1031D0006174696E672E2E2E000000436C69636B6C
:1031E00020746F2068656174000000526573756D0E
:1031F000696E672E2E2E00000050757267696E672B
:103200002E2E2E000000496E7365727420616E646C
:1032100020436C69636B000000436C69636B20742E
:103220006F20636F6E74696E7565000000456A6596
:103230006374696E672E2E2E000000506C656173FA
:103240006520776169742E2E2E0000005061726B2C
:10325000696E672E2E2E0000002A2A2A496E697494
:10326000696E672063617264206973204F4B2A2A5C
:103270002A003D3D6F6E5072696E7454696D6572BF
:1032800053746F707065643D3D003D3D6F6E5573C6
:103290006572436F6E6669726D52657175697265AC
:1032A000643D3D005061757365204D6F646520532A
:1032B0007461747573004C6F6164696E672E2E2E95
:1032C0000000003D3D6F6E466163746F7279526518
:1032D0007365743D3D00270A0A000027202700205F
:1032E00027002D0063616E63656C005072696E7417
:1032F0002041626F727465640055492041626F72AB
:1033000074656400726573756D65004D3234002A12
:103310002A2A43506C617920546F6E652A2A2A004C
:103320003D3D6F6E5072696E7454696D6572506187
:10333000757365643D3D00486F6D696E6720466139
:10334000696C65640050524553454E54004F5554C6
:10335000006F70656E00545249474745524544001E
:103360003A20004D4F54494F4E203A20004F4646D8
:103370000A003A200066696C616D656E74007A5FC0
:103380006D696E00795F6D696E00785F6D696E00C2
:103390005265706F7274696E6720656E6473746FC6
:1033A00070207374617475730A0020746F6F206CE1
:1033B0006F6E6720657874727573696F6E207072B6
:1033C0006576656E7465640A0020636F6C642065C1
:1033D0007874727573696F6E2070726576656E743D
:1033E00065640A00486F6D65202573204669727315
:1033F00074005761726E696E673A20486F6D696E2E
:10340000672042756D702044697669736F72203C45
:1034100020310A0002020400000000000000000049
:1034200000000000809D4300009B430000C8430053
:103430000000410000004100000040FFFFFF0000CD
:1034400000010000000100008000555555000000FB
:10345000400033333300AAAA2A0049922400000016
:103460002000C7711C0099991900D14517005555C6
:1034700015003BB113002449120011111100000086
:1034800010000F0F0F00E3380E0043790D00CCCC75
:103490000C00C3300C00E8A20B0064210B00AAAAA8
:1034A0000A00703D0A009DD80900427B0900922461
:1034B0000900DCD3080088880800104208000000DA
:1034C0000800F0C107008787070075500700711CCE
:1034D00007003EEB0600A1BC060069900600666688
:1034E0000600703E06006118060017F4050074D14E
:1034F00005005BB00500B2900500627205005555ED
:10350000050078390500B81E0500050505004EECDC
:10351000040087D40400A1BD040090A704004992D0
:103520000400C17D0400EE690400C7560400444451
:1035300004005C3204000821040041100400000073
:1035400004003FF00300F8E0030026D20300C3C3E9
:103550000300CCB503003AA803000A9B0300388E91
:103560000300C08103009F750300D0690300505E13
:1035700003001D53030034480300913D030033331F
:10358000030016290300381F030097150300300CB1
:103590000300030303000BFA020049F10200BAE83A
:1035A00002005CE002002DD802002DD0020059C8B4
:1035B0000200B0C0020031B90200DAB10200AAAACA
:1035C0000200A0A30200BC9C0200FA9502005C8FDE
:1035D0000200DF88020082820200457C020027761A
:1035E000020027700200436A02007C640200D05E81
:1035F00002003F590200C8530200FFFDFCFAF8F632
:10360000F4F2F0EEECEAE9E7E5E3E1E0DEDCDAD95A
:10361000D7D5D4D2D0CFCDCBCAC8C7C5C3C2C0BFFF
:10362000BDBCBAB9B7B6B4B3B2B0AFADACAAA9A875
:10363000A6A5A4A2A1A09E9D9C9A999897959493C3
:1036400092908F8E8D8B8A898887868483828180F1
:103650007F7E7D7B7A797877767574737271706FFF
:103660006E6D6C6B6A696867666564636261605FF2
:103670005E5D5C5B5A5958585756555453525150D9
:10368000504F4E4D4C4B4A4A4948474646454443A5
:10369000424241403F3E3E3D3C3B3B3A3938383761
:1036A000363535343332323130302F2E2E2D2C2B0F
:1036B0002B2A2929282727262525242323222121AF
:1036C00020201F1E1E1D1C1C1B1B1A191918181741
:1036D0001616151514131312121111100F0F0E0ECA
:1036E0000D0D0C0C0B0A0A09090808070706060548
:1036F000050404030302020100003D3D6F6E507299
:10370000696E7454696D6572537461727465643D59
:103710003D0053544F505045442E20005072696E66
:103720007465722073746F707065642064756520B1
:10373000746F206572726F72732E204669782074E0
:103740006865206572726F7220616E6420757365A2
:10375000204D39393920746F207265737461727429
:103760002E202854656D70657261747572652069CC
:10377000732072657365742E2053657420697420FC
:1037800061667465722072657374617274696E67C4
:10379000290A00206572726F72202D207265737481
:1037A0006172742077697468204D3939390A004292
:1037B0004C546F7563680021212053544F5020638F
:1037C000616C6C65642062656361757365206F660A
:1037D000200000809D4300009B430000C843000080
:1037E00000000000000000000000536176696E6771
:1037F000204457494E204C43442073657474696ECD
:10380000672066726F6D20454550524F4D0A003D4E
:103810003D6F6E53657474696E677353746F726530
:10382000643D3D0053657474696E67732053746F13
:1038300072656400290A002062797465733B206315
:103840007263200053657474696E67732053746FDC
:103850007265642028000A20696E6974207A70728B
:103860006F62655F7A6F6666736574203D20003D08
:103870003D6F6E436F6E66696775726174696F6ED6
:1038800053746F7265526561643D3D004545505209
:103890004F4D20496E697469616C697A65640A00EC
:1038A00048617264636F6465642044656661756C29
:1038B000742053657474696E6773204C6F6164651E
:1038C000640020286D6D2900203B204C6576656CD6
:1038D000696E67200020204D34323020530041753E
:1038E000746F20426564204C6576656C696E670074
:1038F00020204D393030204B004C696E65617220BC
:10390000416476616E63650046696C616D656E74D5
:103910002072756E6F75742073656E736F72002000
:103920004A002020473239205720490020204D31BD
:1039300034392043203B20556E69747320696E2012
:1039400043656C736975730A0054656D70657261C7
:103950007475726520556E6974730020204732318A
:10396000203B004C696E65617220556E697473006E
:10397000AE00E00011241FBECFEFD1E2DEBFCDBF0D
:1039800000E00CBF84B78093D01914BE0FB6F89432
:10399000A89580916000886180936000109260001B
:1039A0000FBE16E0A0E0B2E0E6E1F1E902E00BBFF5
:1039B00002C007900D92AE32B107D9F729E1AEE20D
:1039C000B6E001C01D92A03DB207E1F71CE1C9EBD2
:1039D000DCE100E006C021970109802FFE010F9471
:1039E000B844C83BD10780E00807A9F70F9481319C
:1039F0000D9479480C940000CF93DF93C0910A1383
:103A0000D0910B1381E0CE31D105E4F020E030E01D
:103A100040E05FE3609106137091071380910813F3
:103A2000909109130F94C1440F942D466C1B7D0B8C
:103A300077FF03C071956195710981E0633071056D
:103A40000CF080E0DF91CF910895CF93DF93DB01FD
:103A5000F9019C919130C1F0943080F094509C9386
:103A60008830D1F480819181009771F00197918322
:103A70008083480F591FEA01188206C08C3539F43B
:103A80009C5F9C93943041F4DF91CF9108958B33E8
:103A900039F781E08C93F8CF20813181B9016F5FD4
:103AA0007F4F71836083420F531FEA0188838081B7
:103AB00091818F3591056CF7E7CF0F931F9381E0CC
:103AC00000919315109194152091951530919615AC
:103AD00040918F15509190156091911570919215AC
:103AE000041715072607370708F480E01F910F9188
:103AF000089590E080E0089520914007833021F4FC
:103B000025FD0CC024FD0CC030E0A90102C0559574
:103B100047958A95E2F7CA018170089581E008957A
:103B200080E0089580915B0784FD0BC080915D0764
:103B300087FD07C090915E07937081E019F480E0E3
:103B4000089581E00895CF92DF92EF92FF92CF9394
:103B5000DF93EC01CC80DD80EE80FF8027E137EB46
:103B600041ED58EBC701B6010F94214787FD23C0F3
:103B700023E030E04BE953E4C701B6010F94DD3D8B
:103B80001816CCF0C880D980EA80FB8027E137EB9B
:103B900041ED58EBC701B6010F94214787FD0BC0DB
:103BA000C1E023E030E84DE953E4C701B6010F94CA
:103BB000DD3D18160CF4C0E08C2FDF91CF91FF9003
:103BC000EF90DF90CF900895682F70E090E080E054
:103BD0000F94E43D20919F193091A0194091A119B3
:103BE0005091A2190F94433E209197193091981942
:103BF0004091991950919A190F94C1440895682FD2
:103C000070E090E080E00F94E43D20919B193091AA
:103C10009C1940919D1950919E190F94433E2091FB
:103C200093193091941940919519509196190F94C8
:103C3000C14408952FEB280F2A3108F047C0E22F26
:103C4000F0E080915B0790915C07A0915D07B091D7
:103C50005E0704C0B695A795979587952A95D2F7E4
:103C600080FD02C081700895EF5BF84FE081EE2384
:103C700041F18091460D9091470DE80FF92FF11D0C
:103C8000808190ED980F9A3030F08E3251F481811E
:103C900080538A3098F4F0933107E093300781E045
:103CA00008958D3211F08B3249F4818190ED980F97
:103CB0009A3088F38E3211F48281EACFF0E0E0E0AE
:103CC000EACF1092310710923007E9CF80E00895D3
:103CD0000E941A1E882341F081E020913007309124
:103CE0003107232B09F480E0089580918A1981110E
:103CF0000EC020916802309169022150310981E0A3
:103D00004091361350913713421753070CF080E05F
:103D10000895269A2E9A08952F923F924F925F927D
:103D20006F927F928F929F92AF92BF92CF92DF92CB
:103D3000EF92FF920F931F93CF93DF93D62FC72F4E
:103D4000FC0180809180A280B380C501B40120E88D
:103D500031E541E050E00F942144C9016DE671E086
:103D60000F9490446B017C01C501B40120E13EE059
:103D700040E050E00F942144CA01B90128E130E04D
:103D800040E050E00F942144362E272E062F172FA7
:103D90008CE3482E512C612C712CC501B401A30178
:103DA00092010F942144B62EA72ECA01B901A30196
:103DB00092010F942144CB01C114D10479F1AF9247
:103DC000BF927F936F932F923F92FF92EF92DF9279
:103DD000CF9281EB95E19F938F93CF93DF930F94D5
:103DE000743D8DB79EB70E960FB6F8949EBF0FBE6A
:103DF0008DBF8D2F9C2FDF91CF911F910F91FF9041
:103E0000EF90DF90CF90BF90AF909F908F907F907A
:103E10006F905F904F903F902F900895E114F104C0
:103E2000C9F0AF92BF927F936F932F923F92FF9210
:103E3000EF9281EA95E19F938F93CF93DF930F9455
:103E4000743DEDB7FEB73C960FB6F894FEBF0FBEBB
:103E5000EDBFCFCF012BB9F0AF92BF927F936F939D
:103E60002F923F9285E995E19F938F93CF93DF93B4
:103E70000F94743D8DB79EB70A960FB6F8949EBF07
:103E80000FBE8DBFB6CF892BA9F0AF92BF927F93A3
:103E90006F938DE895E19F938F93CF93DF930F946A
:103EA000743DEDB7FEB738960FB6F894FEBF0FBE5F
:103EB000EDBF9FCFAF92BF9289E895E19F938F931B
:103EC000CF93DF930F94743D0F900F900F900F904E
:103ED0000F900F908ECFAB01BC0140939315509380
:103EE000941560939515709396158BEF96E10C944D
:103EF000C7CB0F931F93CF93DF9300D01F92CDB703
:103F0000DEB79C0104E81CE090E1ECE4FDE0D801A0
:103F100001900D929A95E1F7F9012081318142815A
:103F20005381F80160857185828593850F94C14422
:103F3000F801608771878287938780E090E0A0EA2C
:103F4000B0E489839A83AB83BC83CE0101960F943E
:103F500059050F900F900F900F90DF91CF911F9107
:103F60000F9108952F923F924F925F926F927F929E
:103F70008F929F92AF92BF92CF92DF92EF92FF9279
:103F80001F93CF93DF93CDB7DEB72C970FB6F8947E
:103F9000DEBF0FBECDBF7A011901DC012D913D912D
:103FA0004D915C912D833E834F835887FB01408068
:103FB00051806280738080904C0D90904D0DA09048
:103FC0004E0DB0904F0DA50194016D817E818F81C2
:103FD00098850F94DD3D81110EC011E0A30192017F
:103FE0006091500D7091510D8091520D9091530D33
:103FF0000F94DD3D811110E0D1012D913D914D9146
:104000005C9129873A874B875C87F701C080D18014
:10401000E280F38020910202309103024091040279
:1040200050910502C701B6010F94DD3D882309F4C4
:104030004EC0C0920202D0920302E0920402F092BB
:1040400005028091580D9091590DA0915A0DB09193
:104050005B0D4091500D5091510D6091520D70913A
:10406000530D8092840C9092850CA092860CB09295
:10407000870C4093880C5093890C60938A0C709342
:104080008B0CC0928C0CD0928D0CE0928E0CF09226
:104090008F0C8093900C9093910CA093920CB09302
:1040A000930C20E030E040E05FE36091250D7091DB
:1040B000260D8091270D9091280D0F94433E698322
:1040C0007A838B839C83CE0101960F9459052D81B1
:1040D0003E814F8158852093840C3093850C40930A
:1040E000860C5093870C4092880C5092890C6092F9
:1040F0008A0C70928B0CD1012D913D914D915C9168
:104100006091900C7091910C8091920C9091930C15
:104110000F94C1446093900C7093910C8093920C17
:104120009093930C11112FC020E030E0A901698514
:104130007A858B859C850F94DD3D811133C060E0CD
:1041400070E088EC92E469837A838B839C83CE0150
:1041500001960F9459052C960FB6F894DEBF0FBE4A
:10416000CDBFDF91CF911F91FF90EF90DF90CF9067
:10417000BF90AF909F908F907F906F905F904F9087
:104180003F902F9008952AEF3EE74AE25FE3609167
:10419000290D70912A0D80912B0D90912C0D0F946B
:1041A000433ED1CF60E070E080EA91E4CCCFCF9382
:1041B000DF9300D01F92CDB7DEB780E090E0A0EA99
:1041C000B0E489839A83AB83BC8361E0CE0101961E
:1041D0000F94E3060F900F900F900F90DF91CF9107
:1041E0000895AF92BF92CF92DF92EF92FF920F931A
:1041F0001F93CF935C016B018A018A53994F7C0115
:10420000DC01CC91C7FF3DC0FB0111821082CF5F62
:10421000D701CC93CC300CF053C08CE08A9DF001D8
:104220008B9DF00D1124CF018C0F911DC7FD9A9528
:104230002091A2132817190609F00CF441C0F601C9
:1042400020813181FC01EE0FFF1FE80FF91FE65AB4
:10425000FC4E81819281820F931FD80111969C930D
:104260008E93808187FF3DC061E08F77CF911F9152
:104270000F91FF90EF90DF90CF90BF90AF900C9494
:10428000869A8CE08A9DF0018B9DF00D1124CF0160
:104290008C0F911DC7FD9A952091A213281719061E
:1042A00009F00CF4B4CFFC01EE0FFF1FE80FF91F6B
:1042B000E65AFC4E808160E08F770E94869AA7CFF5
:1042C000F6018081918104968034FCE99F0710F407
:1042D00080E49CE9D80111969C938E938FEFF701AF
:1042E0008083CF911F910F91FF90EF90DF90CF903F
:1042F000BF90AF900895809130079091310700975B
:1043000031F04AE050E070E060E00D94F83B60E08E
:1043100070E0CB0108950F931F93CF93DF9300D0EC
:1043200000D01F921F92CDB7DEB78B01FC0123A5F1
:10433000211102C00E948A841D821E821F8218865B
:1043400020E030E040E05FE36091540D7091550D46
:104350008091560D9091570D0F94C14469837A83D3
:104360008B839C839E012B5F3F4FAE014F5F5F4F5E
:1043700060E57DE08CE49DE00E94B21F1D821E82FC
:104380001F82188620E030E040E05FE3F80160859E
:104390007185828593850F94C14469837A838B8369
:1043A0009C83B8016C5F7F4F9E012B5F3F4FAE0136
:1043B0004F5F5F4FC8010E94B21F28960FB6F89456
:1043C000DEBF0FBECDBFDF91CF911F910F9108953A
:1043D0008091300790913107009731F04AE050E02A
:1043E00070E060E00D94CA3A60E070E0CB0108959F
:1043F000CF93DF93EB010E94681E882319F00E947F
:10440000E821EB01CE01DF91CF9108950E94E821D0
:1044100097FD0CC00E94E8216F3F71058105910551
:1044200009F034F40E94E821862F089580E0089571
:104430008FEF0895CF93C62F0E94681E882319F02E
:10444000CF910C9406228C2FCF9108958091300744
:1044500090913107892B41F00E94062291E0811151
:1044600001C090E0892F089591E0FCCFCF93DF93B6
:10447000C82FD62F0E94681E882321F0DF91CF918C
:104480000C9426228C2F0E941A1E811101C08D2FA0
:10449000DF91CF9108950E94E821CB010895CF9339
:1044A000DF93EB010E94681E882321F0DF91CF91FA
:1044B0000C944B22CE01DF91CF9108950F931F935F
:1044C000CF938091300790913107009709F1FC015B
:1044D0008F01C1912C2F2F7DA1F0C53431F0C5364D
:1044E00021F0C83511F0C83799F7F801108270E053
:1044F00060E00F946C39F801C083CF911F910F9148
:10450000089570E060E0CF911F910F910D946C3988
:1045100060E070E0CB01F1CFCF92DF92EF92FF929B
:104520006A017B010E94681E882331F0FF90EF90A2
:10453000DF90CF900C945E22C701B601FF90EF9000
:10454000DF90CF90089580917018811103C081E0B1
:104550000F94400A80E008958F929F92AF92BF928D
:10456000CF92DF92EF92FF920F931F93CF93DF933F
:104570001092600710925F072FE320936407109258
:104580006307109262071092610710925B07109206
:104590005C0710925D0710925E079C01F901908103
:1045A0002F5F3F4F9032D1F39E34C9F4818190ED5B
:1045B000980F9A3020F08D3211F08B3281F43296C0
:1045C0009F012F5F3F4F808180538A3008F47BC06A
:1045D0009F012F5F3F4F8081803209F476C0F093B6
:1045E000470DE093460D8F010F5F1F4FC0816AE2B8
:1045F00070E0C8010F940F48009731F0FC0131972B
:1046000080818032E1F31182CD3429F0C43519F074
:10461000C73409F04BC0F80180810F5F1F4F803213
:10462000D1F380538A3008F041C0C093640730E072
:1046300020E04AE0DF011196429FC001439F900DA8
:1046400011249C01205331098081280F311D87FDE1
:104650003A95818190ED980F9A30C8F130936307B5
:10466000209362078E3261F4329690E04AE0DF01D7
:1046700031968C9150ED580F5A3058F19093610754
:10468000CD01DC0101964C914032D9F3CD3489F54E
:104690002E31310539F018F52731310519F02C315B
:1046A000310539F5B0936007A0935F07DF91CF9193
:1046B0001F910F91FF90EF90DF90CF90BF90AF9040
:1046C0009F908F900895F9017BCFF90181CFFD0173
:1046D000B1CF949F800D112490ED980FC8CF25374E
:1046E000310538F027373105E8F2203A83E0380702
:1046F000C9F2D091460D40E050E0BA0110E000E070
:10470000C12CD12C7601C394FD0131968C91882364
:1047100009F47FC08132E1F4CD34D1F42032310587
:10472000B9F440935B0750935C0760935D07709307
:104730005E07F0936007E0935F0763E270E0CF01EC
:104740000F940F48009709F4B1CFFC011082AECF4F
:1047500081548A3108F058C0DF019D91903291F068
:10476000A0EDA90FAA30E8F09E3271F49181905328
:104770009A30B8F00115110519F48F010150110993
:1047800090E013C0FD01E8CF9D3211F09B3291F70C
:104790009181A0EDA90FAA3020F09E3259F79281A5
:1047A000E6CF9E2F9D1B309759F3A82FB0E046010E
:1047B000570104C0880C991CAA1CBB1C8A95D2F70F
:1047C000482959296A297B29AF5BB84F9C9380817E
:1047D0008154DF018A3108F497CFDF01819188236A
:1047E00009F492CF90ED980F9A30B8F393ED980FAB
:1047F000923098F38B3289F3CD010196EC91E0323F
:1048000009F082CFDC01F8CF0115110501F78D0108
:10481000DECF1093600700935F0740935B075093D0
:104820005C0760935D0770935E0740CF81E08093E3
:1048300039130895FC0165917591859194910895BE
:1048400080917018882319F080E00F94400A80E06E
:1048500008959B01AC01485F5F4FBC016C5F7F4FC7
:104860000C94B21F2F923F924F925F926F927F9261
:104870008F929F92AF92BF92CF92DF92EF92FF9270
:104880000F931F93CF93DF93CDB7DEB7A6970FB6E5
:10489000F894DEBF0FBECDBF8C011B015A8749873C
:1048A00040904C0D50904D0D60904E0D70904F0DFE
:1048B0008090500D9090510DA090520DB090530DDE
:1048C000DB018D919D910D90BC91A02D8B8B9C8BCC
:1048D000AD8BBE8B9C01AD01C301B2010F94C044EE
:1048E0006B017C01D10114968D919D910D90BC912D
:1048F000A02D8F8B988FA98FBA8F9C01AD01C50118
:10490000B4010F94C0446B8F7C8F8D8F9E8FA985CF
:10491000BA858D919D910D90BC91A02D8B879C8720
:10492000AD87BE879C01AD01C301B2010F94C044A5
:104930006F8F78A389A39AA3A985BA8514968D91C0
:104940009D910D90BC91A02D8F87988BA98BBA8BD0
:104950009C01AD01C501B4010F94C0446BA37CA3BD
:104960008DA39EA3A7019601C701B6010F94433EF4
:104970006B017C012B8D3C8D4D8D5E8DCA01B90183
:104980000F94433E9B01AC01C701B6010F94C14493
:104990004B015C012B893C894D895E896B857C8547
:1049A0008D859E850F94C0442B013C012F89388D45
:1049B000498D5A8D6F85788989899A890F94C04469
:1049C0006B017C01A3019201C301B2010F94433E2C
:1049D0002B013C01A7019601C701B6010F94433E8C
:1049E0009B01AC01C301B2010F94C1440F946F4706
:1049F0006B017C012F8D38A149A15AA1CA01B901CF
:104A00000F94433E2B013C012BA13CA14DA15EA183
:104A1000CA01B9010F94433E9B01AC01C301B2012D
:104A20000F94C1449B01AC01C501B4010F9421470F
:104A30001816B4F520E030E0A901C701B6010F94C3
:104A4000214787FF2AC0C701B601905820E030E017
:104A500040EA50E40F942147181614F5A101698526
:104A60007A85C8010E943224A6960FB6F894DEBF5C
:104A70000FBECDBFDF91CF911F910F91FF90EF90AF
:104A8000DF90CF90BF90AF909F908F907F906F906E
:104A90005F904F903F902F900895C701B601D6CFF9
:104AA00020E030E040E050E4C501B4010F9421471C
:104AB000181624F4B101C8010E948B2119821A82B0
:104AC0001B821C82BE016F5F7F4FC1010E9429249F
:104AD0002DEC3CEC4CEC5CE3C701B6010F94433E7B
:104AE0009B01AC01F80160817181828193810F94F7
:104AF000433E6D837E838F839887D8019B968C91EC
:104B00009B978823C9F02AE939E949E95FE31496BC
:104B10006D917D918D919C9117970F94433E698380
:104B20007A838B839C83BE016F5F7F4F84E89CE018
:104B30000E942924F80113A6BE016B5F7F4F89856F
:104B40009A850E94292490CF4F925F926F927F9214
:104B50008F929F92AF92BF92CF92DF92EF92FF928D
:104B60000F931F93CF93DF93CDB7DEB768970FB640
:104B7000F894DEBF0FBECDBF7C01FB018081C42E47
:104B8000C80EF4E0FC1508F4B0C0FB01D180022F80
:104B90000D0D053008F0A9C0ED2DF0E0EA5DF84FED
:104BA000E081F0E0082E02C0F595E7950A94E2F75F
:104BB000E0FF9BC0E02FF0E0EA5DF84FE081F0E01D
:104BC0000C2C02C0F595E7950A94E2F7E0FF8DC042
:104BD000122F742E0E94FF1D4B015C01672D660F82
:104BE000770B072E000C880B990B0F94E43D2B01DB
:104BF0003C01AC019B01C501B4010F94C1446D8718
:104C00007E878F87988B8C2D0E94FF1DA3019201B8
:104C10000F94C04469837A838B839C838D2D0E947B
:104C2000E41D4B015C01612F660F770B072E000C12
:104C3000880B990B0F94E43D2B013C01AC019B01C7
:104C4000C501B4010F94C144698B7A8B8B8B9C8B0B
:104C5000802F0E94E41DA30192010F94C0446D8334
:104C60007E838F839887F70180859185A285B385A0
:104C700089879A87AB87BC878D8B9E8BAF8BB88FCC
:104C800045E351E061E070E0CE0141960E9452FBA5
:104C900045E351E061E070E0CE0105960E9452FBD1
:104CA0004AE351E061E070E0CE010D960E9452FBB4
:104CB0004AE351E061E070E0CE0101960E9452FBB0
:104CC000CE010D960E94A31D882379F0CE01019696
:104CD0000E94A31D882349F0AE014F5F5F4FBE01C4
:104CE000635F7F4FC7010E94322468960FB6F89425
:104CF000DEBF0FBECDBFDF91CF911F910F91FF900F
:104D0000EF90DF90CF90BF90AF909F908F907F906B
:104D10006F905F904F900895CF92DF92EF92FF9245
:104D2000CF936B017C01C42F8091A90B8F5F09F495
:104D3000B5C08093A90B8091A90B8093580C20E0FB
:104D400030E040E752E46091330270913402809188
:104D50003502909136020F94433E0F94344670937F
:104D6000BB0B6093BA0BC092BC0BD092BD0BE09210
:104D7000BE0BF092BF0B8091570CC0FB80F9809363
:104D8000570C8CE0E2E7F8E1A0ECBBE001900D925B
:104D90008A95E1F78CE0EDE7F9E1ACECBBE001903E
:104DA0000D928A95E1F780919D179091570C80FBA9
:104DB00094F99093570C882381F0809199179091E2
:104DC0009A17A0919B17B0919C178093D80B909342
:104DD000D90BA093DA0BB093DB0B80913613909133
:104DE00037139093DD0B8093DC0B80910A13909125
:104DF0000B139093DF0B8093DE0B8091420D809319
:104E0000E00B8091570C90917D0C90FB83F980937F
:104E1000570C80917E0C90917F0CA091800CB091EA
:104E2000810C8093E10B9093E20BA093E30BB09382
:104E3000E40B0F94810D6093520C7093530C80938C
:104E4000540C9093550C809140078093560C909190
:104E500089078091570C93FB81F990918A1990FBF7
:104E600082F98093570C80E00E94DDF040E050E032
:104E7000BA018CE995E10E94C7CB40EB50E069EAAA
:104E80007BE08CE995E10E945BCC8CE995E1CF91C8
:104E9000FF90EF90DF90CF900C9488CF81E049CFC6
:104EA0004F925F926F927F928F929F92AF92BF923A
:104EB000CF92DF92EF92FF920F931F93CF93DF93E6
:104EC00000D01F92CDB7DEB719821A821B821C82D6
:104ED00098E9892E92E0992ECE0101965C0124E892
:104EE000C22E2CE0D22E3CE4E32E3DE0F32E10E067
:104EF00000E0F40181914F010E94681EF501819349
:104F00005F01882309F4EDC00E945E222B013C0161
:104F1000802F0E947C1D882309F4D3C0F7012081D3
:104F2000318142815381C301B2010F94C144F60122
:104F300060837183828393830F5F1F4FF4E0CF0EF2
:104F4000D11C84E0E80EF11C0330110591F685E4D4
:104F50000E94681E8C83882309F4CEC00E945E22C2
:104F60006B017C0183E00E947C1D882371F02091FD
:104F7000580D3091590D40915A0D50915B0DC7015C
:104F8000B6010F94C1446B017C01C092900CD09289
:104F9000910CE092920CF092930C8091590C882322
:104FA00091F18091971582FF2EC087FD2CC08C81D6
:104FB000882349F18981811103C08A81882319F1ED
:104FC0002DEC3CEC4CE45DE36091B20B7091B30BC3
:104FD0008091B40B9091B50B0F94C1449B01AC012F
:104FE0006091540D7091550D8091560D9091570D13
:104FF0000F94214718163CF440E060E070E080E038
:1050000090E40E948C2640E050E0BA0186E40E94C1
:105010008C2220E030E0A9010F942147181684F477
:105020000E945E2220E030E040E752E40F94BB454E
:10503000609333027093340280933502909336026A
:105040008091890783FD28C080915C18882321F115
:105050002091580D3091590D40915A0D50915B0D92
:105060006091900C7091910C8091920C9091930CA6
:105070000F94C0442091691830916A1840916B18C0
:1050800050916C180F94C1446093691870936A181A
:1050900080936B1890936C180F900F900F900F9057
:1050A000DF91CF911F910F91FF90EF90DF90CF9004
:1050B000BF90AF909F908F907F906F905F904F9038
:1050C0000895F801EE0FFF1FEE0FFF1FE45AF24F95
:1050D0002081318142815381C301B2010F94C044C8
:1050E00026CFF70180819181A281B381F60180836F
:1050F0009183A283B38320CF8091580D9091590D55
:10510000A0915A0DB0915B0D8093900C9093910CEF
:10511000A093920CB093930C40CFE9EAFBE080EBB4
:10512000DF011D928A95E9F708958091590C81114C
:1051300004C00E948D280C9469F18091971582FF1C
:1051400009C087FD07C040E060E070E080E090E4C7
:105150000C948C2608958091A90B882361F090917E
:10516000580C891308C08091971584FF04C085EE00
:105170009BE00C943DD380E00895FC012381211134
:105180000C9488CF0895CF93DF93C0913613D091BC
:105190003713209729F16091321370913313809166
:1051A0003413909135130F942D466E5F7F4F2497E3
:1051B0006C177D07ACF47093E1176093E0170E94C1
:1051C000239B605A75418F4F9F4F6093E2177093F6
:1051D000E3178093E4179093E517DF91CF9108953B
:1051E0001092E2171092E3171092E4171092E5174D
:1051F000F4CFCF92DF92EF92FF921F93CF93DF9382
:10520000182F662351F01092250710922107109253
:10521000220710922307109224070E94239B6B0100
:105220007C018091210790912207A0912307B091E2
:105230002407A7019601281B390B4A0B5B0BDA01E7
:10524000C901B7FD3DC02091250717FD13C0412FAF
:10525000012E000C550B4C5F5F4F822F022E000C6D
:10526000990B4817590764F184EF91E0A0E0B0E092
:10527000211724F488EE93E0A0E0B0E08C0D9D1D92
:10528000AE1DBF1D8093210790932207A093230793
:10529000B09324072170C22F30E0D32F84E28C9F7B
:1052A000B0018D9F700D7C1B112460597C4F82E3EF
:1052B00090E00F946813809125078F5F80932507F6
:1052C000DF91CF911F91FF90EF90DF90CF900895E5
:1052D000CF93DF93C0910A13D0910B13209729F13C
:1052E0006091061370910713809108139091091330
:1052F0000F942D466E5F7F4F24976C177D07ACF49B
:105300007093D7176093D6170E94239B605E7044FA
:105310008D4F9F4F6093D8177093D9178093DA17EA
:105320009093DB17DF91CF9108951092D8171092C8
:10533000D9171092DA171092DB17F4CFCF93DF93BF
:105340009091890793FD41C0C82F83E50E94681E94
:10535000D82F882399F10E944B228C389105C4F5EF
:1053600090930B1380930A130E94682960910A138B
:1053700070910B13072E000C880B990B0F94E43DD2
:10538000209106133091071340910813509109138F
:105390000F94214760E01816F4F48BE496E10F9423
:1053A000C01461E06C278C2F0E943BD9CC2369F09C
:1053B00060E08D2FDF91CF910C9407D5CC2329F09D
:1053C00082E50E94681E8111C6CFDF91CF910895BA
:1053D0008CE890E0C5CF8CE396E1E1CFCF93C1E0BC
:1053E00020E030E0A90160919B1970919C19809197
:1053F0009D1990919E190F94DD3D811101C0C0E06F
:105400008C2FCF910895CF93C82F882321F00E942D
:10541000EE298823C9F080917D0C8C17A9F00E9499
:1054200006FC8CE49DE00E9429FC80917D0C91E0BB
:10543000892780937D0C882321F08CE49DE00E94D5
:1054400094FACF910D94EF07CF9108958F929F9288
:10545000AF92BF92EF92FF920F931F93CF93DF9380
:1054600080E00E94032A10929719109298191092C6
:10547000991910929A1910929319109294191092E6
:1054800095191092961910929F191092A0191092C6
:10549000A1191092A21910929B1910929C191092A6
:1054A0009D1910929E1904E91CE0C0E0812C912CFA
:1054B00080ECA82E8FE7B82E7801D0E0F70181921A
:1054C0009192A192B1927F016D2F8C2F0E948F82B9
:1054D000DF5FD53099F7CF5F0C5E1F4FC53061F7A6
:1054E000DF91CF911F910F91FF90EF90BF90AF9000
:1054F0009F908F9008954F925F926F927F928F92BC
:105500009F92AF92BF92CF92DF92EF92FF920F9352
:105510001F93CF93DF93EC0120919319309194194D
:105520004091951950919619688179818A819B8162
:105530000F94C0446B017C01209197193091981908
:105540004091991950919A196C817D818E819F812A
:105550000F94C0444B015C01A701960160911907AB
:1055600070911A0780911B0790911C070F94DD3DE5
:10557000882309F450C0C0921907D0921A07E0920C
:105580001B07F0921C0720911107309112074091E0
:10559000130750911407C701B6010F94433E2B0126
:1055A0003C010F9463466B017C0120E030E0A901CF
:1055B0000F94DD3D87FD70C020E030E040E450E412
:1055C000C701B6010F94214718162CF4C12CD12C19
:1055D000C0E4EC2EFE2CA7019601C301B2010F948A
:1055E000C0446093090770930A0780930B07909358
:1055F0000C07C701B6010F942D4660930707062ECE
:10560000000C770B6F5F7F4F6430710514F064E01E
:1056100070E060930507D091030710910707A5017B
:10562000940160911D0770911E0780911F07909152
:1056300020070F94DD3D811133C0D11381C020912B
:10564000EB063091EC064091ED065091EE0660912C
:10565000090770910A0780910B0790910C070F942E
:10566000433E2091EF063091F0064091F1065091B3
:10567000F2060F94C144DF91CF911F910F91FF90DB
:10568000EF90DF90CF90BF90AF909F908F907F90E2
:105690006F905F904F900895C12CD12C76019BCFD5
:1056A00080921D0790921E07A0921F07B0922007BC
:1056B0002091150730911607409117075091180750
:1056C000C501B4010F94433E4B015C010F94634646
:1056D0006B017C0120E030E0A9010F94DD3D87FDE6
:1056E000F3C020E030E040E450E4C701B6010F947D
:1056F000214718162CF4C12CD12CB0E4EB2EFE2C33
:10570000A7019601C501B4010F94C04460930D0731
:1057100070930E0780930F0790931007C701B6018F
:105720000F942D4660930807062E000C770B6F5FD1
:105730007F4F6430710514F064E070E060930607F9
:10574000C0910807D11305C0809104078C1709F494
:1057500070C0809107079091080790930407809389
:1057600003070C2E000CDD0B25E01203C0011124F1
:10577000FC01EC0FFD1FEE0FFF1FEE0FFF1FEC569D
:10578000F34F20813181428153812093FF06309372
:105790000007409301075093020700910607002E6F
:1057A000000C110BFC01E00FF11FEE0FFF1FEE0FBD
:1057B000FF1FEC56F34F60817181828193810F94BA
:1057C000C0446093FB067093FC068093FD069093A3
:1057D000FE062091050735E02303F0011124CE0FCA
:1057E000DF1FCC0FDD1FCC0FDD1FCC56D34F288120
:1057F00039814A815B812093F7063093F806409304
:10580000F9065093FA06E00FF11FEE0FFF1FEE0F9F
:10581000FF1FEC56F34F60817181828193810F9459
:10582000C0446093F3067093F4068093F50690935A
:10583000F60680900D0790900E07A0900F07B0908D
:1058400010072091FB063091FC064091FD06509117
:10585000FE06C501B4010F94433E2091FF0630912E
:10586000000740910107509102070F94C1446B015A
:105870007C01C092EF06D092F006E092F106F09221
:10588000F2062091F3063091F4064091F50650910E
:10589000F606C501B4010F94433E2091F7063091FE
:1058A000F8064091F9065091FA060F94C144A701F9
:1058B00096010F94C0446093EB067093EC068093BE
:1058C000ED069093EE06BBCEC12CD12C760118CFFD
:1058D000E9E1F7E080EF9FEFA9E7B4EC84839583DB
:1058E000A683B78380839183A283B383E3E0F7E049
:1058F0008DE98183808308958F929F92AF92BF92AA
:10590000CF92DF92EF92FF92FC0198E0ABE9B9E110
:1059100001900D929A95E1F788E0FB01A3E9B9E1C6
:1059200001900D928A95E1F7C0909B19D0909C1937
:10593000E0909D19F0909E1920E030E0A901C70188
:10594000B6010F94DD3D8823E1F1A701960160E0E7
:1059500070E080E89FE30F94BB456B017C01809071
:105960009F199090A019A090A119B090A21920E0C1
:1059700030E0A901C501B4010F94DD3D882329F170
:10598000A501940160E070E080E89FE30F94BB45BF
:10599000C0921107D0921207E0921307F0921407F9
:1059A0006093150770931607809317079093180755
:1059B000FF90EF90DF90CF90BF90AF909F908F902F
:1059C0000895C12CD12C7601CACF60E070E0CB01E4
:1059D000DFCFEFE6F0E080818260808308958091E0
:1059E0003E1290913F12892B79F480913E12909152
:1059F0003F12892B49F420913E1230913F1281E0F1
:105A0000232B19F480E0089581E00895CF92DF926E
:105A1000EF92FF926B017C0183E3C816D104E1048D
:105A2000F10470F082E3C81AD108E108F10862E3DA
:105A300070E080E090E00E94F09A0E94EEDBECCFF4
:105A4000C701B6010E94F09AFF90EF90DF90CF90CF
:105A50000C94EEDB1092A50B8091AE179091AF17CE
:105A6000A091B017B091B1178093AA179093AB177C
:105A7000A093AC17B093AD17089590914112109276
:105A800041129230B9F09430C1F09130E1F48823A2
:105A900019F0813021F008959093A60B089582E0CB
:105AA0008093A60B8091A50B882369F010929E0726
:105AB0000C942A2D1092A70B08958BE093E39093FA
:105AC000E0078093DF0708956C98749A0C942A2D50
:105AD0009091971594FB882780F994FF06C081E088
