:100000000C9440200C9480200C9480200C94802030
:100010000C9480200C9480200C9480200C948020E0
:100020000C9480200C9480200C9480200C948020D0
:100030000C9480200C9480200C9480200C948020C0
:100040000C9480200C948F9C0C9480200C94802025
:100050000C9480200C94169B0C9480200C94E0F05F
:100060000C9480200C94FF3B0C94F53B0C94802066
:100070000C9480200C9480200C9480200C94802080
:100080000C9480200C9480200C9480200C94802070
:100090000C9480200C9480200C9480200C94802060
:1000A0000C9480200C9480200C9480200C94802050
:1000B0000C9480200C9480200C9480200C94802040
:1000C0000C9480200C9480200C9480200C946A3135
:1000D0000C9434310C9480200C9480200C9480205B
:1000E0000C948020084AD73B3BCE016E84BCBFFDF8
:1000F000C12F3D6C74319ABD56833DDA3D00C77FF8
:1001000011BED9E4BB4C3E916BAAAABE0000008090
:100110003F05A84CCDB2D44EB93836A9020C50B91F
:10012000918688083CA6AAAA2ABE000000803F004B
:100130000C94EF2F0C9441880C94AB310C94A63F97
:100140000C94903C0C943BDE0C94B53C0D946B14D9
:100150000C94E3BC0D9483140C9433DE0C94A03FF8
:100160000D9428090C941B320C94CD3C0D949705EA
:100170000C94A52F0C941A400D948C050C94973F69
:100180000D94A2050C9440320D9477140C9408BD84
:100190000C9400DE0C9412320C94BA3C0C94913FF7
:1001A0000C94A72F0C944A830D947A140C943D451B
:1001B0000C9430890C94CB2F0C9415DE0D94A5056E
:1001C0000C940F300D9468140C9477BD0C9413307C
:1001D0000C94EB2F0D944F090D9477020C94403C36
:1001E0000C941FDE0D944F050C949F3C0C94BEBCE8
:1001F0000C94D53C0D94AB050D9460140D946E14C5
:100200000D9486050C9406320C941E890D94651489
:100210000D9483040C9433BC0D9419090D9461055D
:100220000C942DDE0D9444050C949B3C0C94583F8B
:100230000C940ADE0C94FB310D9449030D941504C3
:100240000C948E3F0C94DA310C94A33F0C94CD8324
:100250000D94E9080C9458BC0C94A0880D94741467
:100260000C9437DE0D946A050C9466450C9445DEBB
:100270000C9416320C940EDE0C94C72F0C9438326A
:100280000C9485880C940E320C945D890D94AC040A
:100290000C9406DE0C948B870C9411300D948A0517
:1002A0000C94AD450C947DBC0C942D320C941BDE4B
:1002B0000C94C23C0C94A93F0D9467030C947B2FC3
:1002C0000C94C92F0C942DBD0C94A33C0C940232B9
:1002D0000C94ED2F0D94F5080C949D3F0C9452BD99
:1002E0000C94CC830D9440090C940A320D940D307B
:1002F0000D9471140C94288A0D94E3040C9441DE3F
:100300000D947D140C9425320C9429DE0D94EB038E
:100310000C94E9310C94973C0C947B450D947C052E
:100320000D94EF2F0D94A8050C94A73C0C94E93F75
:100330000C94F1BB0D9458050C9416400D94730564
:100340000C9440DE0C94A8870C948B3F0C9412DE26
:100350000D94B6020D9416050D9480140C949A3FDA
:100360000D94F7040D94C0040C9425DE0C946F3C9E
:100370000C947E3C0C94943F0C94AB3C0C94872FD3
:100380000C94B03C0C9420880C9420320D943409C9
:100390004E414E494E495459494E46CDCCCC3D0A6A
:1003A000D7233C17B7D13877CC2B329595E6241F4D
:1003B000B14F0A000020410000C84200401C462006
:1003C000BCBE4CCA1B0E5AAEC59D7400407A10F3D9
:1003D0005A00A0724E18090010A5D4E80000E87673
:1003E00048170000E40B54020000CA9A3B000000CA
:1003F000E1F505000080969800000040420F0000E3
:1004000000A08601000000102700000000E80300A3
:100410000000006400000000000A0000000000016D
:1004200000000000002C76D888DC674F0823DFC16D
:10043000DFAE59E1B1B796E5E3E453C63AE6519928
:100440007696E8E6C28426EB898C9B62ED407C6F51
:10045000FCEFBC9C9F40F2BAA56FA5F490055A2A08
:10046000F75C936B6CF9676DC11BFCE0E40D47FE14
:10047000F520E6B500D0ED902E0300943577050009
:1004800080841E080000204E0A000000C80C333390
:1004900033330F986E12831141EF8D2114893BE69F
:1004A0005516CFFEE6DB18D1844B381BF77C1D9028
:1004B0001DA4BBE424203284725E228100C9F12491
:1004C000ECA1E53D2744455441494C00434F4D4D77
:1004D000554E49434154494F4E0044525952554E8E
:1004E000004552524F525300494E464F0045434833
:1004F0004F0053544F505045442E20005072696EA7
:100500007465722073746F70706564206475652003
:10051000746F206572726F72732E20466978207432
:100520006865206572726F7220616E6420757365F4
:10053000204D39393920746F20726573746172747B
:100540002E202854656D706572617475726520691E
:10055000732072657365742E20536574206974204E
:1005600061667465722072657374617274696E6716
:10057000290A004E6F20436865636B73756D2077A1
:10058000697468206C696E65206E756D6265722C89
:10059000204C617374204C696E653A20004E6F20C8
:1005A000436865636B73756D2077697468206C6947
:1005B0006E65206E756D6265722C204C61737420BF
:1005C0004C696E653A2000636865636B73756D20D6
:1005D0006D69736D617463682C204C617374204C79
:1005E000696E653A20004C696E65204E756D6265D6
:1005F00072206973206E6F74204C617374204C6993
:100600006E65204E756D6265722B312C204C6173C6
:1006100074204C696E653A20004D313130005365CD
:100620007269616C20737461747573206D69736D88
:10063000617463680A0053442072656164206572C6
:10064000726F720A00746F6F206D75636820696E37
:100650006163746976652074696D65202D2063750A
:100660007272656E7420636F6D6D616E643A200006
:100670002121204B494C4C206361757365642062D5
:10068000792000486F74656E642049646C6520545D
:10069000696D656F757400486F74656E6420496498
:1006A0006C652054696D656F75740A0062757379A5
:1006B0003A2070617573656420666F7220696E7090
:1006C00075740A00627573793A2070617573656498
:1006D00020666F7220757365720A00627573793ACD
:1006E0002070726F63657373696E670A004D3130F5
:1006F0003030530025533A202553002A2A2A6B69AB
:100700006C6C2A2A2A00706F7765726F6666004BE0
:10071000494C4C45442E20005072696E746572201D
:1007200068616C7465642E206B696C6C2829206389
:10073000616C6C6564210A006563686F3A004572FC
:10074000726F723A004F4646004F4E00202864698F
:100750007361626C6564290A0020280041424C20C4
:1007600041646A7573746D656E74205A005A204630
:100770006164653A20002028656E61626C656429B9
:100780000A0041626F76650053616D65205A2061F1
:10079000730042656C6F77004175746F2042656429
:1007A000204C6576656C696E673A2042494C494E2B
:1007B00045415200204E6F7A7A6C65290A00202646
:1007C00020002D43656E746572002D46726F6E7445
:1007D000002D4261636B002028416C69676E65647F
:1007E00020576974680020284D6964646C65002096
:1007F000284C65667400202852696768740050723E
:100800006F6265204F666673657420580050726F82
:1008100062653A204649585F4D4F554E5445445FF6
:1008200050524F42450A004D616368696E6520541D
:100830007970653A2043617274657369616E0A006C
:1008400042696C696E656172204C6576656C696E93
:100850006720477269643A0A003E3E3E003C3C3CD9
:10086000007365745F6265645F6C6576656C696E64
:10087000675F656E61626C65640072657365745F65
:100880006265645F6C6576656C0A00203A204C6591
:1008900076656C696E67204F4E0A00202063757282
:1008A00072656E745F706F736974696F6E3D00205E
:1008B0003A204C6576656C696E67204F46460A00A3
:1008C000202063757272656E745F706F73697469EE
:1008D0006F6E3D002F2F616374696F6E3A006E6F0B
:1008E00074696669636174696F6E2000656E640087
:1008F000627574746F6E00486F74656E6420746FF7
:100900006F20636F6C640A0053656E64204D313054
:100910003820746F20726573756D650A00496E73B7
:100920006572742066696C616D656E7420616E64B9
:100930002073656E64204D3130380A005265686559
:10094000617420446F6E6500526568656174696EFC
:10095000672E2E2E005265686561740048656174CB
:1009600065722054696D656F75740053656E6420FF
:100970004D31303820746F2068656174206E6F7A55
:100980007A6C650A004E6F7A7A6C65205061726BE2
:10099000656400706175736564005061757365000E
:1009A00057616974696E6720666F7220686561744B
:1009B00075702E0A004C656176696E672047323685
:1009C000003F53706563696669656420582C59203F
:1009D000636F6F7264696E617465206F7574206FE8
:1009E0006620626F756E64732E0A003F2852296577
:1009F000706561742076616C7565206E6F7420700F
:100A00006C61757369626C653B206D7573742062EF
:100A100065206174206C6561737420312E0A003F7B
:100A20002852296570656174206D75737420626544
:100A300020737065636966696564207768656E20F8
:100A40006E6F74207573696E6720616E204C43442D
:100A50002E0A003F537065636966696564206E6F96
:100A60007A7A6C652074656D7065726174757265F3
:100A7000206E6F7420706C61757369626C652E0AEC
:100A8000003F5370656369666965642066696C61DF
:100A90006D656E742073697A65206E6F7420706C5A
:100AA00061757369626C652E0A003F5370656369F6
:100AB00066696564207072696D65206C656E677427
:100AC00068206E6F7420706C61757369626C652E3E
:100AD0000A003F5072696D65206C656E677468200E
:100AE0006D757374206265207370656369666965EE
:100AF00064207768656E206E6F74207573696E6709
:100B000020616E204C43442E0A003F537065636998
:100B100066696564206E6F7A7A6C652073697A65A0
:100B2000206E6F7420706C61757369626C652E0A3B
:100B3000003F52657472616374696F6E204D756C0D
:100B40007469706C696572206D75737420626520BC
:100B50007370656369666965642E0A003F5370654A
:100B60006369666965642052657472616374696F54
:100B70006E204D756C7469706C696572206E6F744F
:100B800020706C61757369626C652E0A003F53704A
:100B900065636966696564206C6179657220686562
:100BA00069676874206E6F7420706C617573696218
:100BB0006C652E0A0043292E0A003F537065636955
:100BC00066696564206265642074656D7065726134
:100BD00074757265206E6F7420706C6175736962D4
:100BE0006C65202834302D004732362073746172D2
:100BF00074696E672E2E2E0A004F46460A00466123
:100C00006465204865696768742000426564204C0B
:100C10006576656C696E6720004661696C65642065
:100C2000746F20656E61626C6520426564204C655E
:100C300076656C696E670A00496E76616C6964203E
:100C40006D6573682E0A00203A203E2070726F6234
:100C5000696E6720636F6D706C6574650A00202093
:100C600063757272656E745F706F736974696F6EAD
:100C70003D0050726F62696E6720506F696E74003C
:100C800025532025692F2569002E0A002F00507258
:100C90006F62696E67206D65736820706F696E742E
:100CA0002000202844525952554E290047323920FD
:100CB0004175746F20426564204C6576656C696E81
:100CC00067003F20284C2C522C462C4229206F755F
:100CD00074206F6620626F756E64732E0A00204266
:100CE00000204600205200473239204C003F285651
:100CF000296572626F7365206C6576656C20696D1D
:100D0000706C61757369626C652028302D34292EF2
:100D10000A00426164205A2076616C75650A004EB3
:100D20006F2062696C696E65617220677269640A1E
:100D3000004732384C30003E204175746F2D6C6591
:100D400076656C206E6F74206E65656465642C201A
:100D5000736B69700A004732390041495F4445426C
:100D600055473A20717569636B5F686F6D655F7891
:100D7000792829204B4F4EC48CC38D0A002C2000AB
:100D800041495F44454255473A20717569636B5F3D
:100D9000686F6D655F7879202D20706F7A69636563
:100DA000206E6173746176656E61206E61203D20F6
:100DB0000041495F44454255473A20717569636B6C
:100DC0005F686F6D655F7879202D20785F61786945
:100DD000735F686F6D655F646972203D20002C2031
:100DE0000041495F44454255473A20717569636B3C
:100DF0005F686F6D655F7879202D20706F7A696309
:100E0000652072657365746F76C3A16E61206E6133
:100E1000203D20002C200041495F44454255473A7F
:100E200020717569636B5F686F6D655F7879202DE0
:100E300020616B7475C3A16C6EC3AD20706F7A694D
:100E400063652070C5996564207265736574656D0E
:100E5000203D200041495F44454255473A20717585
:100E600069636B5F686F6D655F78792829205A41E7
:100E7000C48CC38D4EC3810A005A2050726F6265C4
:100E80002050617374204265640A005A2050726FCA
:100E90006265205061737420426564002C2000411B
:100EA000495F44454255473A20506F2073796E633D
:100EB0005F706C616E5F706F736974696F6E202D07
:100EC0002063757272656E745F706F736974696F99
:100ED0006E203D20002C200041495F44454255478B
:100EE0003A2050C59965642073796E635F706C61B8
:100EF0006E5F706F736974696F6E202D20637572F9
:100F000072656E745F706F736974696F6E203D20D7
:100F1000002C200041495F44454255473A20506F1C
:100F2000205A20686F6D696E6775202D2063757279
:100F300072656E745F706F736974696F6E203D20A7
:100F4000002C200041495F44454255473A2050C596
:100F5000996564205A20686F6D696E67656D202DF4
:100F60002063757272656E745F706F736974696FF8
:100F70006E203D2000203A20686F6D655F7A5F73B8
:100F80006166656C790A00202064657374696E611E
:100F900074696F6E3D002C200041495F4445425505
:100FA000473A2064657374696E6174696F6E20736B
:100FB000657420746F203D20002C200041495F445F
:100FC000454255473A206F6B61795F686F6D696E76
:100FD000675F7879203D20002C200041495F44451F
:100FE0004255473A20686F6D655F6F66667365743A
:100FF000203D20002C200041495F44454255473A9E
:1010000020736166655F686F6D696E675F787920D0
:101010003D200041495F44454255473A205A5F53BD
:101020004146455F484F4D494E475F595F504F49D4
:101030004E54203D200041495F44454255473A20E7
:101040005A5F534146455F484F4D494E475F585F91
:10105000504F494E54203D2000686F6D655F7A5FA8
:10106000736166656C79002C200041495F444542FC
:1010700055473A20473238202D20706F7A696365D2
:1010800020706F20717569636B5F686F6D655F7845
:1010900079203D20002C200041495F4445425547BE
:1010A0003A20473238202D20706F7A6963652070AE
:1010B000C599656420717569636B5F686F6D655F65
:1010C0007879203D200041495F44454255473A2008
:1010D000473238202D20766F6CC3A12073652071B4
:1010E0007569636B5F686F6D655F787928290A00A1
:1010F0005A7665646E65205A202870C5996564200B
:10110000686F6D696E67656D29206F20003E2068ED
:101110006F6D696E67206E656EC3AD20706F74C5AC
:10112000996562612C2070C59965736B6FC48D6978
:10113000740A002C20002C200041495F4445425590
:10114000473A20473238202D20616B7475C3A16C5B
:101150006EC3AD20706F7A696365206E61207A611D
:10116000C48DC3A1746B75203D200041495F444587
:101170004255473A204732382829205A41C48CC367
:101180008D4EC3810A004732380020440020204D94
:10119000323030205300202844697361626C6564EA
:1011A000293A0046696C616D656E742073657474CC
:1011B000696E67730020204D3230312058004D6138
:1011C0007820416363656C65726174696F6E202875
:1011D000756E6974732F7332290020204D323033BD
:1011E0002058004D6178206665656472617465738E
:1011F0002028756E6974732F7329002052002020F7
:101200004D323034205000416363656C6572617407
:10121000696F6E2028756E6974732F7332292028C8
:10122000503C7072696E742D616363656C3E205230
:101230003C726574726163742D616363656C3E20FA
:10124000543C74726176656C2D616363656C3E29F4
:101250000020580020540020530020204D3230350B
:10126000204200416476616E6365642028423C6DD3
:10127000696E5F7365676D656E745F74696D655FD8
:1012800075733E20533C6D696E5F6665656472617F
:1012900074653E20543C6D696E5F74726176656C56
:1012A0005F66656564726174653E20583C6D617867
:1012B0005F6A65726B3E20593C6D61785F6A65724A
:1012C0006B3E205A3C6D61785F6A65726B3E2045CB
:1012D0003C6D61785F6A65726B3E29002044002096
:1012E000490020204D333031205000486F74656E26
:1012F00064205049440020440020490020204D3300
:1013000030342050004265642050494400203B00A6
:1013100020550020204D363033204C0046696C614A
:101320006D656E74206C6F61642F756E6C6F616497
:10133000004D323453256C6454256C6400473932B7
:101340002E394525730047314625640047315A251B
:10135000734636303000473158257359257346336C
:10136000303030004D313036502569532569004DFD
:10137000313039532569004D3230304425730047F0
:1013800039322E395A2573004D3432305325635A81
:10139000257300473238523058590047315A257367
:1013A00046363030004739322E395A2573004739D6
:1013B000322E394530004D313039532569004D31D9
:1013C0003930532569004D343230205330205A30A3
:1013D000003D3D4F6E506F7765724C6F7373526571
:1013E00073756D653D3D00203B200020204D34315C
:1013F00033205300506F7765722D6C6F73732072BA
:1014000065636F76657279003B200020496E7661D6
:101410006C69642065787472756465722000473267
:101420002F47332062616420706172616D6574655D
:1014300072730A00536C6565702E2E2E00205A3A86
:10144000200020593A200042656420583A20004D7F
:1014500065736820706F696E74206F7574206F6695
:101460002072616E67650A0070726F6D70745F0044
:10147000626567696E004D302053746F70004D31A6
:101480002053746F7000436C69636B20746F20523B
:101490006573756D652E2E2E004E6F204D6F76652F
:1014A0002E00456E642066696C65206C6973740A51
:1014B00000426567696E2066696C65206C697374AB
:1014C0000A004E6F206D656469610A00526573758C
:1014D0006D696E6720534400286E6F2066696C65E5
:1014E000290043757272656E742066696C653A20D6
:1014F000004E6F74205344207072696E74696E6779
:101500000A005344207072696E74696E67206279B4
:10151000746520002569730025696D2025697300B5
:101520002569682025696D20256973002569642077
:101530002569682025696D20256973002569792052
:10154000256964202569682025696D202569730057
:101550005072696E742074696D653A20003F436172
:101560006E6E6F7420777269746520746F20494EB7
:101570005055540A00496E76616C69642050696E5A
:10158000204D6F64650A006F6B006F666600ED04A6
:10159000E804E104DA04CC04C50444454255473A62
:1015A000004D313133205300544D334420313053FA
:1015B00050726F5632204F46462E004649524D57C4
:1015C0004152455F4E414D453A4D61726C696E2006
:1015D0004457372E342E3720544D33442053534D27
:1015E000444E4220284D6172203230203230323653
:1015F0002031383A30333A33362920534F5552434D
:10160000455F434F44455F55524C3A68747470735C
:101610003A2F2F6769746875622E636F6D2F496E5C
:1016200073616E6974794175746F6D6174696F6E01
:101630002F4D61726C696E2F747265652F437265F0
:10164000616C6974794477696E5F322E3020505234
:101650004F544F434F4C5F56455253494F4E3A31CA
:101660002E30204D414348494E455F545950453A2C
:10167000544D33442031305350726F563220455808
:101680005452554445525F434F554E543A312055BC
:101690005549443A63656465326132662D3431617F
:1016A000322D343734382D396231322D633535637C
:1016B0003632663336376666002F2F005741524E5A
:1016C000494E4721204C6F77205A204A65726B2083
:1016D0006D6179206C65616420746F20756E77612F
:1016E0006E746564207061757365732E0A00202026
:1016F0004D61783A2000200020204D696E3A20008C
:10170000203B200020204D323131205300536F66A2
:101710007420656E6473746F707300250A004652FE
:101720003A0020466C6F773A200050726F74656300
:101730007465642050696E0A00363726033C3D38D4
:101740000E2E303E12021A1C180A430908440001EA
:101750004261627973746570205A00646973006530
:101760006E0043290A0061626C656420286D696E11
:101770002074656D702000436F6C6420657874720E
:10178000756465732061726520005049442041757D
:10179000746F74756E6500206661696C65642120E4
:1017A000426164206865617465722069640A005052
:1017B0004944204175746F74756E65004D34323143
:1017C00020696E636F727265637420706172616DFF
:1017D000657465722075736167650A004D6573688D
:1017E00020706F696E74206F7574206F662072614F
:1017F0006E67650A00203B204C6576656C696E67F4
:10180000200020204D3432302053004175746F2069
:10181000426564204C6576656C696E670020204DDA
:10182000393030204B004C696E656172204164761E
:10183000616E636500204A0020204732392057201E
:10184000490020204D3134392043203B20556E691A
:10185000747320696E2043656C736975730A005454
:10186000656D706572617475726520556E6974730B
:10187000002020473231203B004C696E65617220A8
:10188000556E69747300454550524F4D204F4B0AB9
:1018900000290A0020746F20003F5A206F757420C1
:1018A0006F662072616E6765202800290A00207427
:1018B0006F20003F59206F7574206F662072616E33
:1018C000676520282D00290A0020746F20003F58EA
:1018D000206F7574206F662072616E676520282DF9
:1018E000002E0A002028302D313029002076616C2E
:1018F0007565206F7574206F662072616E67650074
:10190000416476616E6365204B3D004D3834004480
:101910006F6E65207072696E74696E672066696C9F
:10192000650A004D3737004D333100290A002E2E4D
:101930002E2800540020204D323036205800486FA9
:101940006D65206F6666736574004F6666736574B7
:1019500073204170706C696564004572723A20545E
:101960006F6F206661722100546F6F206661722074
:1019700066726F6D207265666572656E6365207054
:101980006F696E740A0020286D6D2900203B0020CD
:10199000204D3835312058005A2D50726F62652025
:1019A0004F666673657400436F6F6C696E672E2EA9
:1019B0002E0045312025530042656420436F6F6C33
:1019C000696E672E2E2E0042656420486561746939
:1019D0006E672E2E2E003D3D4477696E20496E695C
:1019E0007420436F6D706C6574653D3D0068616E79
:1019F000646C652077616974776179203D3D0020D2
:101A0000202A2A2A2A2A2A2A5254535F48616E64BD
:101A10006C65446174612A2A2A2A2A2A2A2A20000B
:101A2000202D206434200064333A2000202D2064CF
:101A300032200064313A2000202D206C656E200099
:101A400056502072656365697665643A20002A2ADB
:101A50002A4E6F7A7A6C6554656D70537461747533
:101A6000735B325D203D003D3D48656174696E6782
:101A700020446F6E65204368616E67652046696C1F
:101A8000616D656E743D3D002020737461727470E9
:101A9000726F677265737320004D32320A4D3231B6
:101AA000003D3D7761697477617920353D3D003DAA
:101AB0003D7761697477617920343D3D003D3D7724
:101AC00061697477617920333D3D003D3D776169FF
:101AD0007477617920313D3D00436F6E6669726DA8
:101AE00020436F6E74696E75650050617573655340
:101AF000746174757300524553554D45204F5054D1
:101B0000494F4E533A0048656174696E672E2E2E18
:101B1000000000436C69636B20746F20686561741A
:101B2000000000526573756D696E672E2E2E0000E1
:101B30000050757267696E672E2E2E000000496E88
:101B40007365727420616E6420436C69636B00007E
:101B500000436C69636B20746F20636F6E74696EF1
:101B60007565000000456A656374696E672E2E2EE8
:101B7000000000506C6561736520776169742E2EDA
:101B80002E0000005061726B696E672E2E2E0000D1
:101B9000002A2A2A496E6974696E6720636172643B
:101BA000206973204F4B2A2A2A003D3D6F6E5072E8
:101BB000696E7454696D657253746F707065643DBD
:101BC0003D003D3D6F6E55736572436F6E66697281
:101BD0006D52657175697265643D3D005061757344
:101BE00065204D6F646520537461747573004C6F8C
:101BF0006164696E672E2E2E0000003D3D6F6E46BB
:101C00006163746F727952657365743D3D00270A94
:101C10000A0000272027002027002D0063616E6343
:101C2000656C005072696E742041626F72746564F5
:101C30000055492041626F72746564007265737566
:101C40006D65004D3234002A2A2A43506C61792098
:101C5000546F6E652A2A2A003D3D6F6E5072696E80
:101C60007454696D65725061757365643D3D003DE6
:101C70003D6F6E5072696E7454696D657253746114
:101C8000727465643D3D00486F6D696E6720466102
:101C9000696C6564006F70656E0054524947474532
:101CA000524544003A20007A5F70726F6265007A94
:101CB0005F6D696E00795F6D696E00785F6D696E4A
:101CC000005265706F7274696E6720656E6473741C
:101CD0006F70207374617475730A0041495F4445E5
:101CE0004255473A2043415254455349414E202DD5
:101CF000205820706F7A69636520646F7361C5BE78
:101D00006974656C6EC3A13A20005D0A002C200046
:101D1000206D696D6F20726F7A736168205B00417E
:101D2000495F44454255473A205920706F7A6963AC
:101D300065206E656EC3AD20646F7361C5BE697446
:101D4000656C6EC3A1212072793D002C20595F4D36
:101D500041585F504F533D0041495F44454255470C
:101D60003A20595F4D494E5F504F533D002C20584B
:101D70005F4D41585F504F533D0041495F444542DC
:101D800055473A20585F4D494E5F504F533D002C08
:101D900020793D0041495F44454255473A20706FE4
:101DA000736974696F6E5F69735F7265616368619F
:101DB000626C65206B6F6E74726F6C756A652078EB
:101DC0003D00203A2073796E635F706C616E5F70C6
:101DD0006F736974696F6E0A002020637572726593
:101DE0006E745F706F736974696F6E3D002C2000B4
:101DF0002C200041495F44454255473A20646F5FBB
:101E0000626C6F636B696E675F6D6F76655F746F31
:101E100020646F6B6F6EC48D656E61202D206375BD
:101E20007272656E745F706F736974696F6E203D56
:101E300020002C20002C200041495F44454255479A
:101E40003A20416B7475C3A16C6EC3AD20706F7A7C
:101E50006963652070C599656420706F68796265F3
:101E60006D203D20002C207A3D002C20793D004142
:101E7000495F44454255473A20646F5F626C6F6327
:101E80006B696E675F6D6F76655F746F20766F6CE0
:101E9000C3A16E61207320783D003E2000646F5F17
:101EA000626C6F636B696E675F6D6F76655F746F91
:101EB0000020746F6F206C6F6E6720657874727588
:101EC00073696F6E2070726576656E7465640A0062
:101ED00020636F6C6420657874727573696F6E200F
:101EE00070726576656E7465640A00486F6D652072
:101EF0002573204669727374005761726E696E674C
:101F00003A20486F6D696E672042756D7020446994
:101F10007669736F72203C20310A00020204290A9C
:101F2000003C3C3C207365745F617869735F697342
:101F30005F61745F686F6D652800203A200A002099
:101F40002063757272656E745F706F736974696F08
:101F50006E3D005D203D20003E20686F6D655F6F27
:101F600066667365745B002A2A2A205A20484F4D02
:101F7000454420574954482050524F424520285A42
:101F80005F4D494E5F50524F42455F555345535F39
:101F90005A5F4D494E5F454E4453544F505F504930
:101FA0004E29202A2A2A0A3E2070726F62652E6FFF
:101FB00066667365742E7A203D20002C200041490E
:101FC0005F44454255473A207365745F6178697391
:101FD0005F69735F61745F686F6D65285A29202D92
:101FE00020706F20626173655F686F6D655F706FF1
:101FF00073202D2063757272656E745F706F7369E4
:1020000074696F6E203D200041495F444542554749
:102010003A205A5F4D41585F504F53203D200041B8
:10202000495F44454255473A205A5F4D494E5F50FB
:102030004F53203D200041495F44454255473A20D7
:102040005A5F484F4D455F504F53203D2000414956
:102050005F44454255473A20626173655F686F6D22
:10206000655F706F73285A29203D2000000070C101
:10207000000020C1000000002C200041495F4445C1
:102080004255473A207365745F617869735F69737D
:102090005F61745F686F6D65285A29202D2070C5B7
:1020A00099656420626173655F686F6D655F706FCD
:1020B00073202D2063757272656E745F706F736923
:1020C00074696F6E203D2000290A003E3E3E207359
:1020D00065745F617869735F69735F61745F686F6E
:1020E0006D652800290A003C3C3C20686F6D6561E5
:1020F0007869732800203A203E20414654455220FA
:102100007365745F617869735F69735F61745F6839
:102110006F6D650A00202063757272656E745F7062
:102120006F736974696F6E3D006D6D0A0052652DA5
:1021300062756D703A20006D6D0A004D6F766520F6
:10214000417761793A20006D6D0A00486F6D652016
:10215000466173743A20000000A5430000A04300CC
:1021600000C8430000004100000041000000402979
:102170000A003E3E3E20686F6D65617869732800F5
:1021800020706F736974696F6E5F7368696674201D
:102190003D200020686F6D655F6F66667365742013
:1021A0003D2000417869732000000000010000001C
:1021B00001000080005555550000004000333333C6
:1021C00000AAAA2A004992240000002000C7711C1E
:1021D0000099991900D1451700555515003BB113C9
:1021E000002449120011111100000010000F0F0F00
:1021F00000E3380E0043790D00CCCC0C00C3300C4A
:1022000000E8A20B0064210B00AAAA0A00703D0A94
:10221000009DD80900427B090092240900DCD30804
:1022200000888808001042080000000800F0C1077C
:10223000008787070075500700711C07003EEB06FA
:1022400000A1BC06006990060066660600703E06A6
:10225000006118060017F4050074D105005BB00595
:1022600000B29005006272050055550500783905E9
:1022700000B81E0500050505004EEC040087D404D7
:1022800000A1BD040090A7040049920400C17D0490
:1022900000EE690400C7560400444404005C3204A4
:1022A000000821040041100400000004003FF00376
:1022B00000F8E0030026D20300C3C30300CCB5033B
:1022C000003AA803000A9B0300388E0300C0810374
:1022D000009F750300D0690300505E03001D530387
:1022E0000034480300913D030033330300162903F3
:1022F00000381F030097150300300C03000303038D
:10230000000BFA020049F10200BAE802005CE002A8
:10231000002DD802002DD0020059C80200B0C00222
:102320000031B90200DAB10200AAAA0200A0A30299
:1023300000BC9C0200FA9502005C8F0200DF88025C
:102340000082820200457C0200277602002770028C
:1023500000436A02007C640200D05E02003F590222
:1023600000C8530200FFFDFCFAF8F6F4F2F0EEECC0
:10237000EAE9E7E5E3E1E0DEDCDAD9D7D5D4D2D08B
:10238000CFCDCBCAC8C7C5C3C2C0BFBDBCBAB9B721
:10239000B6B4B3B2B0AFADACAAA9A8A6A5A4A2A189
:1023A000A09E9D9C9A99989795949392908F8E8DCC
:1023B0008B8A8988878684838281807F7E7D7B7AF1
:1023C000797877767574737271706F6E6D6C6B6AF5
:1023D000696867666564636261605F5E5D5C5B5AE5
:1023E0005958585756555453525150504F4E4D4CC2
:1023F0004B4A4A4948474646454443424241403F8A
:102400003E3E3D3C3B3B3A39383837363535343340
:1024100032323130302F2E2E2D2C2B2B2A292928E9
:10242000272726252524232322212120201F1E1E85
:102430001D1C1C1B1B1A1919181817161615151414
:10244000131312121111100F0F0E0E0D0D0C0C0B99
:102450000A0A090908080707060605050404030314
:102460000202010000290A0050726F62653A3A6464
:102470006F5F7A5F726169736528006465706C6F65
:10248000793A2000203A2050726F62653A3A7365BB
:10249000745F6465706C6F7965640A0020206375F1
:1024A0007272656E745F706F736974696F6E3D00F0
:1024B000206D61783A00206D696E3A004178697349
:1024C000200000809D4300009B430000C8430000A3
:1024D00070C1000020C100000000536176696E6782
:1024E000204457494E204C43442073657474696EF0
:1024F000672066726F6D20454550524F4D0A003D72
:102500003D6F6E53657474696E677353746F726553
:10251000643D3D0053657474696E67732053746F36
:1025200072656400290A002062797465733B206338
:102530007263200053657474696E67732053746FFF
:102540007265642028000A20696E6974207A7072AE
:102550006F62655F7A6F6666736574203D20003D2B
:102560003D6F6E436F6E66696775726174696F6EF9
:1025700053746F7265526561643D3D00454550522C
:102580004F4D20496E697469616C697A65640A000F
:1025900048617264636F6465642044656661756C4C
:1025A000742053657474696E6773204C6F61646541
:1025B0006400454550524F4D206461746173697ADF
:1025C00065206572726F722E0A0053657474696EAD
:1025D0006720566F6C756D65204F6E203A20005352
:1025E000657474696E67205374616E646279204FFC
:1025F0006E203A200053657474696E6720566F6CC4
:10260000756D65203A200053657474696E672052B9
:102610006F746174696F6E203A2000536574746939
:102620006E67205374616E6462792054696D652011
:102630003A200053657474696E67205374616E6448
:102640006279203A200053657474696E6720427283
:10265000696768746E657373203A20004C6F61641B
:10266000696E67204457494E204C4344207365747B
:1026700074696E672066726F6D20454550524F4DEC
:102680000A0044697363617264696E672044574944
:102690004E204C43442073657474696E67206672E3
:1026A0006F6D20454550524F4D202D207365747439
:1026B000696E67732076657273696F6E20696E63E9
:1026C0006F72726563740A0044697363617264694E
:1026D0006E67204457494E204C4344207365747400
:1026E000696E672066726F6D20454550524F4D20D0
:1026F0002D2073697A6520696E636F7272656374E9
:102700000A00290A002062797465733B20637263B2
:1027100020002073746F7265642073657474696E31
:10272000677320726574726965766564202800207D
:102730002863616C63756C6174656429210A0020EB
:10274000213D2000454550524F4D20435243206DBE
:1027500069736D61746368202D202873746F7265CE
:10276000642920002053697A653A2000496E646527
:10277000783A20000000FA430000FA4300002041AC
:1027800000008C420000A0420000A0420000C843AC
:1027900000000243EE020000EE02000064000000B0
:1027A0003C000000454550524F4D205665727369FC
:1027B0006F6E204572726F7200204D61726C696E8F
:1027C0003D563837290A00454550524F4D20766511
:1027D0007273696F6E206D69736D61746368202810
:1027E000454550524F4D3D0024F404D9201BC40CE4
:1027F0005C0E9804C4095F0265077101F405F900D5
:10280000FB04B30048048700C10369005803550066
:1028100003034500BE023A008402310053022A003D
:102820002902250004022000E4011C00C80119004F
:10283000AF0117009801140084011300710110000A
:102840006101100051010E0043010D0036010B0023
:102850002B010B0020010B00150109000C010900E0
:1028600003010800FB000800F3000800EB0007006C
:10287000E4000600DE000600D8000600D2000600D4
:10288000CC000500C7000500C2000500BD00040023
:10289000B9000400B5000400B1000400AD0004005C
:1028A000A9000400A5000300A20003009F0004008B
:1028B0009B000300980003009500020093000300B2
:1028C000900003008D0002008B00030088000200CE
:1028D0008600020084000300810002007F000200E5
:1028E0007D0002007B0002007900020077000100F9
:1028F0007600020074000200720001007100020004
:102900006F0002006D0001006C0002006A0001000F
:102910006900020067000100660001006500010017
:10292000640002006200010061000100600001001B
:102930005F0002005D0001005C0001005B0001001F
:102940005A00010059000100580001005700010021
:102950005600010055000100540001005300000022
:10296000530001005200010051000100500001001D
:102970004F0001004E0000004E0001004D0001001C
:102980004C0001004B0000004B0001004A00010018
:102990004900010048000000480001004700010014
:1029A000460000004600010045000000450001000F
:1029B0004400010043000000430001004200000009
:1029C0004200010041000000410001004000010000
:1029D0003F0000003F0001003E0000003E000100FB
:1029E0003D0000003D0001003C0000003C000000F4
:1029F0003C0001003B0000003B0001003A000000E9
:102A00003A000100390000003900010038000000E0
:102A100038000000380001003700000037000100D6
:102A200036000000360000003600010035000000CE
:102A300035000000350001003400000034000000C3
:102A400034000100330000003300000033000100B7
:102A500032000000320000003200010031000000AE
:102A600031000000310001003000000030000000A3
:102A7000300001002F0000002F0000002F00000098
:102A80002F0001002E0000002E0000002E0001008B
:102A90002D0000002D0000002D0000002D00010081
:102AA0002C0000002C0000002C0000002C00010075
:102AB0002B0000002B0000002B0000002B00010069
:102AC0002A0000002A0000002A0000002A0001005D
:102AD0002900000029000000290000002900000052
:102AE0002900010028000000280000002800000044
:102AF0002800000028000100270000002700000037
:102B00002700000027000000270001002600000029
:102B1000260000002600000026000000260001001C
:102B20002500000025000000250000002500000011
:102B30002500000025000100240000002400000002
:102B400024000000240000002400010023000000F5
:102B500023000000230000002300000023000000E9
:102B600023000000230001002200000022000000DA
:102B700022000000220000002200000022000100CC
:102B800021000000210000002100000021000000C1
:102B900021000000210000002100010020000000B1
:102BA00020000000200000002000000020000000A5
:102BB0002000000020000000200001001F00000095
:102BC0001F0000001F0000001F0000001F00000089
:102BD0001F0000001F0001001E0000001E0000007A
:102BE0001E0000001E00000024F4D43050C38E20CC
:102BF000C2A24017828B7011127A910D816CD90A92
:102C0000A861E108C7586607615143061E4B5D0580
:102C1000C145A7041A411104093D980371393103D4
:102C20004036DB0265339102D4305402802E1D02FF
:102C3000632CEE01752AC501B028A001102781017F
:102C40008F2564012B244B01E0223401AC211F01AC
:102C50008D200D01801FFC00841EED00971DDF00FC
:102C6000B81CD200E61BC600201BBC00641AB200D0
:102C7000B219A8000A19A0006A189900D11791008A
:102C800040178B00B516840031167E00B31579000D
:102C90003A157300C7146F0058146A00EE136600EB
:102CA0008813630025135E00C7125B006C12570087
:102CB00015125400C111510070114F0021114B0029
:102CC000D61049008D104700461044000210420003
:102CD000C00F4000800F3E00420F3C00060F3B003B
:102CE000CB0E3800930E37005C0E3500270E3400F3
:102CF000F30D3200C10D3100900D3000600D2E003B
:102D0000320D2D00050D2C00D90C2B00AE0C290026
:102D1000850C29005C0C2700350C27000E0C2600C2
:102D2000E80B2400C40B2400A00B23007D0B230020
:102D30005A0B2100390B2100180B2000F80A1F0044
:102D4000D90A1E00BB0A1E009D0A1D00800A1D0034
:102D5000630A1C00470A1B002C0A1B00110A1A00F8
:102D6000F7091A00DD091900C4091900AB09190097
:102D7000920917007B091800630917004C09160017
:102D800036091600200916000A091500F508150075
:102D9000E0081400CC081400B8081400A4081400BB
:102DA000900813007D0812006B08130058081200E9
:102DB00046081200340811002308110012081100FF
:102DC00001081100F0071000E0071000D007100004
:102DD000C0071000B0070F00A107100091070E00F8
:102DE00083070F0074070F0065070E0057070E00DA
:102DF00049070E003B070D002E070E0020070D00AF
:102E000013070D0006070D00F9060C00ED060D0076
:102E1000E0060C00D4060C00C8060C00BC060C0032
:102E2000B0060C00A4060B0099060C008D060B00E2
:102E300082060B0077060B006C060B0061060A0089
:102E400057060B004C060A0042060A0038060A0024
:102E50002E060A0024060A001A060A0010060900B7
:102E600007060A00FD050900F4050900EB05090045
:102E7000E2050900D9050900D0050900C7050900C8
:102E8000BE050900B5050800AD050800A505090047
:102E90009C050800940508008C05080084050800BE
:102EA0007C050800740508006C050700650508002E
:102EB0005D050700560508004E0507004705070099
:102EC0004005080038050700310507002A050700FE
:102ED000230507001C050600160507000F0507005F
:102EE0000805060002050700FB040600F5040700BC
:102EF000EE040600E8040600E2040700DB04060016
:102F0000D5040600CF040600C9040600C304060069
:102F1000BD040600B7040600B1040500AC040600B9
:102F2000A6040600A00405009B0406009504050005
:102F3000900406008A04050085040500800406004C
:102F40007A04050075040500700405006B04050093
:102F500066040500610405005C04050057040500D3
:102F6000520405004D040500480405004304050013
:102F70003E0404003A040500350405003004040052
:102F80002C04050027040400230405001E0404008B
:102F90001A04040016040500110404000D040400C2
:102FA000090405000404040000040400FC030400F8
:102FB000F8030400F4030400F0030400EC0304002D
:102FC000E8030400E4030400E0030400DC0304005D
:102FD000D8030400D4030400D0030400CC0304008D
:102FE000C8030300C503030020436F756E742058A7
:102FF0003A0023646566696E652044454641554C38
:10300000545F0000626564004B6420004B6920003F
:103010004B7020005049442074756E696E672064BF
:103020006F6E65002066696E697368656421205063
:10303000757420746865206C617374204B702C204B
:103040004B6920616E64204B6420636F6E73746102
:103050006E74732066726F6D2062656C6F77206985
:103060006E746F20436F6E66696775726174696F05
:103070006E2E680A00504944204175746F74756E55
:103080006500206661696C6564212074696D656FF7
:1030900075740A00504944204175746F74756E65EB
:1030A000004175746F74756E65206661696C656446
:1030B000212054696D656F75742E00206661696CFE
:1030C0006564212054656D70657261747572652048
:1030D000746F6F20686967680A0050494420417521
:1030E000746F74756E6500504944204379636C6554
:1030F000730025532025692F256900204B643A2051
:1031000000204B693A2000204B703A200020436C8D
:10311000617373696320504944200A00204E6F2078
:103120006F76657273686F6F740A002054753A2069
:1031300000204B753A2000206D61783A2000206D08
:10314000696E3A200020643A200020626961733A77
:10315000200048656174696E672E2E2E00207374FE
:103160006172740A00504944204175746F74756E21
:1031700065004175746F74756E65206661696C6574
:1031800064212054656D7065726174757265207478
:103190006F6F20686967682E00206661696C6564DE
:1031A000212054656D706572617475726520746F4D
:1031B0006F20686967680A00504944204175746F40
:1031C00074756E65004265640045310045006265B6
:1031D00064002C2073797374656D2073746F707044
:1031E000656421204865617465725F49443A200036
:1031F0004572723A204D415854454D50004D41584A
:1032000054454D5020747269676765726564004863
:10321000656174696E67204661696C656400486524
:103220006174696E67206661696C6564004D353252
:1032300034004D3131322053687574646F776E00FD
:103240001000C90210012C01400122017001180177
:10325000B0010E01F00104015002FA00B002F000CA
:103260003003E600D003DC009004D2007005C800F3
:10327000A006BE000008B400B009AA00D00BA00050
:10328000600E960060118C000015820020197800F5
:10329000C01D6E00A0226400B0275A00902C500080
:1032A00000314600E0343C0010383200903A2800EB
:1032B000603C1E00A03D1400803E0A00203F00003C
:1032C0004572723A204D494E54454D50004D494E7D
:1032D00054454D5020747269676765726564005487
:1032E0004845524D414C2052554E4157415900548A
:1032F0006865726D616C2052756E6177617900202E
:103300002F002042403A0020403A0020573A002047
:10331000573A007C3C3E5E2B3D3F2F5B5D3B2C2AA9
:10332000225C004D6564696120496E6974204661C4
:10333000696C0053442063617264206F6B0A006FF4
:1033400070656E526F6F74206661696C65640A0007
:10335000766F6C756D652E696E6974206661696C37
:1033600065640A004E6F20534420636172640A0052
:10337000534420636172642072656C656173656497
:103380000A000A4D3234004D3233202573002E0AD4
:10339000006F70656E206661696C65642C204669FB
:1033A0006C653A200046696C652073656C656374D2
:1033B00065640A002053697A653A200046696C65A5
:1033C000206F70656E65643A2000454E4420535569
:1033D00042524F5554494E450A002220706F7300E7
:1033E0002220706172656E743A2200535542524F2A
:1033F0005554494E452043414C4C207461726765D9
:10340000743A220053756263616C6C204F7665726A
:10341000666C6F77004578636565646564206D61EF
:103420007820535542524F5554494E45206465709B
:1034300074683A002E0A0044656C6574696F6E20EA
:103440006661696C65642C2046696C653A200046AB
:10345000696C652064656C657465643A00577269CF
:1034600074696E6720746F2066696C653A20006627
:103470007265736800646F696E67002066696C65C9
:103480003A20004E6F7720002F6175746F25632EF0
:1034900067002020506C616E6E65724275666665CD
:1034A0007242797465733A20002046726565204D3A
:1034B000656D6F72793A200020436F6D70696C659D
:1034C000643A204D617220323020323032360A00A8
:1034D000204C61737420557064617465643A2032C5
:1034E0003032332D30322D3033207C2041757468DA
:1034F0006F723A2054696E794D616368696E6573C5
:1035000033440A004D61726C696E204457372E3483
:103510002E370A0020536F667477617265205265FA
:103520007365740A00205761746368646F67205282
:10353000657365740A002042726F776E206F757430
:103540002052657365740A002045787465726E6157
:103550006C2052657365740A00506F776572557000
:103560000A0073746172740A004739310A47315A8C
:10357000350A4739300A4D38340A4D31303453302A
:103580000A4D3134305330004D31303031006F6BE3
:10359000006572726F722077726974696E67207449
:1035A0006F2066696C650A00446F6E6520736176F2
:1035B000696E672066696C652E0A004D32390045D8
:1035C0006E6473746F707300255320256320256328
:1035D0002025632025630020503A00205A3A00201D
:1035E000593A0020583A00656E6473746F70732006
:1035F0006869743A200000002100240027002A0096
:103600002D003000330001010000040107010A0110
:1036100000002200250028002B002E00310034007D
:1036200002010000050108010B0100002000230039
:10363000260029002C002F003200000100000301A9
:103640000601090105050505070508080808020225
:1036500002020A0A0808040404040101010101012C
:1036600001010303030303030303040707070C0C0F
:103670000C0C0C0C0C0C02020202060606060606D6
:1036800006060B0B0B0B0B0B0B0B0102102020087B
:1036900008102040102040800201020108040201AD
:1036A000010204081020408080402010080402011C
:1036B0008004020180402010080402010804020175
:1036C00001020408102040800102040810204080FC
:1036D00000000A0B02090C0D0E080703040100008C
:1036E00000000000000000000000000000000000DA
:1036F0000000000000000000000000001211100097
:1037000000000000000000000000000000000000B9
:10371000000000000000702600009B1E0000C31582
:103720000000C70D0000F40700004F040000400235
:103730000000260100004572726F72207772697472
:10374000696E6720746F20454550524F4D210A0025
:1037500020746F6F206C6F6E67206578747275735C
:10376000696F6E2070726576656E7465640A0020FC
:10377000636F6C6420657874727573696F6E207006
:10378000726576656E7465640A004D323520500AA4
:103790004D323400526573756D6500554920506196
:1037A0007573650043616E6E6F7420656E7465722B
:1037B000207375626469723A20004E6F204D617407
:1037C0006368203A00436F6E73747261696E206D96
:1037D00065736856616C20006D65736856616C2076
:1037E0000079506E74200078506E7420006D6573FF
:1037F00068506F696E742000446973706C6179421F
:1038000072696768746E657373205365743A20003B
:10381000446973706C61794272696768746E65732C
:1038200073204C43443A20004D32320A4D3231006D
:103830005265667265736800506755700050674442
:103840006F776E0049732046696C652000497320CC
:103850004469722000476F55704469720048617373
:10386000204D656469610046696C656E616D652017
:1038700053656C6563746564004D313030304300CE
:103880004D31303030002046696C616D656E7420BA
:10389000526573706F6E7365204E6F00526573755D
:1038A0006D652059657320647572696E672070724A
:1038B000696E74000A204E6F2046696C616D656EFA
:1038C0007400496E76616C6964204F7074696F6E24
:1038D000004D3530300053746F7265205365747439
:1038E000696E6773004D3939390A4D3238305030BE
:1038F0005331363000424C546F7563682052657303
:103900006574004D3530320A4D35303000496E69EE
:103910007420454550524F4D004D353030005374A2
:103920006F72652053657474696E677300496E4CDD
:10393000616E6743686F696365000A202A2A2A72EC
:1039400065636461742E646174615B305D203D0069
:103950004732380A4731204631303030205A313032
:1039600000556E737570706F72746564204F70745B
:10397000696F6E2053656C6563746564004D363005
:103980003553300A47323858004D36303553310AF6
:1039900054300A4732380A4D36303553320A4732EE
:1039A00038580A473158300A4D3630355333004DB8
:1039B00036303553310A54300A4732380A4D3630E2
:1039C0003553320A473238580A47315830004D369D
:1039D000303553310A473238580A47315830004D94
:1039E00032313153300A4739310A47315A302E309B
:1039F00032350A4739300A4D3231315331004D32B8
:103A0000313153300A4739310A47315A2D302E307F
:103A100032350A4739300A4D32313153310047329D
:103A2000395332004732395331004732365232353A
:103A300035004D343230205330004D343230205375
:103A400031004732380A4732390A4D3530300A4D95
:103A500034323053310A4D313137204C6576656C44
:103A6000696E6720446F6E65004731204631303003
:103A700030205A302E30004732380A473120463144
:103A8000303030205A302E30005A204F6666736531
:103A900074203A202573005A204F6666736574209F
:103AA0003A202573004732385A0A473146313530BB
:103AB000305A302E30004732380A473146313530DF
:103AC000305A302E3000426564204C6576656C209B
:103AD0004F7074696F6E200052657475726E203A73
:103AE00020004D383400473146313030305A302EC6
:103AF00030004732380A473146313030305A302EA4
:103B000030004D616E75616C53657454656D700065
:103B10005A204F6666736574203A20257300526FF1
:103B2000756E64696E6720746F20737465700052DF
:103B30006571756573746564204F6666736574207E
:103B40000053746F70205472696767657265640012
:103B500053746F70204E6F0053746F705072696EA3
:103B6000740048616E646C65204461746120416436
:103B70006A75737420322053657474696E672053BC
:103B8000637265656E200048616E646C65204461F7
:103B90007461205072696E7446696C6520332053DD
:103BA000657474696E672053637265656E200048A2
:103BB000616E646C652044617461205072696E743A
:103BC00046696C6520322053657474696E672053B2
:103BD000637265656E20004D38340048616E646C18
:103BE000652044617461205072696E7446696C6529
:103BF00020506F73740048616E646C65204461747A
:103C000061205072696E7446696C6520507265005F
:103C1000426567696E537769746368003D3D204370
:103C20006865636B6B65793D3D00726563646174C3
:103C30002E61646472203D3D007265636461742E80
:103C4000646174615B305D203D3D0070012C01902A
:103C5000012701B0012201C0011D01F0011801106E
:103C600002130130020E016002090190020401C03A
:103C700002FF000003FA004003F5008003F000D0CB
:103C800003EB002004E6007004E100E004DC0040E7
:103C900005D700C005D2004006CD00D006C8008080
:103CA00007C3003008BE00F008B900C009B400B076
:103CB0000AAF00B00BAA00D00CA500000EA0005067
:103CC0000F9B00C01096005012910000148C00C091
:103CD000158700B0178200B0197D00D01B78000056
:103CE0001E730040206E0090226900F024640040A2
:103CF000275F0090295A00E02B5500102E5000201D
:103D0000304B0010324600E033410090353C00104B
:103D100037370070383200A0392D00B03A2800A0A3
:103D20003B2300603C1E00103D1900903D14001024
:103D30003E0F00703E0A00C03E0500003F000040FC
:103D40003FFBFF803FF6FFC03FF1FF73686F7700D6
:103D5000626567696E0050757267654D6F726500C8
:103D600050617573656400436F6E74696E756500AC
:103D70004C6F61642046696C616D656E74205400FF
:103D80004C6F61642046696C616D656E7400496EAC
:103D9000736572742066696C616D656E7420616E06
:103DA000642073656E64204D3130380A007265738B
:103DB000756D6564004469736D6973730052657352
:103DC000756D696E67002044697363726570616E1A
:103DD00063793A00326E642050726F6265205A3AFD
:103DE00000534C4F57003173742050726F6265203E
:103DF0005A3A00464153540050726F62653A3A7223
:103E0000756E5F7A5F70726F6265006D6561737564
:103E10007265645F7A3A200050726F62696E672043
:103E20004661696C65640A0050726F62696E672052
:103E30004661696C656400205A3A200020593A2096
:103E40000042656420583A2000506F736974696FAE
:103E50006E204E6F7420526561636861626C650A02
:103E600000203A200A00202063757272656E745F2C
:103E7000706F736974696F6E3D005F72656C617419
:103E8000697665290A002C20002C20002C20002CAB
:103E900020002E2E2E280050726F62653A3A707202
:103EA0006F62655F61745F706F696E740050726FEE
:103EB00062653A3A70726F62655F646F776E5F74C5
:103EC0006F5F7A0020547269676765726564206568
:103ED00061726C792E00204E6F207472696767657D
:103EE000722E002050726F6265206661696C21201D
:103EF0002D00FFFFFF290A005D005B002C20002C35
:103F000020002E2E2E2800646F5F686F6D696E672B
:103F10005F6D6F76650043616E6E6F74206F7065C4
:103F20006E207375626469722000204500205A007B
:103F300020590020204D3932205800537465707389
:103F40002070657220756E697400496E76616C69C7
:103F5000642065787472756465720A00220A0055DF
:103F60006E6B6E6F776E20636F6D6D616E643A205D
:103F7000220020453A00205A3A0020593A00583A87
:103F8000006F6B0A00526573656E643A20006E6FB5
:103F900074696669636174696F6E2000544D3344BF
:103FA0002031305350726F56322052656164792E41
:103FB000005072696E74696E672E2E2E0050726901
:103FC0006E742050617573656400524553554D45BC
:103FD000204F5054494F4E533A0048656174696E02
:103FE000672E2E2E000000436C69636B20746F20D7
:103FF00068656174000000526573756D696E672EA7
:104000002E2E00000050757267696E672E2E2E00EE
:1040100000004C6F6164696E672E2E2E000000490F
:104020006E7365727420616E6420436C69636B000B
:104030000000436C69636B20746F20636F6E74695A
:104040006E7565000000456A656374696E672E2EA3
:104050002E000000506C6561736520776169742ED5
:104060002E2E0000005061726B696E672E2E2E009E
:10407000000050617573654D73673D0076019001D6
:1040800011241FBECFEFD1E2DEBFCDBF00E00CBFD9
:1040900084B78093FA1814BE0FB6F894A89580914F
:1040A0006000886180936000109260000FBE16E08F
:1040B000A0E0B2E0EEE3F3E802E00BBF02C007903D
:1040C0000D92AE36B107D9F728E1AEE6B6E001C0F1
:1040D0001D92AA3FB207E1F710E2CFE3D0E200E081
:1040E00006C021970109802FFE010F94CC3DCE33ED
:1040F000D10780E00807A9F70F94C8290D948D41D6
:104100000C940000CF93DF93C091C714D091C814D2
:1041100081E0CE31D105E4F020E030E040E05FE323
:104120006091C3147091C4148091C5149091C61409
:104130000F94D53D0F94413F6C1B7D0B77FF03C05F
:1041400071956195710981E0633071050CF080E033
:10415000DF91CF910895CF93DF93DB01F9019C911B
:104160009130C1F0943080F094509C938830D1F419
:1041700080819181009771F0019791838083480F2E
:10418000591FEA01188206C08C3539F49C5F9C9354
:10419000943041F4DF91CF9108958B3339F781E06A
:1041A0008C93F8CF20813181B9016F5F7F4F71838C
:1041B0006083420F531FEA018883808191818F358C
:1041C00091056CF7E7CF0F931F9381E000911817CB
:1041D0001091191720911A1730911B17409114173D
:1041E000509115176091161770911717041715073E
:1041F0002607370708F480E01F910F91089520915A
:104200006607833021F425FD0CC024FD0CC030E08E
:10421000A90102C0559547958A95E2F7CA018170B8
:10422000089581E0089580E00895682F70E090E09F
:1042300080E00F94F8362091DE073091DF0740913F
:10424000E0075091E1070F9457372091D60730913E
:10425000D7074091D8075091D9070F94D53D0895BD
:10426000682F70E090E080E00F94F8362091DA0734
:104270003091DB074091DC075091DD070F945737F1
:104280002091D2073091D3074091D4075091D507A0
:104290000F94D53D08958091D10781110EC02091D2
:1042A0001102309112022150310981E04091F31442
:1042B0005091F414421753070CF080E00895909148
:1042C000591210925912923081F0943089F0913045
:1042D000A9F4882319F0813021F008959093D60D28
:1042E000089582E08093D60D08951092D70D089519
:1042F00083E49CE19093010A8093000A0895269A32
:104300002E9A089580916F07909170072FEF3FEFDD
:10431000981751F0E92FF0E0E159F84F228130E091
:104320009F5F9F7390937007C9010895AB01BC0113
:10433000409318175093191760931A1770931B170F
:1043400080E898E10C946C8FEF92FF920F931F938B
:10435000CF937C010091690710916A07C0E0F701D3
:10436000EC0FF11D6081662351F0062E000C770BD7
:10437000C8010F942341892B49F4CF5FF0CF80E02F
:10438000CF911F910F91FF90EF90089581E0F8CFAA
:10439000682F880F770B8091690790916A070F94B7
:1043A0002341FC0181E0309709F480E0309781F0EF
:1043B000918120ED290F2A3030F09E3251F4928104
:1043C00090539A3098F43196F0936107E093600728
:1043D00008959D3211F09B3249F4928120ED290F0E
:1043E0002A3088F39E3211F49381EACFF0E0E0E0C6
:1043F000EBCF0E94C821882341F081E02091600723
:1044000030916107232B09F480E008950F931F93E7
:10441000CF93DF9300D01F92CDB7DEB79C010BEB9B
:104420001EE090E1E8E5F2E0D80101900D929A9546
:10443000E1F7F9012081318142815381F8016085E2
:104440007185828593850F94D53DF80160877187CA
:104450008287938780E090E0A0EAB0E489839A8322
:10446000AB83BC83CE0101960E94ECD70F900F90D6
:104470000F900F90DF91CF911F910F9108952F9280
:104480003F924F925F926F927F928F929F92AF92E4
:10449000BF92CF92DF92EF92FF921F93CF93DF9361
:1044A000CDB7DEB72C970FB6F894DEBF0FBECDBFE9
:1044B0007A011901DC012D913D914D915C912D8383
:1044C0003E834F835887FB01408051806280738018
:1044D0008090580290905902A0905A02B0905B02CE
:1044E000A50194016D817E818F8198850F94F136AD
:1044F00081110EC011E0A301920160915C027091E4
:104500005D0280915E0290915F020F94F1368111FD
:1045100010E0D1012D913D914D915C9129873A8711
:104520004B875C87F701C080D180E280F3802091C7
:104530000602309107024091080250910902C7011A
:10454000B6010F94F136882309F44EC0C0920602DA
:10455000D0920702E0920802F09209028091640270
:1045600090916502A0916602B091670240915C0251
:1045700050915D0260915E0270915F028092BB0E6D
:104580009092BC0EA092BD0EB092BE0E4093BF0E94
:104590005093C00E6093C10E7093C20EC092C30EB2
:1045A000D092C40EE092C50EF092C60E8093C70E54
:1045B0009093C80EA093C90EB093CA0E20E030E0CD
:1045C00040E05FE360915C0F70915D0F80915E0F42
:1045D00090915F0F0F94573769837A838B839C8305
:1045E000CE0101960E94ECD72D813E814F815885E6
:1045F0002093BB0E3093BC0E4093BD0E5093BE0E65
:104600004092BF0E5092C00E6092C10E7092C20EC8
:10461000D1012D913D914D915C916091C70E7091AA
:10462000C80E8091C90E9091CA0E0F94D53D60932B
:10463000C70E7093C80E8093C90E9093CA0E1111C5
:104640002FC020E030E0A90169857A858B859C85A3
:104650000F94F136811133C060E070E088EC92E491
:1046600069837A838B839C83CE0101960E94ECD769
:104670002C960FB6F894DEBF0FBECDBFDF91CF9161
:104680001F91FF90EF90DF90CF90BF90AF909F90E1
:104690008F907F906F905F904F903F902F900895F4
:1046A0002AEF3EE74AE25FE36091600F7091610F8D
:1046B0008091620F9091630F0F945737D1CF60E0D4
:1046C00070E080EA91E4CCCF80916007909161071F
:1046D000009731F04AE050E070E060E00D940C3556
:1046E00060E070E0CB010895CF93DF9300D01F927C
:1046F000CDB7DEB780E090E0A0EAB0E489839A838A
:10470000AB83BC8361E0CE0101960E949BCC0F90ED
:104710000F900F900F90DF91CF9108950F931F93FB
:10472000CF93DF9300D000D01F921F92CDB7DEB79A
:104730008B01FC0123A5211102C00F9438201D829A
:104740001E821F82188620E030E040E05FE3609127
:1047500060027091610280916202909163020F94F5
:10476000D53D69837A838B839C839E012B5F3F4F6A
:10477000AE014F5F5F4F6CE572E088E592E00E940A
:104780003F221D821E821F82188620E030E040E01A
:104790005FE3F80160857185828593850F94D53D2F
:1047A00069837A838B839C83B8016C5F7F4F9E0102
:1047B0002B5F3F4FAE014F5F5F4FC8010E943F220A
:1047C00028960FB6F894DEBF0FBECDBFDF91CF9114
:1047D0001F910F9108958091600790916107009754
:1047E00031F04AE050E070E060E00D94DE3360E0CC
:1047F00070E0CB010895CF93DF93EB010E94F92184
:10480000882319F00E94EB23EB01CE01DF91CF91B9
:1048100008950E94EB2397FD0CC00E94EB236F3F8D
:1048200071058105910509F034F40E94EB23862F70
:10483000089580E008958FEF0895CF93C62F0E94CA
:10484000F921882319F0CF910C9409248C2FCF9152
:1048500008958091600790916107892B41F00E9433
:10486000092491E0811101C090E0892F089591E021
:10487000FCCFCF93DF93C82FD62F0E94F921882336
:1048800021F0DF91CF910C9429248C2F0E94C82114
:10489000811101C08D2FDF91CF9108950E94EB23EC
:1048A000CB010895CF93DF93EB010E94F921882378
:1048B00021F0DF91CF910C944E24CE01DF91CF9166
:1048C00008950F931F93CF93809160079091610794
:1048D000009709F1FC018F01C1912C2F2F7DA1F0D0
:1048E000C53431F0C53621F0C83511F0C83799F715
:1048F000F801108270E060E00F948032F801C0830C
:10490000CF911F910F91089570E060E0CF911F91BA
:104910000F910D94803260E070E0CB01F1CFCF9227
:10492000DF92EF92FF926A017B010E94F9218823B6
:1049300031F0FF90EF90DF90CF900C946124C7018D
:10494000B601FF90EF90DF90CF9008950D94111471
:104950000F931F93CF9310926807109267072FE36E
:1049600020936E0710926D0710926C0710926B07E0
:104970009C01F90190812F5F3F4F9032D1F39E341B
:10498000C9F4818190ED980F9A3020F08D3211F0AA
:104990008B3281F432969F012F5F3F4F808180538D
:1049A0008A3008F475C09F012F5F3F4F80818032AD
:1049B00009F470C0F0937C0FE0937B0F8F010F5FC1
:1049C0001F4FC0816AE270E0C8010F942341009735
:1049D00031F0FC01319780818032E1F31182CD34D6
:1049E00029F0C43519F0C73409F04EC0F8018081B0
:1049F0000F5F1F4F8032D1F380538A3008F044C0DC
:104A0000C0936E0730E020E04AE0DF011196429F3C
:104A1000C001439F900D11249C01205331098081D6
:104A2000280F311D87FD3A95818190ED980F9A30BE
:104A300098F130936D0720936C078E3261F43296B3
:104A400090E04AE0DF0131968C9150ED580F5A30DA
:104A500028F190936B07FD01119680818032D9F384
:104A6000F0936A07E0936907CD3441F52E313105A3
:104A700039F0D0F42731310519F02C313105F1F43A
:104A8000F0936807E0936707CF911F910F91089506
:104A9000F90181CFF90187CFFD01B7CF949F800D38
:104AA000112490ED980FCECF2537310538F02737F8
:104AB000310530F3203A83E0380711F350E040E04D
:104AC000CF0101966081662309F45AC0613291F4E6
:104AD000CD3481F42032310569F4909368078093D6
:104AE000670763E270E00F942341009769F2FC01CD
:104AF0001082CACFFC01DF018D91803271F090ED00
:104B0000980F9A3008F18E3251F4918190539A3077
:104B1000D8F041155105E1F414C0FD01ECCF8D3200
:104B200011F08B3259F4918160ED690F6A3060F0B9
:104B30009E3221F4928190539A3030F04115510504
:104B400019F4AF014150510981548A3108F4B8CFAA
:104B5000DF01FD018D91882309F4B2CF90ED980F0C
:104B60009A30B8F393ED980F923098F38B3289F323
:104B7000CF0101966081603209F0A2CFFC01F8CF2D
:104B800050936807409367077FCF81E08093F614C6
:104B90000895FC016591759185919491089580E047
:104BA0000C94EBCC9B01AC01485F5F4FBC016C5F88
:104BB0007F4F0C943F222F923F924F925F926F92C1
:104BC0007F928F929F92AF92BF92CF92DF92EF929D
:104BD000FF920F931F93CF93DF93CDB7DEB7A697C6
:104BE0000FB6F894DEBF0FBECDBF8C011B015A87F4
:104BF0004987409058025090590260905A02709034
:104C00005B0280905C0290905D02A0905E02B0908A
:104C10005F02DB018D919D910D90BC91A02D8B8B3E
:104C20009C8BAD8BBE8B9C01AD01C301B2010F9477
:104C3000D43D6B017C01D10114968D919D910D9015
:104C4000BC91A02D8F8B988FA98FBA8F9C01AD013D
:104C5000C501B4010F94D43D6B8F7C8F8D8F9E8FD7
:104C6000A985BA858D919D910D90BC91A02D8B87C2
:104C70009C87AD87BE879C01AD01C301B2010F9433
:104C8000D43D6F8F78A389A39AA3A985BA8514967A
:104C90008D919D910D90BC91A02D8F87988BA98BA4
:104CA000BA8B9C01AD01C501B4010F94D43D6BA337
:104CB0007CA38DA39EA3A7019601C701B6010F9403
:104CC00057376B017C012B8D3C8D4D8D5E8DCA015C
:104CD000B9010F9457379B01AC01C701B6010F947E
:104CE000D53D4B015C012B893C894D895E896B85E3
:104CF0007C858D859E850F94D43D2B013C012F89A9
:104D0000388D498D5A8D6F85788989899A890F9454
:104D1000D43D6B017C01A3019201C301B2010F9448
:104D200057372B013C01A7019601C701B6010F942B
:104D300057379B01AC01C301B2010F94D53D0F94CD
:104D400083406B017C012F8D38A149A15AA1CA0172
:104D5000B9010F9457372B013C012BA13CA14DA168
:104D60005EA1CA01B9010F9457379B01AC01C30181
:104D7000B2010F94D53D9B01AC01C501B4010F9464
:104D800035401816B4F520E030E0A901C701B6019E
:104D90000F94354087FF2AC0C701B601905820E024
:104DA00030E040EA50E40F943540181614F5A101A4
:104DB00069857A85C8010E94DB25A6960FB6F8940E
:104DC000DEBF0FBECDBFDF91CF911F910F91FF903E
:104DD000EF90DF90CF90BF90AF909F908F907F909B
:104DE0006F905F904F903F902F900895C701B6014C
:104DF000D6CF20E030E040E050E4C501B4010F948C
:104E00003540181624F4B101C8010E948E2319827E
:104E10001A821B821C82BE016F5F7F4FC1010E94FC
:104E2000D2252DEC3CEC4CEC5CE3C701B6010F94B1
:104E300057379B01AC01F8016081718182819381B8
:104E40000F9457376D837E838F839887D8019B9605
:104E50008C919B978823C9F02AE939E949E95FE3F6
:104E600014966D917D918D919C9117970F94573762
:104E700069837A838B839C83BE016F5F7F4F8BEB4B
:104E80009EE00E94D225F80113A6BE016B5F7F4F02
:104E900089859A850E94D22590CF3F924F925F924A
:104EA0006F927F928F929F92AF92BF92CF92DF923A
:104EB000EF92FF920F931F93CF93DF93CDB7DEB79F
:104EC0006C970FB6F894DEBF0FBECDBF8C01DB012F
:104ED0008C91A42EA80EB4E0BA1508F4EAC0FB0128
:104EE000B180322E3B0CB31508F4E3C0EB2DF0E09B
:104EF000E95AF84FE081F0E0082E02C0F595E795F9
:104F00000A94E2F7E0FFD5C0E32DF0E0E95AF84F4C
:104F1000E081F0E00A2C02C0F595E7950A94E2F7EB
:104F2000E0FFC7C0822E942E0E9430216B017C01CD
:104F3000692D660F770B072E000C880B990B0F94C9
:104F4000F8362B013C01AC019B01C701B6010F945F
:104F5000D53D6B017C01CD86DE86EF86F88A8A2DF1
:104F60000E943021A30192010F94D43D698F7A8F62
:104F70008B8F9C8F69837A838B839C838B2D0E947C
:104F800015212B013C01682D660F770B072E000CB5
:104F9000880B990B0F94F8364B015C01AC019B0117
:104FA000C301B2010F94D53D2B013C01498A5A8AB5
:104FB0006B8A7C8A832D0E941521A50194010F9490
:104FC000D43D4B015C018D829E82AF82B886F80190
:104FD00080859185A285B38589879A87AB87BC87B1
:104FE0008D8B9E8BAF8BB88F20E030E040E151EC91
:104FF000C301B2010F94F13687FF73C080E090E0E7
:10500000A0E1B1EC898B9A8BAB8BBC8B20E030E0BC
:1050100040E151ECC501B4010F94F13687FF71C036
:1050200080E090E0A0E1B1EC8D839E83AF83B887F0
:1050300020E030E040E651ECC701B6010F94F136B4
:1050400087FF6FC080E090E0A0E6B1EC8D879E877F
:10505000AF87B88B20E030E040E651EC698D7A8D67
:105060008B8D9C8D0F94F13687FF6BC080E090E0B4
:10507000A0E6B1EC89839A83AB83BC83BE016F5EEB
:105080007F4FCE010D960E94DCB0882391F0BE01C7
:105090006B5F7F4FCE0101960E94DCB0882349F000
:1050A000AE014F5F5F4FBE01635F7F4FC8010E943B
:1050B000DB256C960FB6F894DEBF0FBECDBFDF9137
:1050C000CF911F910F91FF90EF90DF90CF90BF9005
:1050D000AF909F908F907F906F905F904F903F9098
:1050E000089520E030E84AE953E4C301B2010F9487
:1050F000354018160CF08ACF80E090E8AAE9B3E4B6
:1051000081CF20E030E84AE953E4C501B4010F94AF
:10511000354018160CF08CCF80E090E8AAE9B3E493
:1051200083CF20E030E04DE953E4C701B6010F948E
:10513000354018160CF08ECF80E090E0ADE9B3E476
:1051400085CF20E030E04DE953E4698D7A8D8B8D79
:105150009C8D0F94354018160CF090CF80E090E0B5
:10516000ADE9B3E487CFCF92DF92EF92FF92CF9376
:105170006B017C01C42F8091D90D8F5F09F4B5C0FC
:105180008093D90D8091D90D8093880E20E030E076
:1051900040E752E4609154027091550280915602AA
:1051A000909157020F9457370F94483F7093EB0D2F
:1051B0006093EA0DC092EC0DD092ED0DE092EE0DF1
:1051C000F092EF0D8091870EC0FB80F98093870EDF
:1051D0008CE0E5E3F9E0A0EFBDE001900D928A9547
:1051E000E1F78CE0E4ECF7E0ACEFBDE001900D926C
:1051F0008A95E1F78091EE079091870E80FB94F9F4
:105200009093870E882381F08091EA079091EB07B5
:10521000A091EC07B091ED078093080E9093090ED2
:10522000A0930A0EB0930B0E8091F3149091F41496
:1052300090930D0E80930C0E8091C7149091C8141A
:1052400090930F0E80930E0E8091890E8093100E16
:105250008091870E9091B10E90FB83F98093870E19
:105260008091B20E9091B30EA091B40EB091B50E94
:105270008093110E9093120EA093130EB093140E00
:105280000E9469B46093820E7093830E8093840EA3
:105290009093850E809166078093860E9091BA0E4A
:1052A0008091870E93FB81F99091D10790FB82F951
:1052B0008093870E80E00E9493F140E050E0BA01B5
:1052C00081E297E10E946C8F40EB50E069ED7DE058
:1052D00081E297E10E94009081E297E1CF91FF90F7
:1052E000EF90DF90CF900C942D9381E049CF4F92B7
:1052F0005F926F927F928F929F92AF92BF92CF9266
:10530000DF92EF92FF920F931F93CF93DF9300D022
:105310001F92CDB7DEB719821A821B821C8297EDCD
:10532000A92E93E0B92ECE0101964C012BEBC22E93
:105330002EE0D22E38E5E32E32E0F32E10E000E02E
:10534000F50181915F010E94F921F40181934F01E0
:10535000882309F4C1C00E9461242B013C01802FE5
:105360000E94FF20882309F4A7C0F7012081318122
:1053700042815381C301B2010F94D53DF601608390
:105380007183828393830F5F1F4FF4E0CF0ED11C94
:1053900084E0E80EF11C0330110591F685E40E94CB
:1053A000F9218C83882309F4A2C00E9461246B0137
:1053B0007C0183E00E94FF20882371F02091640229
:1053C000309165024091660250916702C701B601B3
:1053D0000F94D53D6B017C01C092C70ED092C80ED0
:1053E000E092C90EF092CA0E80918D0E882391F141
:1053F00080911C1782FF2EC087FD2CC08C818823D2
:1054000049F18981811103C08A81882319F12DEC2A
:105410003CEC4CE45DE36091E20D7091E30D809112
:10542000E40D9091E50D0F94D53D9B01AC01609189
:1054300060027091610280916202909163020F9408
:10544000354018163CF440E060E070E080E090E405
:105450000E94B32840E050E0BA0186E40E948F2405
:1054600020E030E0A9010F943540181684F40E9422
:10547000612420E030E040E752E40F94CF3E609397
:1054800054027093550280935602909357020F90E6
:105490000F900F900F90DF91CF911F910F91FF9080
:1054A000EF90DF90CF90BF90AF909F908F907F90C4
:1054B0006F905F904F900895F801EE0FFF1FEE0F71
:1054C000FF1FE358F04F2081318142815381C30196
:1054D000B2010F94D43D52CFF70180819181A28116
:1054E000B381F60180839183A283B3834CCF8091F3
:1054F000640290916502A0916602B0916702809368
:10550000C70E9093C80EA093C90EB093CA0E6CCF6D
:10551000E9EDFDE080EBDF011D928A95E9F7089542
:1055200080918D0E811104C00E94882A0C94CEF1C6
:1055300080911C1782FF09C087FD07C040E060E032
:1055400070E080E090E40C94B32808958091D90D28
:10555000882361F09091880E891308C080911C17F0
:1055600084FF04C085E19EE00C942AF180E0089558
:10557000FC01238121110C942D930895CF93DF9387
:10558000C091F314D091F414209729F16091EF1495
:105590007091F0148091F1149091F2140F94413FA6
:1055A0006E5F7F4F24976C177D07ACF470930308F0
:1055B000609302080E94B2F0605A75418F4F9F4F6E
:1055C0006093040870930508809306089093070879
:1055D000DF91CF910895109204081092050810925F
:1055E000060810920708F4CFCF92DF92EF92FF9255
:1055F0001F93CF93DF93182F662351F01092560715
:1056000010925207109253071092540710925507A8
:105610000E94B2F06B017C01809152079091530778
:10562000A0915407B0915507A7019601281B390B8B
:105630004A0B5B0BDA01C901B7FD3DC0209156074B
:1056400017FD13C0412F012E000C550B4C5F5F4F0F
:10565000822F022E000C990B4817590764F184EF32
:1056600091E0A0E0B0E0211724F488EE93E0A0E000
:10567000B0E08C0D9D1DAE1DBF1D80935207909311
:105680005307A0935407B09355072170C22F30E001
:10569000D32F84E28C9FB0018D9F700D7C1B112451
:1056A00060597C4F82E390E00E9453D88091560766
:1056B0008F5F80935607DF91CF911F91FF90EF90FE
:1056C000DF90CF900895CF93DF93C091C714D0910E
:1056D000C814209729F16091C3147091C41480916B
:1056E000C5149091C6140F94413F6E5F7F4F24976D
:1056F0006C177D07ACF47093F9076093F8070E946C
:10570000B2F0605E70448D4F9F4F6093FA077093C4
:10571000FB078093FC079093FD07DF91CF910895DD
:105720001092FA071092FB071092FC071092FD07E7
:10573000F4CFCF93DF939091BA0E93FD3CC0C82F66
:1057400083E50E94F921D82F882371F10E944E240D
:105750008C3891059CF59093C8148093C7140E94CF
:10576000632B6091C7147091C814072E000C880B2E
:10577000990B0F94F8362091C3143091C4144091C2
:10578000C5145091C6140F94354060E01816CCF43F
:1057900087EC99E10E94BBB8CC2369F060E08D2FC3
:1057A000DF91CF910C942297CC2329F082E50E94BF
:1057B000F9218111CBCFDF91CF9108958CE890E052
:1057C000CACF88EB99E1E6CFCF93C1E020E030E08B
:1057D000A9016091DA077091DB078091DC07909155
:1057E000DD070F94F136811101C0C0E08C2FCF91FD
:1057F00008954F925F926F927F928F929F92AF9295
:10580000BF92CF92DF92EF92FF920F931F93CF93AD
:10581000DF93EC012091D2073091D3074091D40758
:105820005091D507688179818A819B810F94D43DFD
:105830006B017C012091D6073091D7074091D807A2
:105840005091D9076C817D818E819F810F94D43DC9
:105850004B015C01A701960160914A0770914B07CB
:1058600080914C0790914D070F94F136882309F4ED
:1058700050C0C0924A07D0924B07E0924C07F0927A
:105880004D072091420730914307409144075091C2
:105890004507C701B6010F9457372B013C010F9400
:1058A000773F6B017C0120E030E0A9010F94F136D5
:1058B00087FD70C020E030E040E450E4C701B6014D
:1058C0000F94354018162CF4C12CD12CC0E4EC2ECA
:1058D000FE2CA7019601C301B2010F94D43D609341
:1058E0003A0770933B0780933C0790933D07C701AD
:1058F000B6010F94413F60933807062E000C770BDA
:105900006F5F7F4F6430710514F064E070E0609366
:105910003607D091340710913807A50194016091A2
:105920004E0770914F0780915007909151070F9447
:10593000F136811133C0D11381C020911C07309101
:105940001D0740911E0750911F0760913A07709103
:105950003B0780913C0790913D070F94573720916A
:1059600020073091210740912207509123070F947F
:10597000D53DDF91CF911F910F91FF90EF90DF9078
:10598000CF90BF90AF909F908F907F906F905F90DF
:105990004F900895C12CD12C76019BCF80924E0759
:1059A00090924F07A0925007B0925107209146075E
:1059B000309147074091480750914907C501B4010C
:1059C0000F9457374B015C010F94773F6B017C01BB
:1059D00020E030E0A9010F94F13687FDF3C020E00C
:1059E00030E040E450E4C701B6010F94354018168A
:1059F0002CF4C12CD12CB0E4EB2EFE2CA701960187
:105A0000C501B4010F94D43D60933E0770933F07E6
:105A10008093400790934107C701B6010F94413F1F
:105A200060933907062E000C770B6F5F7F4F643051
:105A3000710514F064E070E060933707C091390796
:105A4000D11305C0809135078C1709F470C080917F
:105A500038079091390790933507809334070C2EBF
:105A6000000CDD0B25E01203C0011124FC01EC0F3A
:105A7000FD1FEE0FFF1FEE0FFF1FE553F14F2081BB
:105A80003181428153812093300730933107409315
:105A900032075093330700913707002E000C110B8B
:105AA000FC01E00FF11FEE0FFF1FEE0FFF1FE5538C
:105AB000F14F60817181828193810F94D43D609315
:105AC0002C0770932D0780932E0790932F0720911A
:105AD000360735E02303F0011124CE0FDF1FCC0F72
